:100000000C9471020C948E020C948E020C948E024D
:100010000C948E020C948E020C948E020C948E0220
:100020000C948E020C948E020C948E020C948E0210
:100030000C948E020C948E020C94FA020C948E0294
:100040000C948E020C948E020C9485030C948E02F8
:100050000C948E020C948E020C948E020C948E02E0
:100060000C94A80D0C948E02E80EED0EED0EED0E24
:10007000ED0EED0EED0EED0ED90DED0EED0EED0EBD
:10008000ED0EED0EED0EED0ED90DED0EED0EED0EAD
:10009000ED0EED0EED0EED0EE30DED0EED0EED0E93
:1000A000ED0EED0EED0EED0E100EED0EED0EED0E55
:1000B000ED0EED0EED0EED0EE30DED0EED0EED0E73
:1000C000ED0EED0EED0EED0E160EED0EED0EED0E2F
:1000D000ED0EED0EED0EED0E1C0EED0EED0EED0E19
:1000E000ED0EED0EED0EED0E320EED0EED0EED0EF3
:1000F000ED0EED0EED0EED0E620EED0EED0EED0EB3
:10010000ED0EED0EED0EED0E220EED0EED0EED0EE2
:10011000ED0EED0EED0EED0E400EED0EED0EED0EB4
:10012000ED0EED0EED0EED0E650EED0EED0EED0E7F
:10013000ED0EED0EED0EED0E650EED0EED0EED0E6F
:10014000ED0EED0EED0EED0E650EED0EED0EED0E5F
:10015000ED0EED0EED0EED0E650EED0EED0EED0E4F
:10016000ED0EED0EED0EED0E6E0EED0EED0EED0E36
:10017000ED0EED0EED0EED0EAA0EED0EED0EED0EEA
:10018000ED0EED0EED0EED0E6E0EED0EED0EED0E16
:10019000ED0EED0EED0EED0EAA0EED0EED0EED0ECA
:1001A000ED0EED0EED0EED0E8A0EED0EED0EED0EDA
:1001B000ED0EED0EED0EED0EAE0EED0EED0EED0EA6
:1001C000ED0EED0EED0EED0EAE0EED0EED0EED0E96
:1001D000ED0EED0EED0EED0EC40EED0EED0EED0E70
:1001E000ED0EED0EED0EED0EE20EED0EED0EED0E42
:1001F000ED0EED0EED0EED0EE20EED0EED0EED0E32
:10020000ED0EED0EED0EED0EED0EED0EED0EED0E16
:10021000ED0EED0EED0EED0EED0EED0EED0EED0E06
:10022000ED0EED0EED0EED0EED0EED0EED0EED0EF6
:10023000ED0EED0EED0EED0EED0EED0EED0EED0EE6
:10024000ED0EED0EED0EED0EED0EED0EED0EED0ED6
:10025000ED0EED0EED0EED0EED0E64656275673A76
:100260002000303132333435363738394142434457
:1002700045460048454C4C4F20574F524C440D0AC0
:10028000006D7075363035303A20007365745F63E9
:100290006C6F636B5F736F757263653A2073756320
:1002A000636573730D0A007365745F636C6F636BD2
:1002B0005F736F757263653A206661696C65640D82
:1002C0000A007365745F66756C6C5F7363616C655F
:1002D0005F6779726F5F72616E67653A20737563ED
:1002E000636573730D0A007365745F66756C6C5F8C
:1002F0007363616C655F6779726F5F72616E67656A
:100300003A206661696C65640D0A007365745F6606
:10031000756C6C5F7363616C655F616363656C5F73
:1003200072616E67653A20737563636573730D0A56
:10033000007365745F66756C6C5F7363616C655F99
:10034000616363656C5F72616E67653A20666169BF
:100350006C65640D0A007365745F736C6565705F2E
:10036000656E61626C65643A20737563636573736F
:100370000D0A007365745F736C6565705F656E610F
:10038000626C65643A206661696C65640D0A006799
:1003900065745F6465766963655F69643A202563A7
:1003A0000D0A006932635F6472697665723A2000F3
:1003B0004932432028307800292072656164696ED3
:1003C00067200025640020627974652873292066FF
:1003D000726F6D203078002E2E2E0020000D0A72D4
:1003E00065616442797465733A2074696D656F75EF
:1003F00074206F6363757265643A20282564296DE3
:10040000730D0A0020646F6E652E2028002564009D
:100410002072656164290D0A004932432028307832
:100420000029207772697474696E67200025640062
:10043000206279746528732920746F203078002E2B
:100440002E2E002000207374617475733A20256489
:100450000020646F6E652E0D0A006D61696E3A2092
:1004600000696E7075743D25630D0A0062727573C4
:10047000686C6573732067696D62616C2073746169
:10048000727465642E2E2E0D0A00696D755F696E9B
:1004900069740D0A00696D755F746573740D0A00E7
:1004A0007374617274696E67206C6F6F702E2E2E7C
:1004B0000D0A00612F672F6D3A0900256409002598
:1004C00064090025640900256409002564090025E4
:1004D0006409002564090025640900256409000DEC
:1004E0000A0011241FBECFEFD8E0DEBFCDBF11E060
:1004F000A0E0B1E0ECECF8E302C005900D92A4316D
:10050000B107D9F722E0A4E1B1E001C01D92AE3AF3
:10051000B207E1F70E945B140C94641C0C94000079
:10052000CF93DF93CDB7DEB784E490E024E430E0EE
:10053000F90120812260FC01208387E490E02DE70F
:10054000FC01208385E490E025E430E0F90120817E
:100550002360FC0120838EE690E022E0FC012083F2
:10056000DF91CF910895CF93DF93CDB7DEB7809120
:10057000340290913502A0913602B0913702BC014D
:10058000CD01DF91CF910895CF93DF93CDB7DEB743
:1005900028970FB6F894DEBF0FBECDBF6D837E8364
:1005A0008F8398870E94B3029B01AC018D819E814D
:1005B000AF81B885820F931FA41FB51F89839A83CB
:1005C000AB83BC830E94B3029B01AC0189819A81F9
:1005D000AB81BC8182179307A407B50708F401C05B
:1005E000F1CF28960FB6F894DEBF0FBECDBFDF91D6
:1005F000CF9108951F920F9200905F000F921124E7
:100600008F939F93AF93BF93CF93DF93CDB7DEB715
:100610008091340290913502A0913602B091370258
:100620000196A11DB11D8093340290933502A093D1
:100630003602B0933702DF91CF91BF91AF919F9176
:100640008F910F9000925F000F901F901895CF939D
:10065000DF93CDB7DEB78091340290913502A0913F
:100660003602B09137020196A11DB11D809334026C
:1006700090933502A0933602B0933702DF91CF9169
:100680000895CF93DF9300D01F92CDB7DEB79B8341
:100690008A8383E3898385EC90E02981222F30E0EF
:1006A000232F330F330BFC01208384EC90E029814E
:1006B000FC01208381EC90E021EC30E0F901208105
:1006C0002068FC01208381EC90E021EC30E0F9010E
:1006D00020812861FC01208382EC90E022EC30E054
:1006E000F90120812660FC0120838A819B810E9480
:1006F000C30360E070E087EE93E00E9411180F9052
:100700000F900F90DF91CF9108951F920F9200905C
:100710005F000F9211242F933F934F935F936F933A
:100720007F938F939F93AF93BF93EF93FF93CF9359
:10073000DF931F92CDB7DEB786EC90E0FC0180819D
:10074000898380913A0290913B02009739F0209181
:100750003A0230913B028981F90109950F90DF91AE
:10076000CF91FF91EF91BF91AF919F918F917F9129
:100770006F915F914F913F912F910F9000925F0089
:100780000F901F901895CF93DF9300D0CDB7DEB7B1
:100790009A83898389819A8190933B0280933A025C
:1007A0000F900F90DF91CF910895CF93DF9300D0FA
:1007B000CDB7DEB79A83898389819A819093390274
:1007C000809338020F900F90DF91CF910895CF93CF
:1007D000DF9300D01F92CDB7DEB789837B836A8316
:1007E00089810E94390480913802909139020097E2
:1007F00039F020913802309139028981F901099547
:1008000080E090E00F900F900F90DF91CF910895CE
:10081000CF93DF9300D01F92CDB7DEB79B838A833F
:100820008A819B81FC01808189831AC0000080EC51
:1008300090E0FC018081882F90E0807299270097DA
:10084000B1F386EC90E02981FC0120838A819B81B1
:1008500001969B838A838A819B81FC0180818983A5
:100860008981882319F70F900F900F90DF91CF9116
:100870000895CF93DF931F92CDB7DEB78983000031
:1008800080EC90E0FC018081882F90E080729927B5
:100890000097B1F386EC90E02981FC0120830F9052
:1008A000DF91CF910895CF93DF93CDB7DEB728972F
:1008B0000FB6F894DEBF0FBECDBF888788858295BE
:1008C0008F70882F90E08E599D4F9A8389838981FC
:1008D0009A81FC0184918B838B818C83000080EC56
:1008E00090E0FC018081882F90E08072992700972A
:1008F000B1F386EC90E02C81FC0120838885882F61
:1009000090E08F7099278E599D4F9E838D838D81A6
:100910009E81FC0184918F838F818C83000080EC09
:1009200090E0FC018081882F90E0807299270097E9
:10093000B1F386EC90E02C81FC01208328960FB661
:10094000F894DEBF0FBECDBFDF91CF910895CF9356
:10095000DF9300D000D000D0CDB7DEB79C838B836F
:100960007E836D831A8219820FC089819A812B81BF
:100970003C81820F931FFC0180810E945304898176
:100980009A8101969A83898329813A818D819E81FA
:100990002817390754F326960FB6F894DEBF0FBE1A
:1009A000CDBFDF91CF910895CF93DF9300D0CDB726
:1009B000DEB7CE010B969A83898349815A81809153
:1009C000A6029091A70229853A85B9010E945C1878
:1009D0000F900F90DF91CF910895CF93DF93CDB714
:1009E000DEB7AA970FB6F894DEBF0FBECDBF83E780
:1009F00092E0292F2F938F938AE592E0892F8F938E
:100A00008AE592E08F930E94D4040F900F900F908C
:100A10000F9005C086EC90E023E4FC01208380EC7D
:100A200090E0FC018081882F90E0807299270097E8
:100A300089F380E090E0AAEFB3E489839A83AB83E3
:100A4000BC8320E030E04AEF54E469817A818B81F5
:100A50009C810E948617DC01CB018D839E83AF832E
:100A6000B88720E030E040E85FE36D817E818F81D0
:100A700098850E94051788232CF481E090E09A87DE
:100A800089873FC020E03FEF4FE757E46D817E81CB
:100A90008F8198850E94821718164CF520E030E06F
:100AA00040E251E469817A818B819C810E948617A2
:100AB000DC01CB01BC01CD010E940917DC01CB0197
:100AC0009A8789870FC088EC90E09C878B878B85FD
:100AD0009C850197F1F79C878B8789859A8501977B
:100AE0009A87898789859A85009769F714C06D81EF
:100AF0007E818F8198850E940917DC01CB019A873E
:100B0000898789859A859E878D878D859E850197A2
:100B1000F1F79E878D8786EC90E020E5FC0120832D
:100B200080E090E0AAEFB3E48F87988BA98BBA8B13
:100B300020E030E04AEF54E46F85788989899A890A
:100B40000E948617DC01CB018B8B9C8BAD8BBE8BFF
:100B500020E030E040E85FE36B897C898D899E89E5
:100B60000E94051788232CF481E090E0988F8F8BEA
:100B70003FC020E03FEF4FE757E46B897C898D89C8
:100B80009E890E94821718164CF520E030E040E262
:100B900051E46F85788989899A890E948617DC01DA
:100BA000CB01BC01CD010E940917DC01CB01988F5C
:100BB0008F8B0FC088EC90E09A8F898F898D9A8DEA
:100BC0000197F1F79A8F898F8F89988D0197988F68
:100BD0008F8B8F89988D009769F714C06B897C89FA
:100BE0008D899E890E940917DC01CB01988F8F8B1C
:100BF0008F89988D9C8F8B8F8B8D9C8D0197F1F7B2
:100C00009C8F8B8F86EC90E028E4FC01208380E0B1
:100C100090E0AAEFB3E48D8F9E8FAF8FB8A320E052
:100C200030E04AEF54E46D8D7E8D8F8D98A10E9447
:100C30008617DC01CB0189A39AA3ABA3BCA320E058
:100C400030E040E85FE369A17AA18BA19CA10E94FA
:100C5000051788232CF481E090E09EA38DA33FC06C
:100C600020E03FEF4FE757E469A17AA18BA19CA157
:100C70000E94821718164CF520E030E040E251E463
:100C80006D8D7E8D8F8D98A10E948617DC01CB0122
:100C9000BC01CD010E940917DC01CB019EA38DA3ED
:100CA0000FC088EC90E098A78FA38FA198A501971B
:100CB000F1F798A78FA38DA19EA101979EA38DA365
:100CC0008DA19EA1009769F714C069A17AA18BA19B
:100CD0009CA10E940917DC01CB019EA38DA38DA1CD
:100CE0009EA19AA789A789A59AA50197F1F79AA726
:100CF00089A7AA960FB6F894DEBF0FBECDBFDF91CD
:100D0000CF910895CF93DF931F92CDB7DEB78AE2DC
:100D100090E028E0FC01208384E290E02EE0FC01DA
:100D20002083198215C08981882F90E020910601C7
:100D3000805C9D4FFC0120838981882F90E0209169
:100D40000601845C9D4FFC01208389818F5F89832C
:100D50008981843040F385E390E021E0FC01208329
:100D60008EE690E021E0FC01208385E490E021E024
:100D7000FC0120830F90DF91CF910895CF93DF93F3
:100D8000CDB7DEB7DF91CF910895CF93DF9300D039
:100D9000CDB7DEB789836A830F900F90DF91CF9133
:100DA0000895CF93DF93CDB7DEB70E94AA07DF91F6
:100DB000CF910895CF93DF93CDB7DEB70E94BD07E3
:100DC000DF91CF910895EF92FF920F931F93CF93EE
:100DD000DF93CDB7DEB72C970FB6F894DEBF0FBE0A
:100DE000CDBF9A8389837C836B835E834D833887F1
:100DF0002F831A870987FC86EB86AB85BC85E9853E
:100E0000FA852F8138854D815E816B817C81898156
:100E10009A817D018F010E94FC082C960FB6F894F0
:100E2000DEBF0FBECDBFDF91CF911F910F91FF901D
:100E3000EF9008958F929F92AF92BF92CF92DF92E0
:100E4000EF92FF920F931F93CF93DF93CDB7DEB74F
:100E500062970FB6F894DEBF0FBECDBF9A83898329
:100E60007C836B835E834D8338872F831A87098742
:100E7000FC86EB86DE86CD86B88AAF869A8A898A1A
:100E8000C988DA88EF84F8880D851E85AB85BC8516
:100E9000E985FA852F8138854D815E816B817C8162
:100EA00089819A814601570168017D018F010E9465
:100EB000930962960FB6F894DEBF0FBECDBFDF91E7
:100EC000CF911F910F91FF90EF90DF90CF90BF9047
:100ED000AF909F908F900895CF93DF9300D000D074
:100EE00000D0CDB7DEB79A8389837C836B835E8322
:100EF0004D834D815E812B813C8189819A81B9012D
:100F00000E941B0B26960FB6F894DEBF0FBECDBF16
:100F1000DF91CF910895CF93DF9300D000D000D020
:100F2000CDB7DEB79A8389837C836B835E834D83E1
:100F30004D815E812B813C8189819A81B9010E941A
:100F4000720B26960FB6F894DEBF0FBECDBFDF91B1
:100F5000CF910895CF93DF93CDB7DEB781E00E94A4
:100F6000CB0780E00E94090880E00E94470880E0EB
:100F70000E948508DF91CF910895CF93DF93CDB77D
:100F8000DEB70E94C108982F81E0943309F080E019
:100F9000DF91CF9108950F93CF93DF9300D0CDB71A
:100FA000DEB78A8380910D010A8123E042E06BE67F
:100FB0000E941D1389838981882399F08BE892E030
:100FC000292F2F938F9381E892E0892F8F9381E8C7
:100FD00092E08F930E94D4040F900F900F900F9087
:100FE00012C087EA92E0292F2F938F9381E892E035
:100FF000892F8F9381E892E08F930E94D4040F9001
:101000000F900F900F900F900F90DF91CF910F9155
:1010100008950F93CF93DF9300D0CDB7DEB78A83C7
:1010200080910D010A8122E044E06BE10E941D13D2
:1010300089838981882399F082EC92E0292F2F936C
:101040008F9381E892E0892F8F9381E892E08F93CC
:101050000E94D4040F900F900F900F9012C087EE53
:1010600092E0292F2F938F9381E892E0892F8F931D
:1010700081E892E08F930E94D4040F900F900F901C
:101080000F900F900F90DF91CF910F9108950F93D4
:10109000CF93DF9300D0CDB7DEB78A8380910D0167
:1010A0000A8122E044E06CE10E941D13898389815A
:1010B000882399F08BE093E0292F2F938F9381E879
:1010C00092E0892F8F9381E892E08F930E94D4045D
:1010D0000F900F900F900F9012C081E393E0292F93
:1010E0002F938F9381E892E0892F8F9381E892E08C
:1010F0008F930E94D4040F900F900F900F900F9039
:101100000F90DF91CF910F910895CF93DF9300D08F
:10111000CDB7DEB78A839A8180910D01292F46E0F1
:101120006BE60E94D71289838981882399F086E52E
:1011300093E0292F2F938F9381E892E0892F8F934B
:1011400081E892E08F930E94D4040F900F900F904B
:101150000F9012C083E793E0292F2F938F9381E89C
:1011600092E0892F8F9381E892E08F930E94D404BC
:101170000F900F900F900F900F900F90DF91CF91E5
:101180000895EF92FF920F931F93CF93DF93CDB704
:10119000DEB780910D010F2EF8EEEF2EF3E0FF2E5B
:1011A000F02D04E412E026E046E065E70E94C81353
:1011B00080914402282F30E08FE893E0432F4F9333
:1011C0002F93292F2F938F9381E892E0892F8F936C
:1011D00081E892E08F930E94D4040F900F900F90BB
:1011E0000F900F900F9080914402DF91CF911F914B
:1011F0000F91FF90EF900895EF92FF920F931F933E
:10120000CF93DF93CDB7DEB72C970FB6F894DEBF40
:101210000FBECDBF9A8389837C836B835E834D83AE
:1012200038872F831A870987FC86EB8680910D010A
:1012300008EE13E024E432E04EE06BE30E944F102E
:1012400080914402882F90E0382F22278091450218
:10125000882F90E0282B392B89819A81FC013183DA
:10126000208380914602882F90E0382F222780919A
:101270004702882F90E0282B392B8B819C81FC0121
:101280003183208380914802882F90E0382F2227D5
:1012900080914902882F90E0282B392B8D819E81E7
:1012A000FC013183208380914C02882F90E0382FFD
:1012B000222780914D02882F90E0282B392B8F8197
:1012C0009885FC013183208380914E02882F90E025
:1012D000382F222780914F02882F90E0282B392B1E
:1012E00089859A85FC013183208380915002882F63
:1012F00090E0382F222780915102882F90E0282BF0
:10130000392B8B859C85FC01318320832C960FB66D
:10131000F894DEBF0FBECDBFDF91CF911F910F912B
:10132000FF90EF9008958F929F92AF92BF92CF92CD
:10133000DF92EF92FF920F931F93CF93DF93CDB77E
:10134000DEB7AE970FB6F894DEBF0FBECDBF9E8F4F
:101350008D8F78A36F8F5AA349A33CA32BA31EA301
:101360000DA3F8A6EFA2DAA6C9A6BCA6ABA69EA6B8
:101370008DA6AFA1B8A5EDA1FEA12BA13CA149A1CD
:101380005AA16F8D78A18D8D9E8D7D018F010E9458
:10139000FC0880910D0142E067E30E94C11180E0EA
:1013A00090E0A0E2B1E489839A83AB83BC8320E020
:1013B00030E04AEF54E469817A818B819C810E94FC
:1013C0008617DC01CB018D839E83AF83B88720E035
:1013D00030E040E85FE36D817E818F8198850E94D7
:1013E000051788232CF481E090E09A8789873FC015
:1013F00020E03FEF4FE757E46D817E818F81988534
:101400000E94821718164CF520E030E040E251E4CB
:1014100069817A818B819C810E948617DC01CB01D6
:10142000BC01CD010E940917DC01CB019A87898795
:101430000FC088EC90E09C878B878B859C850197FB
:10144000F1F79C878B8789859A8501979A87898789
:1014500089859A85009769F714C06D817E818F8197
:1014600098850E940917DC01CB019A8789878985B5
:101470009A859E878D878D859E850197F1F79E873A
:101480008D8741E06AE08CE00E94C11180E090E02D
:10149000A0E2B1E48F87988BA98BBA8B20E030E073
:1014A0004AEF54E46F85788989899A890E94861762
:1014B000DC01CB018B8B9C8BAD8BBE8B20E030E0B5
:1014C00040E85FE36B897C898D899E890E940517BE
:1014D00088232CF481E090E0988F8F8B3FC020E030
:1014E0003FEF4FE757E46B897C898D899E890E9485
:1014F000821718164CF520E030E040E251E46F8589
:10150000788989899A890E948617DC01CB01BC0100
:10151000CD010E940917DC01CB01988F8F8B0FC082
:1015200088EC90E09A8F898F898D9A8D0197F1F7D9
:101530009A8F898F8F89988D0197988F8F8B8F893C
:10154000988D009769F714C06B897C898D899E8975
:101550000E940917DC01CB01988F8F8B8F89988DA2
:101560009C8F8B8F8B8D9C8D0197F1F79C8F8B8F30
:1015700008EE13E024E432E046E063E08CE00E94F1
:101580004F1080914502882F90E0382F22278091BC
:101590004402882F90E0282B392B89A59AA5FC01BD
:1015A0003183208380914702882F90E0382F2227B3
:1015B00080914602882F90E0282B392B8BA59CA583
:1015C000FC013183208380914902882F90E0382FDD
:1015D000222780914802882F90E0282B392B8DA557
:1015E0009EA5FC0131832083AE960FB6F894DEBF32
:1015F0000FBECDBFDF91CF911F910F91FF90EF9064
:10160000DF90CF90BF90AF909F908F9008950F93F1
:10161000CF93DF931F92CDB7DEB7898380910D0101
:10162000098123E042E06AE10E941D130F90DF91DF
:10163000CF910F9108950F931F93CF93DF9300D015
:1016400000D000D0CDB7DEB79A8389837C836B83CB
:101650005E834D8380910D0108EE13E024E432E0B7
:1016600046E063E40E944F1080914402882F90E08E
:10167000382F222780914502882F90E0282B392B84
:1016800089819A81FC013183208380914602882FD1
:1016900090E0382F222780914702882F90E0282B56
:1016A000392B8B819C81FC013183208380914802FE
:1016B000882F90E0382F222780914902882F90E0D0
:1016C000282B392B8D819E81FC0131832083269626
:1016D0000FB6F894DEBF0FBECDBFDF91CF911F9143
:1016E0000F9108950F931F93CF93DF9300D000D0F5
:1016F00000D0CDB7DEB79A8389837C836B835E830A
:101700004D8380910D0108EE13E024E432E046E0C1
:101710006BE30E944F1080914402882F90E0382F95
:10172000222780914502882F90E0282B392B898130
:101730009A81FC013183208380914602882F90E0BA
:10174000382F222780914702882F90E0282B392BB1
:101750008B819C81FC013183208380914802882FFA
:1017600090E0382F222780914902882F90E0282B83
:10177000392B8D819E81FC013183208326960FB603
:10178000F894DEBF0FBECDBFDF91CF911F910F91B7
:101790000895CF93DF93CDB7DEB71092860181E035
:1017A000809388011092890189EB90E029EB30E069
:1017B000F90120812E7FFC01208389EB90E029EB49
:1017C00030E0F90120812D7FFC01208388EB90E03F
:1017D00020E2FC0120838CEB90E025E4FC012083D7
:1017E000DF91CF910895CF93DF931F92CDB7DEB7EE
:1017F00089838AEB90E02981220FFC0120830F90DE
:10180000DF91CF910895CF93DF9300D000D000D027
:10181000CDB7DEB78A837C836B834D832E838D8126
:10182000813210F080E062C001C00000809186012A
:101830008823D9F781E0809386018E818093880187
:101840008FEF8093F3011092AE018D8181508093D0
:10185000AF0181E0809387018A81882F90E0880F13
:10186000991F982F80918701892B80938701809100
:101870008901813071F4109289018BEB90E0209105
:101880008701FC0120838CEB90E025ECFC01208398
:1018900007C08CEB90E025EEFC01208301C0000026
:1018A000809186018130D9F39091AE018D81981796
:1018B00018F48091AE018D83198213C08981882F1D
:1018C00090E02B813C81820F931F2981222F30E0F1
:1018D00022573E4FF9012081FC01208389818F5FCF
:1018E000898399818D81981748F38D8126960FB64B
:1018F000F894DEBF0FBECDBFDF91CF9108950F9357
:10190000CF93DF93CDB7DEB727970FB6F894DEBF3E
:101910000FBECDBF8A837C836B834D832E830F8361
:101920008D81813210F081E06DC001C00000809196
:1019300086018823D9F782E0809386018F81809386
:1019400088018FEF8093F3011092AE018D81809317
:10195000AF01198213C08981882F90E02981222F3D
:1019600030E04B815C81240F351FF90120818257C3
:101970009E4FFC01208389818F5F898399818D81AE
:10198000981748F3109287018A81882F90E0880F7A
:10199000991F982F80918701892B809387018091CF
:1019A0008901813071F4109289018BEB90E02091D4
:1019B0008701FC0120838CEB90E025ECFC01208367
:1019C00007C08CEB90E025EEFC01208301C00000F5
:1019D0008E81882321F0809186018230C1F380912D
:1019E000F3018F3F11F480E00DC08091F30180324C
:1019F00011F482E007C08091F301803311F483E099
:101A000001C084E027960FB6F894DEBF0FBECDBFAD
:101A1000DF91CF910F910895CF93DF9300D000D045
:101A2000CDB7DEB79B838A836C838C81813210F0C3
:101A300081E023C080918601843011F082E01DC0D6
:101A40008C818093D101198213C08981882F90E005
:101A50002981222F30E04A815B81240F351FF90153
:101A6000208180559E4FFC01208389818F5F89836F
:101A700099818C81981748F380E00F900F900F9018
:101A80000F90DF91CF910895CF93DF9300D0CDB722
:101A9000DEB79A83898389819A8190938D0180939F
:101AA0008C010F900F90DF91CF910895CF93DF932A
:101AB00000D0CDB7DEB79A83898389819A819093CC
:101AC0008B0180938A010F900F90DF91CF91089541
:101AD000CF93DF931F92CDB7DEB7898389818823A7
:101AE00031F08CEB90E025ECFC01208305C08CEB01
:101AF00090E025E8FC0120830F90DF91CF910895BD
:101B0000CF93DF93CDB7DEB78CEB90E025EDFC01F2
:101B1000208301C000008CEB90E0FC018081882FC5
:101B200090E0807199270097A9F710928601DF91C4
:101B3000CF910895CF93DF93CDB7DEB78CEB90E0D4
:101B400025ECFC01208310928601DF91CF9108954E
:101B50001F920F9200905F000F9211242F933F93DA
:101B60004F935F936F937F938F939F93AF93BF93A5
:101B7000EF93FF93CF93DF93CDB7DEB789EB90E080
:101B8000FC018081882F90E0887F9927AA2797FD04
:101B9000A095BA2F40E050E028EF30E0841B950B71
:101BA0002817390708F419C18C5C9F4FFC010C946D
:101BB000FF168BEB90E020918701FC01208381E0F0
:101BC0000E94680D0AC19091AE018091AF019817F3
:101BD000A0F48BEB90E02091AE0131E0320F309316
:101BE000AE01222F30E022573E4FF9012081FC0147
:101BF000208381E00E94680D12C0809188018823B3
:101C000019F00E94800D0BC081E0809389018CEB5C
:101C100090E024EAFC01208310928601DEC0DDC042
:101C200080E28093F3010E94800DD7C080E380930F
:101C3000F3010E94800DD1C088E38093F3010E94DC
:101C40009A0DCBC08091AE0191E0980F9093AE01B8
:101C5000882F90E02BEB30E0F901208182579E4FD6
:101C6000FC0120839091AE018091AF01981720F480
:101C700081E00E94680DB1C080E00E94680DADC097
:101C80008091AE0191E0980F9093AE01882F90E083
:101C90002BEB30E0F901208182579E4FFC0120831D
:101CA00080918801882319F00E94800D96C081E000
:101CB000809389018CEB90E024EAFC012083109250
:101CC00086018BC00E94800D88C083E080938601CE
:101CD0001092F20181E00E94680D7FC08091F201B4
:101CE0008032A0F48091F20191E0980F9093F2017C
:101CF000882F90E02BEB30E0F90120818E529E4F2F
:101D0000FC01208381E00E94680D67C080E00E9492
:101D1000680D63C08091F201803240F48091F2013D
:101D2000882F90E08E529E4FFC0110820E94800D01
:101D300020918C0130918D018091F201882F90E0EB
:101D4000BC0182ED91E0F90109951092F2010E9427
:101D50009A0D43C080E00E94680D3FC084E08093EC
:101D600086011092D0011092D10180918A01909148
:101D70008B01FC0109958091D101882329F481E030
:101D80008093D1011092B0018BEB90E02091D001B3
:101D900031E0320F3093D001222F30E020553E4FFA
:101DA000F9012081FC0120839091D0018091D10123
:101DB000981720F481E00E94680D0FC080E00E9417
:101DC000680D0BC081E00E94680D1092860105C06D
:101DD0001092F3010E94800D0000DF91CF91FF91DE
:101DE000EF91BF91AF919F918F917F916F915F9193
:101DF0004F913F912F910F9000925F000F901F9095
:101E00001895CF93DF93CDB7DEB71092F4011092FF
:101E1000F5011092F7011092F8010E94C90BDF91B1
:101E2000CF910895CF93DF931F92CDB7DEB789830B
:101E300089810E94F30B0E94010F0F90DF91CF91D7
:101E40000895CF93DF931F92CDB7DEB7898381E0EA
:101E50008093F90189818093F6011092F701109225
:101E6000F8010F90DF91CF910895CF93DF9300D0C9
:101E700000D0CDB7DEB78A836B834C838B818132F0
:101E800010F080E28B832C814B8162E572E08A81C5
:101E90000E94030C89831092F40189818093F501DB
:101EA00089810F900F900F900F90DF91CF9108953F
:101EB0000F93CF93DF9300D0CDB7DEB78A83909195
:101EC000F8018091F6010A8121E0492F62E772E072
:101ED0000E947F0C89831092F7011092F8011092F2
:101EE000F90189810F900F90DF91CF910F910895A3
:101EF000CF93DF931F92CDB7DEB789838091F9012D
:101F00008823D1F08091F801803218F080E090E0D1
:101F10001AC08091F701882F90E029818E589D4F3B
:101F2000FC0120838091F7018F5F8093F7018091FE
:101F3000F7018093F80105C061E0CE0101960E948F
:101F40000C0D81E090E00F90DF91CF910895CF9339
:101F5000DF9300D000D000D0CDB7DEB79C838B8359
:101F60007E836D838091F9018823D1F01A821982D2
:101F70000FC02B813C8189819A81820F931FFC01C4
:101F800080810E94780F89819A8101969A83898342
:101F900029813A818D819E812817390750F306C027
:101FA0002D818B819C81622F0E940C0D8D819E81E1
:101FB00026960FB6F894DEBF0FBECDBFDF91CF914E
:101FC0000895CF93DF93CDB7DEB79091F50180915F
:101FD000F401292F281B822FDF91CF910895CF93F1
:101FE000DF931F92CDB7DEB78FEF89839091F40115
:101FF0008091F501981770F48091F401882F90E09A
:102000008E5A9D4FFC01808189838091F4018F5FFE
:102010008093F40189810F90DF91CF910895CF9340
:10202000DF931F92CDB7DEB78FEF89839091F401D4
:102030008091F501981748F48091F401882F90E081
:102040008E5A9D4FFC018081898389810F90DF9199
:10205000CF9108950F931F93CF93DF9300D000D0BB
:1020600000D0CDB7DEB789836A835C834B833E8320
:102070002D832D813E818B819C8189019C0141E0D2
:102080006A8189810E944F1026960FB6F894DEBFB0
:102090000FBECDBFDF91CF911F910F9108950F9388
:1020A0001F93CF93DF93CDB7DEB72D970FB6F8947C
:1020B000DEBF0FBECDBF8F83688749873B872A87E6
:1020C0001D870C8780EB93E0292F2F938F9383EA52
:1020D00093E0892F8F9383EA93E08F930E94D40437
:1020E0000F900F900F900F90CE01079661E070E077
:1020F0000E94A70488EB93E0292F2F938F9383EA04
:1021000093E0892F8F9383EA93E08F930E94D40406
:102110000F900F900F900F908985282F30E083EC5F
:1021200093E0432F4F932F93292F2F938F9383EA7D
:1021300093E0892F8F9383EA93E08F930E94D404D6
:102140000F900F900F900F900F900F9086EC93E0F0
:10215000292F2F938F9383EA93E0892F8F9383EA1C
:1021600093E08F930E94D4040F900F900F900F90E4
:10217000CE01089661E070E00E94A70487ED93E02D
:10218000292F2F938F9383EA93E0892F8F9383EAEC
:1021900093E08F930E94D4040F900F900F900F90B4
:1021A00019820E94B3029B01AC018C859D85CC01F4
:1021B000A0E0B0E0820F931FA41FB51F8B839C8308
:1021C000AD83BE831A828EC08F810E94210F8885C5
:1021D0000E94780F81E00E94580F8985282F30E0F7
:1021E0008A81882F90E0A901481B590BCA018032CF
:1021F000910534F499858A81592F581B852F01C088
:1022000080E29F8141E0682F892F0E94350F5EC0D8
:102210008981882F90E02A853B85820F931F61E09A
:1022200070E00E94A7048981882F90E09C012F5FB5
:102230003F4F8985882F90E02817390794F48BED5C
:1022400093E0292F2F938F9383EA93E0892F8F9325
:1022500083EA93E08F930E94D4040F900F900F9025
:102260000F9089818F5F89830E94B3029B01AC012B
:102270008B819C81AD81BE8182179307A407B5072E
:10228000C8F48DED93E02D852F932C852F93292F66
:102290002F938F9383EA93E0892F8F9383EA93E0C0
:1022A0008F930E94D4040F900F900F900F900F9077
:1022B0000F9011C08981882F90E02A853B85890184
:1022C000080F191F0E94EF0FF80180830E94E10F91
:1022D000882309F09DCF8985813208F080E29A81B8
:1022E000890F8A839A818985981708F46DCF84E0D5
:1022F00094E0292F2F938F9383EA93E0892F8F9374
:1023000083EA93E08F930E94D4040F900F900F9074
:102310000F908981282F30E08DE094E0432F4F9378
:102320002F93292F2F938F9383EA93E0892F8F93F5
:1023300083EA93E08F930E94D4040F900F900F9044
:102340000F900F900F9080E194E0292F2F938F939F
:1023500083EA93E0892F8F9383EA93E08F930E941F
:10236000D4040F900F900F900F9089812D960FB687
:10237000F894DEBF0FBECDBFDF91CF911F910F91BB
:102380000895CF93DF9300D01F92CDB7DEB7898336
:102390006A834B83CE0103969C0141E06A81898167
:1023A0000E94D8110F900F900F90DF91CF91089558
:1023B000CF93DF93CDB7DEB727970FB6F894DEBF84
:1023C0000FBECDBF8B836C834D833F832E8389E10A
:1023D00094E0292F2F938F9383EA93E0892F8F9393
:1023E00083EA93E08F930E94D4040F900F900F9094
:1023F0000F90CE01039661E070E00E94A70481E295
:1024000094E0292F2F938F9383EA93E0892F8F9362
:1024100083EA93E08F930E94D4040F900F900F9063
:102420000F908D81282F30E08DE294E0432F4F9361
:102430002F93292F2F938F9383EA93E0892F8F93E4
:1024400083EA93E08F930E94D4040F900F900F9033
:102450000F900F900F9080E394E0292F2F938F938C
:1024600083EA93E0892F8F9383EA93E08F930E940E
:10247000D4040F900F900F900F90CE01049661E05E
:1024800070E00E94A7048FE394E0292F2F938F938D
:1024900083EA93E0892F8F9383EA93E08F930E94DE
:1024A000D4040F900F900F900F901A828B810E948E
:1024B000210F8C810E94780F198237C08981882F63
:1024C00090E02E813F81820F931FFC0180810E944A
:1024D000780F8981882F90E02E813F81820F931F92
:1024E00061E070E00E94A7048981882F90E09C0140
:1024F0002F5F3F4F8D81882F90E02817390794F484
:1025000083E494E0292F2F938F9383EA93E0892F1C
:102510008F9383EA93E08F930E94D4040F900F90DF
:102520000F900F9089818F5F898399818D81981792
:1025300028F281E00E94580F8A838A81282F30E098
:1025400085E494E0432F4F932F93292F2F938F935C
:1025500083EA93E0892F8F9383EA93E08F930E941D
:10256000D4040F900F900F900F900F900F9081E573
:1025700094E0292F2F938F9383EA93E0892F8F93F1
:1025800083EA93E08F930E94D4040F900F900F90F2
:102590000F9081E09A81992309F080E027960FB689
:1025A000F894DEBF0FBECDBFDF91CF910895CF93DA
:1025B000DF9300D000D01F92CDB7DEB78A836B8344
:1025C0004C832D8380911001909111019C01CE01CB
:1025D0000196AC016B818A810E942A108D8188232B
:1025E00079F08C81282F30E081E090E0022E02C04B
:1025F000880F991F0A94E2F7982F8981892B0EC0C2
:102600008C81282F30E081E090E002C0880F991F74
:102610002A95E2F7982F909589818923898389816A
:10262000482F6B818A810E94C1110F900F900F90EB
:102630000F900F90DF91CF9108950F93CF93DF9379
:10264000CDB7DEB727970FB6F894DEBF0FBECDBF6C
:102650008B836C834D832E830F83209110013091E7
:102660001101CE010296AC016C818B810E942A106F
:10267000882309F447C08E81282F30E081E090E064
:1026800002C0880F991F2A95E2F701972D81422FEA
:1026900050E02E81222F30E0BA01621B730B9B01A8
:1026A0002F5F3F4F02C0880F991F2A95E2F7898359
:1026B0008F81882F90E02D81422F50E02E81222F94
:1026C00030E0BA01621B730B9B012F5F3F4F02C0CA
:1026D000880F991F2A95E2F78F839F81898189232B
:1026E0008F838981982F90958A8189238A839A8103
:1026F0008F81892B8A838A81482F6C818B810E94EC
:10270000C11101C080E027960FB6F894DEBF0FBE5E
:10271000CDBFDF91CF910F9108950F931F93CF936A
:10272000DF93CDB7DEB729970FB6F894DEBF0FBEA3
:10273000CDBF8B836C834D833F832E83198708879E
:1027400028853985CE010296AC016C818B810E946F
:102750002A1089838D81282F30E081E090E002C02B
:10276000880F991F2A95E2F7982F8A818923282FAD
:102770008E819F81FC012083898129960FB6F89470
:10278000DEBF0FBECDBFDF91CF911F910F91089596
:10279000EF92FF920F931F93CF93DF93CDB7DEB7E6
:1027A0002B970FB6F894DEBF0FBECDBF8C836D8321
:1027B0004E832F8319870887FB86EA862A853B8507
:1027C000CE010396AC016D818C810E942A10898311
:1027D00089818823D9F18F81282F30E081E090E032
:1027E00002C0880F991F2A95E2F701972E81422F88
:1027F00050E02F81222F30E0BA01621B730B9B0146
:102800002F5F3F4F02C0880F991F2A95E2F78A83F6
:102810009B818A8189238B838B81882F90E02E81F5
:10282000422F50E02F81222F30E0FA01E21BF30B00
:102830009F012F5F3F4F02C0959587952A95E2F73C
:102840008B832B8188859985FC01208389812B9638
:102850000FB6F894DEBF0FBECDBFDF91CF911F91B1
:102860000F91FF90EF900895CF93DF931F92CDB714
:10287000DEB789838981809333028981282F30E0F4
:1028800081E694E0432F4F932F93292F2F938F931B
:102890008AE594E0892F8F938AE594E08F930E94D4
:1028A000D4040F900F900F900F900F900F900F90F7
:1028B000DF91CF910895CF93DF93CDB7DEB72E97F9
:1028C0000FB6F894DEBF0FBECDBF84E394E10E9443
:1028D00041030E9490028CE694E0292F2F938F935E
:1028E0008AE594E0892F8F938AE594E08F930E9484
:1028F000D4040F900F900F900F9078940E94010FC6
:102900008AE894E0292F2F938F938AE594E0892F0A
:102910008F938AE594E08F930E94D4040F900F90D8
:102920000F900F900E94D10685E994E0292F2F93F4
:102930008F938AE594E0892F8F938AE594E08F93B3
:102940000E94D4040F900F900F900F9080EA94E0B3
:10295000292F2F938F938AE594E0892F8F938AE50F
:1029600094E08F930E94D4040F900F900F900F90DB
:1029700080E090E0A8ECB2E489839A83AB83BC83C7
:1029800020E030E04AEF54E469817A818B819C81B8
:102990000E948617DC01CB018D839E83AF83B887AD
:1029A00020E030E040E85FE36D817E818F81988593
:1029B0000E94051788232CF481E090E09A8789878C
:1029C0003FC020E03FEF4FE757E46D817E818F816C
:1029D00098850E94821718164CF520E030E040E2FE
:1029E00051E469817A818B819C810E948617DC0188
:1029F000CB01BC01CD010E940917DC01CB019A87F4
:102A000089870FC088EC90E09C878B878B859C859D
:102A10000197F1F79C878B8789859A8501979A871B
:102A2000898789859A85009769F7A2CF6D817E8114
:102A30008F8198850E940917DC01CB019A878987CD
:102A400089859A859E878D878D859E850197F1F76B
:102A50009E878D878DCF8F929F92AF92BF92CF929C
:102A6000DF92EF92FF920F931F93CF93DF93CDB737
:102A7000DEB72E970FB6F894DEBF0FBECDBF0F2E78
:102A8000FCE98F2EF2E09F2EF02D0F2EF6E9AF2EEF
:102A9000F2E0BF2EF02D0F2EF2EACF2EF2E0DF2E65
:102AA000F02D0F2EFAE9EF2EF2E0FF2EF02D02E9C5
:102AB00012E02EE932E044E952E060EA72E088E98F
:102AC00092E00E941A0783EB94E0292F2F938F93B3
:102AD0008AE594E0892F8F938AE594E08F930E9492
:102AE000D4040F900F900F900F9020919802309186
:102AF00099028BEB94E0432F4F932F93292F2F9321
:102B00008F938AE594E0892F8F938AE594E08F93E1
:102B10000E94D4040F900F900F900F900F900F9081
:102B20002091A0023091A1028FEB94E0432F4F93AC
:102B30002F93292F2F938F938AE594E0892F8F93DA
:102B40008AE594E08F930E94D4040F900F900F9029
:102B50000F900F900F90209194023091950283EC8A
:102B600094E0432F4F932F93292F2F938F938AE530
:102B700094E0892F8F938AE594E08F930E94D40488
:102B80000F900F900F900F900F900F9020919E023A
:102B900030919F0287EC94E0432F4F932F93292F7E
:102BA0002F938F938AE594E0892F8F938AE594E0A1
:102BB0008F930E94D4040F900F900F900F900F905E
:102BC0000F9020919202309193028BEC94E0432F6E
:102BD0004F932F93292F2F938F938AE594E0892F7A
:102BE0008F938AE594E08F930E94D4040F900F9006
:102BF0000F900F900F900F9020919A0230919B02AE
:102C00008FEC94E0432F4F932F93292F2F938F9383
:102C10008AE594E0892F8F938AE594E08F930E9450
:102C2000D4040F900F900F900F900F900F90209161
:102C3000A2023091A30283ED94E0432F4F932F9390
:102C4000292F2F938F938AE594E0892F8F938AE51C
:102C500094E08F930E94D4040F900F900F900F90E8
:102C60000F900F90209196023091970287ED94E09B
:102C7000432F4F932F93292F2F938F938AE594E01F
:102C8000892F8F938AE594E08F930E94D4040F904C
:102C90000F900F900F900F900F9020919C02309109
:102CA0009D028BED94E0432F4F932F93292F2F9369
:102CB0008F938AE594E0892F8F938AE594E08F9330
:102CC0000E94D4040F900F900F900F900F900F90D0
:102CD0008FED94E0292F2F938F938AE594E0892F2D
:102CE0008F938AE594E08F930E94D4040F900F9005
:102CF0000F900F9080E090E0A8ECB2E489839A8373
:102D0000AB83BC8320E030E04AEF54E469817A81F0
:102D10008B819C810E948617DC01CB018D839E8371
:102D2000AF83B88720E030E040E85FE36D817E81CB
:102D30008F8198850E94051788232CF481E090E00C
:102D40009A8789873FC020E03FEF4FE757E46D81C6
:102D50007E818F8198850E94821718164CF520E09D
:102D600030E040E251E469817A818B819C810E944C
:102D70008617DC01CB01BC01CD010E940917DC01E3
:102D8000CB019A8789870FC088EC90E09C878B875E
:102D90008B859C850197F1F79C878B8789859A8520
:102DA00001979A87898789859A85009769F714C062
:102DB0006D817E818F8198850E940917DC01CB018E
:102DC0009A87898789859A859E878D878D859E8537
:102DD0000197F1F79E878D872E960FB6F894DEBF88
:102DE0000FBECDBFDF91CF911F910F91FF90EF905C
:102DF000DF90CF90BF90AF909F908F900895EE0F8F
:102E0000FF1F0590F491E02D09942FD008F481E084
:102E1000089557D088F09F5790F0B92F9927B75150
:102E2000A0F0D1F0660F771F881F991F1AF0BA958E
:102E3000C9F712C0B13081F05ED0B1E008955BC037
:102E4000672F782F8827B85F39F0B93FCCF3869584
:102E500077956795B395D9F73EF4909580957095E1
:102E600061957F4F8F4F9F4F0895990F0008550F21
:102E7000AA0BE0E8FEEF16161706E807F907C0F000
:102E800012161306E407F50798F0621B730B840B08
:102E9000950B39F40A2661F0232B242B252B21F4E2
:102EA00008950A2609F4A140A6958FEF811D811D82
:102EB000089557FD9058440F551F59F05F3F71F02A
:102EC0004795880F97FB991F61F09F3F79F0879591
:102ED0000895121613061406551FF2CF4695F1DF1A
:102EE00008C0161617061806991FF1CF86957105AA
:102EF000610508940895E894BB2766277727CB01DE
:102F000097F90895B2DF08F48FEF08950BD078C0D9
:102F100069D028F06ED018F0952309F05AC05FC030
:102F20001124EACFC6DFA0F3959FD1F3950F50E0AF
:102F3000551F629FF001729FBB27F00DB11D639F6B
:102F4000AA27F00DB11DAA1F649F6627B00DA11D11
:102F5000661F829F2227B00DA11D621F739FB00DB7
:102F6000A11D621F839FA00D611D221F749F332727
:102F7000A00D611D231F849F600D211D822F762FC0
:102F80006A2F11249F5750408AF0E1F088234AF0BD
:102F9000EE0FFF1FBB1F661F771F881F9150504009
:102FA000A9F79E3F510570F014C0A6CF5F3FECF328
:102FB000983EDCF3869577956795B795F795E795F5
:102FC0009F5FC1F7FE2B880F911D9695879597F906
:102FD000089597F99F6780E870E060E008959FEF9B
:102FE00080EC089500240A941616170618060906A0
:102FF000089500240A94121613061406050608956F
:10300000092E0394000C11F4882352F0BB0F40F4F6
:10301000BF2B11F460FF04C06F5F7F4F8F4F9F4F36
:1030200008950F931F93CF93DF93EC018B010097CB
:1030300031F46115710519F480E090E038C06EE05C
:1030400070E081E090E00E943D1AFC010097A1F33E
:1030500080E883830115110571F01387028781E8E9
:1030600083838091A4029091A502892B21F4F0938F
:10307000A502E093A4022097C9F0D187C08783817D
:10308000826083838091A6029091A702892B71F4BC
:10309000F093A702E093A6028091A8029091A90262
:1030A000892B21F4F093A902E093A802CF01DF91CC
:1030B000CF911F910F910895CF93DF93EC018B81F6
:1030C00088608B83CE010E946B182B81277F2B8316
:1030D000DF91CF910895ACE0B0E0E1E7F8E10C9426
:1030E0002D1C7C016B018A01FC01178216828381F1
:1030F00081FFBDC1CE0101964C01F7019381F6011C
:1031000093FD859193FF81916F01882309F4ABC1F1
:10311000853239F493FD859193FF81916F0185325A
:1031200029F4B70190E00E949D1BE7CF512C312C70
:1031300020E02032A0F48B3269F030F4803259F074
:10314000833269F420612CC08D3239F0803339F438
:10315000216026C02260246023C0286021C027FD92
:1031600027C030ED380F3A3078F426FF06C0FAE079
:103170005F9E300D1124532E13C08AE0389E300D0F
:103180001124332E20620CC08E3221F426FD6BC137
:10319000206406C08C3611F4206802C0883641F4E1
:1031A000F60193FD859193FF81916F018111C1CF4C
:1031B000982F9F7D9554933028F40C5F1F4FFFE3A9
:1031C000F9830DC0833631F0833771F0833509F010
:1031D0005BC022C0F801808189830E5F1F4F4424A9
:1031E0004394512C540115C03801F2E06F0E711C4C
:1031F000F801A080B18026FF03C0652D70E002C0F9
:103200006FEF7FEFC5012C870E94921B2C01830179
:103210002C852F77222E17C03801F2E06F0E711C1B
:10322000F801A080B18026FF03C0652D70E002C0C8
:103230006FEF7FEFC5012C870E94801B2C012C852E
:103240002068222E830123FC1BC0832D90E04816AA
:103250005906B0F4B70180E290E00E949D1B3A94B9
:10326000F4CFF50127FC859127FE81915F01B7011D
:1032700090E00E949D1B31103A94F1E04F1A5108E2
:103280004114510471F7E5C0843611F0893639F5DF
:10329000F80127FF07C060817181828193810C5FF3
:1032A0001F4F08C060817181882777FD8095982F16
:1032B0000E5F1F4F2F76B22E97FF09C09095809515
:1032C000709561957F4F8F4F9F4F2068B22E2AE0F7
:1032D00030E0A4010E94CF1BA82EA81844C0853757
:1032E00029F42F7EB22E2AE030E025C0F22FF97F9C
:1032F000BF2E8F36C1F018F4883579F0B4C080370E
:1033000019F0883721F0AFC02F2F2061B22EB4FE04
:103310000DC08B2D8460B82E09C024FF0AC09F2FDA
:103320009660B92E06C028E030E005C020E130E00C
:1033300002C020E132E0F801B7FE07C06081718170
:10334000828193810C5F1F4F06C06081718180E094
:1033500090E00E5F1F4FA4010E94CF1BA82EA8185B
:10336000FB2DFF77BF2EB6FE0BC02B2D2E7FA51495
:1033700050F4B4FE0AC0B2FC08C02B2D2E7E05C04E
:103380007A2C2B2D03C07A2C01C0752C24FF0DC084
:10339000FE01EA0DF11D8081803311F4297E09C000
:1033A00022FF06C07394739404C0822F867809F0BC
:1033B000739423FD13C020FF06C05A2C731418F415
:1033C000530C5718732C731468F4B70180E290E023
:1033D0002C870E949D1B73942C85F5CF731410F4D9
:1033E000371801C0312C24FF12C0B70180E390E0F0
:1033F0002C870E949D1B2C8522FF17C021FF03C034
:1034000088E590E002C088E790E0B7010CC0822F09
:10341000867859F021FD02C080E201C08BE227FDD1
:103420008DE2B70190E00E949D1BA51438F4B7010E
:1034300080E390E00E949D1B5A94F7CFAA94F40178
:10344000EA0DF11D8081B70190E00E949D1BA11043
:10345000F5CF332009F451CEB70180E290E00E940D
:103460009D1B3A94F6CFF7018681978102C08FEFBA
:103470009FEF2C96E2E10C94491C0F931F93CF937E
:10348000DF93869F8001879F100D969F100D11245A
:10349000C8010E94591AEC01009729F0A80160E0C8
:1034A00070E00E948B1BCE01DF91CF911F910F9195
:1034B0000895CF93DF938230910510F482E090E07D
:1034C000E091AC02F091AD0220E030E0A0E0B0E08D
:1034D000309739F14081518148175907B8F04817A2
:1034E000590771F482819381109729F013969C9368
:1034F0008E9312972CC09093AD028093AC0227C09C
:103500002115310531F04217530718F0A901DB01ED
:1035100001C0EF019A01BD01DF010280F381E02DBE
:10352000D7CF21153105F9F0281B390B243031058F
:1035300080F48A819B816115710521F0FB019383E1
:10354000828304C09093AD028093AC02FE01329658
:1035500044C0FE01E20FF31F819391932250310981
:10356000398328833AC02091AA023091AB02232BE1
:1035700041F420910201309103013093AB0220937A
:10358000AA0220910001309101012115310541F479
:103590002DB73EB74091040150910501241B350B16
:1035A000E091AA02F091AB02E217F307A0F42E1B00
:1035B0003F0B2817390778F0AC014E5F5F4F241797
:1035C000350748F04E0F5F1F5093AB024093AA029D
:1035D0008193919302C0E0E0F0E0CF01DF91CF91C1
:1035E0000895CF93DF93009709F487C0FC013297C9
:1035F00013821282C091AC02D091AD02209781F467
:1036000020813181280F391F8091AA029091AB024D
:103610008217930779F5F093AB02E093AA026DC08D
:10362000DE0120E030E0AE17BF0750F412964D9156
:103630005C9113979D014115510509F1DA01F3CF12
:10364000B383A28340815181840F951F8A179B0702
:1036500071F48D919C911197840F951F029691831F
:10366000808312968D919C91139793838283211569
:10367000310529F4F093AD02E093AC023EC0D901CC
:103680001396FC93EE9312974D915D91A40FB51F85
:10369000EA17FB0779F480819181840F951F0296C8
:1036A000D90111969C938E938281938113969C935A
:1036B0008E931297E0E0F0E08A819B81009719F0E9
:1036C000FE01EC01F9CFCE01029628813981820FEB
:1036D000931F2091AA023091AB022817390769F491
:1036E000309729F41092AD021092AC0202C01382FE
:1036F0001282D093AB02C093AA02DF91CF910895BA
:10370000FC010590615070400110D8F780959095AC
:103710008E0F9F1F0895DC0101C06D9341505040F2
:10372000E0F70895FC016150704001900110D8F756
:10373000809590958E0F9F1F08950F931F93CF93A1
:10374000DF93182F092FEB018B8181FD03C08FEFD1
:103750009FEF20C082FF10C04E815F812C813D8190
:10376000421753077CF4E881F9819F012F5F3F4F97
:1037700039832883108306C0E885F985812F099550
:10378000892B29F72E813F812F5F3F4F3F832E8367
:10379000812F902FDF91CF911F910F910895FA0102
:1037A000AA27283051F1203181F1E8946F936E7F80
:1037B0006E5F7F4F8F4F9F4FAF4FB1E03ED0B4E071
:1037C0003CD0670F781F891F9A1FA11D680F791FB2
:1037D0008A1F911DA11D6A0F711D811D911DA11DC3
:1037E00020D009F468943F912AE0269F11243019D3
:1037F000305D3193DEF6CF010895462F4770405D6E
:103800004193B3E00FD0C9F7F6CF462F4F70405D1C
:103810004A3318F0495D31FD4052419302D0A9F777
:10382000EACFB4E0A6959795879577956795BA9571
:10383000C9F700976105710508959B01AC010A2E37
:1038400006945795479537952795BA95C9F7620F0E
:10385000731F841F951FA01D08952F923F924F92B2
:103860005F926F927F928F929F92AF92BF92CF9210
:10387000DF92EF92FF920F931F93CF93DF93CDB719
:10388000DEB7CA1BDB0B0FB6F894DEBF0FBECDBF91
:1038900009942A88398848885F846E847D848C8462
:1038A0009B84AA84B984C884DF80EE80FD800C816B
:1038B0001B81AA81B981CE0FD11D0FB6F894DEBF4E
:0C38C0000FBECDBFED010895F894FFCFBE
:1038CC000000AE02200020202020201900681900E2
:0438DC00E8031900E4
:00000001FF
