:100000000C945F020C947C020C947C020C947C0295
:100010000C947C020C947C020C947C020C947C0268
:100020000C947C020C947C020C947C020C947C0258
:100030000C947C020C9480070C94E8020C947C02D3
:100040000C947C020C947C020C94CF030C947C02E4
:100050000C947C020C947C020C947C020C947C0228
:100060000C948A190C947C02CA1ACF1ACF1ACF1A90
:10007000CF1ACF1ACF1ACF1ABB19CF1ACF1ACF1A4D
:10008000CF1ACF1ACF1ACF1ABB19CF1ACF1ACF1A3D
:10009000CF1ACF1ACF1ACF1AC519CF1ACF1ACF1A23
:1000A000CF1ACF1ACF1ACF1AF219CF1ACF1ACF1AE6
:1000B000CF1ACF1ACF1ACF1AC519CF1ACF1ACF1A03
:1000C000CF1ACF1ACF1ACF1AF819CF1ACF1ACF1AC0
:1000D000CF1ACF1ACF1ACF1AFE19CF1ACF1ACF1AAA
:1000E000CF1ACF1ACF1ACF1A141ACF1ACF1ACF1A83
:1000F000CF1ACF1ACF1ACF1A441ACF1ACF1ACF1A43
:10010000CF1ACF1ACF1ACF1A041ACF1ACF1ACF1A72
:10011000CF1ACF1ACF1ACF1A221ACF1ACF1ACF1A44
:10012000CF1ACF1ACF1ACF1A471ACF1ACF1ACF1A0F
:10013000CF1ACF1ACF1ACF1A471ACF1ACF1ACF1AFF
:10014000CF1ACF1ACF1ACF1A471ACF1ACF1ACF1AEF
:10015000CF1ACF1ACF1ACF1A471ACF1ACF1ACF1ADF
:10016000CF1ACF1ACF1ACF1A501ACF1ACF1ACF1AC6
:10017000CF1ACF1ACF1ACF1A8C1ACF1ACF1ACF1A7A
:10018000CF1ACF1ACF1ACF1A501ACF1ACF1ACF1AA6
:10019000CF1ACF1ACF1ACF1A8C1ACF1ACF1ACF1A5A
:1001A000CF1ACF1ACF1ACF1A6C1ACF1ACF1ACF1A6A
:1001B000CF1ACF1ACF1ACF1A901ACF1ACF1ACF1A36
:1001C000CF1ACF1ACF1ACF1A901ACF1ACF1ACF1A26
:1001D000CF1ACF1ACF1ACF1AA61ACF1ACF1ACF1A00
:1001E000CF1ACF1ACF1ACF1AC41ACF1ACF1ACF1AD2
:1001F000CF1ACF1ACF1ACF1AC41ACF1ACF1ACF1AC2
:10020000CF1ACF1ACF1ACF1ACF1ACF1ACF1ACF1AA6
:10021000CF1ACF1ACF1ACF1ACF1ACF1ACF1ACF1A96
:10022000CF1ACF1ACF1ACF1ACF1ACF1ACF1ACF1A86
:10023000CF1ACF1ACF1ACF1ACF1ACF1ACF1ACF1A76
:10024000CF1ACF1ACF1ACF1ACF1ACF1ACF1ACF1A66
:10025000CF1ACF1ACF1ACF1ACF1A05A84CCDB2D4C5
:100260004EB93836A9020C50B9918688083CA6AA26
:10027000AA2ABE000000803F64656275673A2000CC
:1002800030313233343536373839414243444546CC
:100290000048454C4C4F20574F524C440D0A0067C4
:1002A00079726F3A20006779726F2063616C6962BE
:1002B000726174696F6E206661696C65642C20726E
:1002C00065747279696E672E2E2E0D0A000D0A0074
:1002D000256400202F2000256400202F20002564A5
:1002E000005D20002564006779726F3A20617667AF
:1002F0002F6D61782F6D696E5B00696D753A200016
:10030000696D755F696E69740D0A006D70753630C0
:1003100035303A20007365745F636C6F636B5F7395
:100320006F757263653A20737563636573730D0A45
:10033000007365745F636C6F636B5F736F7572637B
:10034000653A206661696C65640D0A007365745FC7
:1003500066756C6C5F7363616C655F6779726F5F04
:1003600072616E67653A20737563636573730D0A16
:10037000007365745F66756C6C5F7363616C655F59
:100380006779726F5F72616E67653A206661696C4A
:1003900065640D0A007365745F66756C6C5F7363EA
:1003A000616C655F616363656C5F72616E67653A1E
:1003B00020737563636573730D0A007365745F66FC
:1003C000756C6C5F7363616C655F616363656C5FC3
:1003D00072616E67653A206661696C65640D0A003A
:1003E0007365745F736C6565705F656E61626C6583
:1003F000643A20737563636573730D0A00736574E3
:100400005F736C6565705F656E61626C65643A20F0
:100410006661696C65640D0A006765745F64657682
:100420006963655F69643A2025630D0A006D61693F
:100430006E3A2000696E7075743D25630D0A007375
:1004400070696B655F333238705F69326320737433
:1004500061727465642E2E2E0D0A00696D755F69D8
:100460006E69740D0A00696D755F746573740D0AA9
:1004700000626C635F696E69740D0A007374617267
:1004800074696E67206C6F6F702E2E2E0D0A0061DE
:100490002F672F6D3A09002564090025640900259E
:1004A0006409002564090025640900256409002504
:1004B00064090025640900256409000D0A0011245F
:1004C0001FBECFEFD8E0DEBFCDBF11E0A0E0B1E0AE
:1004D000E8E0F4E502C005900D92A233B107D9F728
:1004E00023E0A2E3B1E001C01D92A73BB207E1F710
:1004F0000E94BA1F0C94022A0C940000CF93DF9341
:10050000CDB7DEB784E490E024E430E0F901208147
:100510002260FC01208387E490E02DE7FC0120832A
:1005200085E490E025E430E0F90120812360FC01BE
:1005300020838EE690E022E0FC012083DF91CF91C2
:100540000895CF93DF93CDB7DEB78091F3019091FB
:10055000F401A091F501B091F601BC01CD01DF914C
:10056000CF910895CF93DF93CDB7DEB728970FB61D
:10057000F894DEBF0FBECDBF6D837E838F839887D7
:100580000E94A1029B01AC018D819E81AF81B88543
:10059000820F931FA41FB51F89839A83AB83BC83EB
:1005A0000E94A1029B01AC0189819A81AB81BC812F
:1005B00082179307A407B50708F401C0F1CF289666
:1005C0000FB6F894DEBF0FBECDBFDF91CF91089577
:1005D0001F920F9200905F000F9211248F939F93B0
:1005E000AF93BF93CF93DF93CDB7DEB78091F30185
:1005F0009091F401A091F501B091F6010196A11D31
:10060000B11D8093F3019093F401A093F501B09391
:10061000F601DF91CF91BF91AF919F918F910F9094
:1006200000925F000F901F901895CF93DF93CDB786
:10063000DEB78091F3019091F401A091F501B091A2
:10064000F6010196A11DB11D8093F3019093F40171
:10065000A093F501B093F601DF91CF910895CF9368
:10066000DF93CDB7DEB780E29EE4A0E0B0E08093F8
:10067000F7019093F801A093F901B093FA0180E19A
:1006800097E2A0E0B0E08093FB019093FC01A0937F
:10069000FD01B093FE0180E49CE9A0E0B0E080930E
:1006A000FF0190930002A0930102B093020280E246
:1006B0009EE4A0E0B0E08093030290930402A09334
:1006C0000502B093060280E49FE1A0E0B0E08093D1
:1006D000070290930802A0930902B0930A0280E3F4
:1006E00095E7A0E0B0E080930B0290930C02A093FA
:1006F0000D02B0930E0281E080930F02109210025F
:1007000010921E0281E080931F0281E0809311020B
:10071000DF91CF910895CF93DF9300D01F92CDB793
:10072000DEB79B838A8383E3898385EC90E029810C
:10073000222F30E0232F330F330BFC01208384EC76
:1007400090E02981FC01208381EC90E021EC30E0F5
:10075000F90120812068FC01208381EC90E021ECEC
:1007600030E0F90120812861FC01208382EC90E0D7
:1007700022EC30E0F90120812660FC0120838A818F
:100780009B810E940D0460E070E081E394E00E9490
:1007900099250F900F900F90DF91CF9108951F92A0
:1007A0000F9200905F000F9211242F933F934F936D
:1007B0005F936F937F938F939F93AF93BF93EF93C9
:1007C000FF93CF93DF931F92CDB7DEB786EC90E017
:1007D000FC018081898380912302909124020097FB
:1007E00039F020912302309124028981F901099581
:1007F0000F90DF91CF91FF91EF91BF91AF919F91BA
:100800008F917F916F915F914F913F912F910F90B9
:1008100000925F000F901F901895CF93DF9300D048
:10082000CDB7DEB79A83898389819A819093240218
:10083000809323020F900F90DF91CF910895CF9373
:10084000DF9300D0CDB7DEB79A83898389819A81FF
:1008500090932202809321020F900F90DF91CF910D
:100860000895CF93DF9300D01F92CDB7DEB7898371
:100870007B836A8389810E94830480912102909105
:100880002202009739F020912102309122028981C1
:10089000F901099580E090E00F900F900F90DF91A3
:1008A000CF910895CF93DF9300D01F92CDB7DEB7DD
:1008B0009B838A838A819B81FC01808189831AC002
:1008C000000080EC90E0FC018081882F90E0807235
:1008D00099270097B1F386EC90E02981FC012083F1
:1008E0008A819B8101969B838A838A819B81FC01FB
:1008F000808189838981882319F70F900F900F9049
:10090000DF91CF910895CF93DF931F92CDB7DEB7DC
:100910008983000080EC90E0FC018081882F90E0CA
:10092000807299270097B1F386EC90E02981FC0151
:1009300020830F90DF91CF910895CF93DF93CDB7B0
:10094000DEB728970FB6F894DEBF0FBECDBF8887FD
:10095000888582958F70882F90E080589D4F9A836C
:10096000898389819A81FC0184918B838B818C831B
:10097000000080EC90E0FC018081882F90E0807284
:1009800099270097B1F386EC90E02C81FC0120833D
:100990008885882F90E08F70992780589D4F9E837F
:1009A0008D838D819E81FC0184918F838F818C83C7
:1009B000000080EC90E0FC018081882F90E0807244
:1009C00099270097B1F386EC90E02C81FC012083FD
:1009D00028960FB6F894DEBF0FBECDBFDF91CF9142
:1009E0000895CF93DF9300D000D000D0CDB7DEB70D
:1009F0009C838B837E836D831A8219820FC08981C9
:100A00009A812B813C81820F931FFC0180810E947F
:100A10009D0489819A8101969A83898329813A81EB
:100A20008D819E812817390754F326960FB6F894C6
:100A3000DEBF0FBECDBFDF91CF910895CF93DF937F
:100A400000D0CDB7DEB7CE010B969A83898349815A
:100A50005A818091AF039091B00329853A85B901FD
:100A60000E94E4250F900F90DF91CF910895CF93CE
:100A7000DF93CDB7DEB7AA970FB6F894DEBF0FBEEF
:100A8000CDBF81E992E0292F2F938F9388E792E0E1
:100A9000892F8F9388E792E08F930E941E050F9015
:100AA0000F900F900F9005C086EC90E023E4FC01BE
:100AB000208380EC90E0FC018081882F90E08072A0
:100AC0009927009789F380E090E0AAEFB3E4898347
:100AD0009A83AB83BC8320E030E04AEF54E4698121
:100AE0007A818B819C810E94B324DC01CB018D83B0
:100AF0009E83AF83B88720E030E040E85FE36D81FC
:100B00007E818F8198850E94602388232CF481E068
:100B100090E09A8789873FC020E03FEF4FE757E496
:100B20006D817E818F8198850E94AF2418164CF5C7
:100B300020E030E040E251E469817A818B819C8140
:100B40000E94B324DC01CB01BC01CD010E94D12362
:100B5000DC01CB019A8789870FC088EC90E09C87E5
:100B60008B878B859C850197F1F79C878B8789857F
:100B70009A8501979A87898789859A85009769F769
:100B800014C06D817E818F8198850E94D123DC0104
:100B9000CB019A87898789859A859E878D878D85E0
:100BA0009E850197F1F79E878D8786EC90E020E582
:100BB000FC01208380E090E0AAEFB3E48F87988B5C
:100BC000A98BBA8B20E030E04AEF54E46F85788936
:100BD00089899A890E94B324DC01CB018B8B9C8B81
:100BE000AD8BBE8B20E030E040E85FE36B897C8911
:100BF0008D899E890E94602388232CF481E090E0F7
:100C0000988F8F8B3FC020E03FEF4FE757E46B8911
:100C10007C898D899E890E94AF2418164CF520E0AE
:100C200030E040E251E46F85788989899A890E9491
:100C3000B324DC01CB01BC01CD010E94D123DC0136
:100C4000CB01988F8F8B0FC088EC90E09A8F898FA3
:100C5000898D9A8D0197F1F79A8F898F8F89988D59
:100C60000197988F8F8B8F89988D009769F714C0A3
:100C70006B897C898D899E890E94D123DC01CB01FF
:100C8000988F8F8B8F89988D9C8F8B8F8B8D9C8D60
:100C90000197F1F79C8F8B8F86EC90E028E4FC01A4
:100CA000208380E090E0AAEFB3E48D8F9E8FAF8F1A
:100CB000B8A320E030E04AEF54E46D8D7E8D8F8D37
:100CC00098A10E94B324DC01CB0189A39AA3ABA312
:100CD000BCA320E030E040E85FE369A17AA18BA1EA
:100CE0009CA10E94602388232CF481E090E09EA3C5
:100CF0008DA33FC020E03FEF4FE757E469A17AA101
:100D00008BA19CA10E94AF2418164CF520E030E086
:100D100040E251E46D8D7E8D8F8D98A10E94B324A9
:100D2000DC01CB01BC01CD010E94D123DC01CB0150
:100D30009EA38DA30FC088EC90E098A78FA38FA1EE
:100D400098A50197F1F798A78FA38DA19EA1019770
:100D50009EA38DA38DA19EA1009769F714C069A1E0
:100D60007AA18BA19CA10E94D123DC01CB019EA37F
:100D70008DA38DA19EA19AA789A789A59AA5019760
:100D8000F1F79AA789A7AA960FB6F894DEBF0FBE0F
:100D9000CDBFDF91CF910895CF93DF93CDB7DEB76D
:100DA00010923201109233018AE290E02AE230E0A0
:100DB000F90120812860FC0120838AE290E02AE288
:100DC00030E0F90120812062FC0120838AE290E07A
:100DD0002AE230E0F90120812064FC01208384E2D2
:100DE00090E024E230E0F90120812260FC012083C0
:100DF00084E290E024E230E0F90120812460FC01EB
:100E0000208384E290E024E230E0F9012081286030
:100E1000FC01208384E490E021EAFC01208385E446
:100E200090E021E0FC01208380E890E021EAFC01D1
:100E3000208381E890E021E0FC01208380EB90E0BA
:100E400021EAFC01208381EB90E021E0FC0120837A
:100E50008FE690E021E0FC012083789487E490E025
:100E6000FC01108288E490E0FC01108288E890E0A8
:100E7000FC01118210828AE890E0FC01118210824C
:100E800083EB90E0FC01108284EB90E0FC01108287
:100E9000DF91CF910895CF93DF9300D0CDB7DEB728
:100EA00089836A838A81882321F48981809332012E
:100EB00022C08A81813021F48981809333011BC053
:100EC0008A81823021F489818093340114C08A811F
:100ED000833021F48981809335010DC08A8184306B
:100EE00021F489818093360106C08A81853019F406
:100EF0008981809337010F900F90DF91CF910895F2
:100F00001F920F9200905F000F9211242F933F9336
:100F10004F935F936F937F938F939F93AF93BF9301
:100F2000EF93FF93CF93DF93CDB7DEB78091380176
:100F30008F5F8093380180913801803279F587E4A2
:100F400090E020913201FC01208388E490E0209120
:100F50003301FC01208388E890E020913701222FA3
:100F600030E0FC01318320838AE890E02091360153
:100F7000222F30E0FC013183208383EB90E020912D
:100F80003501FC01208384EB90E020913401FC01C9
:100F900020831092380181E08093DD010E94E407F4
:100FA000DF91CF91FF91EF91BF91AF919F918F9181
:100FB0007F916F915F914F913F912F910F90009290
:100FC0005F000F901F901895CF93DF93CDB7DEB7DA
:100FD00080913801882F90E08F719927009711F444
:100FE0000E941503DF91CF910895CF93DF93CDB782
:100FF000DEB72E970FB6F894DEBF0FBECDBF80E0F0
:1010000090E0A8E4B2E489839A83AB83BC8320E0B8
:1010100030E04AEF54E469817A818B819C810E949F
:10102000B324DC01CB018D839E83AF83B88720E09E
:1010300030E040E85FE36D817E818F8198850E947A
:10104000602388232CF481E090E09A8789873FC051
:1010500020E03FEF4FE757E46D817E818F819885D7
:101060000E94AF2418164CF520E030E040E251E435
:1010700069817A818B819C810E94B324DC01CB0140
:10108000BC01CD010E94D123DC01CB019A87898765
:101090000FC088EC90E09C878B878B859C8501979F
:1010A000F1F79C878B8789859A8501979A8789872D
:1010B00089859A85009769F714C06D817E818F813B
:1010C00098850E94D123DC01CB019A878987898585
:1010D0009A859E878D878D859E850197F1F79E87DE
:1010E0008D872E960FB6F894DEBF0FBECDBFDF9171
:1010F000CF910895CF93DF931F92CDB7DEB78AE2E9
:1011000090E028E0FC01208384E290E02EE0FC01E6
:101110002083198215C08981882F90E020910601D3
:10112000875D9D4FFC0120838981882F90E020916D
:1011300006018B5D9D4FFC01208389818F5F898330
:101140008981843040F385E390E021E0FC01208335
:101150008EE690E021E0FC01208385E490E021E030
:10116000FC0120830F90DF91CF910895CF93DF93FF
:10117000CDB7DEB7DF91CF910895CF93DF9300D045
:10118000CDB7DEB789836A830F900F90DF91CF913F
:101190000895CF93DF9300D000D000D0CDB7DEB755
:1011A0009A8389837C836B835E834D8329813A8113
:1011B0008B819C81821793071CF08B819C810CC0D2
:1011C00029813A818D819E81281739071CF08D81F4
:1011D0009E8102C089819A8126960FB6F894DEBF5F
:1011E0000FBECDBFDF91CF910895CF93DF9300D095
:1011F00000D000D0CDB7DEB79A8389837C836B8320
:101200005E834D8329813A818B819C81821793076C
:101210001CF08B819C810CC029813A818D819E813B
:10122000281739071CF08D819E8102C089819A811F
:1012300026960FB6F894DEBF0FBECDBFDF91CF91DB
:101240000895EF92FF920F931F93CF93DF93CDB743
:10125000DEB72C970FB6F894DEBF0FBECDBF698303
:101260007A838B839C832D833E834F835887E986C3
:10127000FA860B871C8729813A814B815C818D819D
:101280009E81AF81B88582179307A407B5072CF01C
:101290008D819E81AF81B88516C029813A814B81AD
:1012A0005C8189859A85AB85BC85281739074A07F3
:1012B0005B072CF089859A85AB85BC8504C0898144
:1012C0009A81AB81BC81BC01CD012C960FB6F894FC
:1012D000DEBF0FBECDBFDF91CF911F910F91FF9069
:1012E000EF9008958F929F92AF92BF92CF92DF922C
:1012F000EF92FF92CF93DF9300D000D0CDB7DEB74F
:1013000069837A838B839C832BED3FE049E45FE321
:1013100069817A818B819C810E94B324DC01CB019D
:101320006C017D0189819A81AB81BC81BF7720E00E
:1013300030E040E85FE3BC01CD010E94FB22DC010C
:10134000CB0129813A814B815C81BC01CD010E9496
:10135000B324DC01CB014C015D0189819A81AB8111
:10136000BC81BF772BE438EC47E85DE3BC01CD01DD
:101370000E94B324DC01CB0123EA32E94AE75EE3B1
:10138000BC01CD010E94FC22DC01CB019C01AD011E
:10139000C501B4010E94B324DC01CB019C01AD0165
:1013A000C701B6010E94FB22DC01CB01BC01CD01CB
:1013B0000F900F900F900F90DF91CF91FF90EF90D3
:1013C000DF90CF90BF90AF909F908F9008951F9324
:1013D000CF93DF93CDB7DEB766970FB6F894DEBF35
:1013E0000FBECDBF6F87788B898B9A8B2B8B3C8BF5
:1013F0004D8B5E8B8BED9FE0A9ECBFE38A879B87CB
:10140000AC87BD878F859889A989BA89BF772B89D1
:101410003C894D895E895F7711E0BC01CD010E9456
:10142000AF2418160CF010E01E8720E030E0A90170
:101430006F85788989899A890E94AF24882364F00E
:1014400020E030E0A9016B897C898D899E890E940A
:10145000AF2488230CF0198220E030E0A9016F85C9
:10146000788989899A890E94AF2488236CF020E0CA
:1014700030E0A9016B897C898D899E890E94602357
:10148000181614F081E0898320E030E0A9016F850F
:10149000788989899A890E94602318166CF020E067
:1014A00030E0A9016B897C898D899E890E94602327
:1014B000181614F082E0898320E030E0A9016F85DE
:1014C000788989899A890E94602318166CF020E037
:1014D00030E0A9016B897C898D899E890E94AF24A7
:1014E000882314F083E089838E85882389F02F85F3
:1014F000388949895A896B897C898D899E890E949E
:101500006423DC01CB018A839B83AC83BD8310C041
:101510002B893C894D895E896F85788989899A896B
:101520000E946423DC01CB018A839B83AC83BD834F
:101530008A819B81AC81BD81BC01CD010E94720971
:10154000DC01CB018E839F83A887B9878E85882392
:1015500009F45EC08981882F90E081309105F1F017
:10156000823091051CF4009741F082C082309105D1
:1015700031F183309105B9F17BC02E813F814885DF
:1015800059856A857B858C859D850E94FB22DC01BF
:10159000CB018E839F83A887B98739C02E813F8175
:1015A000488559856A857B858C859D850E94FB22AF
:1015B000DC01CB018E839F83A887B98728C08A85E9
:1015C0009B85AC85BD85B0582E813F814885598566
:1015D000BC01CD010E94FB22DC01CB018E839F83E5
:1015E000A887B98714C08A859B85AC85BD85B0580E
:1015F0002E813F8148855985BC01CD010E94FB2287
:10160000DC01CB018E839F83A887B987000030C09F
:101610008981882F90E08130910539F082309105E1
:1016200034F18230910591F023C02BED3FE049E485
:1016300050E46E817F81888599850E94FC22DC01BF
:10164000CB018E839F83A887B98712C02BED3FE023
:1016500049E450E46E817F81888599850E94FB2250
:10166000DC01CB018E839F83A887B98701C000006E
:101670008E819F81A885B985BC01CD0166960FB684
:10168000F894DEBF0FBECDBFDF91CF911F910895BB
:10169000CF93DF93CDB7DEB728970FB6F894DEBFB0
:1016A0000FBECDBF69837A838B839C832D833E835A
:1016B0004F8358872D813E814F81588589819A813A
:1016C000AB81BC81BC01CD010E94E709DC01CB01EB
:1016D00027EC3FEC4FE557E4BC01CD010E94B32459
:1016E000DC01CB01BC01CD010E94D123DC01CB0187
:1016F000BC01CD0128960FB6F894DEBF0FBECDBF5A
:10170000DF91CF910895CF92DF92EF92FF920F93E6
:101710001F93CF93DF93CDB7DEB72A970FB6F89418
:10172000DEBF0FBECDBF9A8389834B835C836D83FD
:101730007E830F83188729873A8789819A81FC01E4
:10174000C080D180E280F38089819A81FC01808110
:101750009181A281B3819C01AD016B817C818D81DE
:101760009E810E94FB22DC01CB012F8138854985B7
:101770005A85BC01CD010E94B324DC01CB019C0140
:10178000AD01C701B6010E94FC22DC01CB01298119
:101790003A81F90180839183A283B3832A960FB69D
:1017A000F894DEBF0FBECDBFDF91CF911F910F9197
:1017B000FF90EF90DF90CF9008950F931F93CF93FA
:1017C000DF93CDB7DEB72A970FB6F894DEBF0FBE12
:1017D000CDBF9A8389834B835C836D837E830F8324
:1017E000188729873A8789819A81FC0138962F8149
:1017F000388549855A858B819C81AD81BE8189015F
:101800009A01AC01BD01CF010E94830B89819A81AD
:101810000896FC0180819181A281B38129813A815E
:10182000F90134962F81388549855A8589019A01B5
:10183000AC01BD01CF010E94830B89819A8104967E
:10184000FC0180819181A281B3812F8138854985F6
:101850005A85E981FA8189019A01AC01BD01CF0164
:101860000E94830B89819A81FC0180819181A281F0
:10187000B381BC01CD012A960FB6F894DEBF0FBE2E
:10188000CDBFDF91CF911F910F910895CF93DF933B
:1018900000D000D000D0CDB7DEB79D838C836E839F
:1018A00019821A8227C08A81882F90E02C813D817D
:1018B000820F931FFC01808199818927898388E0A9
:1018C0008B8312C08981882F90E0880F991F982FF1
:1018D0008981282F207888ED289F802D1124892741
:1018E00089838B8181508B838B81882359F78A81EF
:1018F0008F5F8A839A818E819817A8F289812696B4
:101900000FB6F894DEBF0FBECDBFDF91CF91089523
:101910008F929F92AF92BF92CF92DF92EF92FF92FF
:101920000F931F93CF93DF93CDB7DEB76E970FB6AC
:10193000F894DEBF0FBECDBF6D877E878F87988BF3
:10194000298B3A8B4B8B5C8BED8AFE8A0F8B188F21
:10195000A98EBA8ECB8EDC8E9E8E8D8E298D3A8D81
:101960004B8D5C8D8D899E89AF89B88D79018A01F7
:10197000E81AF90A0A0B1B0BD801C70189839A835D
:10198000AB83BC838BA99CA99C01442737FD409560
:10199000542F89819A81AB81BC81BC01CD010E9409
:1019A0008A229B01AC018D859E85AF85B889BC01DB
:1019B000CD010E948A22DC01CB018D839E83AF83FF
:1019C000B8878D819E81AF81B88510EAE12E16E837
:1019D000F12E01E010E020E639E74EEF5FEFBC01A9
:1019E000CD010E942109DC01CB018D839E83AF8351
:1019F000B8878D8D9E8DFC0120813181428153817C
:101A00008D819E81AF81B885820F931FA41FB51F62
:101A10002D8D3E8DF90180839183A283B3832FA501
:101A200038A949A95AA989819A81AB81BC81BC0195
:101A3000CD010E948A229B01AC018D8D9E8DFC01FF
:101A400080819181A281B38179018A01E80EF91E1A
:101A50000A1F1B1F8DA59EA5FC0180819181A2817B
:101A6000B38129813A814B815C81281B390B4A0B58
:101A70005B0B8DA99EA9AFA9B8ADBC01CD010E9499
:101A80008A229B01AC0189899A89AB89BC89BC01F6
:101A9000CD010E948A22DC01CB018E0D9F1DA01F6B
:101AA000B11F89879A87AB87BC872DA53EA5898101
:101AB0009A81AB81BC81F90180839183A283B38336
:101AC00089859A85AB85BC85BB2324F481509048D9
:101AD000AF4FBF4F072E7FE0B595A7959795879598
:101AE0007A95D1F7702D89879A87AB87BC878985CE
:101AF0009A85AB85BC85BC01CD016E960FB6F89476
:101B0000DEBF0FBECDBFDF91CF911F910F91FF9030
:101B1000EF90DF90CF90BF90AF909F908F900895FF
:101B2000CF93DF9300D000D01F92CDB7DEB79B8359
:101B30008A837D836C838A819B81FC018081898378
:101B40008C819D81FC0120818A819B81FC01208305
:101B50008C819D812981FC0120830F900F900F9033
:101B60000F900F90DF91CF910895CF93DF9300D026
:101B700000D000D0CDB7DEB79C838B837E836D838E
:101B80008B819C81FC01808191819A8389838D81E5
:101B90009E81FC01208131818B819C81FC013183FC
:101BA00020838D819E8129813A81FC0131832083AC
:101BB00026960FB6F894DEBF0FBECDBFDF91CF9152
:101BC0000895CF93DF93CDB7DEB780E090E0A3E038
:101BD000B3E48093EF019093F001A093F101B093EF
:101BE000F201DF91CF910895CF92DF92EF92FF92B1
:101BF0000F931F93CF93DF93CDB7DEB76C970FB6DC
:101C0000F894DEBF0FBECDBF1A8280EA9FE09C83AE
:101C10008B8386E00E94E91660ED77E080E090E03B
:101C20000E94B2022CC18B819C81803A2FE09207E6
:101C300009F04CC060ED77E080E090E00E94B202D5
:101C4000CE010B96AC014C5F5F4FCE010B969C0111
:101C50002E5F3F4FCE010B96B9010E94FD161982EF
:101C600032C08981882F90E0880F991F880F991FB3
:101C70009E012F5F3F4F820F931F4096FC01108201
:101C80001182128213828981882F90E02981222F6C
:101C900030E0220F331FAE014F5F5F4F240F351F1F
:101CA000265F3F4FF90120813181880F991FAE01D6
:101CB0004F5F5F4F840F951F0496FC013183208393
:101CC00089818F5F89838981833058F2CE010B9699
:101CD000AC014C5F5F4FCE010B969C012E5F3F4FD6
:101CE000CE010B96B9010E94FD16198230C0898180
:101CF000882F90E0880F991F9E012F5F3F4F820F22
:101D0000931F0496FC018081918199231CF4919585
:101D1000819591099C018981882F90E0880F991FF6
:101D2000AE014F5F5F4F840F951F0A96FC018081C3
:101D30009181A901481B590BCA018134910524F0F6
:101D40008A818F5F8A8306C089818F5F89838981B9
:101D5000833068F2198270C08981082F10E0898170
:101D6000882F90E0880F991F880F991F9E012F5F81
:101D70003F4F820F931F4096FC01C080D180E280CC
:101D8000F3808981882F90E0880F991F9E012F5F33
:101D90003F4F820F931F0A96FC0180819181AA27F1
:101DA00097FDA095BA2FBC01CD010E94FF23DC0155
:101DB000CB0120E030E04AE755E4BC01CD010E94B0
:101DC0006423DC01CB019C01AD01C701B6010E9477
:101DD000FC22DC01CB019801220F331F220F331F9D
:101DE000AE014F5F5F4F240F351F205F3F4FF9015A
:101DF00080839183A283B3838981882F90E0298196
:101E0000222F30E0220F331FAE014F5F5F4F240FB0
:101E1000351F265F3F4FF90120813181880F991FBF
:101E2000AE014F5F5F4F840F951F0496FC01318315
:101E3000208389818F5F89838981833008F48CCFE7
:101E40008B819C8101979C838B838A811816BCF4BB
:101E500086EA92E0292F2F938F938FE992E0892FC2
:101E60008F938FE992E08F930E941E050F900F9041
:101E70000F900F9080EA9FE09C838B831A828B8166
:101E80009C81181619060CF4CECE89899A89AB89E3
:101E9000BC89BC01CD010E94D123DC01CB01909310
:101EA0001302809312028D899E89AF89B88DBC017F
:101EB000CD010E94D123DC01CB01909315028093C8
:101EC0001402898D9A8DAB8DBC8DBC01CD010E9411
:101ED000D123DC01CB0190931702809316020E945C
:101EE000DA116C960FB6F894DEBF0FBECDBFDF914E
:101EF000CF911F910F91FF90EF90DF90CF900895B9
:101F0000CF92DF92EF92FF920F931F93CF93DF93C5
:101F1000CDB7DEB7A0970FB6F894DEBF0FBECDBF2A
:101F200086E0E6E2F1E0DE01199601900D928A95D5
:101F3000E1F786E0ECE2F1E0DE011F9601900D9200
:101F40008A95E1F72CE0CE014596FC01322F1192E3
:101F50003A95E9F764EF71E080E090E00E94B20208
:101F60001982CE010396AC014C5F5F4FCE01039600
:101F70009C012E5F3F4FCE010396B9010E9454177A
:101F80001A82CBC08A81082F10E08A81882F90E0C6
:101F9000880F991F880F991F9E012F5F3F4F820F57
:101FA000931F4496FC01C080D180E280F3808A8137
:101FB000882F90E0880F991F9E012F5F3F4F820F5F
:101FC000931F0296FC0180819181AA2797FDA0951D
:101FD000BA2FBC01CD010E94FF23DC01CB0120E020
:101FE00030E04AEF53E4BC01CD010E946423DC01E0
:101FF000CB019C01AD01C701B6010E94FC22DC01AE
:10200000CB019801220F331F220F331FAE014F5F08
:102010005F4F240F351F2C5E3F4FF9018083918362
:10202000A283B3838A81882F90E0880F991F9E0135
:102030002F5F3F4F820F931F0296FC012081318159
:102040008A81882F90E0880F991FAE014F5F5F4F04
:10205000840F951F0E96FC01808191818217930752
:10206000ECF48A81882F90E02A81222F30E0220F21
:10207000331FAE014F5F5F4F240F351F2E5F3F4F61
:10208000F90120813181880F991FAE014F5F5F4FA9
:10209000840F951F0E96FC01318320838A81882F3F
:1020A00090E0880F991F9E012F5F3F4F820F931F73
:1020B0000296FC01208131818A81882F90E0880F6F
:1020C000991FAE014F5F5F4F840F951F0896FC016B
:1020D0008081918128173907ECF48A81882F90E05C
:1020E0002A81222F30E0220F331FAE014F5F5F4F56
:1020F000240F351F2E5F3F4FF90120813181880F5A
:10210000991FAE014F5F5F4F840F951F0896FC012A
:10211000318320838A818F5F8A838A81833008F4A8
:1021200031CF62E070E080E090E00E94B2028981ED
:102130008F5F898316CFCF93DF93CDB7DEB7109231
:102140000B0181E080930E0182E08093110181E018
:10215000809314011092170182E080931A0181E0AC
:1021600090E090930D0180930C018FEF9FEF90937F
:10217000100180930F0181E090E090931301809310
:10218000120181E090E0909316018093150181E0A7
:1021900090E0909319018093180181E090E0909372
:1021A0001C0180931B01DF91CF910895CF93DF93A2
:1021B000CDB7DEB70E949B1080910F02882361F19A
:1021C00080911B0190911C019195819591099093AB
:1021D0001C0180931B01809115019091160191952E
:1021E00081959109909316018093150180910F01BB
:1021F0009091100191958195910990931001809390
:102200000F0180911201909113019195819591098F
:102210009093130180931201809110028823C1F0E2
:102220006EE071E08BE091E00E94900D6FE071E054
:102230008CE091E00E94B50D67E171E084E191E0EE
:102240000E94900D68E171E085E191E00E94B50D7A
:10225000DF91CF910895CF93DF93CDB7DEB7689725
:102260000FB6F894DEBF0FBECDBF809103029091F0
:102270000402A0910502B09106022AE030E040E09D
:1022800050E0BC01CD010E949A22DA01C90180937D
:10229000470290934802A0934902B0934A0280916A
:1022A000070290910802A0910902B0910A0228EE5B
:1022B00033E040E050E0BC01CD010E949A22DA01F7
:1022C000C90180934B0290934C02A0934D02B093AE
:1022D0004E0280910B0290910C02A0910D02B091E0
:1022E0000E0224EC39E040E050E0BC01CD010E9438
:1022F0009A22DA01C90180934F0290935002A09371
:102300005102B09352028091F7019091F801A0918F
:10231000F901B091FA012AE030E040E050E0BC0160
:10232000CD010E949A22DA01C90180932D02909377
:102330002E02A0932F02B09330028091FB01909166
:10234000FC01A091FD01B091FE0128EE33E040E0D8
:1023500050E0BC01CD010E949A22DA01C9018093AC
:10236000310290933202A0933302B09334028091F1
:10237000FF0190910002A0910102B091020224ECB1
:1023800039E040E050E0BC01CD010E949A22DA0120
:10239000C9018093350290933602A0933702B0931F
:1023A000380268960FB6F894DEBF0FBECDBFDF913E
:1023B000CF910895CF93DF93CDB7DEB780E093E060
:1023C000292F2F938F938AEF92E0892F8F938AEF93
:1023D00092E08F930E941E050F900F900F900F9028
:1023E0000E948C13DF91CF910895CF93DF93CDB7E7
:1023F000DEB70E949F13DF91CF910895EF92FF9275
:102400000F931F93CF93DF93CDB7DEB72C970FB603
:10241000F894DEBF0FBECDBF9A8389837C836B8324
:102420005E834D8338872F831A870987FC86EB8666
:10243000AB85BC85E985FA852F8138854D815E8124
:102440006B817C8189819A817D018F010E94DE14DC
:102450002C960FB6F894DEBF0FBECDBFDF91CF91A3
:102460001F910F91FF90EF9008958F929F92AF92DE
:10247000BF92CF92DF92EF92FF920F931F93CF9371
:10248000DF93CDB7DEB762970FB6F894DEBF0FBE0D
:10249000CDBF9A8389837C836B835E834D8338872A
:1024A0002F831A870987FC86EB86DE86CD86B88A5D
:1024B000AF869A8A898AC988DA88EF84F8880D8578
:1024C0001E85AB85BC85E985FA852F8138854D81D0
:1024D0005E816B817C8189819A8146015701680107
:1024E0007D018F010E94751562960FB6F894DEBFCC
:1024F0000FBECDBFDF91CF911F910F91FF90EF9055
:10250000DF90CF90BF90AF909F908F900895CF9322
:10251000DF9300D000D000D0CDB7DEB79A83898397
:102520007C836B835E834D834D815E812B813C81F7
:1025300089819A81B9010E94FD1626960FB6F894FA
:10254000DEBF0FBECDBFDF91CF910895CF93DF9354
:1025500000D000D000D0CDB7DEB79A8389837C83CA
:102560006B835E834D834D815E812B813C818981AC
:102570009A81B9010E94541726960FB6F894DEBFCF
:102580000FBECDBFDF91CF910895CF93DF93CDB72D
:10259000DEB728970FB6F894DEBF0FBECDBFCE01D1
:1025A0000396AC014C5F5F4FCE0103969C012E5FFA
:1025B0003F4FCE010396B9010E9487128B819C8107
:1025C0009C018091120290911302A901481B590BA2
:1025D000CA019C838B838D819E819C018091140212
:1025E00090911502F901E81BF90BCF019E838D83B1
:1025F0008F8198859C018091160290911702A90104
:10260000481B590BCA0198878F8380910B01882F33
:1026100090E09A83898389819A81880F991F9E010E
:102620002F5F3F4F820F931F0296FC0180819181A3
:1026300090934E0180934D0140914D0150914E0178
:1026400020910C0130910D01429FC001439F900DDC
:10265000529F900D112490934E0180934D018091D3
:102660000E01882F90E09A83898389819A81880F4F
:10267000991F9E012F5F3F4F820F931F0296FC010F
:10268000808191819093500180934F0140914F013F
:102690005091500120910F0130911001429FC001D3
:1026A000439F900D529F900D112490935001809361
:1026B0004F0180911101882F90E09A83898389814D
:1026C0009A81880F991F9E012F5F3F4F820F931FA2
:1026D0000296FC0180819181909352018093510177
:1026E00040915101509152012091120130911301FA
:1026F000429FC001439F900D529F900D11249093D3
:1027000052018093510128960FB6F894DEBF0FBE98
:10271000CDBFDF91CF910895CF93DF93CDB7DEB7D3
:1027200081E00E94AD1380E00E94EB1380E00E94E4
:10273000291480E00E946714DF91CF910895CF9310
:10274000DF93CDB7DEB70E94A314982F81E09433B6
:1027500009F080E0DF91CF9108950F93CF93DF933D
:1027600000D0CDB7DEB78A8380911D010A8123E0B6
:1027700042E06BE60E944D1D89838981882399F090
:1027800085E193E0292F2F938F938BE093E0892F9E
:102790008F938BE093E08F930E941E050F900F9014
:1027A0000F900F9012C081E393E0292F2F938F9306
:1027B0008BE093E0892F8F938BE093E08F930E94BF
:1027C0001E050F900F900F900F900F900F90DF91BC
:1027D000CF910F9108950F93CF93DF9300D0CDB792
:1027E000DEB78A8380911D010A8122E044E06BE11B
:1027F0000E944D1D89838981882399F08CE493E0A0
:10280000292F2F938F938BE093E0892F8F938BE069
:1028100093E08F930E941E050F900F900F900F90E2
:1028200012C081E793E0292F2F938F938BE093E0E1
:10283000892F8F938BE093E08F930E941E050F905A
:102840000F900F900F900F900F90DF91CF910F91FD
:1028500008950F93CF93DF9300D0CDB7DEB78A836F
:1028600080911D010A8122E044E06CE10E944D1D2F
:1028700089838981882399F085E993E0292F2F9313
:102880008F938BE093E0892F8F938BE093E08F936E
:102890000E941E050F900F900F900F9012C08BEBAF
:1028A00093E0292F2F938F938BE093E0892F8F93C1
:1028B0008BE093E08F930E941E050F900F900F9076
:1028C0000F900F900F90DF91CF910F910895CF93BC
:1028D000DF9300D0CDB7DEB78A839A8180911D0146
:1028E000292F46E06BE60E94071D89838981882392
:1028F00099F080EE93E0292F2F938F938BE093E054
:10290000892F8F938BE093E08F930E941E050F9089
:102910000F900F900F9012C08DEF93E0292F2F93FF
:102920008F938BE093E0892F8F938BE093E08F93CD
:102930000E941E050F900F900F900F900F900F9018
:10294000DF91CF910895EF92FF920F931F93CF9352
:10295000DF93CDB7DEB780911D010F2EF8EEEF2E7D
:10296000F3E0FF2EF02D09E312E026E046E065E7F4
:102970000E94F81D80913902282F30E089E194E00F
:10298000432F4F932F93292F2F938F938BE093E017
:10299000892F8F938BE093E08F930E941E050F90F9
:1029A0000F900F900F900F900F9080913902DF9150
:1029B000CF911F910F91FF90EF900895EF92FF92AA
:1029C0000F931F93CF93DF93CDB7DEB72C970FB63E
:1029D000F894DEBF0FBECDBF9A8389837C836B835F
:1029E0005E834D8338872F831A870987FC86EB86A1
:1029F00080911D0108EE13E029E332E04EE06BE325
:102A00000E94311C80913902882F90E0382F2227B4
:102A100080913A02882F90E0282B392B89819A8166
:102A2000FC013183208380913B02882F90E0382F76
:102A3000222780913C02882F90E0282B392B8B8114
:102A40009C81FC013183208380913D02882F90E09E
:102A5000382F222780913E02882F90E0282B392B97
:102A60008D819E81FC013183208380914102882FDA
:102A700090E0382F222780914202882F90E0282B67
:102A8000392B8F819885FC0131832083809143020B
:102A9000882F90E0382F222780914402882F90E0E1
:102AA000282B392B89859A85FC01318320838091DD
:102AB0004502882F90E0382F222780914602882FE8
:102AC00090E0282B392B8B859C85FC01318320835A
:102AD0002C960FB6F894DEBF0FBECDBFDF91CF911D
:102AE0001F910F91FF90EF9008958F929F92AF9258
:102AF000BF92CF92DF92EF92FF920F931F93CF93EB
:102B0000DF93CDB7DEB7AE970FB6F894DEBF0FBE3A
:102B1000CDBF9E8F8D8F78A36F8F5AA349A33CA3FF
:102B20002BA31EA30DA3F8A6EFA2DAA6C9A6BCA6E6
:102B3000ABA69EA68DA6AFA1B8A5EDA1FEA12BA127
:102B40003CA149A15AA16F8D78A18D8D9E8D7D01EB
:102B50008F010E94DE1480911D0142E067E30E9414
:102B6000B41C80E090E0A0E2B1E489839A83AB8357
:102B7000BC8320E030E04AEF54E469817A818B81A4
:102B80009C810E94B324DC01CB018D839E83AF83A3
:102B9000B88720E030E040E85FE36D817E818F817F
:102BA00098850E94602388232CF481E090E09A8726
:102BB00089873FC020E03FEF4FE757E46D817E817A
:102BC0008F8198850E94AF2418164CF520E030E0E4
:102BD00040E251E469817A818B819C810E94B32417
:102BE000DC01CB01BC01CD010E94D123DC01CB0172
:102BF0009A8789870FC088EC90E09C878B878B85AC
:102C00009C850197F1F79C878B8789859A85019729
:102C10009A87898789859A85009769F714C06D819D
:102C20007E818F8198850E94D123DC01CB019A8718
:102C3000898789859A859E878D878D859E85019751
:102C4000F1F79E878D8741E06AE08CE00E94B41C1A
:102C500080E090E0A0E2B1E48F87988BA98BBA8BDB
:102C600020E030E04AEF54E46F85788989899A89B9
:102C70000E94B324DC01CB018B8B9C8BAD8BBE8B74
:102C800020E030E040E85FE36B897C898D899E8994
:102C90000E94602388232CF481E090E0988F8F8B32
:102CA0003FC020E03FEF4FE757E46B897C898D8977
:102CB0009E890E94AF2418164CF520E030E040E2D7
:102CC00051E46F85788989899A890E94B324DC014F
:102CD000CB01BC01CD010E94D123DC01CB01988F37
:102CE0008F8B0FC088EC90E09A8F898F898D9A8D99
:102CF0000197F1F79A8F898F8F89988D0197988F17
:102D00008F8B8F89988D009769F714C06B897C89A8
:102D10008D899E890E94D123DC01CB01988F8F8BF6
:102D20008F89988D9C8F8B8F8B8D9C8D0197F1F760
:102D30009C8F8B8F08EE13E029E332E046E063E0DE
:102D40008CE00E94311C80913A02882F90E0382F4D
:102D5000222780913902882F90E0282B392B89A5D2
:102D60009AA5FC013183208380913C02882F90E05A
:102D7000382F222780913B02882F90E0282B392B77
:102D80008BA59CA5FC013183208380913E02882F76
:102D900090E0382F222780913D02882F90E0282B49
:102DA000392B8DA59EA5FC0131832083AE960FB6ED
:102DB000F894DEBF0FBECDBFDF91CF911F910F9171
:102DC000FF90EF90DF90CF90BF90AF909F908F904B
:102DD00008950F93CF93DF931F92CDB7DEB789830A
:102DE00080911D01098123E042E06AE10E944D1DAE
:102DF0000F90DF91CF910F9108950F931F93CF9371
:102E0000DF9300D000D000D0CDB7DEB79A8389839E
:102E10007C836B835E834D8380911D0108EE13E0FC
:102E200029E332E046E063E40E94311C80913902DC
:102E3000882F90E0382F222780913A02882F90E047
:102E4000282B392B89819A81FC0131832083809141
:102E50003B02882F90E0382F222780913C02882F58
:102E600090E0282B392B8B819C81FC0131832083BE
:102E700080913D02882F90E0382F222780913E02DA
:102E8000882F90E0282B392B8D819E81FC01318386
:102E9000208326960FB6F894DEBF0FBECDBFDF911C
:102EA000CF911F910F9108950F931F93CF93DF93AD
:102EB00000D000D000D0CDB7DEB79A8389837C8361
:102EC0006B835E834D8380911D0108EE13E029E33F
:102ED00032E046E06BE30E94311C80913902882F7A
:102EE00090E0382F222780913A02882F90E0282BFB
:102EF000392B89819A81FC013183208380913B02A7
:102F0000882F90E0382F222780913C02882F90E074
:102F1000282B392B8B819C81FC013183208380916C
:102F20003D02882F90E0382F222780913E02882F83
:102F300090E0282B392B8D819E81FC0131832083E9
:102F400026960FB6F894DEBF0FBECDBFDF91CF91AE
:102F50001F910F910895CF93DF93CDB7DEB71092F5
:102F6000590181E080935B0110925C0189EB90E054
:102F700029EB30E0F90120812E7FFC01208389EBD1
:102F800090E029EB30E0F90120812D7FFC012083C6
:102F900088EB90E020E2FC0120838CEB90E025E4BC
:102FA000FC012083DF91CF910895CF93DF931F928F
:102FB000CDB7DEB789838AEB90E02981220FFC012F
:102FC00020830F90DF91CF910895CF93DF9300D0AE
:102FD00000D000D0CDB7DEB78A837C836B834D836E
:102FE0002E838D81813210F080E062C001C000002C
:102FF000809159018823D9F781E0809359018E810E
:1030000080935B018FEF8093C601109281018D81C7
:1030100081508093820181E080935A018A81882FB8
:1030200090E0880F991F982F80915A01892B8093E7
:103030005A0180915C01813071F410925C018BEB3C
:1030400090E020915A01FC0120838CEB90E025EC6C
:10305000FC01208307C08CEB90E025EEFC0120836F
:1030600001C00000809159018130D9F39091810114
:103070008D81981718F4809181018D83198213C076
:103080008981882F90E02B813C81820F931F2981B9
:10309000222F30E02F593E4FF9012081FC0120837F
:1030A00089818F5F898399818D81981748F38D81FC
:1030B00026960FB6F894DEBF0FBECDBFDF91CF913D
:1030C00008950F93CF93DF93CDB7DEB727970FB651
:1030D000F894DEBF0FBECDBF8A837C836B834D83A4
:1030E0002E830F838D81813210F081E06DC001C08D
:1030F0000000809159018823D9F782E0809359011B
:103100008F8180935B018FEF8093C60110928101C4
:103110008D8180938201198213C08981882F90E06C
:103120002981222F30E04B815C81240F351FF9016A
:1031300020818F599E4FFC01208389818F5F898375
:1031400099818D81981748F310925A018A81882FAE
:1031500090E0880F991F982F80915A01892B8093B6
:103160005A0180915C01813071F410925C018BEB0B
:1031700090E020915A01FC0120838CEB90E025EC3B
:10318000FC01208307C08CEB90E025EEFC0120833E
:1031900001C000008E81882321F080915901823086
:1031A000C1F38091C6018F3F11F480E00DC0809182
:1031B000C601803211F482E007C08091C6018033DD
:1031C00011F483E001C084E027960FB6F894DEBFC7
:1031D0000FBECDBFDF91CF910F910895CF93DF93B5
:1031E00000D000D0CDB7DEB79B838A836C838C81FF
:1031F000813210F081E023C080915901843011F0B8
:1032000082E01DC08C818093A401198213C0898142
:10321000882F90E02981222F30E04A815B81240FA2
:10322000351FF90120818D579E4FFC012083898134
:103230008F5F898399818C81981748F380E00F9084
:103240000F900F900F90DF91CF910895CF93DF9360
:1032500000D0CDB7DEB79A83898389819A81909314
:10326000600180935F010F900F90DF91CF910895DF
:10327000CF93DF9300D0CDB7DEB79A83898389815E
:103280009A8190935E0180935D010F900F90DF9182
:10329000CF910895CF93DF931F92CDB7DEB7898387
:1032A0008981882331F08CEB90E025ECFC012083B0
:1032B00005C08CEB90E025E8FC0120830F90DF91A6
:1032C000CF910895CF93DF93CDB7DEB78CEB90E02D
:1032D00025EDFC01208301C000008CEB90E0FC0197
:1032E0008081882F90E0807199270097A9F710922C
:1032F0005901DF91CF910895CF93DF93CDB7DEB71A
:103300008CEB90E025ECFC01208310925901DF91B9
:10331000CF9108951F920F9200905F000F92112499
:103320002F933F934F935F936F937F938F939F93CD
:10333000AF93BF93EF93FF93CF93DF93CDB7DEB7F8
:1033400089EB90E0FC018081882F90E0887F9927AD
:10335000AA2797FDA095BA2F40E050E028EF30E073
:10336000841B950B2817390708F419C18C5C9F4FF3
:10337000FC010C94B9228BEB90E020915A01FC01E6
:10338000208381E00E944A190AC1909181018091B5
:1033900082019817A0F48BEB90E02091810131E03D
:1033A000320F30938101222F30E02F593E4FF90127
:1033B0002081FC01208381E00E944A1912C0809183
:1033C0005B01882319F00E9462190BC081E0809391
:1033D0005C018CEB90E024EAFC01208310925901FF
:1033E000DEC0DDC080E28093C6010E946219D7C0B2
:1033F00080E38093C6010E946219D1C088E3809364
:10340000C6010E947C19CBC08091810191E0980F88
:1034100090938101882F90E02BEB30E0F90120811F
:103420008F599E4FFC0120839091810180918201F0
:10343000981720F481E00E944A19B1C080E00E94F0
:103440004A19ADC08091810191E0980F909381015C
:10345000882F90E02BEB30E0F90120818F599E4FAF
:10346000FC01208380915B01882319F00E9462197E
:1034700096C081E080935C018CEB90E024EAFC0133
:103480002083109259018BC00E94621988C083E08A
:10349000809359011092C50181E00E944A197FC0B2
:1034A0008091C5018032A0F48091C50191E0980F10
:1034B0009093C501882F90E02BEB30E0F90120813B
:1034C0008B559E4FFC01208381E00E944A1967C002
:1034D00080E00E944A1963C08091C501803240F4A7
:1034E0008091C501882F90E08B559E4FFC01108282
:1034F0000E94621920915F01309160018091C501A5
:10350000882F90E0BC0185EA91E0F90109951092BD
:10351000C5010E947C1943C080E00E944A193FC047
:1035200084E0809359011092A3011092A40180912C
:103530005D0190915E01FC0109958091A4018823B1
:1035400029F481E08093A401109283018BEB90E039
:103550002091A30131E0320F3093A301222F30E0FC
:103560002D573E4FF9012081FC0120839091A3014A
:103570008091A401981720F481E00E944A190FC09D
:1035800080E00E944A190BC081E00E944A19109203
:10359000590105C01092C6010E9462190000DF9116
:1035A000CF91FF91EF91BF91AF919F918F917F91BB
:1035B0006F915F914F913F912F910F9000925F001B
:1035C0000F901F901895CF93DF93CDB7DEB7109271
:1035D000C7011092C8011092CA011092CB010E943B
:1035E000AB17DF91CF910895CF93DF931F92CDB7A3
:1035F000DEB7898389810E94D5170E94E31A0F9054
:10360000DF91CF910895CF93DF931F92CDB7DEB7AF
:10361000898381E08093CC0189818093C9011092D4
:10362000CA011092CB010F90DF91CF910895CF93F3
:10363000DF9300D000D0CDB7DEB78A836B834C8395
:103640008B81813210F080E28B832C814B8163E58A
:1036500072E08A810E94E51789831092C7018981EF
:103660008093C80189810F900F900F900F90DF9188
:10367000CF9108950F93CF93DF9300D0CDB7DEB7EE
:103680008A839091CB018091C9010A8121E0492F61
:1036900063E772E00E94611889831092CA01109258
:1036A000CB011092CC0189810F900F90DF91CF91C7
:1036B0000F910895CF93DF931F92CDB7DEB7898323
:1036C0008091CC018823D1F08091CB01803218F019
:1036D00080E090E01AC08091CA01882F90E0298193
:1036E0008D589D4FFC0120838091CA018F5F80938C
:1036F000CA018091CA018093CB0105C061E0CE016F
:1037000001960E94EE1881E090E00F90DF91CF913A
:103710000895CF93DF9300D000D000D0CDB7DEB7AF
:103720009C838B837E836D838091CC018823D1F031
:103730001A8219820FC02B813C8189819A81820F64
:10374000931FFC0180810E945A1B89819A810196F6
:103750009A83898329813A818D819E81281739072F
:1037600050F306C02D818B819C81622F0E94EE1840
:103770008D819E8126960FB6F894DEBF0FBECDBF19
:10378000DF91CF910895CF93DF93CDB7DEB79091BE
:10379000C8018091C701292F281B822FDF91CF916B
:1037A0000895CF93DF931F92CDB7DEB78FEF898354
:1037B0009091C7018091C801981770F48091C7015A
:1037C000882F90E08D5A9D4FFC01808189838091E4
:1037D000C7018F5F8093C70189810F90DF91CF91DF
:1037E0000895CF93DF931F92CDB7DEB78FEF898314
:1037F0009091C7018091C801981748F48091C70142
:10380000882F90E08D5A9D4FFC01808189838981AA
:103810000F90DF91CF9108950F931F93CF93DF9374
:1038200000D000D000D0CDB7DEB789836A835C8337
:103830004B833E832D832D813E818B819C81890129
:103840009C0141E06A8189810E94311C26960FB655
:10385000F894DEBF0FBECDBFDF91CF911F910F91C6
:1038600008950F931F93CF93DF93CDB7DEB72D97B6
:103870000FB6F894DEBF0FBECDBF8F836887498730
:103880003B872A871D870C8719820E94A1029B0112
:10389000AC018C859D85CC01A0E0B0E0820F931F28
:1038A000A41FB51F8B839C83AD83BE831A824BC03C
:1038B0008F810E94031B88850E945A1B81E00E9411
:1038C0003A1B8985282F30E08A81882F90E0A90152
:1038D000481B590BCA018032910534F499858A81BD
:1038E000592F581B852F01C080E241E0682F8F813E
:1038F0000E94171B1DC089818F5F89830E94A102CE
:103900009B01AC018B819C81AD81BE8182179307A5
:10391000A407B50708F410C08981882F90E02A8594
:103920003B858901080F191F0E94D11BF801808374
:103930000E94C31B8823F9F68985813208F080E252
:103940009A81890F8A839A818985981708F4B0CF64
:1039500089812D960FB6F894DEBF0FBECDBFDF91E3
:10396000CF911F910F910895CF93DF9300D01F92B5
:10397000CDB7DEB789836A834B83CE0103969C0162
:1039800041E06A8189810E94CB1C0F900F900F90BB
:10399000DF91CF910895CF93DF93CDB7DEB727970F
:1039A0000FB6F894DEBF0FBECDBF8B836C834D8303
:1039B0003F832E831A828B810E94031B8C810E947D
:1039C0005A1B19820EC08981882F90E02E813F8179
:1039D000820F931FFC0180810E945A1B89818F5F97
:1039E000898399818D81981770F381E00E943A1B39
:1039F0008A8381E09A81992309F080E027960FB6A7
:103A0000F894DEBF0FBECDBFDF91CF910895CF9365
:103A1000DF9300D000D01F92CDB7DEB78A836B83CF
:103A20004C832D8380911E0190911F019C01CE013A
:103A30000196AC016B818A810E940C1C8D818823C8
:103A400079F08C81282F30E081E090E0022E02C0D6
:103A5000880F991F0A94E2F7982F8981892B0EC04D
:103A60008C81282F30E081E090E002C0880F991F00
:103A70002A95E2F7982F90958981892389838981F6
:103A8000482F6B818A810E94B41C0F900F900F9079
:103A90000F900F90DF91CF9108950F93CF93DF9305
:103AA000CDB7DEB727970FB6F894DEBF0FBECDBFF8
:103AB0008B836C834D832E830F8320911E01309165
:103AC0001F01CE010296AC016C818B810E940C1CFF
:103AD000882309F447C08E81282F30E081E090E0F0
:103AE00002C0880F991F2A95E2F701972D81422F76
:103AF00050E02E81222F30E0BA01621B730B9B0134
:103B00002F5F3F4F02C0880F991F2A95E2F78983E4
:103B10008F81882F90E02D81422F50E02E81222F1F
:103B200030E0BA01621B730B9B012F5F3F4F02C055
:103B3000880F991F2A95E2F78F839F8189818923B6
:103B40008F838981982F90958A8189238A839A818E
:103B50008F81892B8A838A81482F6C818B810E9477
:103B6000B41C01C080E027960FB6F894DEBF0FBEEC
:103B7000CDBFDF91CF910F9108950F931F93CF93F6
:103B8000DF93CDB7DEB729970FB6F894DEBF0FBE2F
:103B9000CDBF8B836C834D833F832E83198708872A
:103BA00028853985CE010296AC016C818B810E94FB
:103BB0000C1C89838D81282F30E081E090E002C0C9
:103BC000880F991F2A95E2F7982F8A818923282F39
:103BD0008E819F81FC012083898129960FB6F894FC
:103BE000DEBF0FBECDBFDF91CF911F910F91089522
:103BF000EF92FF920F931F93CF93DF93CDB7DEB772
:103C00002B970FB6F894DEBF0FBECDBF8C836D83AC
:103C10004E832F8319870887FB86EA862A853B8592
:103C2000CE010396AC016D818C810E940C1C8983AE
:103C300089818823D9F18F81282F30E081E090E0BD
:103C400002C0880F991F2A95E2F701972E81422F13
:103C500050E02F81222F30E0BA01621B730B9B01D1
:103C60002F5F3F4F02C0880F991F2A95E2F78A8382
:103C70009B818A8189238B838B81882F90E02E8181
:103C8000422F50E02F81222F30E0FA01E21BF30B8C
:103C90009F012F5F3F4F02C0959587952A95E2F7C8
:103CA0008B832B8188859985FC01208389812B96C4
:103CB0000FB6F894DEBF0FBECDBFDF91CF911F913D
:103CC0000F91FF90EF900895CF93DF93CDB7DEB7BC
:103CD000DF91CF910895CF93DF93CDB7DEB7809179
:103CE000DD01882321F01092DD010E94C512DF91D1
:103CF000CF910895CF93DF9300D0CDB7DEB79A83ED
:103D0000898389819A810E94C5270F900F90DF9146
:103D1000CF910895CF93DF9300D01F92CDB7DEB738
:103D20009A8389836B8389819A816B810E94CD27D5
:103D30000F900F900F90DF91CF910895CF93DF9365
:103D4000CDB7DEB70E94231FDF91CF910895CF93A7
:103D5000DF93CDB7DEB7DF91CF910895CF93DF9397
:103D6000CDB7DEB72C970FB6F894DEBF0FBECDBF30
:103D700089876A875C874B878A85882F90E0992797
:103D80009A8389838981882F90E085569D4FFC0115
:103D90008081992787FD90959C838B838981882FCB
:103DA00090E08B5A9F4F85569D4FFC01808199274B
:103DB00087FD90959E838D838981882F90E086551D
:103DC0009F4F85569D4FFC018081992787FD9095D7
:103DD00098878F838985282F30E0C901880F991F24
:103DE000820F931F805E9E4FFC0190818B81692F13
:103DF0000E944B078985282F30E0C901880F991F41
:103E0000820F931F8F5D9E4FFC0190818D81692FE2
:103E10000E944B078985282F30E0C901880F991F20
:103E2000820F931F8E5D9E4FFC0190818F81692FC1
:103E30000E944B072C960FB6F894DEBF0FBECDBF85
:103E4000DF91CF910895CF93DF9300D0CDB7DEB748
:103E50001A8219824AC089819A81AA2797FDA09562
:103E6000BA2FBC01CD010E94FF23DC01CB019C01D4
:103E7000AD01BC01CD010E94FC22DC01CB0120E0A0
:103E800030E040E251E4BC01CD010E946423DC013A
:103E9000CB012BED3FE049E450E4BC01CD010E9491
:103EA000B324DC01CB01BC01CD010E941625DC014D
:103EB000CB0120E030E04EEF52E4BC01CD010E9486
:103EC000B324DC01CB01BC01CD010E94CC23DC0179
:103ED000CB01282F89819A8185569D4FFC01208333
:103EE00089819A8101969A83898389819A818A300E
:103EF00091050CF4B0CF0F900F90DF91CF91089502
:103F0000CF93DF93CDB7DEB740E050E060E080E0D4
:103F10000E94AE1E40E050E060E080E00E94AE1ED5
:103F2000DF91CF910895CF93DF931F92CDB7DEB786
:103F3000898389818093EE018981282F30E084E391
:103F400094E0432F4F932F93292F2F938F938DE23C
:103F500094E0892F8F938DE294E08F930E941E0549
:103F60000F900F900F900F900F900F900F90DF9188
:103F7000CF910895CF93DF93CDB7DEB72F970FB6CC
:103F8000F894DEBF0FBECDBF83E99FE10E948B0393
:103F90000E942F038FE394E0292F2F938F938DE2BC
:103FA00094E0892F8F938DE294E08F930E941E05F9
:103FB0000F900F900F900F900E94CC0678940E9463
:103FC000E31A8BE594E0292F2F938F938DE294E0F1
:103FD000892F8F938DE294E08F930E941E050F909E
:103FE0000F900F900F900E94DA1186E694E0292F2F
:103FF0002F938F938DE294E0892F8F938DE294E03D
:104000008F930E941E050F900F900F900F900E94AB
:10401000F51189838981882331F0809111028823E9
:1040200011F00E94F40D81E794E0292F2F938F93D4
:104030008DE294E0892F8F938DE294E08F930E941C
:104040001E050F900F900F900F900E949E1E0E94D1
:10405000801F0E94E10D0E94D6100E942B118CE758
:1040600094E0292F2F938F938DE294E0892F8F93E3
:104070008DE294E08F930E941E050F900F900F9099
:104080000F900E94B62080E090E0A8ECB2E48A8312
:104090009B83AC83BD8320E030E04AEF54E46A8127
:1040A0007B818C819D810E94B324DC01CB018E83B6
:1040B0009F83A887B98720E030E040E85FE36E8106
:1040C0007F81888599850E94602388232CF481E074
:1040D00090E09B878A873FC020E03FEF4FE757E49F
:1040E0006E817F81888599850E94AF2418164CF5D2
:1040F00020E030E040E251E46A817B818C819D8147
:104100000E94B324DC01CB01BC01CD010E94D1236C
:10411000DC01CB019B878A870FC088EC90E09D87EC
:104120008C878C859D850197F1F79D878C878A8583
:104130009B8501979B878A878A859B85009769F76E
:10414000A0CF6E817F81888599850E94D123DC0173
:10415000CB019B878A878A859B859F878E878E85E3
:104160009F850197F1F79F878E878BCF8F929F92C4
:10417000AF92BF92CF92DF92EF92FF920F931F9375
:10418000CF93DF93CDB7DEB72E970FB6F894DEBF8F
:104190000FBECDBF0F2EF5EA8F2EF3E09F2EF02D30
:1041A0000F2EFFE9AF2EF3E0BF2EF02D0F2EFBEA0E
:1041B000CF2EF3E0DF2EF02D0F2EF3EAEF2EF3E0FB
:1041C000FF2EF02D0BE913E027EA33E04DE953E031
:1041D00069EA73E081EA93E00E9435128FE894E087
:1041E000292F2F938F938DE294E0892F8F938DE267
:1041F00094E08F930E941E050F900F900F900F90E8
:104200002091A1033091A20387E994E0432F4F93BB
:104210002F93292F2F938F938DE294E0892F8F93E3
:104220008DE294E08F930E941E050F900F900F90E7
:104230000F900F900F902091A9033091AA038BE962
:1042400094E0432F4F932F93292F2F938F938DE239
:1042500094E0892F8F938DE294E08F930E941E0546
:104260000F900F900F900F900F900F9020919D0343
:1042700030919E038FE994E0432F4F932F93292F82
:104280002F938F938DE294E0892F8F938DE294E0AA
:104290008F930E941E050F900F900F900F900F901C
:1042A0000F902091A7033091A80383EA94E0432F55
:1042B0004F932F93292F2F938F938DE294E0892F83
:1042C0008F938DE294E08F930E941E050F900F90C4
:1042D0000F900F900F900F9020919B0330919C03B3
:1042E00087EA94E0432F4F932F93292F2F938F9397
:1042F0008DE294E0892F8F938DE294E08F930E945A
:104300001E050F900F900F900F900F900F9020911F
:10431000A3033091A4038BEA94E0432F4F932F9390
:10432000292F2F938F938DE294E0892F8F938DE225
:1043300094E08F930E941E050F900F900F900F90A6
:104340000F900F902091AB033091AC038FEA94E073
:10435000432F4F932F93292F2F938F938DE294E028
:10436000892F8F938DE294E08F930E941E050F900A
:104370000F900F900F900F900F9020919F0330910E
:10438000A00383EB94E0432F4F932F93292F2F9378
:104390008F938DE294E0892F8F938DE294E08F9339
:1043A0000E941E050F900F900F900F900F900F908E
:1043B0002091A5033091A60387EB94E0432F4F9300
:1043C0002F93292F2F938F938DE294E0892F8F9332
:1043D0008DE294E08F930E941E050F900F900F9036
:1043E0000F900F900F908BEB94E0292F2F938F93CA
:1043F0008DE294E0892F8F938DE294E08F930E9459
:104400001E050F900F900F900F9080E090E0A8ECA9
:10441000B2E489839A83AB83BC8320E030E04AEF27
:1044200054E469817A818B819C810E94B324DC01F0
:10443000CB018D839E83AF83B88720E030E040E8D6
:104440005FE36D817E818F8198850E946023882340
:104450002CF481E090E09A8789873FC020E03FEF0D
:104460004FE757E46D817E818F8198850E94AF244C
:1044700018164CF520E030E040E251E469817A8181
:104480008B819C810E94B324DC01CB01BC01CD0156
:104490000E94D123DC01CB019A8789870FC088EC69
:1044A00090E09C878B878B859C850197F1F79C8793
:1044B0008B8789859A8501979A87898789859A85C7
:1044C000009769F714C06D817E818F8198850E9465
:1044D000D123DC01CB019A87898789859A859E87BC
:1044E0008D878D859E850197F1F79E878D872E9606
:1044F0000FB6F894DEBF0FBECDBFDF91CF911F91F5
:104500000F91FF90EF90DF90CF90BF90AF909F9072
:104510008F900895DB018F939F930E94BF22BF91DC
:10452000AF91A29F800D911DA39F900DB29F900D02
:1045300011240895052E97FB1EF400940E94B122C9
:1045400057FD07D00E94CA2207FC03D04EF40C94FA
:10455000B12250954095309521953F4F4F4F5F4F79
:10456000089590958095709561957F4F8F4F9F4FDF
:104570000895EE0FFF1F0590F491E02D09940E941D
:10458000EC22A59F900DB49F900DA49F800D911DCE
:1045900011240895A1E21A2EAA1BBB1BFD010DC018
:1045A000AA1FBB1FEE1FFF1FA217B307E407F507E3
:1045B00020F0A21BB30BE40BF50B661F771F881FBF
:1045C000991F1A9469F760957095809590959B0155
:1045D000AC01BD01CF010895A29FB001B39FC001FE
:1045E000A39F700D811D1124911DB29F700D811D1F
:1045F0001124911D08955058BB27AA270ED075C1CC
:1046000066D130F06BD120F031F49F3F11F41EF4ED
:104610005BC10EF4E095E7FB51C1E92F77D180F340
:10462000BA17620773078407950718F071F49EF5AF
:104630008FC10EF4E0950B2EBA2FA02D0B01B901FE
:1046400090010C01CA01A0011124FF27591B99F008
:10465000593F50F4503E68F11A16F040A22F232F14
:10466000342F4427585FF3CF469537952795A79564
:10467000F0405395C9F77EF41F16BA0B620B730B0B
:10468000840BBAF09150A1F0FF0FBB1F661F771F7C
:10469000881FC2F70EC0BA0F621F731F841F48F431
:1046A000879577956795B795F7959E3F08F0B3CFB7
:1046B0009395880F08F09927EE0F979587950895A1
:1046C000D9D008F481E008950CD00FC107D140F093
:1046D000FED030F021F45F3F19F0F0C0511139C124
:1046E000F3C014D198F39923C9F35523B1F3951B63
:1046F000550BBB27AA2762177307840738F09F5F03
:104700005F4F220F331F441FAA1FA9F333D00E2E71
:104710003AF0E0E830D091505040E695001CCAF7DE
:1047200029D0FE2F27D0660F771F881FBB1F2617A3
:1047300037074807AB07B0E809F0BB0B802DBF0176
:10474000FF2793585F4F2AF09E3F510568F0B6C08F
:1047500000C15F3FECF3983EDCF386957795679553
:10476000B795F7959F5FC9F7880F911D9695879527
:1047700097F90895E1E0660F771F881FBB1F621746
:1047800073078407BA0720F0621B730B840BBA0B04
:10479000EE1F88F7E095089504D06894B111D9C050
:1047A0000895BCD088F09F5790F0B92F9927B75142
:1047B000A0F0D1F0660F771F881F991F1AF0BA95E5
:1047C000C9F712C0B13081F0C3D0B1E00895C0C0C4
:1047D000672F782F8827B85F39F0B93FCCF38695DB
:1047E00077956795B395D9F73EF490958095709538
:1047F00061957F4F8F4F9F4F0895E89409C097FBB5
:104800003EF490958095709561957F4F8F4F9F4FA7
:104810009923A9F0F92F96E9BB279395F6958795EB
:1048200077956795B795F111F8CFFAF4BB0F11F4AE
:1048300060FF1BC06F5F7F4F8F4F9F4F16C0882355
:1048400011F096E911C0772321F09EE8872F762F8B
:1048500005C0662371F096E8862F70E060E02AF0CC
:104860009A95660F771F881FDAF7880F96958795B8
:1048700097F90895990F0008550FAA0BE0E8FEEF8D
:1048800016161706E807F907C0F012161306E40714
:10489000F50798F0621B730B840B950B39F40A260D
:1048A00061F0232B242B252B21F408950A2609F4EB
:1048B000A140A6958FEF811D811D089597F99F67EF
:1048C00080E870E060E008959FEF80EC0895002498
:1048D0000A941616170618060906089500240A9465
:1048E00012161306140605060895092E0394000CEB
:1048F00011F4882352F0BB0F40F4BF2B11F460FF7A
:1049000004C06F5F7F4F8F4F9F4F089557FD9058A2
:10491000440F551F59F05F3F71F04795880F97FB83
:10492000991F61F09F3F79F087950895121613063D
:104930001406551FF2CF4695F1DF08C0161617066C
:104940001806991FF1CF86957105610508940895A1
:10495000E894BB2766277727CB0197F908958ADF6C
:1049600008F48FEF08950BD0C0CFB1DF28F0B6DF89
:1049700018F0952309F0A2CFA7CF1124EACFC6DF04
:10498000A0F3959FD1F3950F50E0551F629FF00162
:10499000729FBB27F00DB11D639FAA27F00DB11DBB
:1049A000AA1F649F6627B00DA11D661F829F222744
:1049B000B00DA11D621F739FB00DA11D621F839FCB
:1049C000A00D611D221F749F3327A00D611D231FA1
:1049D000849F600D211D822F762F6A2F11249F57EF
:1049E00050408AF0E1F088234AF0EE0FFF1FBB1F12
:1049F000661F771F881F91505040A9F79E3F5105B1
:104A000070F05CCFA6CF5F3FECF3983EDCF3869569
:104A100077956795B795F795E7959F5FC1F7FE2B5B
:104A2000880F911D9695879597F908959F9305D0C6
:104A30000F9007FCEE5F28C047CF70DFE8F3E894E3
:104A4000E0E0BB279F57F0F02AED3FE049EC06C0BD
:104A5000EE0FBB0F661F771F881F28F0B23A620760
:104A60007307840728F0B25A620B730B840BE3952B
:104A70009A9572F7803830F49A95BB0F661F771FAE
:104A8000881FD2F7904813C0EF93E0FF06C0A2EA58
:104A90002AED3FE049EC5FEBC0DD27DF0F90039488
:104AA00001FC9058EAE5F2E00EC09F3F31F09150D2
:104AB00020F4879577956795B795880F911D969502
:104AC000879597F908959F938F937F936F93FF93A3
:104AD000EF939B01AC0147DFEF91FF9105D02F9140
:104AE0003F914F915F913FCFDF93CF931F930F93F0
:104AF000FF92EF92DF927B018C01689405C0DA2E61
:104B0000EF013DDFFE01E894A59125913591459196
:104B10005591AEF3EF0181DDFE019701A801DA9412
:104B200079F7DF90EF90FF900F911F91CF91DF9178
:104B300008950F931F93CF93DF93EC018B010097A0
:104B400031F46115710519F480E090E038C06EE031
:104B500070E081E090E00E94DB27FC010097A1F368
:104B600080E883830115110571F01387028781E8BE
:104B700083838091AD039091AE03892B21F4F09350
:104B8000AE03E093AD032097C9F0D187C08783813E
:104B9000826083838091AF039091B003892B71F47D
:104BA000F093B003E093AF038091B1039091B2030F
:104BB000892B21F4F093B203E093B103CF01DF918D
:104BC000CF911F910F910895CF93DF93EC018B81CB
:104BD00088608B83CE010E94F3252B81277F2B8356
:104BE000DF91CF910895ACE0B0E0E9EFF5E20C94ED
:104BF000CB297C016B018A01FC011782168283811B
:104C000081FFBDC1CE0101964C01F7019381F601F0
:104C100093FD859193FF81916F01882309F4ABC1C6
:104C2000853239F493FD859193FF81916F0185322F
:104C300029F4B70190E00E943B29E7CF512C312C99
:104C400020E02032A0F48B3269F030F4803259F049
:104C5000833269F420612CC08D3239F0803339F40D
:104C6000216026C02260246023C0286021C027FD67
:104C700027C030ED380F3A3078F426FF06C0FAE04E
:104C80005F9E300D1124532E13C08AE0389E300DE4
:104C90001124332E20620CC08E3221F426FD6BC10C
:104CA000206406C08C3611F4206802C0883641F4B6
:104CB000F60193FD859193FF81916F018111C1CF21
:104CC000982F9F7D9554933028F40C5F1F4FFFE37E
:104CD000F9830DC0833631F0833771F0833509F0E5
:104CE0005BC022C0F801808189830E5F1F4F44247E
:104CF0004394512C540115C03801F2E06F0E711C21
:104D0000F801A080B18026FF03C0652D70E002C0CD
:104D10006FEF7FEFC5012C870E9430292C018301A2
:104D20002C852F77222E17C03801F2E06F0E711CF0
:104D3000F801A080B18026FF03C0652D70E002C09D
:104D40006FEF7FEFC5012C870E941E292C012C8557
:104D50002068222E830123FC1BC0832D90E048167F
:104D60005906B0F4B70180E290E00E943B293A94E2
:104D7000F4CFF50127FC859127FE81915F01B701F2
:104D800090E00E943B2931103A94F1E04F1A51080B
:104D90004114510471F7E5C0843611F0893639F5B4
:104DA000F80127FF07C060817181828193810C5FC8
:104DB0001F4F08C060817181882777FD8095982FEB
:104DC0000E5F1F4F2F76B22E97FF09C090958095EA
:104DD000709561957F4F8F4F9F4F2068B22E2AE0CC
:104DE00030E0A4010E946D29A82EA81844C0853780
:104DF00029F42F7EB22E2AE030E025C0F22FF97F71
:104E0000BF2E8F36C1F018F4883579F0B4C08037E2
:104E100019F0883721F0AFC02F2F2061B22EB4FED9
:104E20000DC08B2D8460B82E09C024FF0AC09F2FAF
:104E30009660B92E06C028E030E005C020E130E0E1
:104E400002C020E132E0F801B7FE07C06081718145
:104E5000828193810C5F1F4F06C06081718180E069
:104E600090E00E5F1F4FA4010E946D29A82EA81884
:104E7000FB2DFF77BF2EB6FE0BC02B2D2E7FA5146A
:104E800050F4B4FE0AC0B2FC08C02B2D2E7E05C023
:104E90007A2C2B2D03C07A2C01C0752C24FF0DC059
:104EA000FE01EA0DF11D8081803311F4297E09C0D5
:104EB00022FF06C07394739404C0822F867809F091
:104EC000739423FD13C020FF06C05A2C731418F4EA
:104ED000530C5718732C731468F4B70180E290E0F8
:104EE0002C870E943B2973942C85F5CF731410F402
:104EF000371801C0312C24FF12C0B70180E390E0C5
:104F00002C870E943B292C8522FF17C021FF03C05C
:104F100088E590E002C088E790E0B7010CC0822FDE
:104F2000867859F021FD02C080E201C08BE227FDA6
:104F30008DE2B70190E00E943B29A51438F4B70137
:104F400080E390E00E943B295A94F7CFAA94F401A1
:104F5000EA0DF11D8081B70190E00E943B29A1106C
:104F6000F5CF332009F451CEB70180E290E00E94E2
:104F70003B293A94F6CFF7018681978102C08FEFE3
:104F80009FEF2C96E2E10C94E729F999FECF92BDB0
:104F900081BDF89A992780B50895262FF999FECFFB
:104FA0001FBA92BD81BD20BD0FB6F894FA9AF99A46
:104FB0000FBE019608950F931F93CF93DF93869FA3
:104FC0008001879F100D969F100D1124C8010E942B
:104FD000F727EC01009729F0A80160E070E00E943B
:104FE0002929CE01DF91CF911F910F910895CF9381
:104FF000DF938230910510F482E090E0E091B503F8
:10500000F091B60320E030E0A0E0B0E0309739F155
:105010004081518148175907B8F04817590771F472
:1050200082819381109729F013969C938E93129707
:105030002CC09093B6038093B50327C0211531058A
:1050400031F04217530718F0A901DB0101C0EF014D
:105050009A01BD01DF010280F381E02DD7CF211538
:105060003105F9F0281B390B2430310580F48A8191
:105070009B816115710521F0FB019383828304C03C
:105080009093B6038093B503FE01329644C0FE01AF
:10509000E20FF31F819391932250310939832883C2
:1050A0003AC02091B3033091B403232B41F42091F3
:1050B0000201309103013093B4032093B303209194
:1050C0000001309101012115310541F42DB73EB7A2
:1050D0004091040150910501241B350BE091B3036D
:1050E000F091B403E217F307A0F42E1B3F0B28172F
:1050F000390778F0AC014E5F5F4F2417350748F051
:105100004E0F5F1F5093B4034093B3038193919369
:1051100002C0E0E0F0E0CF01DF91CF910895CF939E
:10512000DF93009709F487C0FC0132971382128243
:10513000C091B503D091B603209781F420813181CD
:10514000280F391F8091B3039091B40382179307FE
:1051500079F5F093B403E093B3036DC0DE0120E072
:1051600030E0AE17BF0750F412964D915C91139743
:105170009D014115510509F1DA01F3CFB383A283F3
:1051800040815181840F951F8A179B0771F48D917F
:105190009C911197840F951F02969183808312969C
:1051A0008D919C911397938382832115310529F466
:1051B000F093B603E093B5033EC0D9011396FC9378
:1051C000EE9312974D915D91A40FB51FEA17FB075F
:1051D00079F480819181840F951F0296D9011196EF
:1051E0009C938E938281938113969C938E931297B6
:1051F000E0E0F0E08A819B81009719F0FE01EC016C
:10520000F9CFCE01029628813981820F931F209118
:10521000B3033091B4032817390769F4309729F4A0
:105220001092B6031092B50302C013821282D0937B
:10523000B403C093B303DF91CF910895FC010590AF
:10524000615070400110D8F7809590958E0F9F1F88
:105250000895DC0101C06D9341505040E0F708957E
:10526000FC016150704001900110D8F78095909535
:105270008E0F9F1F08950F931F93CF93DF93182FC7
:10528000092FEB018B8181FD03C08FEF9FEF20C0C1
:1052900082FF10C04E815F812C813D8142175307F0
:1052A0007CF4E881F9819F012F5F3F4F3983288388
:1052B000108306C0E885F985812F0995892B29F788
:1052C0002E813F812F5F3F4F3F832E83812F902F71
:1052D000DF91CF911F910F910895FA01AA272830ED
:1052E00051F1203181F1E8946F936E7F6E5F7F4FB3
:1052F0008F4F9F4FAF4FB1E03ED0B4E03CD0670F2F
:10530000781F891F9A1FA11D680F791F8A1F911D81
:10531000A11D6A0F711D811D911DA11D20D009F4D1
:1053200068943F912AE0269F11243019305D319313
:10533000DEF6CF010895462F4770405D4193B3E0FC
:105340000FD0C9F7F6CF462F4F70405D4A3318F0A3
:10535000495D31FD4052419302D0A9F7EACFB4E054
:10536000A6959795879577956795BA95C9F700970C
:105370006105710508959B01AC010A2E06945795AD
:10538000479537952795BA95C9F7620F731F841F04
:10539000951FA01D08952F923F924F925F926F929A
:1053A0007F928F929F92AF92BF92CF92DF92EF92B5
:1053B000FF920F931F93CF93DF93CDB7DEB7CA1B36
:1053C000DB0B0FB6F894DEBF0FBECDBF09942A8861
:1053D000398848885F846E847D848C849B84AA8409
:1053E000B984C884DF80EE80FD800C811B81AA8196
:1053F000B981CE0FD11D0FB6F894DEBF0FBECDBF61
:08540000ED010895F894FFCFBF
:105408000000B70320002020202020000100010117
:105418000002010000010001010002010068E80328
:10542800000102030405FF7FFF7FFF7F00800080EB
:025438000080F2
:00000001FF
