:100000000C9434020C9451020C9451020C94510241
:100010000C9451020C9451020C9451020C94510214
:100020000C9451020C9451020C9451020C94510204
:100030000C9451020C94E2060C94BD020C945102F3
:100040000C9451020C9451020C9448030C945102EC
:100050000C9451020C9451020C9451020C945102D4
:100060000C9470120C945102B013B513B513B51360
:10007000B513B513B513B513A112B513B513B51355
:10008000B513B513B513B513A112B513B513B51345
:10009000B513B513B513B513AB12B513B513B5132B
:1000A000B513B513B513B513D812B513B513B513EE
:1000B000B513B513B513B513AB12B513B513B5130B
:1000C000B513B513B513B513DE12B513B513B513C8
:1000D000B513B513B513B513E412B513B513B513B2
:1000E000B513B513B513B513FA12B513B513B5138C
:1000F000B513B513B513B5132A13B513B513B5134B
:10010000B513B513B513B513EA12B513B513B5137B
:10011000B513B513B513B5130813B513B513B5134C
:10012000B513B513B513B5132D13B513B513B51317
:10013000B513B513B513B5132D13B513B513B51307
:10014000B513B513B513B5132D13B513B513B513F7
:10015000B513B513B513B5132D13B513B513B513E7
:10016000B513B513B513B5133613B513B513B513CE
:10017000B513B513B513B5137213B513B513B51382
:10018000B513B513B513B5133613B513B513B513AE
:10019000B513B513B513B5137213B513B513B51362
:1001A000B513B513B513B5135213B513B513B51372
:1001B000B513B513B513B5137613B513B513B5133E
:1001C000B513B513B513B5137613B513B513B5132E
:1001D000B513B513B513B5138C13B513B513B51308
:1001E000B513B513B513B513AA13B513B513B513DA
:1001F000B513B513B513B513AA13B513B513B513CA
:10020000B513B513B513B513B513B513B513B513AE
:10021000B513B513B513B513B513B513B513B5139E
:10022000B513B513B513B513B513B513B513B5138E
:10023000B513B513B513B513B513B513B513B5137E
:10024000B513B513B513B513B513B513B513B5136E
:10025000B513B513B513B513B51364656275673A75
:100260002000303132333435363738394142434457
:1002700045460048454C4C4F20574F524C440D0AC0
:10028000006779726F3A20006779726F2063616C42
:100290006962726174696F6E206661696C65642C55
:1002A000207265747279696E672E2E2E0D0A0069B0
:1002B0006D753A2000696D755F696E69740D0A008D
:1002C0006D7075363035303A20007365745F636C3D
:1002D0006F636B5F736F757263653A2073756363E9
:1002E0006573730D0A007365745F636C6F636B5F96
:1002F000736F757263653A206661696C65640D0A97
:10030000007365745F66756C6C5F7363616C655FC9
:100310006779726F5F72616E67653A2073756363A8
:100320006573730D0A007365745F66756C6C5F733B
:1003300063616C655F6779726F5F72616E67653A62
:10034000206661696C65640D0A007365745F66758B
:100350006C6C5F7363616C655F616363656C5F7236
:10036000616E67653A20737563636573730D0A0088
:100370007365745F66756C6C5F7363616C655F61F8
:100380006363656C5F72616E67653A206661696C74
:1003900065640D0A007365745F736C6565705F65F5
:1003A0006E61626C65643A20737563636573730D87
:1003B0000A007365745F736C6565705F656E61627A
:1003C0006C65643A206661696C65640D0A00676556
:1003D000745F6465766963655F69643A2025630DBF
:1003E0000A006D61696E3A2000696E7075743D2572
:1003F000630D0A007370696B655F333238705F6933
:10040000326320737461727465642E2E2E0D0A009F
:10041000696D755F696E69740D0A00696D755F7449
:100420006573740D0A007374617274696E67206C71
:100430006F6F702E2E2E0D0A00612F672F6D3A09F7
:100440000025640900256409002564090025640964
:100450000025640900256409002564090025640954
:1004600000256409000D0A0011241FBECFEFD8E05B
:10047000DEBFCDBF11E0A0E0B1E0E6E1F1E402C0F3
:1004800005900D92AE30B107D9F722E0AEE0B1E0B1
:1004900001C01D92AB30B207E1F70E9471170C94B6
:1004A00089200C940000CF93DF93CDB7DEB784E4AE
:1004B00090E024E430E0F90120812260FC012083F7
:1004C00087E490E02DE7FC01208385E490E025E4BB
:1004D00030E0F90120812360FC0120838EE690E06A
:1004E00022E0FC012083DF91CF910895CF93DF9329
:1004F000CDB7DEB78091890190918A01A0918B01DF
:10050000B0918C01BC01CD01DF91CF910895CF93C3
:10051000DF93CDB7DEB728970FB6F894DEBF0FBED6
:10052000CDBF6D837E838F8398870E9476029B0167
:10053000AC018D819E81AF81B885820F931FA41F6E
:10054000B51F89839A83AB83BC830E9476029B018B
:10055000AC0189819A81AB81BC8182179307A40782
:10056000B50708F401C0F1CF28960FB6F894DEBFA6
:100570000FBECDBFDF91CF9108951F920F920090D3
:100580005F000F9211248F939F93AF93BF93CF93EC
:10059000DF93CDB7DEB78091890190918A01A09158
:1005A0008B01B0918C010196A11DB11D8093890131
:1005B00090938A01A0938B01B0938C01DF91CF912E
:1005C000BF91AF919F918F910F9000925F000F901C
:1005D0001F901895CF93DF93CDB7DEB78091890137
:1005E00090918A01A0918B01B0918C010196A11D7F
:1005F000B11D8093890190938A01A0938B01B093E0
:100600008C01DF91CF910895CF93DF9300D01F929B
:10061000CDB7DEB79B838A8383E3898385EC90E043
:100620002981222F30E0232F330F330BFC0120834D
:1006300084EC90E02981FC01208381EC90E021ECA6
:1006400030E0F90120812068FC01208381EC90E0FA
:1006500021EC30E0F90120812861FC01208382EC4B
:1006600090E022EC30E0F90120812660FC0120833B
:100670008A819B810E94860360E070E08AEA93E0B1
:100680000E94361C0F900F900F90DF91CF9108952C
:100690001F920F9200905F000F9211242F933F93AF
:1006A0004F935F936F937F938F939F93AF93BF937A
:1006B000EF93FF93CF93DF931F92CDB7DEB786EC16
:1006C00090E0FC018081898380919701909198014D
:1006D000009739F020919701309198018981F901B3
:1006E00009950F90DF91CF91FF91EF91BF91AF915D
:1006F0009F918F917F916F915F914F913F912F913A
:100700000F9000925F000F901F901895CF93DF938A
:1007100000D0CDB7DEB79A83898389819A8190937F
:100720009801809397010F900F90DF91CF910895DA
:10073000CF93DF9300D0CDB7DEB79A8389838981C9
:100740009A8190939601809395010F900F90DF917D
:10075000CF910895CF93DF9300D01F92CDB7DEB72E
:1007600089837B836A8389810E94FC038091950140
:1007700090919601009739F0209195013091960162
:100780008981F901099580E090E00F900F900F901A
:10079000DF91CF910895CF93DF9300D01F92CDB713
:1007A000DEB79B838A838A819B81FC018081898358
:1007B0001AC0000080EC90E0FC018081882F90E05E
:1007C000807299270097B1F386EC90E02981FC01B3
:1007D00020838A819B8101969B838A838A819B8166
:1007E000FC01808189838981882319F70F900F90FC
:1007F0000F90DF91CF910895CF93DF931F92CDB7E4
:10080000DEB78983000080EC90E0FC018081882FB6
:1008100090E0807299270097B1F386EC90E02981EF
:10082000FC0120830F90DF91CF910895CF93DF9348
:10083000CDB7DEB728970FB6F894DEBF0FBECDBF99
:100840008887888582958F70882F90E08E599D4F7C
:100850009A83898389819A81FC0184918B838B811E
:100860008C83000080EC90E0FC018081882F90E078
:10087000807299270097B1F386EC90E02C81FC01FF
:1008800020838885882F90E08F7099278E599D4FFF
:100890009E838D838D819E81FC0184918F838F81C6
:1008A0008C83000080EC90E0FC018081882F90E038
:1008B000807299270097B1F386EC90E02C81FC01BF
:1008C000208328960FB6F894DEBF0FBECDBFDF9110
:1008D000CF910895CF93DF9300D000D000D0CDB753
:1008E000DEB79C838B837E836D831A8219820FC04F
:1008F00089819A812B813C81820F931FFC01808129
:100900000E94160489819A8101969A83898329819C
:100910003A818D819E812817390754F326960FB6A8
:10092000F894DEBF0FBECDBFDF91CF910895CF9376
:10093000DF9300D0CDB7DEB7CE010B969A838983C3
:1009400049815A81809103029091040229853A8558
:10095000B9010E94811C0F900F90DF91CF910895F3
:10096000CF93DF93CDB7DEB7AA970FB6F894DEBF6B
:100970000FBECDBF83E792E0292F2F938F938AE597
:1009800092E0892F8F938AE592E08F930E949704DB
:100990000F900F900F900F9005C086EC90E023E42D
:1009A000FC01208380EC90E0FC018081882F90E0A6
:1009B00080729927009789F380E090E0AAEFB3E472
:1009C00089839A83AB83BC8320E030E04AEF54E410
:1009D00069817A818B819C810E94D31BDC01CB01D0
:1009E0008D839E83AF83B88720E030E040E85FE3EB
:1009F0006D817E818F8198850E94851A88232CF4D1
:100A000081E090E09A8789873FC020E03FEF4FE781
:100A100057E46D817E818F8198850E94CF1B1816C7
:100A20004CF520E030E040E251E469817A818B812D
:100A30009C810E94D31BDC01CB01BC01CD010E9433
:100A4000F11ADC01CB019A8789870FC088EC90E00E
:100A50009C878B878B859C850197F1F79C878B877B
:100A600089859A8501979A87898789859A850097CC
:100A700069F714C06D817E818F8198850E94F11A7B
:100A8000DC01CB019A87898789859A859E878D8726
:100A90008D859E850197F1F79E878D8786EC90E086
:100AA00020E5FC01208380E090E0AAEFB3E48F878B
:100AB000988BA98BBA8B20E030E04AEF54E46F8525
:100AC000788989899A890E94D31BDC01CB018B8BA1
:100AD0009C8BAD8BBE8B20E030E040E85FE36B8900
:100AE0007C898D899E890E94851A88232CF481E057
:100AF00090E0988F8F8B3FC020E03FEF4FE757E4A7
:100B00006B897C898D899E890E94CF1B18164CF5B4
:100B100020E030E040E251E46F85788989899A8944
:100B20000E94D31BDC01CB01BC01CD010E94F11A54
:100B3000DC01CB01988F8F8B0FC088EC90E09A8FEF
:100B4000898F898D9A8D0197F1F79A8F898F8F8977
:100B5000988D0197988F8F8B8F89988D009769F763
:100B600014C06B897C898D899E890E94F11ADC01F1
:100B7000CB01988F8F8B8F89988D9C8F8B8F8B8DCE
:100B80009C8D0197F1F79C8F8B8F86EC90E028E489
:100B9000FC01208380E090E0AAEFB3E48D8F9E8F6C
:100BA000AF8FB8A320E030E04AEF54E46D8D7E8D26
:100BB0008F8D98A10E94D31BDC01CB0189A39AA33E
:100BC000ABA3BCA320E030E040E85FE369A17AA1D9
:100BD0008BA19CA10E94851A88232CF481E090E0CF
:100BE0009EA38DA33FC020E03FEF4FE757E469A1EC
:100BF0007AA18BA19CA10E94CF1B18164CF520E076
:100C000030E040E251E46D8D7E8D8F8D98A10E9481
:100C1000D31BDC01CB01BC01CD010E94F11ADC0128
:100C2000CB019EA38DA30FC088EC90E098A78FA363
:100C30008FA198A50197F1F798A78FA38DA19EA1E9
:100C400001979EA38DA38DA19EA1009769F714C063
:100C500069A17AA18BA19CA10E94F11ADC01CB01B0
:100C60009EA38DA38DA19EA19AA789A789A59AA5C8
:100C70000197F1F79AA789A7AA960FB6F894DEBF55
:100C80000FBECDBFDF91CF910895CF93DF93CDB746
:100C9000DEB782E380930E018AE290E02AE230E040
:100CA000F90120812860FC0120838AE290E02AE299
:100CB00030E0F90120812062FC0120838AE290E08B
:100CC0002AE230E0F90120812064FC01208384E2E3
:100CD00090E024E230E0F90120812260FC012083D1
:100CE00084E290E024E230E0F90120812460FC01FC
:100CF000208384E290E024E230E0F9012081286042
:100D0000FC01208384E490E021EAFC01208385E457
:100D100090E021E0FC01208380E890E021EAFC01E2
:100D2000208381E890E021E0FC01208380EB90E0CB
:100D300021EAFC01208381EB90E021E0FC0120838B
:100D40008FE690E021E0FC012083789487E490E036
:100D500020910E01FC01208388E490E020910E0197
:100D6000FC01208388E890E020910E01222F30E0E2
:100D7000FC01318320838AE890E020910E01222F2C
:100D800030E0FC013183208383EB90E020910E0161
:100D9000FC01208384EB90E020910E01FC01208374
:100DA000DF91CF910895CF93DF9300D0CDB7DEB719
:100DB00089836A83898180930E010F900F90DF9160
:100DC000CF9108951F920F9200905F000F9211240F
:100DD0002F933F934F935F936F937F938F939F9343
:100DE000AF93BF93EF93FF93CF93DF93CDB7DEB76E
:100DF00080910F018F5F80930F0180910F018032EE
:100E000061F587E490E020910E01FC01208388E4E5
:100E100090E020910E01FC01208388E890E0209171
:100E20000E01222F30E0FC01318320838AE890E01C
:100E300020910E01222F30E0FC013183208383EBCF
:100E400090E020910E01FC01208384EB90E0209142
:100E50000E01FC01208310920F010E944307DF91D5
:100E6000CF91FF91EF91BF91AF919F918F917F9122
:100E70006F915F914F913F912F910F9000925F0082
:100E80000F901F901895CF93DF93CDB7DEB7809169
:100E90000F01882F90E08F719927009711F40E941D
:100EA000EA02DF91CF910895CF93DF93CDB7DEB7FC
:100EB0000000DF91CF910895CF93DF931F92CDB7BC
:100EC000DEB78AE290E028E0FC01208384E290E033
:100ED0002EE0FC012083198215C08981882F90E0C3
:100EE0002091060183569E4FFC0120838981882F23
:100EF00090E02091060187569E4FFC012083898156
:100F00008F5F89838981843040F385E390E021E01D
:100F1000FC0120838EE690E021E0FC01208385E443
:100F200090E021E0FC0120830F90DF91CF910895A4
:100F3000CF93DF93CDB7DEB7DF91CF910895CF93F5
:100F4000DF9300D0CDB7DEB789836A830F900F900F
:100F5000DF91CF910895EF92FF920F931F93CF935C
:100F6000DF93CDB7DEB72C970FB6F894DEBF0FBE78
:100F7000CDBF69837A838B839C832D833E834F838C
:100F80005887E986FA860B871C8729813A814B812D
:100F90005C818D819E81AF81B88582179307A407FC
:100FA000B50728F08D819E81AF81B88516C0298153
:100FB0003A814B815C8189859A85AB85BC852817F0
:100FC00039074A075B0728F089859A85AB85BC8578
:100FD00004C089819A81AB81BC81BC01CD012C9672
:100FE0000FB6F894DEBF0FBECDBFDF91CF911F913A
:100FF0000F91FF90EF9008958F929F92AF92BF92C2
:10100000CF92DF92EF92FF92CF93DF9300D000D088
:10101000CDB7DEB769837A838B839C832BED3FE06A
:1010200049E45FE369817A818B819C810E94D31BB3
:10103000DC01CB016C017D0189819A81AB81BC818E
:10104000BF7720E030E040E85FE3BC01CD010E94C3
:10105000201ADC01CB0129813A814B815C81BC01E2
:10106000CD010E94D31BDC01CB014C015D018981C4
:101070009A81AB81BC81BF772BE438EC47E85DE314
:10108000BC01CD010E94D31BDC01CB0123EA32E974
:101090004AE75EE3BC01CD010E94211ADC01CB01CD
:1010A0009C01AD01C501B4010E94D31BDC01CB0141
:1010B0009C01AD01C701B6010E94201ADC01CB01E1
:1010C000BC01CD010F900F900F900F90DF91CF9149
:1010D000FF90EF90DF90CF90BF90AF909F908F9058
:1010E00008951F93CF93DF93CDB7DEB766970FB602
:1010F000F894DEBF0FBECDBF6F87788B898B9A8B3C
:101100002B8B3C8B4D8B5E8B8BED9FE0A9ECBFE373
:101110008A879B87AC87BD878F859889A989BA897B
:10112000BF772B893C894D895E895F7711E0BC01CF
:10113000CD010E94CF1B18160CF010E01E8720E096
:1011400030E0A9016F85788989899A890E94CF1B2F
:10115000882364F020E030E0A9016B897C898D89C7
:101160009E890E94CF1B88230CF0198220E030E07A
:10117000A9016F85788989899A890E94CF1B882364
:101180006CF020E030E0A9016B897C898D899E8913
:101190000E94851A181614F081E0898320E030E05F
:1011A000A9016F85788989899A890E94851A1816FC
:1011B0006CF020E030E0A9016B897C898D899E89E3
:1011C0000E94851A181614F082E0898320E030E02E
:1011D000A9016F85788989899A890E94851A1816CC
:1011E0006CF020E030E0A9016B897C898D899E89B3
:1011F0000E94CF1B882314F083E089838E85882387
:1012000089F02F85388949895A896B897C898D892C
:101210009E890E94891ADC01CB018A839B83AC835F
:10122000BD8310C02B893C894D895E896F85788983
:1012300089899A890E94891ADC01CB018A839B8360
:10124000AC83BD838A819B81AC81BD81BC01CD0112
:101250000E94FC07DC01CB018E839F83A887B9879E
:101260008E85882309F45EC08981882F90E08130C3
:101270009105F1F0823091051CF4009741F082C095
:101280008230910531F183309105B9F17BC02E8117
:101290003F81488559856A857B858C859D850E941F
:1012A000201ADC01CB018E839F83A887B98739C0C0
:1012B0002E813F81488559856A857B858C859D85F2
:1012C0000E94201ADC01CB018E839F83A887B987F7
:1012D00028C08A859B85AC85BD85B0582E813F810D
:1012E00048855985BC01CD010E94201ADC01CB0143
:1012F0008E839F83A887B98714C08A859B85AC8518
:10130000BD85B0582E813F8148855985BC01CD01EE
:101310000E94201ADC01CB018E839F83A887B987A6
:10132000000030C08981882F90E08130910539F02C
:101330008230910534F18230910591F023C02BED7C
:101340003FE049E450E46E817F81888599850E9461
:10135000211ADC01CB018E839F83A887B98712C035
:101360002BED3FE049E450E46E817F8188859985CB
:101370000E94201ADC01CB018E839F83A887B98746
:1013800001C000008E819F81A885B985BC01CD0177
:1013900066960FB6F894DEBF0FBECDBFDF91CF913A
:1013A0001F910895CF93DF93CDB7DEB728970FB67F
:1013B000F894DEBF0FBECDBF69837A838B839C8395
:1013C0002D833E834F8358872D813E814F815885E1
:1013D00089819A81AB81BC81BC01CD010E947108D9
:1013E000DC01CB0127EC3FEC4FE557E4BC01CD011C
:1013F0000E94D31BDC01CB01BC01CD010E94F11A7C
:10140000DC01CB01BC01CD0128960FB6F894DEBFFC
:101410000FBECDBFDF91CF910895CF92DF92EF92B3
:10142000FF920F931F93CF93DF93CDB7DEB72A9729
:101430000FB6F894DEBF0FBECDBF9A8389834B836E
:101440005C836D837E830F83188729873A87898120
:101450009A81FC01C080D180E280F38089819A81E9
:10146000FC0180819181A281B3819C01AD016B81DE
:101470007C818D819E810E94201ADC01CB012F810D
:10148000388549855A85BC01CD010E94D31BDC01FA
:10149000CB019C01AD01C701B6010E94211ADC01FC
:1014A000CB0129813A81F90180839183A283B3839F
:1014B0002A960FB6F894DEBF0FBECDBFDF91CF9155
:1014C0001F910F91FF90EF90DF90CF9008950F93B1
:1014D0001F93CF93DF93CDB7DEB72A970FB6F8945B
:1014E000DEBF0FBECDBF9A8389834B835C836D8340
:1014F0007E830F83188729873A8789819A81FC0127
:1015000038962F81388549855A858B819C81AD819C
:10151000BE8189019A01AC01BD01CF010E940D0A73
:1015200089819A810896FC0180819181A281B38191
:1015300029813A81F90134962F81388549855A8568
:1015400089019A01AC01BD01CF010E940D0A898178
:101550009A810496FC0180819181A281B3812F81BF
:10156000388549855A85E981FA8189019A01AC015A
:10157000BD01CF010E940D0A89819A81FC01808101
:101580009181A281B381BC01CD012A960FB6F89456
:10159000DEBF0FBECDBFDF91CF911F910F91089598
:1015A000CF93DF9300D000D000D0CDB7DEB79D83BE
:1015B0008C836E8319821A8218C08A81882F90E0EA
:1015C0002C813D81820F931FFC01808199818927A5
:1015D000898388E08B8303C08B8181508B838B81CF
:1015E0008823D1F78A818F5F8A839A818E819817A9
:1015F00020F3898126960FB6F894DEBF0FBECDBFCB
:10160000DF91CF910895CF93DF93CDB7DEB780E020
:1016100090E0A3E0B3E48093850190938601A093CA
:101620008701B0938801DF91CF910895CF92DF9227
:10163000EF92FF920F931F93CF93DF93CDB7DEB757
:101640006C970FB6F894DEBF0FBECDBF1A8280EA4A
:101650009FE09C838B8360ED77E080E090E00E94C8
:1016600087020CC18B819C81803A2FE09207E9F5BB
:1016700060ED77E080E090E00E948702198232C03E
:101680008981882F90E0880F991F880F991F9E01EC
:101690002F5F3F4F820F931F4096FC0110821182F3
:1016A000128213828981882F90E02981222F30E0D5
:1016B000220F331FAE014F5F5F4F240F351F265F90
:1016C0003F4FF90120813181880F991FAE014F5F93
:1016D0005F4F840F951F0496FC013183208389811D
:1016E0008F5F89838981833058F2198230C0898164
:1016F000882F90E0880F991F9E012F5F3F4F820F28
:10170000931F0496FC018081918199231CF491958B
:10171000819591099C018981882F90E0880F991FFC
:10172000AE014F5F5F4F840F951F0A96FC018081C9
:101730009181A901481B590BCA018134910520F000
:101740008A818F5F8A8306C089818F5F89838981BF
:10175000833068F219826FC08981082F10E0898177
:10176000882F90E0880F991F880F991F9E012F5F87
:101770003F4F820F931F4096FC01C080D180E280D2
:10178000F3808981882F90E0880F991F9E012F5F39
:101790003F4F820F931F0A96FC0180819181CC01FB
:1017A000A0E0B0E0BC01CD010E941D1BDC01CB011B
:1017B00020E030E04AE755E4BC01CD010E94891ADF
:1017C000DC01CB019C01AD01C701B6010E94211AC9
:1017D000DC01CB019801220F331F220F331FAE0112
:1017E0004F5F5F4F240F351F205F3F4FF90180830C
:1017F0009183A283B3838981882F90E02981222F4E
:1018000030E0220F331FAE014F5F5F4F240F351FB3
:10181000265F3F4FF90120813181880F991FAE016A
:101820004F5F5F4F840F951F0496FC013183208327
:1018300089818F5F89838981833008F48DCF8B8183
:101840009C8101979C838B838A818823B9F088E8E7
:1018500092E0292F2F938F9381E892E0892F8F9325
:1018600081E892E08F930E9497040F900F900F9061
:101870000F9080EA9FE09C838B831A828B819C81EE
:10188000009709F0EFCE89899A89AB89BC89BC01A0
:10189000CD010E94F11ADC01CB0190938F0180935E
:1018A0008E018D899E89AF89B88DBC01CD010E94C2
:1018B000F11ADC01CB019093910180939001898D05
:1018C0009A8DAB8DBC8DBC01CD010E94F11ADC015B
:1018D000CB0190939301809392010E947E0C6C96B1
:1018E0000FB6F894DEBF0FBECDBFDF91CF911F9131
:1018F0000F91FF90EF90DF90CF900895CF93DF93FB
:10190000CDB7DEB785EB92E0292F2F938F938FEA27
:1019100092E0892F8F938FEA92E08F930E94970431
:101920000F900F900F900F900E942B0DDF91CF9191
:101930000895CF93DF93CDB7DEB70E943E0DDF91C0
:10194000CF910895EF92FF920F931F93CF93DF9360
:10195000CDB7DEB72C970FB6F894DEBF0FBECDBF64
:101960009A8389837C836B835E834D8338872F833F
:101970001A870987FC86EB86AB85BC85E985FA85E5
:101980002F8138854D815E816B817C8189819A812F
:101990007D018F010E947D0E2C960FB6F894DEBF5C
:1019A0000FBECDBFDF91CF911F910F91FF90EF90B0
:1019B00008958F929F92AF92BF92CF92DF92EF9253
:1019C000FF920F931F93CF93DF93CDB7DEB762974C
:1019D0000FB6F894DEBF0FBECDBF9A8389837C8398
:1019E0006B835E834D8338872F831A870987FC8634
:1019F000EB86DE86CD86B88AAF869A8A898AC988C0
:101A0000DA88EF84F8880D851E85AB85BC85E9856D
:101A1000FA852F8138854D815E816B817C8189813A
:101A20009A814601570168017D018F010E941A0FBA
:101A300062960FB6F894DEBF0FBECDBFDF91CF9197
:101A40001F910F91FF90EF90DF90CF90BF90AF90DC
:101A50009F908F900895CF93DF93CDB7DEB781E04D
:101A60000E944C0D80E00E948A0D80E00E94C80D0B
:101A700080E00E94060EDF91CF910895CF93DF930F
:101A8000CDB7DEB70E94420E982F81E0943309F063
:101A900080E0DF91CF9108950F93CF93DF9300D033
:101AA000CDB7DEB78A8380910B010A8123E042E043
:101AB0006BE60E94331689838981882399F08AEC2A
:101AC00092E0292F2F938F9380EC92E0892F8F93B0
:101AD00080EC92E08F930E9497040F900F900F90EC
:101AE0000F9012C086EE92E0292F2F938F9380ECF7
:101AF00092E0892F8F9380EC92E08F930E9497045D
:101B00000F900F900F900F900F900F90DF91CF914B
:101B10000F9108950F93CF93DF9300D0CDB7DEB729
:101B20008A8380910B010A8122E044E06BE10E94EC
:101B3000331689838981882399F081E093E0292FE6
:101B40002F938F9380EC92E0892F8F9380EC92E01B
:101B50008F930E9497040F900F900F900F9012C0D8
:101B600086E293E0292F2F938F9380EC92E0892FC8
:101B70008F9380EC92E08F930E9497040F900F90C8
:101B80000F900F900F900F90DF91CF910F910895CC
:101B90000F93CF93DF9300D0CDB7DEB78A838091C8
:101BA0000B010A8122E044E06CE10E943316898334
:101BB0008981882399F08AE493E0292F2F938F93CA
:101BC00080EC92E0892F8F9380EC92E08F930E94BB
:101BD00097040F900F900F900F9012C080E793E042
:101BE000292F2F938F9380EC92E0892F8F9380EC95
:101BF00092E08F930E9497040F900F900F900F9098
:101C00000F900F90DF91CF910F910895CF93DF93B5
:101C100000D0CDB7DEB78A839A8180910B01292F3E
:101C200046E06BE60E94ED1589838981882399F04F
:101C300085E993E0292F2F938F9380EC92E0892FF1
:101C40008F9380EC92E08F930E9497040F900F90F7
:101C50000F900F9012C082EB93E0292F2F938F9358
:101C600080EC92E0892F8F9380EC92E08F930E941A
:101C700097040F900F900F900F900F900F90DF919F
:101C8000CF910895EF92FF920F931F93CF93DF931D
:101C9000CDB7DEB780910B010F2EF8EEEF2EF3E0FB
:101CA000FF2EF02D01EA11E026E046E065E70E94F4
:101CB000DE168091A101282F30E08EEC93E0432FB7
:101CC0004F932F93292F2F938F9380EC92E0892F9E
:101CD0008F9380EC92E08F930E9497040F900F9067
:101CE0000F900F900F900F908091A101DF91CF91F5
:101CF0001F910F91FF90EF900895EF92FF920F9335
:101D00001F93CF93DF93CDB7DEB72C970FB6F89420
:101D1000DEBF0FBECDBF9A8389837C836B835E83D6
:101D20004D8338872F831A870987FC86EB8680913D
:101D30000B0108EE13E021EA31E04EE06BE30E9474
:101D400017158091A101882F90E0382F22278091CC
:101D5000A201882F90E0822B932B9C0189819A818C
:101D6000FC01318320838091A301882F90E0382FDC
:101D700022278091A401882F90E0822B932B9C0135
:101D80008B819C81FC01318320838091A501882F68
:101D900090E0382F22278091A601882F90E0822B97
:101DA000932B9C018D819E81FC0131832083809146
:101DB000A901882F90E0382F22278091AA01882F2F
:101DC00090E0822B932B9C018F819885FC013183BD
:101DD00020838091AB01882F90E0382F22278091BB
:101DE000AC01882F90E0822B932B9C0189859A85EA
:101DF000FC01318320838091AD01882F90E0382F42
:101E000022278091AE01882F90E0822B932B9C019A
:101E10008B859C85FC01318320832C960FB6F8942A
:101E2000DEBF0FBECDBFDF91CF911F910F91FF900D
:101E3000EF9008958F929F92AF92BF92CF92DF92D0
:101E4000EF92FF920F931F93CF93DF93CDB7DEB73F
:101E5000AE970FB6F894DEBF0FBECDBF9E8F8D8FAD
:101E600078A36F8F5AA349A33CA32BA31EA30DA352
:101E7000F8A6EFA2DAA6C9A6BCA6ABA69EA68DA61A
:101E8000AFA1B8A5EDA1FEA12BA13CA149A15AA1EA
:101E90006F8D78A18D8D9E8D7D018F010E947D0EAD
:101EA00080910B0142E067E30E949A1580E090E088
:101EB000A0E2B1E489839A83AB83BC8320E030E065
:101EC0004AEF54E469817A818B819C810E94D31B03
:101ED000DC01CB018D839E83AF83B88720E030E0A7
:101EE00040E85FE36D817E818F8198850E94851A2D
:101EF00088232CF481E090E09A8789873FC020E016
:101F00003FEF4FE757E46D817E818F8198850E9476
:101F1000CF1B18164CF520E030E040E251E4698117
:101F20007A818B819C810E94D31BDC01CB01BC0197
:101F3000CD010E94F11ADC01CB019A8789870FC07D
:101F400088EC90E09C878B878B859C850197F1F7C7
:101F50009C878B8789859A8501979A878987898548
:101F60009A85009769F714C06D817E818F8198856D
:101F70000E94F11ADC01CB019A87898789859A85AD
:101F80009E878D878D859E850197F1F79E878D872A
:101F900041E06AE08CE00E949A1580E090E0A0E2C7
:101FA000B1E48F87988BA98BBA8B20E030E04AEFA1
:101FB00054E46F85788989899A890E94D31BDC0152
:101FC000CB018B8B9C8BAD8BBE8B20E030E040E84F
:101FD0005FE36B897C898D899E890E94851A88239D
:101FE0002CF481E090E0988F8F8B3FC020E03FEF92
:101FF0004FE757E46B897C898D899E890E94CF1BAE
:1020000018164CF520E030E040E251E46F85788905
:1020100089899A890E94D31BDC01CB01BC01CD01C7
:102020000E94F11ADC01CB01988F8F8B0FC088ECD6
:1020300090E09A8F898F898D9A8D0197F1F79A8F09
:10204000898F8F89988D0197988F8F8B8F89988D25
:10205000009769F714C06B897C898D899E890E94DD
:10206000F11ADC01CB01988F8F8B8F89988D9C8F13
:102070008B8F8B8D9C8D0197F1F79C8F8B8F08EE4A
:1020800013E021EA31E046E063E08CE00E9417159E
:102090008091A201882F90E0382F22278091A10102
:1020A000882F90E0822B932B9C0189A59AA5FC0197
:1020B000318320838091A401882F90E0382F22273C
:1020C0008091A301882F90E0822B932B9C018BA5FC
:1020D0009CA5FC01318320838091A601882F90E08C
:1020E000382F22278091A501882F90E0822B932BF7
:1020F0009C018DA59EA5FC0131832083AE960FB671
:10210000F894DEBF0FBECDBFDF91CF911F910F912D
:10211000FF90EF90DF90CF90BF90AF909F908F9007
:102120000895CF93DF93CDB7DEB71092100181E011
:10213000809312011092130189EB90E029EB30E0BB
:10214000F90120812E7FFC01208389EB90E029EBAF
:1021500030E0F90120812D7FFC01208388EB90E0A5
:1021600020E2FC0120838CEB90E025E4FC0120833D
:10217000DF91CF910895CF93DF931F92CDB7DEB754
:1021800089838AEB90E02981220FFC0120830F9044
:10219000DF91CF910895CF93DF9300D000D000D08E
:1021A000CDB7DEB78A837C836B834D832E838D818D
:1021B000813210F080E062C001C000008091100107
:1021C0008823D9F781E0809310018E8180931201DA
:1021D0008FEF80937D01109238018D818150809323
:1021E000390181E0809311018A81882F90E0880F66
:1021F000991F982F80911101892B80931101809153
:102200001301813071F4109213018BEB90E0209157
:102210001101FC0120838CEB90E025ECFC01208374
:1022200007C08CEB90E025EEFC01208301C000008C
:10223000809110018130D9F3909138018D819817E8
:1022400018F4809138018D83198213C08981882FF9
:1022500090E02B813C81820F931F2981222F30E057
:10226000285E3E4FF9012081FC01208389818F5F28
:10227000898399818D81981748F38D8126960FB6B1
:10228000F894DEBF0FBECDBFDF91CF9108950F93BD
:10229000CF93DF93CDB7DEB727970FB6F894DEBFA5
:1022A0000FBECDBF8A837C836B834D832E830F83C8
:1022B0008D81813210F081E06DC001C000008091FD
:1022C00010018823D9F782E0809310018F818093D9
:1022D00012018FEF80937D01109238018D818093E0
:1022E0003901198213C08981882F90E02981222F1A
:1022F00030E04B815C81240F351FF9012081885E1D
:102300009E4FFC01208389818F5F898399818D8114
:10231000981748F3109211018A81882F90E0880F56
:10232000991F982F80911101892B80931101809121
:102330001301813071F4109213018BEB90E0209126
:102340001101FC0120838CEB90E025ECFC01208343
:1023500007C08CEB90E025EEFC01208301C000005B
:102360008E81882321F0809110018230C1F3809109
:102370007D018F3F11F480E00DC080917D0180329E
:1023800011F482E007C080917D01803311F483E075
:1023900001C084E027960FB6F894DEBF0FBECDBF14
:1023A000DF91CF910F910895CF93DF9300D000D0AC
:1023B000CDB7DEB79B838A836C838C81813210F02A
:1023C00081E023C080911001843011F082E01DC0B3
:1023D0008C8180935B01198213C08981882F90E0E2
:1023E0002981222F30E04A815B81240F351FF901BA
:1023F0002081865C9E4FFC01208389818F5F8983C9
:1024000099818C81981748F380E00F900F900F907E
:102410000F90DF91CF910895CF93DF9300D0CDB788
:10242000DEB79A83898389819A819093170180937B
:1024300016010F900F90DF91CF910895CF93DF9306
:1024400000D0CDB7DEB79A83898389819A81909332
:102450001501809314010F900F90DF91CF91089593
:10246000CF93DF931F92CDB7DEB78983898188230D
:1024700031F08CEB90E025ECFC01208305C08CEB67
:1024800090E025E8FC0120830F90DF91CF91089523
:10249000CF93DF93CDB7DEB78CEB90E025EDFC0159
:1024A000208301C000008CEB90E0FC018081882F2C
:1024B00090E0807199270097A9F710921001DF91A1
:1024C000CF910895CF93DF93CDB7DEB78CEB90E03B
:1024D00025ECFC01208310921001DF91CF9108952B
:1024E0001F920F9200905F000F9211242F933F9341
:1024F0004F935F936F937F938F939F93AF93BF930C
:10250000EF93FF93CF93DF93CDB7DEB789EB90E0E6
:10251000FC018081882F90E0887F9927AA2797FD6A
:10252000A095BA2F40E050E028EF30E0841B950BD7
:102530002817390708F419C18C5C9F4FFC010C94D3
:102540001A1A8BEB90E020911101FC01208381E0AD
:102550000E9430120AC19091380180913901981778
:10256000A0F48BEB90E02091380131E0320F3093F2
:102570003801222F30E0285E3E4FF9012081FC0116
:10258000208381E00E94301212C0809112018823C2
:1025900019F00E9448120BC081E0809313018CEB6C
:1025A00090E024EAFC01208310921001DEC0DDC01F
:1025B00080E280937D010E944812D7C080E380931F
:1025C0007D010E944812D1C088E380937D010E9462
:1025D0006212CBC08091380191E0980F909338013E
:1025E000882F90E02BEB30E0F9012081885E9E4F30
:1025F000FC0120839091380180913901981720F4D3
:1026000081E00E943012B1C080E00E943012ADC063
:102610008091380191E0980F90933801882F90E0D5
:102620002BEB30E0F9012081885E9E4FFC01208376
:1026300080911201882319F00E94481296C081E00F
:10264000809313018CEB90E024EAFC01208310922C
:1026500010018BC00E94481288C083E08093100153
:1026600010927C0181E00E9430127FC080917C0139
:102670008032A0F480917C0191E0980F90937C01CE
:10268000882F90E02BEB30E0F9012081845A9E4F97
:10269000FC01208381E00E94301267C080E00E942C
:1026A000301263C080917C01803240F480917C01C3
:1026B000882F90E0845A9E4FFC0110820E9448129D
:1026C000209116013091170180917C01882F90E0B4
:1026D000BC018CE591E0F901099510927C010E9402
:1026E000621243C080E00E9430123FC084E08093B9
:1026F000100110925A0110925B0180911401909187
:102700001501FC01099580915B01882329F481E082
:1027100080935B0110923A018BEB90E020915A017B
:1027200031E0320F30935A01222F30E0265C3E4FC9
:10273000F9012081FC01208390915A0180915B0175
:10274000981720F481E00E9430120FC080E00E94B0
:1027500030120BC081E00E9430121092100105C0AF
:1027600010927D010E9448120000DF91CF91FF91ED
:10277000EF91BF91AF919F918F917F916F915F91F9
:102780004F913F912F910F9000925F000F901F90FB
:102790001895CF93DF93CDB7DEB710927E011092DC
:1027A0007F0110928101109282010E949110DF91AD
:1027B000CF910895CF93DF931F92CDB7DEB7898372
:1027C00089810E94BB100E94C9130F90DF91CF91A5
:1027D0000895CF93DF931F92CDB7DEB7898381E051
:1027E00080938301898180938001109281011092EE
:1027F00082010F90DF91CF910895CF93DF9300D0A6
:1028000000D0CDB7DEB78A836B834C838B81813256
:1028100010F080E28B832C814B816FEA71E08A811A
:102820000E94CB10898310927E01898180937F0161
:1028300089810F900F900F900F90DF91CF910895A5
:102840000F93CF93DF9300D0CDB7DEB78A839091FB
:102850008201809180010A8121E0492F6FEC71E0B3
:102860000E94471189831092810110928201109277
:10287000830189810F900F90DF91CF910F9108957F
:10288000CF93DF931F92CDB7DEB789838091830109
:102890008823D1F080918201803218F080E090E0AE
:1028A0001AC080918101882F90E0298181539E4F29
:1028B000FC012083809181018F5F80938101809151
:1028C00081018093820105C061E0CE0101960E94E2
:1028D000D41181E090E00F90DF91CF910895CF93D4
:1028E000DF9300D000D000D0CDB7DEB79C838B83C0
:1028F0007E836D83809183018823D1F01A821982AF
:102900000FC02B813C8189819A81820F931FFC012A
:1029100080810E94401489819A8101969A838983DB
:1029200029813A818D819E812817390750F306C08D
:102930002D818B819C81622F0E94D4118D819E817B
:1029400026960FB6F894DEBF0FBECDBFDF91CF91B4
:102950000895CF93DF93CDB7DEB790917F0180913B
:102960007E01292F281B822FDF91CF910895CF93CD
:10297000DF931F92CDB7DEB78FEF898390917E01F1
:1029800080917F01981770F480917E01882F90E0EC
:1029900081559E4FFC018081898380917E018F5FEC
:1029A00080937E0189810F90DF91CF910895CF931D
:1029B000DF931F92CDB7DEB78FEF898390917E01B1
:1029C00080917F01981748F480917E01882F90E0D4
:1029D00081559E4FFC018081898389810F90DF9111
:1029E000CF9108950F931F93CF93DF9300D000D022
:1029F00000D0CDB7DEB789836A835C834B833E8387
:102A00002D832D813E818B819C8189019C0141E038
:102A10006A8189810E94171526960FB6F894DEBF49
:102A20000FBECDBFDF91CF911F910F9108950F93EE
:102A30001F93CF93DF93CDB7DEB72D970FB6F894E2
:102A4000DEBF0FBECDBF8F83688749873B872A874C
:102A50001D870C8719820E9476029B01AC018C8530
:102A60009D85CC01A0E0B0E0820F931FA41FB51F8D
:102A70008B839C83AD83BE831A824BC08F810E945F
:102A8000E91388850E94401481E00E942014898502
:102A9000282F30E08A81882F90E0A901481B590B2C
:102AA000CA018032910534F499858A81592F581BC7
:102AB000852F01C080E241E0682F8F810E94FD13C5
:102AC0001DC089818F5F89830E9476029B01AC01C2
:102AD0008B819C81AD81BE8182179307A407B507C6
:102AE00008F410C08981882F90E02A853B858901F0
:102AF000080F191F0E94B714F80180830E94A914BF
:102B00008823F9F68985813208F080E29A81890F5D
:102B10008A839A818985981708F4B0CF89812D9688
:102B20000FB6F894DEBF0FBECDBFDF91CF911F91DE
:102B30000F910895CF93DF9300D01F92CDB7DEB7EA
:102B400089836A834B83CE0103969C0141E06A81AD
:102B500089810E94B1150F900F900F90DF91CF9156
:102B60000895CF93DF93CDB7DEB727970FB6F894CC
:102B7000DEBF0FBECDBF8B836C834D833F832E831F
:102B80001A828B810E94E9138C810E944014198261
:102B90000EC08981882F90E02E813F81820F931F84
:102BA000FC0180810E94401489818F5F8983998113
:102BB0008D81981770F381E00E9420148A8381E050
:102BC0009A81992309F080E027960FB6F894DEBF2A
:102BD0000FBECDBFDF91CF910895CF93DF9300D08B
:102BE00000D01F92CDB7DEB78A836B834C832D83D1
:102BF00080910C0190910D019C01CE010196AC01D8
:102C00006B818A810E94F2148D81882379F08C81F6
:102C1000282F30E081E090E0022E02C0880F991F3B
:102C20000A94E2F7982F8981892B0EC08C81282F76
:102C300030E081E090E002C0880F991F2A95E2F70A
:102C4000982F90958981892389838981482F6B8169
:102C50008A810E949A150F900F900F900F900F90FD
:102C6000DF91CF9108950F93CF93DF93CDB7DEB768
:102C700027970FB6F894DEBF0FBECDBF8B836C8352
:102C80004D832E830F8320910C0130910D01CE01D5
:102C90000296AC016C818B810E94F214882309F4A6
:102CA00047C08E81282F30E081E090E002C0880F7D
:102CB000991F2A95E2F701972D81422F50E02E812E
:102CC000222F30E0BA01621B730B9B012F5F3F4F35
:102CD00002C0880F991F2A95E2F789838F81882F78
:102CE00090E02D81422F50E02E81222F30E0BA015A
:102CF000621B730B9B012F5F3F4F02C0880F991F10
:102D00002A95E2F78F839F81898189238F83898127
:102D1000982F90958A8189238A839A818F81892B24
:102D20008A838A81482F6C818B810E949A1501C009
:102D300080E027960FB6F894DEBF0FBECDBFDF91BF
:102D4000CF910F9108950F931F93CF93DF93CDB73A
:102D5000DEB729970FB6F894DEBF0FBECDBF8B83C9
:102D60006C834D833F832E83198708872885398597
:102D7000CE010296AC016C818B810E94F214898392
:102D80008D81282F30E081E090E002C0880F991FEC
:102D90002A95E2F7982F8A818923282F8E819F8197
:102DA000FC012083898129960FB6F894DEBF0FBEFF
:102DB000CDBFDF91CF911F910F910895EF92FF92B8
:102DC0000F931F93CF93DF93CDB7DEB72B970FB63B
:102DD000F894DEBF0FBECDBF8C836D834E832F83EF
:102DE00019870887FB86EA862A853B85CE010396EC
:102DF000AC016D818C810E94F214898389818823C2
:102E0000D9F18F81282F30E081E090E002C0880F57
:102E1000991F2A95E2F701972E81422F50E02F81CA
:102E2000222F30E0BA01621B730B9B012F5F3F4FD3
:102E300002C0880F991F2A95E2F78A839B818A81B5
:102E400089238B838B81882F90E02E81422F50E045
:102E50002F81222F30E0FA01E21BF30B9F012F5F3D
:102E60003F4F02C0959587952A95E2F78B832B817A
:102E700088859985FC01208389812B960FB6F8946B
:102E8000DEBF0FBECDBFDF91CF911F910F91FF909D
:102E9000EF900895CF93DF931F92CDB7DEB789836C
:102EA0008981809384018981282F30E089EE93E025
:102EB000432F4F932F93292F2F938F9382EE93E0DD
:102EC000892F8F9382EE93E08F930E9497040F9047
:102ED0000F900F900F900F900F900F90DF91CF9168
:102EE0000895CF93DF93CDB7DEB72F970FB6F89441
:102EF000DEBF0FBECDBF8AE497E10E94040384EFDA
:102F000093E0292F2F938F9382EE93E0892F8F9355
:102F100082EE93E08F930E9497040F900F900F9092
:102F20000F900E94450678940E94C91380E194E0B6
:102F3000292F2F938F9382EE93E0892F8F9382EE28
:102F400093E08F930E9497040F900F900F900F9033
:102F50000E947E0C8BE194E0292F2F938F9382EEB9
:102F600093E0892F8F9382EE93E08F930E949704D2
:102F70000F900F900F900F900E94990C898386E21A
:102F800094E0292F2F938F9382EE93E0892F8F93D4
:102F900082EE93E08F930E9497040F900F900F9012
:102FA0000F900E94461880E090E0A8ECB2E48A837B
:102FB0009B83AC83BD8320E030E04AEF54E46A8118
:102FC0007B818C819D810E94D31BDC01CB018E8390
:102FD0009F83A887B98720E030E040E85FE36E81F7
:102FE0007F81888599850E94851A88232CF481E049
:102FF00090E09B878A873FC020E03FEF4FE757E490
:103000006E817F81888599850E94CF1B18164CF5AB
:1030100020E030E040E251E46A817B818C819D8137
:103020000E94D31BDC01CB01BC01CD010E94F11A2F
:10303000DC01CB019B878A870FC088EC90E09D87DD
:103040008C878C859D850197F1F79D878C878A8574
:103050009B8501979B878A878A859B85009769F75F
:10306000A0CF6E817F81888599850E94F11ADC014D
:10307000CB019B878A878A859B859F878E878E85D4
:103080009F850197F1F79F878E878BCF8F929F92B5
:10309000AF92BF92CF92DF92EF92FF920F931F9366
:1030A000CF93DF93CDB7DEB72E970FB6F894DEBF80
:1030B0000FBECDBF0F2EF9EF8F2EF1E09F2EF02D1A
:1030C0000F2EF3EFAF2EF1E0BF2EF02D0F2EFFEFFE
:1030D000CF2EF1E0DF2EF02D0F2EF7EFEF2EF1E0E7
:1030E000FF2EF02D0FEE11E02BEF31E041EF51E01C
:1030F0006DEF71E085EF91E00E94D90C89E394E0D7
:10310000292F2F938F9382EE93E0892F8F9382EE56
:1031100093E08F930E9497040F900F900F900F9061
:103120002091F5013091F60181E494E0432F4F9313
:103130002F93292F2F938F9382EE93E0892F8F93D4
:1031400082EE93E08F930E9497040F900F900F9060
:103150000F900F900F902091FD013091FE0185E4BA
:1031600094E0432F4F932F93292F2F938F9382EE29
:1031700093E0892F8F9382EE93E08F930E949704C0
:103180000F900F900F900F900F900F902091F101E2
:103190003091F20189E494E0432F4F932F93292F2C
:1031A0002F938F9382EE93E0892F8F9382EE93E09B
:1031B0008F930E9497040F900F900F900F900F9095
:1031C0000F902091FB013091FC018DE494E0432F9E
:1031D0004F932F93292F2F938F9382EE93E0892F74
:1031E0008F9382EE93E08F930E9497040F900F903D
:1031F0000F900F900F900F902091EF013091F00100
:1032000081E594E0432F4F932F93292F2F938F9392
:1032100082EE93E0892F8F9382EE93E08F930E944A
:1032200097040F900F900F900F900F900F90209198
:10323000F7013091F80185E594E0432F4F932F93E8
:10324000292F2F938F9382EE93E0892F8F9382EE15
:1032500093E08F930E9497040F900F900F900F9020
:103260000F900F902091FF013091000289E594E0CA
:10327000432F4F932F93292F2F938F9382EE93E019
:10328000892F8F9382EE93E08F930E9497040F9083
:103290000F900F900F900F900F902091F3013091AD
:1032A000F4018DE594E0432F4F932F93292F2F9313
:1032B0008F9382EE93E0892F8F9382EE93E08F932A
:1032C0000E9497040F900F900F900F900F900F9007
:1032D0002091F9013091FA0181E694E0432F4F9358
:1032E0002F93292F2F938F9382EE93E0892F8F9323
:1032F00082EE93E08F930E9497040F900F900F90AF
:103300000F900F900F9085E694E0292F2F938F93C5
:1033100082EE93E0892F8F9382EE93E08F930E9449
:1033200097040F900F900F900F9080E090E0A8EC22
:10333000B2E489839A83AB83BC8320E030E04AEF18
:1033400054E469817A818B819C810E94D31BDC01CA
:10335000CB018D839E83AF83B88720E030E040E8C7
:103360005FE36D817E818F8198850E94851A882315
:103370002CF481E090E09A8789873FC020E03FEFFE
:103380004FE757E46D817E818F8198850E94CF1B26
:1033900018164CF520E030E040E251E469817A8172
:1033A0008B819C810E94D31BDC01CB01BC01CD0130
:1033B0000E94F11ADC01CB019A8789870FC088EC43
:1033C00090E09C878B878B859C850197F1F79C8784
:1033D0008B8789859A8501979A87898789859A85B8
:1033E000009769F714C06D817E818F8198850E9456
:1033F000F11ADC01CB019A87898789859A859E8796
:103400008D878D859E850197F1F79E878D872E96F6
:103410000FB6F894DEBF0FBECDBFDF91CF911F91E5
:103420000F91FF90EF90DF90CF90BF90AF909F9063
:103430008F900895EE0FFF1F0590F491E02D0994F1
:103440005058BB27AA270ED070C161D130F066D189
:1034500020F031F49F3F11F41EF456C10EF4E095B4
:10346000E7FB4CC1E92F72D180F3BA1762077307EB
:103470008407950718F071F49EF58AC10EF4E09563
:103480000B2EBA2FA02D0B01B90190010C01CA011E
:10349000A0011124FF27591B99F0593F50F4503EC9
:1034A00068F11A16F040A22F232F342F4427585FBB
:1034B000F3CF469537952795A795F0405395C9F7D3
:1034C0007EF41F16BA0B620B730B840BBAF091508B
:1034D000A1F0FF0FBB1F661F771F881FC2F70EC02A
:1034E000BA0F621F731F841F48F4879577956795FD
:1034F000B795F7959E3F08F0B3CF9395880F08F0E6
:103500009927EE0F979587950895D4D008F481E018
:1035100008950CD00AC102D140F0F9D030F021F466
:103520005F3F19F0EBC0511134C1EEC00FD198F3D9
:103530009923C9F35523B1F3951B550BBB27AA2734
:1035400062177307840738F09F5F5F4F220F331FA6
:10355000441FAA1FA9F333D00E2E3AF0E0E830D072
:1035600091505040E695001CCAF729D0FE2F27D075
:10357000660F771F881FBB1F261737074807AB0743
:10358000B0E809F0BB0B802DBF01FF2793585F4FB8
:103590002AF09E3F510568F0B1C0FBC05F3FECF3DD
:1035A000983EDCF3869577956795B795F7959F5F7D
:1035B000C9F7880F911D9695879597F90895E1E0D1
:1035C000660F771F881FBB1F621773078407BA0730
:1035D00020F0621B730B840BBA0BEE1F88F7E0958B
:1035E0000895BCD088F09F5790F0B92F9927B75114
:1035F000A0F0D1F0660F771F881F991F1AF0BA95B7
:10360000C9F712C0B13081F0C3D0B1E00895C0C095
:10361000672F782F8827B85F39F0B93FCCF38695AC
:1036200077956795B395D9F73EF490958095709509
:1036300061957F4F8F4F9F4F0895E89409C097FB86
:103640003EF490958095709561957F4F8F4F9F4F79
:103650009923A9F0F92F96E9BB279395F6958795BD
:1036600077956795B795F111F8CFFAF4BB0F11F480
:1036700060FF1BC06F5F7F4F8F4F9F4F16C0882327
:1036800011F096E911C0772321F09EE8872F762F5D
:1036900005C0662371F096E8862F70E060E02AF09E
:1036A0009A95660F771F881FDAF7880F969587958A
:1036B00097F90895990F0008550FAA0BE0E8FEEF5F
:1036C00016161706E807F907C0F012161306E407E6
:1036D000F50798F0621B730B840B950B39F40A26DF
:1036E00061F0232B242B252B21F408950A2609F4BD
:1036F000A140A6958FEF811D811D089597F99F67C1
:1037000080E870E060E008959FEF80EC0895002469
:103710000A941616170618060906089500240A9436
:1037200012161306140605060895092E0394000CBC
:1037300011F4882352F0BB0F40F4BF2B11F460FF4B
:1037400004C06F5F7F4F8F4F9F4F089557FD905874
:10375000440F551F59F05F3F71F04795880F97FB55
:10376000991F61F09F3F79F087950895121613060F
:103770001406551FF2CF4695F1DF08C0161617063E
:103780001806991FF1CF8695710561050894089573
:10379000E894BB2766277727CB0197F908958ADF3E
:1037A00008F48FEF08950BD0C0CFB1DF28F0B6DF5B
:1037B00018F0952309F0A2CFA7CF1124EACFC6DFD6
:1037C000A0F3959FD1F3950F50E0551F629FF00134
:1037D000729FBB27F00DB11D639FAA27F00DB11D8D
:1037E000AA1F649F6627B00DA11D661F829F222716
:1037F000B00DA11D621F739FB00DA11D621F839F9D
:10380000A00D611D221F749F3327A00D611D231F72
:10381000849F600D211D822F762F6A2F11249F57C0
:1038200050408AF0E1F088234AF0EE0FFF1FBB1FE3
:10383000661F771F881F91505040A9F79E3F510582
:1038400070F05CCFA6CF5F3FECF3983EDCF386953B
:1038500077956795B795F795E7959F5FC1F7FE2B2D
:10386000880F911D9695879597F908950F931F934B
:10387000CF93DF93EC018B01009731F46115710553
:1038800019F480E090E038C06EE070E081E090E0F4
:103890000E94621EFC010097A1F380E8838301155A
:1038A000110571F01387028781E8838380910102FB
:1038B00090910202892B21F4F0930202E09301021D
:1038C0002097C9F0D187C0878381826083838091EC
:1038D000030290910402892B71F4F0930402E093A7
:1038E00003028091050290910602892B21F4F09346
:1038F0000602E0930502CF01DF91CF911F910F9156
:103900000895CF93DF93EC018B8188608B83CE0188
:103910000E94901C2B81277F2B83DF91CF910895EC
:10392000ACE0B0E0E6E9FCE10C9452207C016B01D4
:103930008A01FC0117821682838181FFBDC1CE01FD
:1039400001964C01F7019381F60193FD859193FF58
:1039500081916F01882309F4ABC1853239F493FD5D
:10396000859193FF81916F01853229F4B70190E031
:103970000E94C21FE7CF512C312C20E02032A0F44E
:103980008B3269F030F4803259F0833269F420616F
:103990002CC08D3239F0803339F4216026C022608A
:1039A000246023C0286021C027FD27C030ED380FD8
:1039B0003A3078F426FF06C0FAE05F9E300D1124FD
:1039C000532E13C08AE0389E300D1124332E20620E
:1039D0000CC08E3221F426FD6BC1206406C08C36EB
:1039E00011F4206802C0883641F4F60193FD8591F8
:1039F00093FF81916F018111C1CF982F9F7D9554C5
:103A0000933028F40C5F1F4FFFE3F9830DC083361A
:103A100031F0833771F0833509F05BC022C0F801C3
:103A2000808189830E5F1F4F44244394512C54019D
:103A300015C03801F2E06F0E711CF801A080B18052
:103A400026FF03C0652D70E002C06FEF7FEFC50158
:103A50002C870E94B71F2C0183012C852F77222EE3
:103A600017C03801F2E06F0E711CF801A080B18020
:103A700026FF03C0652D70E002C06FEF7FEFC50128
:103A80002C870E94A51F2C012C852068222E8301E3
:103A900023FC1BC0832D90E048165906B0F4B701F3
:103AA00080E290E00E94C21F3A94F4CFF50127FC17
:103AB000859127FE81915F01B70190E00E94C21FAE
:103AC00031103A94F1E04F1A51084114510471F742
:103AD000E5C0843611F0893639F5F80127FF07C0B3
:103AE00060817181828193810C5F1F4F08C060816A
:103AF0007181882777FD8095982F0E5F1F4F2F7655
:103B0000B22E97FF09C090958095709561957F4F73
:103B10008F4F9F4F2068B22E2AE030E0A4010E9410
:103B2000F41FA82EA81844C0853729F42F7EB22E82
:103B30002AE030E025C0F22FF97FBF2E8F36C1F08A
:103B400018F4883579F0B4C0803719F0883721F03F
:103B5000AFC02F2F2061B22EB4FE0DC08B2D84601C
:103B6000B82E09C024FF0AC09F2F9660B92E06C048
:103B700028E030E005C020E130E002C020E132E082
:103B8000F801B7FE07C060817181828193810C5F6B
:103B90001F4F06C06081718180E090E00E5F1F4F73
:103BA000A4010E94F41FA82EA818FB2DFF77BF2E9A
:103BB000B6FE0BC02B2D2E7FA51450F4B4FE0AC008
:103BC000B2FC08C02B2D2E7E05C07A2C2B2D03C0F5
:103BD0007A2C01C0752C24FF0DC0FE01EA0DF11DE9
:103BE0008081803311F4297E09C022FF06C07394BE
:103BF000739404C0822F867809F0739423FD13C058
:103C000020FF06C05A2C731418F4530C5718732C49
:103C1000731468F4B70180E290E02C870E94C21F01
:103C200073942C85F5CF731410F4371801C0312C20
:103C300024FF12C0B70180E390E02C870E94C21FCE
:103C40002C8522FF17C021FF03C088E590E002C049
:103C500088E790E0B7010CC0822F867859F021FDEB
:103C600002C080E201C08BE227FD8DE2B70190E047
:103C70000E94C21FA51438F4B70180E390E00E94AF
:103C8000C21F5A94F7CFAA94F401EA0DF11D808166
:103C9000B70190E00E94C21FA110F5CF332009F4B4
:103CA00051CEB70180E290E00E94C21F3A94F6CF55
:103CB000F7018681978102C08FEF9FEF2C96E2E19A
:103CC0000C946E200F931F93CF93DF93869F8001F8
:103CD000879F100D969F100D1124C8010E947E1E13
:103CE000EC01009729F0A80160E070E00E94B01F8D
:103CF000CE01DF91CF911F910F910895CF93DF9364
:103D00008230910510F482E090E0E0910902F09198
:103D10000A0220E030E0A0E0B0E0309739F14081C5
:103D2000518148175907B8F04817590771F4828133
:103D30009381109729F013969C938E9312972CC021
:103D400090930A028093090227C02115310531F0B2
:103D50004217530718F0A901DB0101C0EF019A01D6
:103D6000BD01DF010280F381E02DD7CF21153105A0
:103D7000F9F0281B390B2430310580F48A819B81AE
:103D80006115710521F0FB019383828304C0909338
:103D90000A0280930902FE01329644C0FE01E20F3E
:103DA000F31F8193919322503109398328833AC0BC
:103DB0002091070230910802232B41F42091020147
:103DC00030910301309308022093070220910001F3
:103DD000309101012115310541F42DB73EB74091D5
:103DE000040150910501241B350BE0910702F0916D
:103DF0000802E217F307A0F42E1B3F0B2817390720
:103E000078F0AC014E5F5F4F2417350748F04E0F36
:103E10005F1F50930802409307028193919302C061
:103E2000E0E0F0E0CF01DF91CF910895CF93DF93F1
:103E3000009709F487C0FC01329713821282C09167
:103E40000902D0910A02209781F420813181280F44
:103E5000391F80910702909108028217930779F524
:103E6000F0930802E09307026DC0DE0120E030E02D
:103E7000AE17BF0750F412964D915C9113979D01B8
:103E80004115510509F1DA01F3CFB383A2834081D3
:103E90005181840F951F8A179B0771F48D919C9116
:103EA0001197840F951F02969183808312968D91AE
:103EB0009C911397938382832115310529F4F09304
:103EC0000A02E09309023EC0D9011396FC93EE93D7
:103ED00012974D915D91A40FB51FEA17FB0779F476
:103EE00080819181840F951F0296D90111969C9330
:103EF0008E938281938113969C938E931297E0E028
:103F0000F0E08A819B81009719F0FE01EC01F9CF66
:103F1000CE01029628813981820F931F20910702DA
:103F2000309108022817390769F4309729F4109264
:103F30000A021092090202C013821282D093080270
:103F4000C0930702DF91CF910895FC010590615065
:103F500070400110D8F7809590958E0F9F1F08959F
:103F6000DC0101C06D9341505040E0F70895FC0121
:103F70006150704001900110D8F7809590958E0F98
:103F80009F1F08950F931F93CF93DF93182F092F2F
:103F9000EB018B8181FD03C08FEF9FEF20C082FF7B
:103FA00010C04E815F812C813D81421753077CF404
:103FB000E881F9819F012F5F3F4F39832883108368
:103FC00006C0E885F985812F0995892B29F72E816F
:103FD0003F812F5F3F4F3F832E83812F902FDF91B3
:103FE000CF911F910F910895FA01AA27283051F11E
:103FF000203181F1E8946F936E7F6E5F7F4F8F4F1A
:104000009F4FAF4FB1E03ED0B4E03CD0670F781F78
:10401000891F9A1FA11D680F791F8A1F911DA11D5D
:104020006A0F711D811D911DA11D20D009F4689496
:104030003F912AE0269F11243019305D3193DEF63E
:10404000CF010895462F4770405D4193B3E00FD0F4
:10405000C9F7F6CF462F4F70405D4A3318F0495DDF
:1040600031FD4052419302D0A9F7EACFB4E0A695C2
:104070009795879577956795BA95C9F700976105E4
:10408000710508959B01AC010A2E0694579547953A
:1040900037952795BA95C9F7620F731F841F951F2F
:1040A000A01D08952F923F924F925F926F927F9240
:1040B0008F929F92AF92BF92CF92DF92EF92FF9238
:1040C0000F931F93CF93DF93CDB7DEB7CA1BDB0BE4
:1040D0000FB6F894DEBF0FBECDBF09942A88398889
:1040E00048885F846E847D848C849B84AA84B98490
:1040F000C884DF80EE80FD800C811B81AA81B9819C
:10410000CE0FD11D0FB6F894DEBF0FBECDBFED01AF
:064110000895F894FFCFB2
:0E41160000000B022000202020202068E8037B
:00000001FF
