:100000000C946A020C9487020C9487020C94870269
:100010000C9487020C9487020C9487020C9487023C
:100020000C9487020C9487020C9487020C9487022C
:100030000C9487020C94EA040C94BC020C94870282
:100040000C9487020C9487020C94AE030C948702E4
:100050000C9487020C9487020C9487020C948702FC
:100060000C9468110C94870205A84CCDB2D44EB9FB
:100070003836A9020C50B9918688083CA6AAAA2A4B
:10008000BE000000803F48454C4C4F20574F524C1B
:10009000440D0A0030313233343536373839414275
:1000A000434445460064656275673A2000636F6E9D
:1000B0006669672E6779726F5F6F66667365745BDA
:1000C000782C792C7A5D3A20256C6409256C6409BA
:1000D000256C640D0A007570646174696E67206731
:1000E00079726F2063616C6962726174696F6E20EE
:1000F0006F6666736574732E2E2E0D0A0067797213
:100100006F2063616C6962726174696F6E206661F1
:10011000696C65642C207265747279696E672E2E25
:100120002E0D0A00693D256420636F756E7465723B
:100130003D256420646966663D2564206779726F99
:100140005B695D3D25642C20707265765F6779720E
:100150006F5B695D3D25640D0A006779726F3A2017
:10016000007365745F736C6565705F656E61626C6A
:1001700065643A206661696C65640D0A0073657494
:100180005F736C6565705F656E61626C65643A2073
:10019000737563636573730D0A007365745F6675C9
:1001A0006C6C5F7363616C655F616363656C5F72E8
:1001B000616E67653A206661696C65640D0A00735B
:1001C00065745F66756C6C5F7363616C655F6163BA
:1001D00063656C5F72616E67653A20737563636512
:1001E00073730D0A007365745F66756C6C5F73637F
:1001F000616C655F6779726F5F72616E67653A20E7
:100200006661696C65640D0A007365745F66756C80
:100210006C5F7363616C655F6779726F5F72616E4B
:1002200067653A20737563636573730D0A007365C0
:10023000745F636C6F636B5F736F757263653A2095
:100240006661696C65640D0A007365745F636C6F49
:10025000636B5F736F757263653A20737563636573
:1002600073730D0A00290D0A006D70753630353034
:100270005F746573743A20283078006D707536307D
:1002800035303A200047494D5F4552524F520D0AD2
:100290000047494D5F4C4F434B45440D0A004749C9
:1002A0004D5F554E4C4F434B45440D0A0047494D59
:1002B0005F49444C450D0A006D6F76655F6D6F7444
:1002C0006F722070697463682F726F6C6C20706934
:1002D000643A2025642025642070697463682F7255
:1002E0006F6C6C206D6F746F723A202564202564EA
:1002F0000D0A00656E7465725F73746174653A20EF
:1003000047494D5F49444C450D0A00656E7465725E
:100310005F7461736B3A20524541444143430D0A77
:100320000067696D62616C3A20000D0A002564095E
:10033000002564090025640900616363656C6572CA
:100340006174696F6E20782F792F7A3A090073747F
:10035000617274696E672067696D62616C206C6F91
:100360006F702E2E2E0D0A0067696D62616C5F69D9
:100370006E69742E2E2E0D0A00696E69745F7069A5
:1003800064732E2E2E0D0A00696E69745F73656E9C
:10039000736F725F6F7269656E746174696F6E2ED0
:1003A0002E2E0D0A00696D752074657374206661C8
:1003B000696C6564210D0A00636F6E6669672E675C
:1003C00079726F5F6F66667365745B782C792C7ACF
:1003D0005D3A2025642025642025640D0A0072758D
:1003E0006E6E696E67206779726F206F66667365DF
:1003F000742063616C6962726174696F6E2E2E2E57
:100400000D0A00696D7520746573742070617373D3
:100410002E0D0A0072756E6E696E6720696D75200B
:10042000746573742E2E2E0D0A00696D755F696EEA
:1004300069742E2E2E0D0A00696E697469616C69EB
:100440007A696E67207265736F6C7574696F6E2060
:10045000646976696465722E2E2E0D0A006A6F69D2
:100460006E696E6720693263206275732E2E2E0DC1
:100470000A00626C635F696E69742E2E2E0D0A008D
:1004800070776D5F696E69742E2E2E0D0A00636F92
:100490006E6669675F696E69742E2E2E0D0A000DF7
:1004A0000A0D0A62727573686C6573732067696DF3
:1004B00062616C207374617274696E672E2E2E0DEA
:1004C0000A00696E7075743D25630D0A006D6169DF
:1004D0006E3A200011241FBECFEFD8E0DEBFCDBFA3
:1004E00011E0A0E0B1E0E0EFF4E402C005900D926D
:1004F000A033B107D9F723E0A0E3B1E001C01D921A
:10050000AD3EB207E1F70E947A190C9476220C9462
:10051000000084B5826084BD8DE787BD85B58360AA
:1005200085BD82E080936E00089560911202709103
:100530001302809114029091150208950F931F9356
:1005400000911202109113022091140230911502B1
:10055000600F711F821F931F0091120210911302EE
:1005600020911402309115026017710782079307DA
:1005700098F71F910F9108951F920F920FB60F9247
:1005800011248F939F93AF93BF9380911202909108
:100590001302A0911402B09115020196A11DB11D84
:1005A0008093120290931302A0931402B093150249
:1005B000BF91AF919F918F910F900FBE0F901F90A1
:1005C00018958091120290911302A0911402B0919B
:1005D00015020196A11DB11D809312029093130282
:1005E000A0931402B0931502089580E29EE4A0E067
:1005F000B0E080931A0290931B02A0931C02B09368
:100600001D0240E157E260E070E040931E0250930B
:100610001F02609320027093210240E45CE960E0D5
:1006200070E040932202509323026093240270935F
:1006300025028093260290932702A0932802B0936C
:10064000290280E49FE1A0E0B0E080932A02909329
:100650002B02A0932C02B0932D0280E395E7A0E03B
:10066000B0E080932E0290932F02A0933002B093BB
:10067000310287E090E0909333028093320210922F
:10068000350210923402109237021092360221E0A5
:10069000209338028FEF8093390210923A02209310
:1006A0003B0230E530933C0230933D0280E293E020
:1006B00090933F0280933E0288E592E0909341023E
:1006C00080934002109242022093430220934402FE
:1006D000209345021092460210924702109248025F
:1006E0003093490230934A0220934B020895CF93EE
:1006F000C09158026EE38AE192E00E940A07C8178F
:1007000039F06EE38AE192E00E940A078093580272
:10071000CF9108956EE38AE192E00E940A078093E8
:10072000580208951092C50023E32093C400E1EC21
:10073000F0E0208120682083208128612083E2EC82
:10074000F0E020812660208390935C0280935B021E
:1007500060E070E086EF93E00C940D1E1F920F9204
:100760000FB60F9211242F933F934F935F936F9384
:100770007F938F939F93AF93BF93EF93FF9380915A
:10078000C600E0915B02F0915C02309709F0099598
:10079000FF91EF91BF91AF919F918F917F916F9159
:1007A0005F914F913F912F910F900FBE0F901F902F
:1007B000189590935C0280935B02089590935A027F
:1007C000809359020895FC018191882339F090911A
:1007D000C00095FFFCCF8093C600F6CF089590919E
:1007E000C00095FFFCCF8093C6000895CF93C82F1B
:1007F0000E94EF03E0915902F0915A02309711F0F4
:100800008C2F099580E090E0CF910895E82FE29534
:10081000EF70F0E0EC56FF4FE4919091C00095FF2F
:10082000FCCFE093C6008F70E82FF0E0EC56FF4F4E
:10083000E4918091C00085FFFCCFE093C60008954D
:10084000EF92FF920F931F93CF93DF938C017B0165
:10085000EC01CE01801B910B8E159F0524F489912C
:100860000E940604F6CFDF91CF911F910F91FF9068
:10087000EF900895CF93DF93CDB7DEB7AE01475F1A
:100880005F4F6F8178858091E5039091E6030E9428
:10089000581EDF91CF91089586E890E09F938F9343
:1008A00085EA90E09F938F930E943A040F900F90F7
:1008B0000F900F9093E48091C00085FD03C090934A
:1008C000C600F9CF2FEF84E39CE021508040904098
:1008D000E1F700C0000080E58093C6002FEF84E3BD
:1008E0009CE0215080409040E1F700C0000088E487
:1008F0008093C6002FEF84E39CE02150804090401D
:10090000E1F700C000000895809332010895539AE2
:10091000559A569A219A229A239A91EA94BD81E097
:1009200085BD90938000809381009093B000809368
:10093000B100EFE6F0E0808181608083EEE6F0E0D8
:10094000808181708083789480910B0187BD809134
:100950000A0188BD8091060190E090938900809300
:1009600088008091070190E090938B0080938A002B
:10097000809108018093B300809109018093B400B5
:100980000895611103C080930B010895613019F43B
:1009900080930A010895623019F480930901089543
:1009A000633019F4809308010895643019F480933A
:1009B00007010895653011F4809306010895809130
:1009C0003001909131018F719927892B11F40C948A
:1009D000E10208951F920F920FB60F9211242F93E8
:1009E0003F934F935F936F937F938F939F93AF93B7
:1009F000BF93EF93FF938091300190913101019665
:100A000090933101809330018091300190913101B8
:100A10008038924019F51092310110923001809186
:100A20000B0187BD80910A0188BD8091060190E08D
:100A300090938900809388008091070190E09093C3
:100A40008B0080938A00809108018093B30080918D
:100A500009018093B40081E080930F020E94DF04BB
:100A6000FF91EF91BF91AF919F918F917F916F9186
:100A70005F914F913F912F910F900FBE0F901F905C
:100A8000189580913201882321F0809132011092D3
:100A90003201089588E08AB98EE084B9809110010E
:100AA0008093610280935D028093620280935E0274
:100AB0008093630280935F0280936402809360025C
:100AC00081E085BB80936E0085BD089508950895EB
:100AD000681779072CF4481759071CF4CA010895C0
:100AE000CB010895681779072CF4481759071CF4AF
:100AF000CA010895CB010895EF92FF920F931F93BF
:100B0000261737074807590744F4E616F70608077B
:100B100019072CF4C801B70102C0CA01B9011F911D
:100B20000F91FF90EF9008954F925F926F927F9296
:100B30008F929F92AF92BF92CF92DF92EF92FF92ED
:100B40006B017C014B015C01E894B7F82BED3FE0B1
:100B500049E45FE30E94DE1C2B013C0120E030E011
:100B600040E85FE3C501B4010E94261B9B01AC0174
:100B7000C701B6010E94DE1C6B017C012BE438EC3E
:100B800047E85DE3C501B4010E94DE1C23EA32E9B7
:100B90004AE75EE30E94271B9B01AC01C701B60137
:100BA0000E94DE1C9B01AC01C301B2010E94261B06
:100BB000FF90EF90DF90CF90BF90AF909F908F907D
:100BC0007F906F905F904F9008958F929F92AF9219
:100BD000BF92CF92DF92EF92FF92CF93DF934B01C0
:100BE0005C0169017A019F775F77D1E00E94DA1C8E
:100BF00018160CF0D0E020E030E0A901C501B401E6
:100C00000E94DA1C87FD0AC0C1E020E030E0A901A3
:100C1000C701B6010E948B1B18160CF4C0E020E03F
:100C200030E0A901C501B4010E948B1B181694F095
:100C300020E030E0A901C701B6010E948B1B181605
:100C4000ECF520E030E0A901C701B6010E94DA1CF2
:100C500087FFC3E0DD2329F0A5019401C701B60198
:100C600004C0A7019601C501B4010E948F1B0E9418
:100C70009405DD2381F09B01AC01C23039F0C33013
:100C800029F06BED7FE089EC9FE315C06BED7FE011
:100C900089EC9FEB10C0C13039F0C23089F42BEDE4
:100CA0003FE049E450E407C02BED3FE049E450E465
:100CB0000E94271B05C00E94261B02C0C2E0C1CFB4
:100CC000DF91CF91FF90EF90DF90CF90BF90AF90EA
:100CD0009F908F9008950E94E50527EC3FEC4FE52B
:100CE00057E40E94DE1C0E94FC1B08958F929F9285
:100CF000AF92BF92CF92DF92EF92FF920F931F932A
:100D0000CF93DF93EC01CB01BA0148015901C880B0
:100D1000D980EA80FB80A70196010E94261BA501CD
:100D200094010E94DE1C9B01AC01C701B6010E9428
:100D3000271B688379838A839B83DF91CF911F91DF
:100D40000F91FF90EF90DF90CF90BF90AF909F906A
:100D50008F9008958F929F92AF92BF92CF92DF9221
:100D6000EF92FF920F931F93CF93DF93EC01CB0190
:100D7000BA016801790188849984AA84BB84A50199
:100D800094010E94261BA70196010E94DE1C9B0174
:100D9000AC01C501B4010E94271B688779878A8747
:100DA0009B878C809D80AE80BF80A50194010E94AE
:100DB000261BA70196010E94DE1C9B01AC01C50108
:100DC000B4010E94271B6C837D838E839F83888060
:100DD0009980AA80BB80A50194010E94261BA701CF
:100DE00096010E94DE1C9B01AC01C501B4010E946A
:100DF000271B688379838A839B83DF91CF911F911F
:100E00000F91FF90EF90DF90CF90BF90AF909F90A9
:100E10008F900895282FFC0180E09E2F921B96173B
:100E200038F49191892798E0880F9150E9F7F5CF30
:100E300008954F925F926F927F928F929F92AF929E
:100E4000BF92CF92DF92EF92FF920F931F93CF93B7
:100E5000DF9300D000D0CDB7DEB72B013C01298352
:100E60003A834B835C83F401AE18BF08C00AD10AF1
:100E7000AD8DBE8DA60195010E94ED1A9B01AC01BE
:100E8000C301B2010E94B31A613629E772072EEF3F
:100E900082072FEF920764F0603A36E8730731E07B
:100EA0008307910554F080EA96E8A1E0B0E007C01E
:100EB00080E699E7AEEFBFEF02C0DC01CB01E08036
:100EC000F18002811381E80EF91E0A1F1B1FE082C8
:100ED000F18202831383298D3A8D4B8D5C8DC6017F
:100EE000B5010E94B31A2B013C014E0C5F1C601E21
:100EF000711EEF89F88D80819181A281B381A60155
:100F00009501281B390B4A0B5B0BCA01B9012F8DC8
:100F100038A149A15AA10E94B31A9B01AC01698171
:100F20007A818B819C810E94B31A460E571E681EDF
:100F3000791EA082B182C282D382C301B20120E0B5
:100F400030E840E050E00E94C31ACA01B9010F9096
:100F50000F900F900F90DF91CF911F910F91FF9005
:100F6000EF90DF90CF90BF90AF909F908F907F9049
:100F70006F905F904F900895FC012081FB013081BC
:100F8000FC013083FB0120830895FC012081318125
:100F9000FB0140815181FC0151834083FB0131837E
:100FA0002083089580E090E0A3E0B3E480931602EC
:100FB00090931702A0931802B093190208952F92EC
:100FC0003F925F926F927F928F929F92AF92BF9269
:100FD000CF92DF92EF92FF920F931F93CF93DF9305
:100FE000CDB7DEB768970FB6F894DEBF0FBECDBFA2
:100FF0000E94E70B60ED77E080E090E00E949E02A7
:101000007E0143E1E40EF11C00EA1FE0512C8AE569
:10101000282E81E0382E003A8FE0180781F0AE01CB
:101020004F5E5F4FBE01615F7F4FCE010D960E9404
:10103000600BFE013D96D70180E090E02DC06CEB87
:1010400072E080E090E00E949E02AE014F5E5F4F32
:10105000BE01615F7F4FCE010D960E94600B198229
:101060001A821B821C828D859E859C8B8B8B1D8298
:101070001E821F8218868F8598899E8B8D8B19867C
:101080001A861B861C8689899A89988F8F8BC7CF71
:1010900001968330910561F1B82EA92E6D917D9155
:1010A000819091909B0128193909690137FF04C08B
:1010B000CC24DD24C21AD30A41E4C416D10444F37B
:1010C00053947F936F939F928F923F932F931F938D
:1010D0000F93AF92BF92A4E2B1E0BF93AF933F9260
:1010E0002F920E943A040FB6F894DEBF0FBECDBF18
:1010F000DE0111965D013701FE013D966F01D601BB
:101100008D909D906D01B401882777FD8095982F73
:101110000E942A1C20E030E04AE755E40E948F1B21
:101120009B01AC01F50160817181828193810E94F4
:10113000271BD5016D937D938D939D935D01F301E5
:10114000819291923F01CE14DF04C9F6015011093A
:1011500015147CF48DEF90E09F938F938AE591E0D6
:101160009F938F930E943A040F900F900F900F90CF
:101170004BCF0115110509F04ECF69817A818B8122
:101180009C810E94F71B70934D0260934C026D810D
:101190007E818F8198850E94F71B70934F02609328
:1011A0004E0269857A858B859C850E94F71B70931A
:1011B00051026093500286ED90E09F938F930AE571
:1011C00011E01F930F930E943A04809151028F9374
:1011D000809150028F9380914F028F9380914E02A5
:1011E0008F9380914D028F9380914C028F938DEA63
:1011F00090E09F938F931F930F930E943A040E9455
:10120000340B0FB6F894DEBF0FBECDBF68960FB695
:10121000F894DEBF0FBECDBFDF91CF911F910F912C
:10122000FF90EF90DF90CF90BF90AF909F908F9006
:101230007F906F905F903F902F900895CF93DF93B2
:1012400000D000D000D0CDB7DEB764EF71E080E011
:1012500090E00E949E02AE014B5F5F4FBE016D5F4A
:101260007F4FCE0101960E94620B62E070E080E049
:1012700090E0EFCF1092110191E09093140182E081
:101280008093170190931A0110921D018093200101
:1012900081E090E090931301809312012FEF3FEFD4
:1012A0003093160120931501909319018093180132
:1012B00090931C0180931B0190931F0180931E014A
:1012C000909322018093210108950E943A09809110
:1012D0004502882361F1809121019091220191952D
:1012E00081959109909322018093210180911B01A6
:1012F00090911C0191958195910990931C01809387
:101300001B0180911501909116019195819591098C
:101310009093160180931501809118019091190105
:10132000919581959109909319018093180180916D
:101330004602882381F180911101909114019093CC
:101340001101809314018091120190911301209159
:1013500015013091160130931301209312019093DF
:1013600016018093150180911A0190911D019093AF
:101370001A0180931D0180911B0190911C01209105
:101380001E0130911F0130931C0120931B0190938B
:101390001F0180931E0108954F925F926F927F927A
:1013A0008F929F92AF92BF92CF92DF92EF92FF9275
:1013B0006091260270912702809128029091290263
:1013C0002AE0422E512C612C712CA30192010E9423
:1013D000C31A2093C5023093C6024093C7025093AC
:1013E000C80260912A0270912B0280912C02909188
:1013F0002D0238EE832E33E0932EA12CB12CA501C3
:1014000094010E94C31A2093C9023093CA024093E8
:10141000CB025093CC0260912E0270912F028091EA
:1014200030029091310244ECC42E49E0D42EE12CDC
:10143000F12CA70196010E94C31A2093CD0230938C
:10144000CE024093CF025093D00260911A02709165
:101450001B0280911C0290911D02A30192010E9427
:10146000C31A2093B5023093B6024093B70250934B
:10147000B80260911E0270911F028091200290912B
:101480002102A50194010E94C31A2093B90230934E
:10149000BA024093BB025093BC0260912202709149
:1014A00023028091240290912502A70196010E94B7
:1014B000C31A2093BD023093BE024093BF025093E3
:1014C000C002FF90EF90DF90CF90BF90AF909F90C1
:1014D0008F907F906F905F904F900895EF92FF9262
:1014E0000F931F93CF93DF93CDB7DEB72C970FB633
:1014F000F894DEBF0FBECDBF8E01095F1F4FAE0156
:10150000455F5F4FBE01675F7F4FC8010E94620B5E
:1015100080911A01FE013196E80FF11DE80FF11DCF
:101520008F8198852091520230915302821B930B38
:101530009183808380911D01FE013196E80FF11D9A
:10154000E80FF11D89859A8520915402309155024A
:10155000821B930B9183808380912001FE01319641
:10156000E80FF11DE80FF11D8B859C852091560237
:1015700030915702821B930B91838083CE01019699
:101580007C01ABE1B1E080E591E0F70161917191FF
:101590007F014D915C911197649F9001659F300D83
:1015A000749F300D1124FC0121933193CF011396C8
:1015B000E016F10651F72C960FB6F894DEBF0FBE79
:1015C000CDBFDF91CF911F910F91FF90EF900895C4
:1015D000CF92DF92EF92FF920F931F93CF93DF93FF
:1015E000C0E5D1E004E411E0C12CD12C7601699171
:1015F0007991882777FD8095982F0E942A1CF80101
:1016000061937193819391938F019B01AC010E942F
:10161000DE1C9B01AC01C701B6010E94271B6B01B8
:101620007C01F1E0C635DF0711F720E030E048EC3F
:1016300052E40E94DE1C20E030E040E851E30E94CA
:10164000DE1CAB01BC010DEC1CEC2CEC3CE380E49B
:1016500091E00E947606DF91CF911F910F91FF904C
:10166000EF90DF90CF9008950C94790E0C94B40E07
:10167000EF92FF920F931F930E94E60E1F910F911E
:10168000FF90EF9008958F929F92AF92BF92CF926A
:10169000DF92EF92FF920F931F93CF93DF93CDB71B
:1016A000DEB70E94600FDF91CF911F910F91FF90E5
:1016B000EF90DF90CF90BF90AF909F908F90089564
:1016C0000C94DA0F0C942B10CF93DF9300D000D042
:1016D00000D0CDB7DEB7AE014B5F5F4FBE016D5F8F
:1016E0007F4FCE0101960E94DA0F89819A81209165
:1016F0004C0230914D02821B930B9A8389838B811C
:101700009C8120914E0230914F02821B930B9C834F
:101710008B838D819E812091500230915102821BDA
:10172000930B9E838D8380911101FE013196E80F0A
:10173000F11DE80FF11D408151812091120130917E
:101740001301429FC001439F900D529F900D1124A1
:10175000909357018093560180911401FE013196B8
:10176000E80FF11DE80FF11D408151812091150115
:1017700030911601429FC001439F900D529F900DE2
:101780001124909359018093580180911701FE0113
:101790003196E80FF11DE80FF11D40815181209134
:1017A000180130911901429FC001439F900D529F33
:1017B000900D112490935B0180935A0126960FB6E9
:1017C000F894DEBF0FBECDBFDF91CF91089586E0C4
:1017D0000C94CF0F2F923F924F925F926F927F9215
:1017E0008F929F92AF92BF92CF92DF92EF92FF9231
:1017F0000F931F93CF93DF9300D000D0CDB7DEB708
:101800008C011B01FC0180809180A280B380C48088
:10181000D580E680F7804084518462847384FB0124
:101820002081318142815381C501B4010E94DE1CB7
:1018300069837A838B839C83F1012481358146817E
:101840005781C701B6010E94DE1C9B01AC01698172
:101850007A818B819C810E94271B9B01AC01C30173
:10186000B2010E94261BF8016087718782879387E7
:10187000F1012081318142815381C301B2010E9473
:10188000DE1C69837A838B839C83F10120853185FB
:1018900042855385C701B6010E94DE1C9B01AC0145
:1018A00069817A818B819C810E94261B9B01AC01FE
:1018B000C501B4010E94271BF801608371838283F4
:1018C0009383F1012481358146815781C301B2019F
:1018D0000E94DE1C2B013C01F101208531854285EF
:1018E0005385C501B4010E94DE1C9B01AC01C301FC
:1018F000B2010E94271B9B01AC01C701B6010E94E7
:10190000271BF80164837583868397830F900F905C
:101910000F900F90DF91CF911F910F91FF90EF905B
:10192000DF90CF90BF90AF909F908F907F906F90FF
:101930005F904F903F902F9008958F929F92AF921B
:10194000BF92CF92DF92EF92FF920F931F93CF93AC
:10195000DF93CDB7DEB72C970FB6F894DEBF0FBE7E
:10196000CDBFC0905C01D0905D01E0905E01F09031
:101970005F0186E5A82E81E0B82E8E010F5F1F4F14
:101980004801F501619171915F01882777FD80958C
:10199000982F0E942A1CA70196010E94DE1CF801C4
:1019A00061937193819391938F01FCE5AF16F1E000
:1019B000BF0639F7B40185E692E00E94EA0B2C9647
:1019C0000FB6F894DEBF0FBECDBFDF91CF911F9150
:1019D0000F91FF90EF90DF90CF90BF90AF909F90CE
:1019E0008F9008952F923F924F925F926F927F92C5
:1019F0008F929F92AF92BF92CF92DF92EF92FF921F
:101A00000F931F93CF93DF9300D000D0CDB7DEB7F5
:101A1000C0904001D0904101E0904201F09043011C
:101A200020E030E040E152E4C701B6010E94DA1C38
:101A3000181654F420E030E044E453E4C701B60142
:101A40000E948B1B87FD05C080913F01882309F40C
:101A500043C0C0903B01D0903C01E0903D01F0902C
:101A60003E01A701960160E070E080E89FE30E94DC
:101A7000261B2B013C0104E411E095E6292E92E09F
:101A8000392EF80181909190A190B1908F01F101D0
:101A90002081318142815381C301B2010E94DE1C49
:101AA00069837A838B839C83A7019601C501B40166
:101AB0000E94DE1C9B01AC0169817A818B819C8133
:101AC0000E94271BF10161937193819391931F01F0
:101AD000F1E000351F07A9F60F900F900F900F90BF
:101AE000DF91CF911F910F91FF90EF90DF90CF90FA
:101AF000BF90AF909F908F907F906F905F904F902E
:101B00003F902F9008954F925F926F927F928F92A5
:101B10009F92AF92BF92CF92DF92EF92FF920F937C
:101B20001F93CF93DF938090360290903702AA24C0
:101B300097FCA094BA2CCDE6D2E0688179818A81A5
:101B40009B8109E612E0F801C080D180E280F38039
:101B50009B01AC010E94DE1C2B013C01A7019601F8
:101B6000C701B6010E94DE1C9B01AC01C301B2019A
:101B70000E94271B0E944B1D9B01AC0160916502D6
:101B80007091660280916702909168020E946B06D4
:101B9000680D791D8A1D9B1D60933301709334017C
:101BA0008093350190933601C0903402D090350275
:101BB000EE24D7FCE094FE2C288139814A815B8198
:101BC000F80160817181828193810E946B066C0DA6
:101BD0007D1D8E1D9F1D609337017093380180938A
:101BE000390190933A01DF91CF911F910F91FF90AE
:101BF000EF90DF90CF90BF90AF909F908F907F90AD
:101C00006F905F904F9008950F93082F23E042E06C
:101C10006BE6809125010E941F14882319F089E446
:101C200092E002C08EE292E09F938F938BE792E066
:101C30009F938F930E943A040F900F900F900F90F4
:101C40000F9108950F93082F22E044E06BE18091FB
:101C500025010E941F14882319F089E092E002C038
:101C600085EE91E09F938F938BE792E09F938F9304
:101C70000E943A040F900F900F900F900F910895CB
:101C80000F93082F22E044E06CE1809125010E942F
:101C90001F14882319F08FEB91E002C08AE991E0CC
:101CA0009F938F938BE792E09F938F930E943A04C8
:101CB0000F900F900F900F900F910895282F46E0EE
:101CC0006BE6809125010E94EC13882319F08DE7C3
:101CD00091E002C081E691E09F938F938BE792E0C1
:101CE0009F938F930E943A040F900F900F900F9044
:101CF000089581E00E94040E80E00E94220E80E0A0
:101D00000E94400E80E00C945E0EEF92FF920F93C3
:101D10001F93CF93DF93CDB7DEB72E970FB6F8940E
:101D2000DEBF0FBECDBF8E010F5F1F4F8EE0F801EB
:101D300011928A95E9F788EEE82E83E0F82E26E0E6
:101D400046E065E7809125010E948A1489812E96DC
:101D50000FB6F894DEBF0FBECDBFDF91CF911F91BC
:101D60000F91FF90EF9008950F931F93CF93DF9300
:101D70001F92CDB7DEB70E94850E898389E692E077
:101D80009F938F930BE712E01F930F930E943A04E7
:101D900061E070E0CE0101960E94200485E692E0A9
:101DA0009F938F931F930F930E943A0481E00FB685
:101DB000F894DEBF0FBECDBF9981943309F080E067
:101DC0000F90DF91CF911F910F9108954F925F92E5
:101DD0006F927F928F929F92AF92BF92CF92DF923B
:101DE000EF92FF920F931F93CF93DF93CDB7DEB7A0
:101DF0002E970FB6F894DEBF0FBECDBF6C015B010E
:101E00002A01390148019E012F5F3F4F8EE0F90101
:101E100011928A95E9F708EE13E04EE06BE38091AA
:101E200025010E943C13898190E0982F88272A8100
:101E3000822BF601918380838B8190E0982F8827F5
:101E40002C81822BF501918380838D8190E0982FE6
:101E500088272E81822BF20191838083898590E0EF
:101E6000982F88272A85822BF301918380838B8585
:101E700090E0982F88272C85822BF4019183808312
:101E80008D8590E0982F88272E85822BF7019183EE
:101E900080832E960FB6F894DEBF0FBECDBFDF91C4
:101EA000CF911F910F91FF90EF90DF90CF90BF9057
:101EB000AF909F908F907F906F905F904F9008951C
:101EC0006F927F928F929F92AF92BF92CF92DF924A
:101ED000EF92FF920F931F93CF93DF93CDB7DEB7AF
:101EE0002E970FB6F894DEBF0FBECDBFFE01319620
:101EF000AEE01192AA95E9F70E94E60E42E067E390
:101F0000809125010E94DC138FE19EE40197F1F797
:101F100000C0000041E06AE08CE00E94DC13EFE1C9
:101F2000FEE43197F1F700C0000008EE13E09E01D7
:101F30002F5F3F4F46E063E08CE00E943C138A81B4
:101F400090E0982F88272981822BF6019183808346
:101F50008C8190E0982F88272B81822BF50191832B
:101F600080838E8190E0982F88272D81822BF40129
:101F7000918380832E960FB6F894DEBF0FBECDBF3F
:101F8000DF91CF911F910F91FF90EF90DF90CF9055
:101F9000BF90AF909F908F907F906F9008950F9318
:101FA000082F23E042E06AE1809125010E941F147E
:101FB0000F910895AF92BF92CF92DF92EF92FF926E
:101FC0000F931F93CF93DF93CDB7DEB72E970FB646
:101FD000F894DEBF0FBECDBF5C016B017A019E019C
:101FE0002F5F3F4F8EE0F90111928A95E9F708EED5
:101FF00013E046E063E4809125010E943C132981AF
:1020000030E0322F22278A81282BF501318320836B
:102010008B8190E0982F88272C81822BF601918369
:1020200080838D8190E0982F88272E81822BF70165
:10203000918380832E960FB6F894DEBF0FBECDBF7E
:10204000DF91CF911F910F91FF90EF90DF90CF9094
:10205000BF90AF900895AF92BF92CF92DF92EF9270
:10206000FF920F931F93CF93DF93CDB7DEB72E97D9
:102070000FB6F894DEBF0FBECDBF5C016B017A01D5
:102080009E012F5F3F4F8EE0F90111928A95E9F78B
:1020900008EE13E046E06BE3809125010E943C13BB
:1020A000298130E0322F22278A81282BF5013183C4
:1020B00020838B8190E0982F88272C81822BF6013A
:1020C000918380838D8190E0982F88272E81822BA9
:1020D000F701918380832E960FB6F894DEBF0FBE72
:1020E000CDBFDF91CF911F910F91FF90EF90DF90C7
:1020F000CF90BF90AF9008951092CD0181E0809372
:10210000CB011092CA01E9EBF0E080818E7F8083E1
:1021100080818D7F808380E28093B80085E4809306
:10212000BC000895880F8093BA000895413208F0EA
:102130003FC09091CD019111FCCF91E09093CD01E2
:102140002093CB012FEF209360011092A501240F63
:102150002093A4019093CC019091CC01880F892BFE
:102160008093CC018091CA01813041F41092CA0160
:102170008091CC018093BB0085EC01C085EE8093FB
:10218000BC008091CD018130E1F38091A5018417DD
:1021900010F44091A50126EA31E0FB01D9018A2F14
:1021A000821B841718F48D918193F9CF842F0895A1
:1021B00080E008950F93413208F046C09091CD0120
:1021C0009111FCCF92E09093CD010093CB019FEF52
:1021D000909360011092A5014093A401FB0166EA6F
:1021E00071E0DB019A2F961B941718F491919D933F
:1021F000F9CF1092CC019091CC01880F892B80935C
:10220000CC018091CA01813041F41092CA018091C1
:10221000CC018093BB0085EC01C085EE8093BC00AF
:10222000222321F08091CD018230E1F38091600181
:102230008F3F61F080916001803251F080916001A8
:10224000803341F483E007C081E005C080E003C033
:1022500082E001C084E00F910895613298F42091EA
:10226000CD01243089F460938201FC0184E891E07F
:10227000DC012A2F281B261718F421912D93F9CF62
:1022800080E0089581E0089582E008959093C70169
:102290008093C60108959093C9018093C801089561
:1022A000882311F085EC01C085E88093BC00089577
:1022B00085ED8093BC008091BC0084FDFCCF109222
:1022C000CD01089585EC8093BC001092CD01089556
:1022D0001F920F920FB60F9211242F933F934F939B
:1022E0005F936F937F938F939F93AF93BF93EF937E
:1022F000FF938091B900887F803609F49CC068F50F
:10230000883209F45BC090F4803109F454C038F489
:10231000882309F4F5C0883009F44DC0F5C0883130
:1023200009F44CC0803209F45DC0EEC0803409F479
:1023300068C048F4803309F455C0883309F0E4C01C
:1023400080936001A8C0803509F44FC0883509F436
:102350005DC0883409F0D8C0D5C0883909F4C6C03A
:10236000A8F4883709F467C038F4883609F463C0E4
:10237000803709F460C0C8C0883809F4B7C0803914
:1023800009F45FC0803809F0BFC05BC0803B09F42E
:1023900085C038F4803A09F466C0883A09F47EC0F2
:1023A000B3C0803C09F4A6C0883C09F4A3C0883BB4
:1023B00009F489C0A9C08091CC0110C09091A501F9
:1023C0008091A401981770F5E091A50181E08E0F2E
:1023D0008093A501F0E0EA55FE4F80818093BB0019
:1023E00085EC85C0809360018DC0E091A50181E0FE
:1023F0008E0F8093A5018091BB00F0E0EA55FE4F5F
:1024000080839091A5018091A4016DC0E091A50108
:1024100081E08E0F8093A5018091BB00F0E0EA552A
:10242000FE4F80838091CB0181116CC081E080934D
:10243000CA0184EA60C083E08093CD0110926101FB
:10244000CFCF80916101803208F050C0E0916101EE
:1024500081E08E0F809361018091BB00F0E0EE5926
:10246000FE4F8083BDCF80916101803230F4E091D6
:102470006101F0E0EE59FE4F10820E945811609108
:10248000610170E0E091C601F091C70182E691E040
:102490000995109261010E94621136C084E0809318
:1024A000CD011092830110928201E091C801F09158
:1024B000C901099580918201811105C081E0809355
:1024C000820110928401E091830181E08E0F80935C
:1024D0008301F0E0EC57FE4F80818093BB00909128
:1024E000830180918201981708F47ACF85E8809360
:1024F000BC000AC085EC8093BC001092CD0104C0E2
:10250000109260010E945811FF91EF91BF91AF911D
:102510009F918F917F916F915F914F913F912F91FB
:102520000F900FBE0F901F9018951092D30110922C
:10253000D2011092D0011092CF010C947C100E9415
:1025400092100C94951291E09093CE018093D1015A
:102550001092D0011092CF010895242F462F61329E
:1025600008F040E261E772E00E9496101092D301F9
:102570008093D20108950F93082F21E04091CF015D
:1025800061E972E08091D1010E94DA101092D001CD
:102590001092CF011092CE010F910895CF93DF9347
:1025A0001F92CDB7DEB789838091CE01882391F049
:1025B0008091CF018032B0F48091D001E82FF0E01B
:1025C000EF56FD4F998190838F5F8093D001809368
:1025D000CF0105C061E0CE0101960E942D1181E07E
:1025E00090E002C080E090E00F90DF91CF910895DD
:1025F000EF92FF920F931F93CF93DF938B01209164
:10260000CE01222359F0EC017C01E60EF71ECE1517
:10261000DF0531F089910E94CE12F9CF0E942D1171
:10262000C801DF91CF911F910F91FF90EF90089516
:102630008091D2019091D301891B08959091D3018B
:102640008091D201981748F4E92FF0E0EF58FD4F40
:1026500080819F5F9093D30108958FEF0895E0915B
:10266000D3018091D201E81728F4F0E0EF58FD4F34
:10267000808108958FEF08955F926F927F928F927D
:102680009F92AF92BF92CF92DF92EF92FF920F9301
:102690001F93CF93DF93682E562E942EE9010E944C
:1026A00095026B017C01C00ED11EE11CF11C812C36
:1026B000712CA92CB12C891480F5862D0E94A312AF
:1026C000852D0E94CE1281E00E94BB12C50188199F
:1026D000910980971CF4692D681901C060E241E0FE
:1026E000862D0E94AD120E941813882379F08E0166
:1026F000070D111D0E941E13F801808373940E9420
:102700009502C616D706E806F90668F7892DF0E2A5
:10271000F91508F480E2880ECECF872DDF91CF9196
:102720001F910F91FF90EF90DF90CF90BF90AF90EF
:102730009F908F907F906F905F9008950F931F935D
:1027400089019A0141E00E943C131F910F91089565
:10275000EF92FF920F931F93CF93DF9300D01F92BE
:10276000CDB7DEB7142F2A833B8369830E94A3125F
:102770006981862F0E94CE122A81022FE22E3B8190
:10278000F32E8E2D801B811730F4F70181917F018C
:102790000E94CE12F6CF81E00E94BB1291E081111F
:1027A00090E0892F0F900F900F90DF91CF911F91A4
:1027B0000F91FF90EF900895CF93DF931F92CDB7C5
:1027C000DEB749839E012F5F3F4F41E00E94A8136F
:1027D0000F90DF91CF910895EF92FF920F931F9387
:1027E000CF93DF931F92CDB7DEB7182F062FF42EAD
:1027F000E22E2091260130912701AE014F5F5F4FFD
:102800000E949E13898121E030E00F2C01C0220F2D
:102810000A94EAF7EE2019F0482F422B03C0422F0A
:10282000409548234983602F812F0E94DC130F902D
:10283000DF91CF911F910F91FF90EF900895DF925C
:10284000EF92FF920F931F93CF93DF931F92CDB719
:10285000DEB7F82EE62ED42E122F209126013091CD
:102860002701AE014F5F5F4F0E949E13882319F12D
:102870004D2D50E0411B51094F5F5F4FE1E0F0E00B
:1028800002C0EE0FFF1F1A95E2F73197042E01C028
:10289000EE0F0A94EAF701C0000F4A95EAF74E2FAF
:1028A000409589814823E0234E2B49836E2D8F2D3F
:1028B0000E94DC1301C080E00F90DF91CF911F9147
:1028C0000F91FF90EF90DF900895DF92EF92FF92CB
:1028D0000F931F93CF93DF931F92CDB7DEB7D42E04
:1028E00079019801AE014F5F5F4F0E949E1361E036
:1028F00070E001C0660FDA94EAF799819623F70138
:1029000090830F90DF91CF911F910F91FF90EF90E7
:10291000DF900895CF92DF92EF92FF920F931F9373
:10292000CF93DF931F92CDB7DEB7C42ED22E97017F
:10293000AE014F5F5F4F0E949E138823F1F04C2D34
:1029400050E04D1951094F5F5F4F61E070E002C0E8
:10295000660F771FDA94E2F761507109042E01C007
:10296000660F0A94EAF72981262330E002C03595E4
:1029700027954A95E2F7F80120830F90DF91CF91D8
:102980001F910F91FF90EF90DF90CF900895CF921D
:10299000DF92EF92FF926B017C010E9495026C0D19
:1029A0007D1D8E1D9F1D6093D6017093D70180936E
:1029B000D8019093D901FF90EF90DF90CF900895C8
:1029C000BC01882777FD8095982F0E942A1C2EEB4A
:1029D00037E346E05BE30E94271B9B01AC016EEBF3
:1029E00077E386E09BE30E948F1B60933B0170932B
:1029F0003C0180933D0190933E010895CF93DF9376
:102A0000209116023091170240911802509119023C
:102A100060E070E080E89FE30E948F1B20E030E0E0
:102A200044E353E40E948F1B2BED3FE049E450E464
:102A30000E94DE1C2EEB37E346E05BE30E94DE1CC7
:102A400060935C0170935D0180935E0190935F01E0
:102A500080913202909133020E94E01480E090E075
:102A6000A0E8BDE48093400190934101A09342010E
:102A7000B0934301109265021092660210926702B1
:102A8000109268021092690210926A0210926B0210
:102A900010926C0280E090E0A0E8B6E480936D02B2
:102AA00090936E02A0936F02B09370028BE093E05C
:102AB0009F938F93C1E2D3E0DF93CF930E943A04B8
:102AC00083EF92E09F938F93DF93CF930E943A041A
:102AD0001092DA0181E0809328018DB79EB70896A5
:102AE0000FB6F8949EBF0FBE8DBF68EE73E080E016
:102AF00090E0DF91CF910C94C7148F929F92AF9288
:102B0000BF92CF92DF92EF92FF920F931F9380912B
:102B10000F02882309F42EC210920F020E94640B48
:102B20008091430281110E949D0C80914402811189
:102B30000E94F20C0E94830D8091080281116AC0EC
:102B400020E030E04AE754E46091EB017091EC0141
:102B50008091ED019091EE010E94DE1C0E94F71B16
:102B6000E0903701F09038010091390110913A015D
:102B70002091C0022F932091BF022F932091BE027B
:102B80002F932091BD022F932091BA022F93209171
:102B9000B9022F932091B8022F932091B7022F935F
:102BA0002091B6022F932091B5022F932BEF31E0A5
:102BB0003F932F9333E0832E32E0932E5B016C0121
:102BC00024EF31E040E050E062E070E080E090E02F
:102BD0000E9419076093C1027093C2028093C302DE
:102BE0009093C40240913802552747FD5095469F67
:102BF0009001479F300D569F300D11243093E60110
:102C00002093E5018DB79EB70C960FB6F8949EBF42
:102C10000FBE8DBF8091070281116AC020E030E0B5
:102C20004AE754E46091E7017091E8018091E9017D
:102C30009091EA010E94DE1C0E94F71BE090330194
:102C4000F090340100913501109136012091D002AD
:102C50002F932091CF022F932091CE022F9320917A
:102C6000CD022F932091CA022F932091C9022F9356
:102C70002091C8022F932091C7022F932091C60262
:102C80002F932091C5022F9327EF31E03F932F938D
:102C90002FEF822E21E0922E5B016C0124EF31E0B8
:102CA00040E050E062E070E080E090E00E941907B0
:102CB0006093B1027093B2028093B3029093B40216
:102CC00040913902552747FD5095469F9001479FF7
:102CD000300D569F300D11243093E4012093E30111
:102CE0008DB79EB70C960FB6F8949EBF0FBE8DBFE2
:102CF00080911002882309F44AC08091E4018F93E7
:102D00008091E3018F938091E6018F938091E5019B
:102D10008F938091B4028F938091B3028F938091AF
:102D2000B2028F938091B1028F938091C4028F93EE
:102D30008091C3028F938091C2028F938091C102D0
:102D40008F9388EB92E09F938F9381E293E09F9320
:102D50008F930E943A0440910D0250910E026091AF
:102D6000E50180913A020E94E01840910B025091D7
:102D70000C026091E30180913B020E94E0188DB744
:102D80009EB740960FB6F8949EBF0FBE8DBF409180
:102D9000F3015091F4016091F5017091F6010AE0A0
:102DA00017ED23E23CE38BEE91E00E947606409122
:102DB000EF015091F0016091F1017091F2010AE090
:102DC00017ED23E23CE387EE91E00E9476068091C6
:102DD000DA01882329F0813029F40E94E80A02C030
:102DE0000E946E0A8091DA018F5F833019F0809320
:102DF000DA0102C01092DA0120912801332727FD61
:102E000030958091D50190E02817390721F081E0B5
:102E10008093D40102C01092D40180912801809344
:102E2000D50180912801823009F454C01CF481300E
:102E3000D1F097C0833009F47DC0843009F091C08F
:102E400085E892E09F938F9381E293E09F938F9325
:102E50000E943A04109210020E9440190F900F90A5
:102E60000F900F907EC08091D401882371F08DEA7D
:102E700092E09F938F9381E293E09F938F930E94C0
:102E80003A040F900F900F900F901092100281E073
:102E900080933F010E9495020091D6011091D701C5
:102EA0002091D8013091D9016017710782079307EB
:102EB00008F457C068EE73E080E090E00E94C71409
:102EC00082E08093280168E873E180E090E00E944E
:102ED000C71447C08091D401882371F08EE992E035
:102EE0009F938F9381E293E09F938F930E943A0484
:102EF0000F900F900F900F9081E0809310028093BD
:102F00003F010E9495020091D6011091D7012091B6
:102F1000D8013091D901601771078207930708F132
:102F200068EE73E080E090E00E94C71483E0809335
:102F3000280117C08091D401882371F081E992E0C3
:102F40009F938F9381E293E09F938F930E943A0423
:102F50000F900F900F900F9081E0809310021092CD
:102F60003F018091DA018F5F8093DA01833011F4A1
:102F70001092DA011F910F91FF90EF90DF90CF90A8
:102F8000BF90AF909F908F9008958F929F92AF9235
:102F9000BF92CF92DF92EF92FF920F931F9383E045
:102FA0000E944D19BC01882777FD8095982F0E94BB
:102FB0002A1C2AE038E240EA5BE30E94DE1C2DE591
:102FC00034E741EB50E40E94DE1CAB01BC014093AE
:102FD000DB015093DC016093DD017093DE0108EBAF
:102FE00017E624EA3CE38FED91E00E94760680919B
:102FF00042028823B9F1C090DF01D090E001E09057
:10300000E101F090E20120E030E048EC52E4C70139
:10301000B6010E94DE1C4B015C0160914002709180
:10302000410280E090E00E94281C9B01AC01C50198
:10303000B4010E94DA1C1816E4F460913E0270910B
:103040003F0280E090E00E94281C2AE037ED43E236
:103050005CE30E94DE1CA70196010E948F1B6B019E
:103060007C010AC0C12CD12C40E8E42E4FE3F42EA1
:1030700003C0C12CD12C760180910802882331F045
:103080006091490270E080E090E007C060913C02EE
:10309000772767FD7095872F972F0E942A1CA7011D
:1030A00096010E94DE1C0E94FC1B70930E0260932E
:1030B0000D024FEF50E060E070E080910D029091C2
:1030C0000E020E94680590930E0280930D0280917B
:1030D0000702882331F060914A0270E080E090E0BE
:1030E00007C060913D02772767FD7095872F972F66
:1030F0000E942A1CA70196010E94DE1C0E94FC1B54
:1031000070930C0260930B024FEF50E060E070E0B0
:1031100080910B0290910C020E94680590930C0222
:1031200080930B021F910F91FF90EF90DF90CF9053
:10313000BF90AF909F908F900895CF92DF92EF92C3
:10314000FF926B017C010E94F71B882777FD809519
:10315000982F0E942A1C9B01AC01C701B6010E9456
:10316000261B20E030E040E251E40E94DE1C20E01B
:1031700030E040E251E40E94DE1C20E030E040E21A
:1031800051E40E94DE1C20E030E040E251E40E9465
:10319000DE1C20E030E040E251E40E94DE1C0E9490
:1031A000F71BCB01FF90EF90DF90CF9008950E9426
:1031B000F71BCB0108950C9439200C9441200895FD
:1031C0000F931F93CF93DF93E62FF0E0EF52FD4F65
:1031D000DF01AB5ABF4F0C91AB5ABF4F1C91282F48
:1031E00030E0E901CC0FDD1FC20FD31FC75DDE4FFA
:1031F000688180810E94C1046981802F0E94C1047E
:103200006A81812FDF91CF911F910F910C94C1049E
:103210000F931F93CF93DF9301ED12E0C0E0D0E056
:10322000BE01882777FD8095982F0E942A1C9B015C
:10323000AC010E94271B20E030E040E85BE30E94E5
:10324000DE1C2BED3FE049E450E40E94DE1C0E94AE
:10325000411D20E030E04EEF52E40E94DE1C0E944F
:10326000F71BF80161938F012196C115F1E0DF078B
:10327000B9F6DF91CF911F910F9108950C94081921
:1032800040E050E060E080E00E94E01840E050E064
:1032900060E080E00C94E018089590917C00907FAD
:1032A00090937C0090917C00982B90937C0080916F
:1032B0007A00806480937A0080917A0086FDFCCF4A
:1032C00080917800909179000895809311021F9267
:1032D0008F9382EC94E09F938F938DEC94E09F9377
:1032E0008F930E943A040F900F900F900F900F90C1
:1032F0000F90089585E699E10E9492038FE994E08A
:103300009F938F93CDECD4E0DF93CF930E943A0448
:103310008EE894E09F938F93DF93CF930E943A04BB
:103320000E94F50280E894E09F938F93DF93CF9300
:103330000E943A040E948704789482E794E09F9365
:103340008F93CDECD4E0DF93CF930E943A040E9498
:103350003E190E9440198DE594E09F938F93DF936F
:10336000CF930E943A040E94951288E394E09F93C1
:103370008F93DF93CF930E943A040E94D2078AE290
:1033800094E09F938F93DF93CF930E943A040E941F
:10339000340B84E194E09F938F93DF93CF930E944B
:1033A0003A048DB79EB780960FB6F8949EBF0FBEB5
:1033B0008DBF0E94360B8823E9F183E094E09F9350
:1033C0008F93DF93CF930E943A040F900F900F904A
:1033D0000F9080914B028823C9F18EED93E09F936B
:1033E0008F93DF93CF930E943A040E94DF0780916E
:1033F00051028F93809150028F9380914F028F934F
:1034000080914E028F9380914D028F9380914C0258
:103410008F9388EB93E09F938F93DF93CF930E94DA
:103420003A048DB79EB70E960FB6F8949EBF0FBEA6
:103430008DBF0CC085EA93E09F938F93DF93CF936A
:103440000E943A040F900F900F900F9088E893E03D
:103450009F938F93CDECD4E0DF93CF930E943A04F7
:103460000E94650989E793E09F938F93DF93CF9341
:103470000E943A040E94CC0988E693E09F938F93C0
:10348000DF93CF930E943A040E94FE148EE493E0EF
:103490009F938F93DF93CF930E943A048DB79EB78B
:1034A00040960FB6F8949EBF0FBE8DBF0E947D154B
:1034B000FDCFCF93DF9343ED53E06FED73E087EDE6
:1034C00093E00E94620B89E393E09F938F93CDEC8E
:1034D000D4E0DF93CF930E943A048091D8038F9376
:1034E0008091D7038F9385E393E09F938F93DF932E
:1034F000CF930E943A048091E0038F938091DF0381
:103500008F9381E393E09F938F93DF93CF930E94F8
:103510003A048091D4038F938091D3038F938DE2EB
:1035200093E09F938F93DF93CF930E943A048AE2B4
:1035300093E09F938F93DF93CF930E943A048FEF92
:1035400090E722E0815090402040E1F700C0000069
:103550008DB79EB74A960FB6F8949EBF0FBE8DBF2B
:10356000DF91CF910895DB018F939F930E94E21A20
:10357000BF91AF91A29F800D911DA39F900DB29F0F
:10358000900D11240895052E97FB1EF400940E94BF
:10359000DA1A57FD07D00E94F51A07FC03D04EF443
:1035A0000C94DA1A50954095309521953F4F4F4F26
:1035B0005F4F089590958095709561957F4F8F4FDF
:1035C0009F4F08950E94171BA59F900DB49F900DCB
:1035D000A49F800D911D11240895B7FF0C94E21A49
:1035E0000E94E21A821B930B0895A1E21A2EAA1BD5
:1035F000BB1BFD010DC0AA1FBB1FEE1FFF1FA217A3
:10360000B307E407F50720F0A21BB30BE40BF50B9F
:10361000661F771F881F991F1A9469F76095709528
:10362000809590959B01AC01BD01CF010895A29FAB
:10363000B001B39FC001A39F700D811D1124911D86
:10364000B29F700D811D1124911D08955058BB2704
:10365000AA270ED075C166D130F06BD120F031F4BD
:103660009F3F11F41EF45BC10EF4E095E7FB51C1DE
:10367000E92F77D180F3BA1762077307840795079C
:1036800018F071F49EF58FC10EF4E0950B2EBA2F51
:10369000A02D0B01B90190010C01CA01A001112458
:1036A000FF27591B99F0593F50F4503E68F11A1604
:1036B000F040A22F232F342F4427585FF3CF469595
:1036C00037952795A795F0405395C9F77EF41F16B7
:1036D000BA0B620B730B840BBAF09150A1F0FF0F81
:1036E000BB1F661F771F881FC2F70EC0BA0F621F6D
:1036F000731F841F48F4879577956795B795F7955D
:103700009E3F08F0B3CF9395880F08F09927EE0FEE
:10371000979587950895D9D008F481E008950CD045
:103720000FC107D140F0FED030F021F45F3F19F017
:10373000F0C0511139C1F3C014D198F39923C9F3E2
:103740005523B1F3951B550BBB27AA2762177307A7
:10375000840738F09F5F5F4F220F331F441FAA1F5B
:10376000A9F333D00E2E3AF0E0E830D0915050401B
:10377000E695001CCAF729D0FE2F27D0660F771FC9
:10378000881FBB1F261737074807AB07B0E809F0AB
:10379000BB0B802DBF01FF2793585F4F2AF09E3F40
:1037A000510568F0B6C000C15F3FECF3983EDCF312
:1037B000869577956795B795F7959F5FC9F7880FB9
:1037C000911D9695879597F90895E1E0660F771F0B
:1037D000881FBB1F621773078407BA0720F0621B9C
:1037E000730B840BBA0BEE1F88F7E095089504D095
:1037F0006894B111D9C00895BCD088F09F5790F05B
:10380000B92F9927B751A0F0D1F0660F771F881F05
:10381000991F1AF0BA95C9F712C0B13081F0C3D020
:10382000B1E00895C0C0672F782F8827B85F39F0BE
:10383000B93FCCF3869577956795B395D9F73EF464
:1038400090958095709561957F4F8F4F9F4F08950C
:10385000E89409C097FB3EF490958095709561952A
:103860007F4F8F4F9F4F9923A9F0F92F96E9BB27E0
:103870009395F695879577956795B795F111F8CF5C
:10388000FAF4BB0F11F460FF1BC06F5F7F4F8F4FC7
:103890009F4F16C0882311F096E911C0772321F0BD
:1038A0009EE8872F762F05C0662371F096E8862F55
:1038B00070E060E02AF09A95660F771F881FDAF7AC
:1038C000880F9695879597F90895990F0008550FD9
:1038D000AA0BE0E8FEEF16161706E807F907C0F096
:1038E00012161306E407F50798F0621B730B840B9E
:1038F000950B39F40A2661F0232B242B252B21F478
:1039000008950A2609F4A140A6958FEF811D811D17
:10391000089597F99F6780E870E060E008959FEF51
:1039200080EC089500240A94161617061806090656
:10393000089500240A941216130614060506089525
:10394000092E0394000C11F4882352F0BB0F40F4AD
:10395000BF2B11F460FF04C06F5F7F4F8F4F9F4FED
:10396000089557FD9058440F551F59F05F3F71F06F
:103970004795880F97FB991F61F09F3F79F08795D6
:103980000895121613061406551FF2CF4695F1DF5F
:1039900008C0161617061806991FF1CF86957105EF
:1039A000610508940895E894BB2766277727CB0123
:1039B00097F908958ADF08F48FEF08950BD0C0CFF0
:1039C000B1DF28F0B6DF18F0952309F0A2CFA7CF1A
:1039D0001124EACFC6DFA0F3959FD1F3950F50E0F5
:1039E000551F629FF001729FBB27F00DB11D639FB1
:1039F000AA27F00DB11DAA1F649F6627B00DA11D57
:103A0000661F829F2227B00DA11D621F739FB00DFC
:103A1000A11D621F839FA00D611D221F749F33276C
:103A2000A00D611D231F849F600D211D822F762F05
:103A30006A2F11249F5750408AF0E1F088234AF002
:103A4000EE0FFF1FBB1F661F771F881F915050404E
:103A5000A9F79E3F510570F05CCFA6CF5F3FECF316
:103A6000983EDCF3869577956795B795F795E7953A
:103A70009F5FC1F7FE2B880F911D9695879597F94B
:103A800008959F935CD00F9007FCEE5F7FC011F408
:103A90000EF445CF3EC06DDFD0F39923D9F3CEF3BA
:103AA0009F57550B87FF43D00024A0E640EA9001C2
:103AB00080585695979528F4805C660F771F881F6D
:103AC00020F026173707480730F4621B730B840B6E
:103AD000202931294A2BA6951794079420253125B2
:103AE0004A2758F7660F771F881F20F026173707D9
:103AF000480730F4620B730B840B200D311D411D00
:103B0000A09581F7B901842F9158880F96958795D4
:103B100008959F3F31F0915020F4879577956795F0
:103B2000B795880F911D9695879597F908959150AF
:103B30005040660F771F881FD2F70895F0CE19DF27
:103B4000E8F3E894E0E0BB279F57F0F02AED3FE070
:103B500049EC06C0EE0FBB0F661F771F881F28F0C9
:103B6000B23A62077307840728F0B25A620B730BEC
:103B7000840BE3959A9572F7803830F49A95BB0FD1
:103B8000661F771F881FD2F79048C5CFEF93E0FFDD
:103B900006C0A2EA2AED3FE049EC5FEB69DDD0DE2A
:103BA0000F90039401FC9058E8E6F0E000C09F936A
:103BB0008F937F936F93FF93EF939B01AC01FEDE96
:103BC000EF91FF9105D02F913F914F915F91F6CEEC
:103BD000DF93CF931F930F93FF92EF92DF927B01BE
:103BE0008C01689405C0DA2EEF01F4DEFE01E89442
:103BF000A5912591359145915591AEF3EF0138DDB1
:103C0000FE019701A801DA9479F7DF90EF90FF9019
:103C10000F911F91CF91DF9108950F931F93CF9331
:103C2000DF93EC018B01009731F46115710519F4F4
:103C300080E090E038C06EE070E081E090E00E94AB
:103C40004F20FC010097A1F380E883830115110543
:103C500071F01387028781E883838091E303909159
:103C6000E403892B21F4F093E403E093E30320972A
:103C7000C9F0D187C0878381826083838091E50307
:103C80009091E603892B71F4F093E603E093E5034A
:103C90008091E7039091E803892B21F4F093E803E6
:103CA000E093E703CF01DF91CF911F910F9108952A
:103CB000CF93DF93EC018B8188608B83CE010E94D0
:103CC000671E2B81277F2B83DF91CF910895ACE076
:103CD000B0E0EDE6FEE10C943F227C016B018A012D
:103CE000FC0117821682838181FFBDC1CE0101963E
:103CF0004C01F7019381F60193FD859193FF81912A
:103D00006F01882309F4ABC1853239F493FD8591A5
:103D100093FF81916F01853229F4B70190E00E94F1
:103D2000AF21E7CF512C312C20E02032A0F48B3290
:103D300069F030F4803259F0833269F420612CC08C
:103D40008D3239F0803339F4216026C0226024603E
:103D500023C0286021C027FD27C030ED380F3A303E
:103D600078F426FF06C0FAE05F9E300D1124532E32
:103D700013C08AE0389E300D1124332E20620CC00F
:103D80008E3221F426FD6BC1206406C08C3611F4FE
:103D9000206802C0883641F4F60193FD859193FFB7
:103DA00081916F018111C1CF982F9F7D95549330E0
:103DB00028F40C5F1F4FFFE3F9830DC0833631F009
:103DC000833771F0833509F05BC022C0F801808130
:103DD00089830E5F1F4F44244394512C540115C016
:103DE0003801F2E06F0E711CF801A080B18026FF4F
:103DF00003C0652D70E002C06FEF7FEFC5012C8717
:103E00000E94A4212C0183012C852F77222E17C01C
:103E10003801F2E06F0E711CF801A080B18026FF1E
:103E200003C0652D70E002C06FEF7FEFC5012C87E6
:103E30000E9492212C012C852068222E830123FCD4
:103E40001BC0832D90E048165906B0F4B70180E2FC
:103E500090E00E94AF213A94F4CFF50127FC8591C0
:103E600027FE81915F01B70190E00E94AF213110E0
:103E70003A94F1E04F1A51084114510471F7E5C02A
:103E8000843611F0893639F5F80127FF07C06081C3
:103E90007181828193810C5F1F4F08C060817181A5
:103EA000882777FD8095982F0E5F1F4F2F76B22EB3
:103EB00097FF09C090958095709561957F4F8F4FC2
:103EC0009F4F2068B22E2AE030E0A4010E94E12139
:103ED000A82EA81844C0853729F42F7EB22E2AE0D8
:103EE00030E025C0F22FF97FBF2E8F36C1F018F4D5
:103EF000883579F0B4C0803719F0883721F0AFC029
:103F00002F2F2061B22EB4FE0DC08B2D8460B82EF1
:103F100009C024FF0AC09F2F9660B92E06C028E072
:103F200030E005C020E130E002C020E132E0F801DD
:103F3000B7FE07C060817181828193810C5F1F4F42
:103F400006C06081718180E090E00E5F1F4FA40188
:103F50000E94E121A82EA818FB2DFF77BF2EB6FEE8
:103F60000BC02B2D2E7FA51450F4B4FE0AC0B2FC5A
:103F700008C02B2D2E7E05C07A2C2B2D03C07A2C49
:103F800001C0752C24FF0DC0FE01EA0DF11D8081DA
:103F9000803311F4297E09C022FF06C07394739404
:103FA00004C0822F867809F0739423FD13C020FF8C
:103FB00006C05A2C731418F4530C5718732C73142E
:103FC00068F4B70180E290E02C870E94AF217394DF
:103FD0002C85F5CF731410F4371801C0312C24FF51
:103FE00012C0B70180E390E02C870E94AF212C859E
:103FF00022FF17C021FF03C088E590E002C088E7D8
:1040000090E0B7010CC0822F867859F021FD02C0E4
:1040100080E201C08BE227FD8DE2B70190E00E94B3
:10402000AF21A51438F4B70180E390E00E94AF21DE
:104030005A94F7CFAA94F401EA0DF11D8081B701DB
:1040400090E00E94AF21A110F5CF332009F451CEAA
:10405000B70180E290E00E94AF213A94F6CFF701D9
:104060008681978102C08FEF9FEF2C96E2E10C943E
:104070005B22F999FECF92BD81BDF89A992780B550
:104080000895262FF999FECF1FBA92BD81BD20BD9C
:104090000FB6F894FA9AF99A0FBE019608950F9305
:1040A0001F93CF93DF93869F8001879F100D969F6C
:1040B000100D1124C8010E946B20EC01009729F01B
:1040C000A80160E070E00E949D21CE01DF91CF91B8
:1040D0001F910F910895CF93DF938230910510F4D3
:1040E00082E090E0E091EB03F091EC0320E030E01F
:1040F000A0E0B0E0309739F140815181481759076D
:10410000B8F04817590771F482819381109729F00C
:1041100013969C938E9312972CC09093EC038093EC
:10412000EB0327C02115310531F04217530718F072
:10413000A901DB0101C0EF019A01BD01DF0102808D
:10414000F381E02DD7CF21153105F9F0281B390B6C
:104150002430310580F48A819B816115710521F03D
:10416000FB019383828304C09093EC038093EB0361
:10417000FE01329644C0FE01E20FF31F819391933A
:1041800022503109398328833AC02091E9033091C4
:10419000EA03232B41F42091020130910301309373
:1041A000EA032093E90320910001309101012115D8
:1041B000310541F42DB73EB74091040150910501FE
:1041C000241B350BE091E903F091EA03E217F307B2
:1041D000A0F42E1B3F0B2817390778F0AC014E5F77
:1041E0005F4F2417350748F04E0F5F1F5093EA03C7
:1041F0004093E9038193919302C0E0E0F0E0CF01A6
:10420000DF91CF910895CF93DF93009709F487C092
:10421000FC01329713821282C091EB03D091EC0320
:10422000209781F420813181280F391F8091E90383
:104230009091EA038217930779F5F093EA03E093EC
:10424000E9036DC0DE0120E030E0AE17BF0750F497
:1042500012964D915C9113979D014115510509F1FD
:10426000DA01F3CFB383A28340815181840F951F7C
:104270008A179B0771F48D919C911197840F951F5C
:1042800002969183808312968D919C9113979383CC
:1042900082832115310529F4F093EC03E093EB03BD
:1042A0003EC0D9011396FC93EE9312974D915D9108
:1042B000A40FB51FEA17FB0779F480819181840F61
:1042C000951F0296D90111969C938E9382819381BA
:1042D00013969C938E931297E0E0F0E08A819B8185
:1042E000009719F0FE01EC01F9CFCE01029628816A
:1042F0003981820F931F2091E9033091EA03281737
:10430000390769F4309729F41092EC031092EB030B
:1043100002C013821282D093EA03C093E903DF91B3
:10432000CF910895FC010590615070400110D8F7BD
:10433000809590958E0F9F1F0895DC0101C06D93AD
:1043400041505040E0F70895FC01615070400190E9
:104350000110D8F7809590958E0F9F1F08950F93A9
:104360001F93CF93DF93182F092FEB018B8181FDD2
:1043700003C08FEF9FEF20C082FF10C04E815F818E
:104380002C813D81421753077CF4E881F9819F011C
:104390002F5F3F4F39832883108306C0E885F98556
:1043A000812F0995892B29F72E813F812F5F3F4F60
:1043B0003F832E83812F902FDF91CF911F910F91FB
:1043C0000895FA01AA27283051F1203181F1E894AB
:1043D0006F936E7F6E5F7F4F8F4F9F4FAF4FB1E0F8
:1043E0003ED0B4E03CD0670F781F891F9A1FA11DF3
:1043F000680F791F8A1F911DA11D6A0F711D811DF4
:10440000911DA11D20D009F468943F912AE0269FB8
:1044100011243019305D3193DEF6CF010895462F17
:104420004770405D4193B3E00FD0C9F7F6CF462FF8
:104430004F70405D4A3318F0495D31FD4052419361
:1044400002D0A9F7EACFB4E0A6959795879577951E
:104450006795BA95C9F700976105710508959B01A5
:10446000AC010A2E06945795479537952795BA952E
:10447000C9F7620F731F841F951FA01D08952F9207
:104480003F924F925F926F927F928F929F92AF92E4
:10449000BF92CF92DF92EF92FF920F931F93CF9331
:1044A000DF93CDB7DEB7CA1BDB0B0FB6F894DEBFC8
:1044B0000FBECDBF09942A88398848885F846E84EE
:1044C0007D848C849B84AA84B984C884DF80EE8038
:1044D000FD800C811B81AA81B981CE0FD11D0FB641
:1044E000F894DEBF0FBECDBFED010895F894FFCF65
:1044F0000000ED032000202020202020202020206C
:104500002000010001010002010000010001010082
:10451000020100190068E80301000102030405001C
:00000001FF
