:100000000C9425030C9442030C9442030C94420379
:100010000C9442030C9442030C9442030C9442034C
:100020000C9442030C9442030C9442030C9442033C
:100030000C9442030C94A5050C9477030C94420392
:100040000C9442030C9442030C9469040C944203F4
:100050000C9442030C9442030C9442030C9442030C
:100060000C948E120C944203084AD73B3BCE016E8F
:1000700084BCBFFDC12F3D6C74319ABD56833DDAFF
:100080003D00C77F11BED9E4BB4C3E916BAAAABE0E
:10009000000000803F05A84CCDB2D44EB93836A937
:1000A000020C50B9918688083CA6AAAA2ABE000074
:1000B00000803F0048454C4C4F20574F524C440D58
:1000C0000A0030313233343536373839414243440F
:1000D00045460064656275673A2000636F6E666925
:1000E000672E6779726F5F6F66667365745B782CD5
:1000F000792C7A5D3A20256C6409256C6409256C9D
:10010000640D0A007570646174696E6720677972A6
:100110006F2063616C6962726174696F6E206F66D3
:1001200066736574732E2E2E0D0A006779726F2028
:1001300063616C6962726174696F6E206661696C7B
:1001400065642C207265747279696E672E2E2E0D8F
:100150000A00693D256420636F756E7465723D25E4
:100160006420646966663D2564206779726F5B6907
:100170005D3D25642C20707265765F6779726F5BD8
:10018000695D3D25640D0A006779726F3A2000733E
:1001900065745F736C6565705F656E61626C6564E4
:1001A0003A206661696C65640D0A007365745F735B
:1001B0006C6565705F656E61626C65643A2073752D
:1001C00063636573730D0A007365745F66756C6CA9
:1001D0005F7363616C655F616363656C5F72616EC1
:1001E00067653A206661696C65640D0A0073657421
:1001F0005F66756C6C5F7363616C655F616363659B
:100200006C5F72616E67653A2073756363657373C3
:100210000D0A007365745F66756C6C5F7363616C67
:10022000655F6779726F5F72616E67653A206661BC
:10023000696C65640D0A007365745F66756C6C5F4C
:100240007363616C655F6779726F5F72616E67651A
:100250003A20737563636573730D0A007365745F89
:10026000636C6F636B5F736F757263653A20666171
:10027000696C65640D0A007365745F636C6F636B12
:100280005F736F757263653A20737563636573732B
:100290000D0A00290D0A006D7075363035305F7417
:1002A0006573743A20283078006D707536303530BB
:1002B0003A20000D0A0025660025663A0025663AB8
:1002C0000025663A0025663A0025663A0025643A1C
:1002D0000025643A0025643A0025663A0025663A0E
:1002E0000025663A0025663A0025663A0025663AFA
:1002F00000726F6C6C2F70697463682F796177205E
:1003000025663A25663A25660D0A00726F6C6C2FD9
:1003100070697463683A2025663A25660D0A0047BD
:10032000494D5F4552524F520D0A0047494D5F4CAF
:100330004F434B45440D0A0047494D5F554E4C4FC6
:10034000434B45440D0A0047494D5F49444C450D18
:100350000A00726F6C6C2F70697463683A202564B0
:100360003A25640D0A00656E7465725F737461747A
:10037000653A2047494D5F49444C450D0A00656E7A
:100380007465725F7461736B3A2052454144414316
:10039000430D0A0067696D62616C3A20000D0A0026
:1003A000256409002564090025640900616363650B
:1003B0006C65726174696F6E20782F792F7A3A09B3
:1003C000007374617274696E672067696D62616C35
:1003D000206C6F6F702E2E2E0D0A0067696D6261A2
:1003E0006C5F696E69742E2E2E0D0A00696E697439
:1003F0005F706964732E2E2E0D0A00696E69745F3A
:1004000073656E736F725F6F7269656E7461746924
:100410006F6E2E2E2E0D0A00696D75207465737433
:10042000206661696C6564210D0A00636F6E666900
:10043000672E6779726F5F6F66667365745B782C81
:10044000792C7A5D3A2025642025642025640D0AE4
:100450000072756E6E696E67206779726F206F66C5
:10046000667365742063616C6962726174696F6E32
:100470002E2E2E0D0A00696D752074657374207020
:100480006173732E0D0A0072756E6E696E67206956
:100490006D7520746573742E2E2E0D0A00696D75AE
:1004A0005F696E69742E2E2E0D0A00696E6974697B
:1004B000616C697A696E67207265736F6C757469B7
:1004C0006F6E20646976696465722E2E2E0D0A00A7
:1004D0006A6F696E696E6720693263206275732E78
:1004E0002E2E0D0A00626C635F696E69742E2E2ECB
:1004F0000D0A0070776D5F696E69742E2E2E0D0ADD
:1005000000636F6E6669675F696E69742E2E2E0DCB
:100510000A000D0A0D0A62727573686C65737320A8
:1005200067696D62616C207374617274696E672EA5
:100530002E2E0D0A00696E7075743D25630D0A003C
:100540006D61696E3A20006E616E00696E66000032
:10055000407A10F35A00A0724E18090010A5D4E892
:100560000000E87648170000E40B54020000CA9A25
:100570003B000000E1F50500008096980000004077
:10058000420F000000A086010000001027000000BC
:1005900000E803000000006400000000000A000002
:1005A0000000000100000000002C76D888DC674FB6
:1005B0000823DFC1DFAE59E1B1B796E5E3E453C6E6
:1005C0003AE651997696E8E6C28426EB898C9B62DE
:1005D000ED407C6FFCEFBC9C9F40F2BAA56FA5F488
:1005E00090055A2AF75C936B6CF9676DC11BFCE0B0
:1005F000E40D47FEF520E6B500D0ED902E03009403
:100600003577050080841E080000204E0A00000097
:10061000C80C333333330F986E12831141EF8D21A1
:1006200014893BE65516CFFEE6DB18D1844B381B08
:10063000F77C1D901DA4BBE424203284725E2281CD
:1006400000C9F124ECA1E53D270011241FBECFEF26
:10065000D8E0DEBFCDBF11E0A0E0B1E0EEE4F0E70E
:1006600002C005900D92A834B107D9F724E0A8E4A0
:10067000B1E001C01D92A536B207E1F70E94142C2B
:100680000C9425380C94000084B5826084BD8DE7FD
:1006900087BD85B5836085BD82E080936E00089537
:1006A00060916E0270916F02809170029091710260
:1006B00008950F931F9300916E0210916F02209185
:1006C000700230917102600F711F821F931F0091A1
:1006D0006E0210916F0220917002309171026017CA
:1006E00071078207930798F71F910F9108951F9242
:1006F0000F920FB60F9211248F939F93AF93BF93D6
:1007000080916E0290916F02A0917002B09171027F
:100710000196A11DB11D80936E0290936F02A0936C
:100720007002B0937102BF91AF919F918F910F9022
:100730000FBE0F901F90189580916E0290916F02DE
:10074000A0917002B09171020196A11DB11D80931C
:100750006E0290936F02A0937002B093710208959D
:1007600080E29EE4A0E0B0E080937602909377026E
:10077000A0937802B093790240E157E260E070E024
:1007800040937A0250937B0260937C0270937D02C7
:1007900040E45CE960E070E040937E0250937F02A9
:1007A000609380027093810280938202909383020F
:1007B000A0938402B093850280E49FE1A0E0B0E0C2
:1007C0008093860290938702A0938802B093890257
:1007D00080E395E7A0E0B0E080938A0290938B02DB
:1007E000A0938C02B0938D0287E090E090938F02EB
:1007F00080938E02109291021092900210929302B6
:100800001092920221E0209394028FEF8093950240
:10081000109296022093970230E53093980230931D
:10082000990280E293E090939B0280939A0288E57C
:1008300092E090939D0280939C0210929E022093DE
:100840009F022093A0022093A1021092A202109274
:10085000A3021092A4023093A5023093A602209323
:10086000A7020895CF93C091B4026EE386E792E0A9
:100870000E94C507C81739F06EE386E792E00E9430
:10088000C5078093B402CF9108956EE386E792E0A6
:100890000E94C5078093B40208951092C50023E317
:1008A0002093C400E1ECF0E02081206820832081C7
:1008B00028612083E2ECF0E0208126602083909381
:1008C000B8028093B70260E070E081EB94E00C9492
:1008D000DB351F920F920FB60F9211242F933F9387
:1008E0004F935F936F937F938F939F93AF93BF9338
:1008F000EF93FF938091C600E091B702F091B802A8
:10090000309709F00995FF91EF91BF91AF919F91B9
:100910008F917F916F915F914F913F912F910F90A8
:100920000FBE0F901F9018959093B8028093B70256
:1009300008959093B6028093B5020895FC018191C9
:10094000882339F09091C00095FFFCCF8093C600BA
:10095000F6CF08959091C00095FFFCCF8093C6001C
:100960000895CF93C82F0E94AA04E091B502F09198
:10097000B602309711F08C2F099580E090E0CF916E
:100980000895E82FE295EF70F0E0EE53FF4FE49109
:100990009091C00095FFFCCFE093C6008F70E82FC8
:1009A000F0E0EE53FF4FE4918091C00085FFFCCF53
:1009B000E093C6000895EF92FF920F931F93CF9399
:1009C000DF938C017B01EC01CE01801B910B8E1516
:1009D0009F0524F489910E94C104F6CFDF91CF9145
:1009E0001F910F91FF90EF900895CF93DF93CDB7B4
:1009F000DEB7AE01475F5F4F6F81788580915D0400
:100A000090915E040E945836DF91CF91089584EB57
:100A100090E09F938F9383ED90E09F938F930E943C
:100A2000F5040F900F900F900F9093E48091C00009
:100A300085FD03C09093C600F9CF2FEF84E39CE0BF
:100A4000215080409040E1F700C0000080E5809395
:100A5000C6002FEF84E39CE0215080409040E1F7F6
:100A600000C0000088E48093C6002FEF84E39CE080
:100A7000215080409040E1F700C00000089580932D
:100A80004A010895539A559A569A219A229A239A7E
:100A900091EA94BD81E085BD9093800080938100B0
:100AA0009093B0008093B100EFE6F0E08081816028
:100AB0008083EEE6F0E0808181708083789480917D
:100AC0000B0187BD80910A0188BD8091060190E0ED
:100AD00090938900809388008091070190E0909323
:100AE0008B0080938A00809108018093B3008091ED
:100AF00009018093B4000895611103C080930B0134
:100B00000895613019F480930A010895623019F450
:100B1000809309010895633019F4809308010895C2
:100B2000643019F4809307010895653011F48093BF
:100B30000601089580914801909149018F7199278C
:100B4000892B11F40C949C0308951F920F920FB6F9
:100B50000F9211242F933F934F935F936F937F9343
:100B60008F939F93AF93BF93EF93FF93809148012F
:100B70009091490101969093490180934801809199
:100B80004801909149018038924019F5109249012D
:100B90001092480180910B0187BD80910A0188BDA8
:100BA0008091060190E09093890080938800809165
:100BB000070190E090938B0080938A008091080158
:100BC0008093B300809109018093B40081E0809309
:100BD0006B020E949A05FF91EF91BF91AF919F9197
:100BE0008F917F916F915F914F913F912F910F90D6
:100BF0000FBE0F901F90189580914A01882321F015
:100C000080914A0110924A01089588E08AB98EE0E5
:100C100084B9809110018093BD028093B9028093C2
:100C2000BE028093BA028093BF028093BB0280937E
:100C3000C0028093BC0281E085BB80936E0085BDBD
:100C4000089508950895681779072CF448175907EF
:100C50001CF4CA010895CB010895681779072CF494
:100C6000481759071CF4CA010895CB010895EF9263
:100C7000FF920F931F93261737074807590744F42D
:100C8000E616F706080719072CF4C801B70102C0D9
:100C9000CA01B9011F910F91FF90EF9008954F92F3
:100CA0005F926F927F928F929F92AF92BF92CF92FC
:100CB000DF92EF92FF926B017C014B015C01E894A3
:100CC000B7F82BED3FE049E45FE30E940E332B01C0
:100CD0003C0120E030E040E85FE3C501B4010E9440
:100CE000C8309B01AC01C701B6010E940E336B01F5
:100CF0007C012BE438EC47E85DE3C501B4010E94B8
:100D00000E3323EA32E94AE75EE30E94C9309B01D1
:100D1000AC01C701B6010E940E339B01AC01C301B7
:100D2000B2010E94C830FF90EF90DF90CF90BF904B
:100D3000AF909F908F907F906F905F904F900895AD
:100D40008F929F92AF92BF92CF92DF92EF92FF92DB
:100D5000CF93DF934B015C0169017A019F775F7745
:100D6000D1E00E94033318160CF0D0E020E030E010
:100D7000A901C501B4010E94033387FD0AC0C1E087
:100D800020E030E0A901C701B6010E948F3118169A
:100D90000CF4C0E020E030E0A901C501B4010E94DC
:100DA0008F31181694F020E030E0A901C701B60198
:100DB0000E948F311816ECF520E030E0A901C70140
:100DC000B6010E94033387FFC3E0DD2329F0A501AC
:100DD0009401C701B60104C0A7019601C501B40181
:100DE0000E9493310E944F06DD2381F09B01AC01EC
:100DF000C23039F0C33029F06BED7FE089EC9FE31E
:100E000015C06BED7FE089EC9FEB10C0C13039F06D
:100E1000C23089F42BED3FE049E450E407C02BEDEC
:100E20003FE049E450E40E94C93005C00E94C83048
:100E300002C0C2E0C1CFDF91CF91FF90EF90DF9071
:100E4000CF90BF90AF909F908F9008950E94A00682
:100E500027EC3FEC4FE557E40E940E330E9400322E
:100E600008958F929F92AF92BF92CF92DF92EF92AE
:100E7000FF920F931F93CF93DF93EC01CB01BA0145
:100E800048015901C880D980EA80FB80A7019601FA
:100E90000E94C830A50194010E940E339B01AC0151
:100EA000C701B6010E94C930688379838A839B8316
:100EB000DF91CF911F910F91FF90EF90DF90CF9036
:100EC000BF90AF909F908F9008958F929F92AF9216
:100ED000BF92CF92DF92EF92FF920F931F93CF9327
:100EE000DF93EC01CB01BA01680179018884998410
:100EF000AA84BB84A50194010E94C830A701960171
:100F00000E940E339B01AC01C501B4010E94C9309F
:100F1000688779878A879B878C809D80AE80BF8019
:100F2000A50194010E94C830A70196010E940E33CA
:100F30009B01AC01C501B4010E94C9306C837D8363
:100F40008E839F8388809980AA80BB80A5019401AD
:100F50000E94C830A70196010E940E339B01AC018C
:100F6000C501B4010E94C930688379838A839B8359
:100F7000DF91CF911F910F91FF90EF90DF90CF9075
:100F8000BF90AF909F908F900895282FFC0180E034
:100F90009E2F921B961738F49191892798E0880F1D
:100FA0009150E9F7F5CF08954F925F926F927F923B
:100FB0008F929F92AF92BF92CF92DF92EF92FF9269
:100FC0000F931F93CF93DF9300D000D0CDB7DEB740
:100FD0002B013C0129833A834B835C83F401AE18D7
:100FE000BF08C00AD10AAD8DBE8DA60195010E9431
:100FF00069349B01AC01C301B2010E941B3461360C
:1010000029E772072EEF82072FEF920764F0603A0C
:1010100036E8730731E08307910554F080EA96E8DB
:10102000A1E0B0E007C080E699E7AEEFBFEF02C0F5
:10103000DC01CB01E080F18002811381E80EF91E12
:101040000A1F1B1FE082F18202831383298D3A8DD0
:101050004B8D5C8DC601B5010E941B342B013C01F8
:101060004E0C5F1C601E711EEF89F88D808191818E
:10107000A281B381A6019501281B390B4A0B5B0B9A
:10108000CA01B9012F8D38A149A15AA10E941B3470
:101090009B01AC0169817A818B819C810E941B3408
:1010A000460E571E681E791EA082B182C282D3826C
:1010B000C301B20120E030E840E050E00E943F343C
:1010C000CA01B9010F900F900F900F90DF91CF914F
:1010D0001F910F91FF90EF90DF90CF90BF90AF9056
:1010E0009F908F907F906F905F904F900895FC013C
:1010F0002081FB013081FC013083FB0120830895B6
:10110000FC0120813181FB0140815181FC0151832F
:101110004083FB0131832083089580E090E0A3E0C9
:10112000B3E48093720290937302A0937402B0931D
:10113000750208952F923F925F926F927F928F92E5
:101140009F92AF92BF92CF92DF92EF92FF920F9356
:101150001F93CF93DF93CDB7DEB768970FB6F894A0
:10116000DEBF0FBECDBF0E94A40C60ED77E080E033
:1011700090E00E9459037E0143E1E40EF11C00EA75
:101180001FE0512C88E8282E81E0382E003A8FE0AD
:10119000180781F0AE014F5E5F4FBE01615F7F4F68
:1011A000CE010D960E941B0CFE013D96D70180E0FA
:1011B00090E02DC06CEB72E080E090E00E9459035B
:1011C000AE014F5E5F4FBE01615F7F4FCE010D9656
:1011D0000E941B0C19821A821B821C828D859E859F
:1011E0009C8B8B8B1D821E821F8218868F8598890F
:1011F0009E8B8D8B19861A861B861C8689899A89F7
:10120000988F8F8BC7CF01968330910561F1B82EEF
:10121000A92E6D917D91819091909B01281939099A
:10122000690137FF04C0CC24DD24C21AD30A41E48B
:10123000C416D10444F353947F936F939F928F927B
:101240003F932F931F930F93AF92BF92A2E5B1E00C
:10125000BF93AF933F922F920E94F5040FB6F8947C
:10126000DEBF0FBECDBFDE0111965D013701FE016D
:101270003D966F01D6018D909D906D01B401882738
:1012800077FD8095982F0E942E3220E030E04AE7CB
:1012900055E40E9493319B01AC01F501608171819D
:1012A000828193810E94C930D5016D937D938D9386
:1012B0009D935D01F301819291923F01CE14DF0471
:1012C000C9F60150110915147CF48BE291E09F934B
:1012D0008F9388E891E09F938F930E94F5040F907D
:1012E0000F900F900F904BCF0115110509F04ECFC5
:1012F00069817A818B819C810E94FB317093A90264
:101300006093A8026D817E818F8198850E94FB3158
:101310007093AB026093AA0269857A858B859C8560
:101320000E94FB317093AD026093AC0284E091E0C7
:101330009F938F9308E811E01F930F930E94F50489
:101340008091AD028F938091AC028F938091AB021C
:101350008F938091AA028F938091A9028F9380919D
:10136000A8028F938BED90E09F938F931F930F9321
:101370000E94F5040E94EF0B0FB6F894DEBF0FBE7B
:10138000CDBF68960FB6F894DEBF0FBECDBFDF911C
:10139000CF911F910F91FF90EF90DF90CF90BF9072
:1013A000AF909F908F907F906F905F903F902F9025
:1013B0000895CF93DF9300D000D000D0CDB7DEB733
:1013C00064EF71E080E090E00E945903AE014B5F52
:1013D0005F4FBE016D5F7F4FCE0101960E941D0CD5
:1013E00062E070E080E090E0EFCF1092110191E0B8
:1013F0009093140182E08093170190931A01109248
:101400001D018093200181E090E09093130180936F
:1014100012012FEF3FEF30931601209315019093A7
:1014200019018093180190931C0180931B019093E4
:101430001F0180931E019093220180932101089542
:101440000E94F5098091A102882361F18091210118
:101450009091220191958195910990932201809319
:10146000210180911B0190911C0191958195910919
:1014700090931C0180931B0180911501909116019E
:101480009195819591099093160180931501809112
:1014900018019091190191958195910990931901E5
:1014A000809318018091A202882381F1809111011B
:1014B0009091140190931101809314018091120175
:1014C0009091130120911501309116013093130171
:1014D00020931201909316018093150180911A01B7
:1014E00090911D0190931A0180931D0180911B0121
:1014F00090911C0120911E0130911F0130931C011D
:1015000020931B0190931F0180931E0108954F9219
:101510005F926F927F928F929F92AF92BF92CF9283
:10152000DF92EF92FF92609182027091830280912C
:101530008402909185022AE0422E512C612C712C5C
:10154000A30192010E943F3420934303309344034C
:101550004093450350934603609186027091870241
:10156000809188029091890238EE832E33E0932E89
:10157000A12CB12CA50194010E943F342093470374
:10158000309348034093490350934A0360918A0281
:1015900070918B0280918C0290918D0244ECC42E4C
:1015A00049E0D42EE12CF12CA70196010E943F3492
:1015B00020934B0330934C0340934D0350934E03C1
:1015C0006091760270917702809178029091790211
:1015D000A30192010E943F342093290330932A03F0
:1015E00040932B0350932C0360917A0270917B02FD
:1015F00080917C0290917D02A50194010E943F346C
:1016000020932D0330932E0340932F0350933003E8
:1016100060917E0270917F028091800290918102A0
:10162000A70196010E943F34209331033093320387
:101630004093330350933403FF90EF90DF90CF90AB
:10164000BF90AF909F908F907F906F905F904F90E2
:101650000895EF92FF920F931F93CF93DF93CDB72F
:10166000DEB72C970FB6F894DEBF0FBECDBF8E014C
:10167000095F1F4FAE01455F5F4FBE01675F7F4F40
:10168000C8010E941D0C80911A01FE013196E80FDD
:10169000F11DE80FF11D8F8198852091AE023091E8
:1016A000AF02821B930B9183808380911D01FE0109
:1016B0003196E80FF11DE80FF11D89859A8520917B
:1016C000B0023091B102821B930B91838083809191
:1016D0002001FE013196E80FF11DE80FF11D8B8509
:1016E0009C852091B2023091B302821B930B9183AF
:1016F0008083CE0101967C01ABE1B1E088E691E008
:10170000F701619171917F014D915C911197649FF7
:101710009001659F300D749F300D1124FC012193C1
:101720003193CF011396E016F10651F72C960FB6C0
:10173000F894DEBF0FBECDBFDF91CF911F910F9107
:10174000FF90EF900895CF92DF92EF92FF920F9368
:101750001F93CF93DF93C8E6D1E00CE511E0C12CD5
:10176000D12C760169917991882777FD8095982F02
:101770000E942E32F80161937193819391938F01AE
:101780009B01AC010E940E339B01AC01C701B60165
:101790000E94C9306B017C01F1E0CE36DF0711F702
:1017A00020E030E048EC52E40E940E3320E030E0CC
:1017B00040E851E30E940E33AB01BC010DEC1CEC80
:1017C0002CEC3CE388E591E00E943107DF91CF915A
:1017D0001F910F91FF90EF90DF90CF9008950C94A0
:1017E000360F0C94710FEF92FF920F931F930E948C
:1017F000A30F1F910F91FF90EF9008958F929F92EA
:10180000AF92BF92CF92DF92EF92FF920F931F930E
:10181000CF93DF93CDB7DEB70E941D10DF91CF913C
:101820001F910F91FF90EF90DF90CF90BF90AF90FE
:101830009F908F9008950C9497100C94E8100C943E
:101840003911CF93DF9300D000D000D0CDB7DEB7F1
:10185000AE014B5F5F4FBE016D5F7F4FCE010196C2
:101860000E94971089819A812091A8023091A90243
:10187000821B930B9A8389838B819C812091AA027E
:101880003091AB02821B930B9C838B838D819E8155
:101890002091AC023091AD02821B930B9E838D830D
:1018A00080911101FE013196E80FF11DE80FF11D45
:1018B000408151812091120130911301429FC0015A
:1018C000439F900D529F900D112490936F01809330
:1018D0006E0180911401FE013196E80FF11DE80FB1
:1018E000F11D408151812091150130911601429FD7
:1018F000C001439F900D529F900D11249093710150
:101900008093700180911701FE013196E80FF11D5F
:10191000E80FF11D4081518120911801309119018A
:10192000429FC001439F900D529F900D11249093B0
:1019300073018093720126960FB6F894DEBF0FBE36
:10194000CDBFDF91CF91089586E00C948C102F923B
:101950003F924F925F926F927F928F929F92AF923F
:10196000BF92CF92DF92EF92FF920F931F93CF938C
:10197000DF9300D000D0CDB7DEB78C011B01FC0196
:1019800080809180A280B380C480D580E680F7807B
:101990004084518462847384FB01208131814281BF
:1019A0005381C501B4010E940E3369837A838B830E
:1019B0009C83F1012481358146815781C701B6019D
:1019C0000E940E339B01AC0169817A818B819C81DD
:1019D0000E94C9309B01AC01C301B2010E94C83012
:1019E000F8016087718782879387F10120813181B7
:1019F00042815381C301B2010E940E3369837A830D
:101A00008B839C83F1012085318542855385C701F5
:101A1000B6010E940E339B01AC0169817A818B81F2
:101A20009C810E94C8309B01AC01C501B4010E9499
:101A3000C930F8016083718382839383F10124812B
:101A4000358146815781C301B2010E940E332B01BB
:101A50003C01F1012085318542855385C501B401E2
:101A60000E940E339B01AC01C301B2010E94C93038
:101A70009B01AC01C701B6010E94C930F801648323
:101A80007583868397830F900F900F900F90DF914F
:101A9000CF911F910F91FF90EF90DF90CF90BF906B
:101AA000AF909F908F907F906F905F904F903F90FE
:101AB0002F9008958F929F92AF92BF92CF92DF9214
:101AC000EF92FF920F931F93CF93DF93CDB7DEB7C3
:101AD0002C970FB6F894DEBF0FBECDBFC090740137
:101AE000D0907501E0907601F09077018EE6A82EF7
:101AF00081E0B82E8E010F5F1F4F4801F501619103
:101B000071915F01882777FD8095982F0E942E3272
:101B1000A70196010E940E33F8016193719381939E
:101B200091938F01F4E7AF16F1E0BF0639F7B401E6
:101B300081EC92E00E94A70C2C960FB6F894DEBFC1
:101B40000FBECDBFDF91CF911F910F91FF90EF900E
:101B5000DF90CF90BF90AF909F908F9008952F927D
:101B60003F924F925F926F927F928F929F92AF922D
:101B7000BF92CF92DF92EF92FF920F931F93CF937A
:101B8000DF9300D000D0CDB7DEB7C0905801D09021
:101B90005901E0905A01F0905B0120E030E040E113
:101BA00052E4C701B6010E940333181654F420E032
:101BB00030E044E453E4C701B6010E948F3187FD51
:101BC00005C080915701882309F443C0C090530198
:101BD000D0905401E0905501F0905601A701960174
:101BE00060E070E080E89FE30E94C8302B013C0178
:101BF0000CE511E091EC292E92E0392EF80181904C
:101C00009190A190B1908F01F101208131814281A9
:101C10005381C301B2010E940E3369837A838B839F
:101C20009C83A7019601C501B4010E940E339B015C
:101C3000AC0169817A818B819C810E94C930F1015C
:101C400061937193819391931F01F1E008361F070F
:101C5000A9F60F900F900F900F90DF91CF911F91E9
:101C60000F91FF90EF90DF90CF90BF90AF909F903B
:101C70008F907F906F905F904F903F902F9008953E
:101C80004F925F926F927F928F929F92AF92BF928C
:101C9000CF92DF92EF92FF920F931F93CF93DF9338
:101CA0008090920290909302AA2497FCA094BA2C60
:101CB000C9ECD2E0688179818A819B8105EC12E0D0
:101CC000F801C080D180E280F3809B01AC010E94CA
:101CD0000E332B013C01A7019601C701B6010E94FA
:101CE0000E339B01AC01C301B2010E94C9300E94B6
:101CF0007B339B01AC016091C1027091C202809163
:101D0000C3029091C4020E942607680D791D8A1DA6
:101D10009B1D60934B0170934C0180934D019093F8
:101D20004E01C0909002D0909102EE24D7FCE09436
:101D3000FE2C288139814A815B81F80160817181A3
:101D4000828193810E9426076C0D7D1D8E1D9F1D33
:101D500060934F0170935001809351019093520111
:101D6000DF91CF911F910F91FF90EF90DF90CF9077
:101D7000BF90AF909F908F907F906F905F904F90AB
:101D800008950F93082F23E042E06BE68091250130
:101D90000E944515882319F087E792E002C08CE580
:101DA00092E09F938F9389EA92E09F938F930E9492
:101DB000F5040F900F900F900F900F9108950F93CF
:101DC000082F22E044E06BE1809125010E94451537
:101DD000882319F087E392E002C083E192E09F93A9
:101DE0008F9389EA92E09F938F930E94F5040F905E
:101DF0000F900F900F900F9108950F93082F22E0EE
:101E000044E06CE1809125010E944515882319F07A
:101E10008DEE91E002C088EC91E09F938F9389EA68
:101E200092E09F938F930E94F5040F900F900F9074
:101E30000F900F910895282F46E06BE680912501C1
:101E40000E941215882319F08BEA91E002C08FE8F6
:101E500091E09F938F9389EA92E09F938F930E94E2
:101E6000F5040F900F900F900F90089581E00E945D
:101E7000C10E80E00E94DF0E80E00E94FD0E80E037
:101E80000C941B0FEF92FF920F931F93CF93DF934E
:101E9000CDB7DEB72E970FB6F894DEBF0FBECDBF1D
:101EA0008E010F5F1F4F8EE0F80111928A95E9F7BE
:101EB00088EEE82E83E0F82E26E046E065E7809184
:101EC00025010E94B01589812E960FB6F894DEBFC9
:101ED0000FBECDBFDF91CF911F910F91FF90EF907B
:101EE00008950F931F93CF93DF931F92CDB7DEB763
:101EF0000E94420F898387E992E09F938F9309EABA
:101F000012E01F930F930E94F50461E070E0CE0190
:101F100001960E94DB0483E992E09F938F931F93C5
:101F20000F930E94F50481E00FB6F894DEBF0FBE58
:101F3000CDBF9981943309F080E00F90DF91CF916C
:101F40001F910F9108954F925F926F927F928F929F
:101F50009F92AF92BF92CF92DF92EF92FF920F9338
:101F60001F93CF93DF93CDB7DEB72E970FB6F894BC
:101F7000DEBF0FBECDBF6C015B012A0139014801F4
:101F80009E012F5F3F4F8EE0F90111928A95E9F78C
:101F900008EE13E04EE06BE3809125010E9462148D
:101FA000898190E0982F88272A81822BF6019183DE
:101FB00080838B8190E0982F88272C81822BF501DC
:101FC000918380838D8190E0982F88272E81822BAA
:101FD000F20191838083898590E0982F88272A8554
:101FE000822BF301918380838B8590E0982F882743
:101FF0002C85822BF401918380838D8590E0982F2E
:1020000088272E85822BF701918380832E960FB629
:10201000F894DEBF0FBECDBFDF91CF911F910F911E
:10202000FF90EF90DF90CF90BF90AF909F908F90F8
:102030007F906F905F904F9008956F927F928F92F4
:102040009F92AF92BF92CF92DF92EF92FF920F9347
:102050001F93CF93DF93CDB7DEB72E970FB6F894CB
:10206000DEBF0FBECDBFFE013196AEE01192AA9544
:10207000E9F70E94A30F42E067E3809125010E94E7
:1020800002158FE19EE40197F1F700C0000041E0E6
:102090006AE08CE00E940215EFE1FEE43197F1F76F
:1020A00000C0000008EE13E09E012F5F3F4F46E0A6
:1020B00063E08CE00E9462148A8190E0982F882768
:1020C0002981822BF601918380838C8190E0982F67
:1020D00088272B81822BF501918380838E8190E06C
:1020E000982F88272D81822BF401918380832E964F
:1020F0000FB6F894DEBF0FBECDBFDF91CF911F9119
:102100000F91FF90EF90DF90CF90BF90AF909F9096
:102110008F907F906F9008950F93082F23E042E0F7
:102120006AE1809125010E9445150F910895AF92B3
:10213000BF92CF92DF92EF92FF920F931F93CF93B4
:10214000DF93CDB7DEB72E970FB6F894DEBF0FBE84
:10215000CDBF5C016B017A019E012F5F3F4F8EE086
:10216000F90111928A95E9F708EE13E046E063E47D
:10217000809125010E946214298130E0322F2227AC
:102180008A81282BF501318320838B8190E0982F61
:1021900088272C81822BF601918380838D8190E0AA
:1021A000982F88272E81822BF701918380832E968A
:1021B0000FB6F894DEBF0FBECDBFDF91CF911F9158
:1021C0000F91FF90EF90DF90CF90BF90AF90089568
:1021D000AF92BF92CF92DF92EF92FF920F931F9335
:1021E000CF93DF93CDB7DEB72E970FB6F894DEBF4F
:1021F0000FBECDBF5C016B017A019E012F5F3F4F87
:102200008EE0F90111928A95E9F708EE13E046E0B5
:102210006BE3809125010E946214298130E0322F06
:1022200022278A81282BF501318320838B8190E03E
:10223000982F88272C81822BF601918380838D81B2
:1022400090E0982F88272E81822BF701918380833D
:102250002E960FB6F894DEBF0FBECDBFDF91CF91A3
:102260001F910F91FF90EF90DF90CF90BF90AF90B4
:102270000895AF92BF92CF92DF92EF92FF920F93A9
:102280001F93CF93DF93CDB7DEB72E970FB6F89499
:10229000DEBF0FBECDBF7C015B016A01FE0131963E
:1022A0008EE0DF011D928A95E9F742E067E38091B5
:1022B00025010E940215EFE1FEE43197F1F700C01D
:1022C000000041E06AE08CE00E9402158FE19EE48C
:1022D0000197F1F700C0000008EE13E09E012F5FA8
:1022E0003F4F46E063E08CE00E9462142A8130E0B8
:1022F000322F22278981282BD7012D933C938C8163
:1023000090E0982F88272B81822BF5019183808381
:102310008E8190E0982F88272D81822BD6018D9376
:102320009C932E960FB6F894DEBF0FBECDBFDF9103
:10233000CF911F910F91FF90EF90DF90CF90BF90C2
:10234000AF9008951092E50181E08093E30110922F
:10235000E201E9EBF0E080818E7F808380818D7FD8
:10236000808380E28093B80085E48093BC00089568
:10237000880F8093BA000895413208F03FC09091D1
:10238000E5019111FCCF91E09093E5012093E301E9
:102390002FEF209378011092BD01240F2093BC01F0
:1023A0009093E4019091E401880F892B8093E401DC
:1023B0008091E201813041F41092E2018091E401C8
:1023C0008093BB0085EC01C085EE8093BC008091BA
:1023D000E5018130E1F38091BD01841710F4409153
:1023E000BD012EEB31E0FB01D9018A2F821B84173E
:1023F00018F48D918193F9CF842F089580E008958A
:102400000F93413208F046C09091E5019111FCCF45
:1024100092E09093E5010093E3019FEF90937801A0
:102420001092BD014093BC01FB016EEB71E0DB013A
:102430009A2F961B941718F491919D93F9CF1092AF
:10244000E4019091E401880F892B8093E40180914D
:10245000E201813041F41092E2018091E401809325
:10246000BB0085EC01C085EE8093BC00222321F0E7
:102470008091E5018230E1F3809178018F3F61F036
:1024800080917801803251F080917801803341F45D
:1024900083E007C081E005C080E003C082E001C0A6
:1024A00084E00F910895613298F42091E501243081
:1024B00089F460939A01FC018CE991E0DC012A2FF8
:1024C000281B261718F421912D93F9CF80E0089549
:1024D00081E0089582E008959093DF018093DE010A
:1024E00008959093E1018093E0010895882311F00D
:1024F00085EC01C085E88093BC00089585ED80934C
:10250000BC008091BC0084FDFCCF1092E5010895D1
:1025100085EC8093BC001092E50108951F920F9204
:102520000FB60F9211242F933F934F935F936F93A6
:102530007F938F939F93AF93BF93EF93FF9380917C
:10254000B900887F803609F49CC068F5883209F4A8
:102550005BC090F4803109F454C038F4882309F446
:10256000F5C0883009F44DC0F5C0883109F44CC07D
:10257000803209F45DC0EEC0803409F468C048F4CC
:10258000803309F455C0883309F0E4C080937801A2
:10259000A8C0803509F44FC0883509F45DC088347F
:1025A00009F0D8C0D5C0883909F4C6C0A8F4883766
:1025B00009F467C038F4883609F463C0803709F439
:1025C00060C0C8C0883809F4B7C0803909F45FC05A
:1025D000803809F0BFC05BC0803B09F485C038F487
:1025E000803A09F466C0883A09F47EC0B3C0803CE2
:1025F00009F4A6C0883C09F4A3C0883B09F489C04B
:10260000A9C08091E40110C09091BD018091BC01EE
:10261000981770F5E091BD0181E08E0F8093BD01A8
:10262000F0E0E254FE4F80818093BB0085EC85C0D2
:10263000809378018DC0E091BD0181E08E0F809381
:10264000BD018091BB00F0E0E254FE4F8083909189
:10265000BD018091BC016DC0E091BD0181E08E0F94
:102660008093BD018091BB00F0E0E254FE4F808377
:102670008091E30181116CC081E08093E20184EAE2
:1026800060C083E08093E50110927901CFCF809103
:102690007901803208F050C0E091790181E08E0F1D
:1026A000809379018091BB00F0E0E658FE4F808373
:1026B000BDCF80917901803230F4E0917901F0E072
:1026C000E658FE4F10820E947E126091790170E000
:1026D000E091DE01F091DF018AE791E00995109227
:1026E00079010E94881236C084E08093E50110923F
:1026F0009B0110929A01E091E001F091E1010995AE
:1027000080919A01811105C081E080939A01109215
:102710009C01E0919B0181E08E0F80939B01F0E092
:10272000E456FE4F80818093BB0090919B01809185
:102730009A01981708F47ACF85E88093BC000AC004
:1027400085EC8093BC001092E50104C010927801E2
:102750000E947E12FF91EF91BF91AF919F918F9157
:102760007F916F915F914F913F912F910F900FBE8D
:102770000F901F9018951092EB011092EA011092A1
:10278000E8011092E7010C94A2110E94B8110C9478
:10279000BB1391E09093E6018093E9011092E80168
:1027A0001092E7010895242F462F613208F040E28D
:1027B0006DEC72E00E94BC111092EB018093EA0173
:1027C00008950F93082F21E04091E7016DEE72E02C
:1027D0008091E9010E9400121092E8011092E70135
:1027E0001092E6010F910895CF93DF931F92CDB71A
:1027F000DEB789838091E601882391F08091E7011B
:102800008032B0F48091E801E82FF0E0E351FD4F11
:10281000998190838F5F8093E8018093E70105C0E1
:1028200061E0CE0101960E94531281E090E002C067
:1028300080E090E00F90DF91CF910895EF92FF92AA
:102840000F931F93CF93DF938B012091E6012223F7
:1028500059F0EC017C01E60EF71ECE15DF0531F0D4
:1028600089910E94F413F9CF0E945312C801DF919D
:10287000CF911F910F91FF90EF9008958091EA0101
:102880009091EB01891B08959091EB018091EA01F1
:10289000981748F4E92FF0E0E353FD4F80819F5FE4
:1028A0009093EB0108958FEF0895E091EB018091F3
:1028B000EA01E81728F4F0E0E353FD4F8081089522
:1028C0008FEF08955F926F927F928F929F92AF9257
:1028D000BF92CF92DF92EF92FF920F931F93CF930D
:1028E000DF93682E562E942EE9010E9450036B014F
:1028F0007C01C00ED11EE11CF11C812C712CA92C75
:10290000B12C891480F5862D0E94C913852D0E9453
:10291000F41381E00E94E113C501881991098097A1
:102920001CF4692D681901C060E241E0862D0E9407
:10293000D3130E943E14882379F08E01070D111DD8
:102940000E944414F801808373940E945003C616B9
:10295000D706E806F90668F7892DF0E2F91508F4BC
:1029600080E2880ECECF872DDF91CF911F910F91FE
:10297000FF90EF90DF90CF90BF90AF909F908F909F
:102980007F906F905F9008950F931F9389019A0134
:1029900041E00E9462141F910F910895EF92FF92FF
:1029A0000F931F93CF93DF9300D01F92CDB7DEB765
:1029B000142F2A833B8369830E94C9136981862F60
:1029C0000E94F4132A81022FE22E3B81F32E8E2DDA
:1029D000801B811730F4F70181917F010E94F4136D
:1029E000F6CF81E00E94E11391E0811190E0892F00
:1029F0000F900F900F90DF91CF911F910F91FF904B
:102A0000EF900895CF93DF931F92CDB7DEB7498340
:102A10009E012F5F3F4F41E00E94CE140F90DF9147
:102A2000CF910895EF92FF920F931F93CF93DF936F
:102A30001F92CDB7DEB7182F062FF42EE22E20916D
:102A4000260130912701AE014F5F5F4F0E94C414F1
:102A5000898121E030E00F2C01C0220F0A94EAF7AF
:102A6000EE2019F0482F422B03C0422F40954823F7
:102A70004983602F812F0E9402150F90DF91CF9123
:102A80001F910F91FF90EF900895DF92EF92FF92C8
:102A90000F931F93CF93DF931F92CDB7DEB7F82E1E
:102AA000E62ED42E122F2091260130912701AE015F
:102AB0004F5F5F4F0E94C414882319F14D2D50E0E1
:102AC000411B51094F5F5F4FE1E0F0E002C0EE0FA4
:102AD000FF1F1A95E2F73197042E01C0EE0F0A94FA
:102AE000EAF701C0000F4A95EAF74E2F4095898119
:102AF0004823E0234E2B49836E2D8F2D0E94021513
:102B000001C080E00F90DF91CF911F910F91FF9056
:102B1000EF90DF900895DF92EF92FF920F931F9353
:102B2000CF93DF931F92CDB7DEB7D42E79019801F2
:102B3000AE014F5F5F4F0E94C41461E070E001C0BE
:102B4000660FDA94EAF799819623F70190830F9044
:102B5000DF91CF911F910F91FF90EF90DF9008953B
:102B6000CF92DF92EF92FF920F931F93CF93DF9359
:102B70001F92CDB7DEB7C42ED22E9701AE014F5FA4
:102B80005F4F0E94C4148823F1F04C2D50E04D1982
:102B900051094F5F5F4F61E070E002C0660F771F21
:102BA000DA94E2F761507109042E01C0660F0A94AD
:102BB000EAF72981262330E002C0359527954A950A
:102BC000E2F7F80120830F90DF91CF911F910F91D1
:102BD000FF90EF90DF90CF900895CF92DF92EF9229
:102BE000FF926B017C010E9450036C0D7D1D8E1DB8
:102BF0009F1D60933202709333028093340290934E
:102C00003502FF90EF90DF90CF900895BC018827A8
:102C100077FD8095982F0E942E322EEB37E346E009
:102C20005BE30E94C9309B01AC016EEB77E386E069
:102C30009BE30E94933160935301709354018093FE
:102C40005501909356010895CF93DF93209172021E
:102C500030917302409174025091750260E070E00F
:102C600080E89FE30E94933120E030E044E353E4A6
:102C70000E9493312BED3FE049E450E40E940E3373
:102C80002EEB37E346E05BE30E940E336093740162
:102C900070937501809376019093770180918E02F5
:102CA00090918F020E94061680E090E0A0E8BDE4BB
:102CB0008093580190935901A0935A01B0935B01FE
:102CC0001092C1021092C2021092C3021092C4026A
:102CD0001092C5021092C6021092C7021092C8024A
:102CE00080E090E0A0E8B6E48093C9029093CA0225
:102CF000A093CB02B093CC028EE793E09F938F9387
:102D0000C4E9D3E0DF93CF930E94F50486E693E015
:102D10009F938F93DF93CF930E94F5041092360216
:102D200081E080933D018DB79EB708960FB6F89469
:102D30009EBF0FBE8DBF68EE73E080E090E0DF9134
:102D4000CF910C94ED158F929F92AF92BF92CF923C
:102D5000DF92EF92FF920F931F930E945003009116
:102D60002E0210912F022091300230913102601713
:102D700071078207930708F431C20E945003665F0F
:102D80007F4F8F4F9F4F60932E0270932F0280933F
:102D900030029093310280916B02882309F41EC2A5
:102DA00010926B020E94210C80919F0281110E945F
:102DB0005A0D8091A00281110E94AF0D0E94400E19
:102DC0000E94500300912A0210912B0220912C02A4
:102DD00030912D026017710782079307C0F180912F
:102DE00052018F93809151018F93809150018F9365
:102DF00080914F018F9380914E018F9380914D016F
:102E00008F9380914C018F9380914B018F9382E53A
:102E100093E09F938F9384E993E09F938F930E9415
:102E2000F5040E9450036C597F4F8F4F9F4F609362
:102E30002A0270932B0280932C0290932D028DB75F
:102E40009EB70C960FB6F8949EBF0FBE8DBF8091B3
:102E5000640281116AC020E030E04AE754E46091E6
:102E60004702709148028091490290914A020E9463
:102E70000E330E94FB31E0904F01F0905001009121
:102E8000510110915201209134032F93209133036B
:102E90002F93209132032F93209131032F93209170
:102EA0002E032F9320912D032F9320912C032F93EA
:102EB00020912B032F9320912A032F9320912903F4
:102EC0002F9327E532E03F932F933FE5832E32E0A7
:102ED000932E5B016C0124EF31E040E050E062E0B2
:102EE00070E080E090E00E94D40760933503709317
:102EF000360380933703909338034091940255270B
:102F000047FD5095469F9001479F300D569F300DCD
:102F1000112430934202209341028DB79EB70C9644
:102F20000FB6F8949EBF0FBE8DBF809163028111D2
:102F30006AC020E030E04AE754E4609143027091B7
:102F4000440280914502909146020E940E330E94F5
:102F5000FB31E0904B01F0904C0100914D0110913C
:102F60004E0120914E032F9320914D032F932091DA
:102F70004C032F9320914B032F93209148032F93C1
:102F8000209147032F93209146032F9320914503CF
:102F90002F93209144032F93209143032F9323E5F4
:102FA00032E03F932F932BE5822E22E0922E5B019D
:102FB0006C0124EF31E040E050E062E070E080E03E
:102FC00090E00E94D40760930D0370930E038093EA
:102FD0000F039093100340919502552747FD50959C
:102FE000469F9001479F300D569F300D112430931E
:102FF000400220933F028DB79EB70C960FB6F8940F
:103000009EBF0FBE8DBF80916C028823A1F04091BE
:10301000690250916A0260914102809196020E9479
:103020007A2B409167025091680260913F02809133
:1030300097020E947A2B80913602882329F08130F2
:1030400029F40E94A30B02C00E94290B8091360232
:103050008F5F833019F08093360202C010923602DF
:1030600020913D01332727FD30958091ED0190E0BF
:103070002817390721F081E08093EC0102C01092FB
:10308000EC0180913D018093ED0180913D01823002
:1030900009F454C01CF48130D1F097C0833009F496
:1030A0007DC0843009F091C08FE193E09F938F93AE
:1030B00084E993E09F938F930E94F50410926C0231
:1030C0000E94DA2B0F900F900F900F907EC080918E
:1030D000EC01882371F087E493E09F938F9384E958
:1030E00093E09F938F930E94F5040F900F900F90A1
:1030F0000F9010926C0281E0809357010E94500360
:103100000091320210913302209134023091350245
:10311000601771078207930708F457C068EE73E0E1
:1031200080E090E00E94ED1582E080933D0168E828
:1031300073E180E090E00E94ED1547C08091EC01C2
:10314000882371F088E393E09F938F9384E993E061
:103150009F938F930E94F5040F900F900F900F9004
:1031600081E080936C02809357010E94500300918C
:1031700032021091330220913402309135026017EF
:1031800071078207930708F168EE73E080E090E032
:103190000E94ED1583E080933D0117C08091EC0102
:1031A000882371F08BE293E09F938F9384E993E0FF
:1031B0009F938F930E94F5040F900F900F900F90A4
:1031C00081E080936C0210925701809136028F5FEC
:1031D00080933602833011F4109236021F910F91C2
:1031E000FF90EF90DF90CF90BF90AF909F908F9027
:1031F00008954F925F926F927F928F929F92AF92BB
:10320000BF92CF92DF92EF92FF92CF93DF93CDB731
:10321000DEB760970FB6F894DEBF0FBECDBF0E9439
:103220005003C0902E02D0902F02E0903002F09018
:1032300031026C157D058E059F0508F41EC10E94A4
:103240005003665F7F4F8F4F9F4F60932E027093A6
:103250002F02809330029093310219861A861B86C2
:103260001C861D821E821F82188619821A821B826A
:103270001C82AE014F5F5F4FBE016B5F7F4FCE017F
:1032800009960E941D0C20E030E040E05FE3698574
:103290007A858B859C850E940E336B017C0120E032
:1032A00030E040E05FE36091260270912702809158
:1032B0002802909129020E940E339B01AC01C701A4
:1032C000B6010E94C9302B013C0160932602709325
:1032D0002702809328029093290220E030E040E00A
:1032E0005FE36D817E818F8198850E940E336B0133
:1032F0007C0120E030E040E05FE3609122027091C9
:10330000230280912402909125020E940E339B019A
:10331000AC01C701B6010E94C9304B015C0160934A
:10332000220270932302809324029093250220E0CE
:1033300030E040E05FE369817A818B819C810E946B
:103340000E336B017C0120E030E040E05FE36091F0
:103350001E0270911F0280912002909121020E9412
:103360000E339B01AC01C701B6010E94C9306B014D
:103370007C0160931E0270931F0280932002909341
:103380002102C501B4019058A70196010E943C3169
:103390006D877E878F87988BA5019401C501B40145
:1033A0000E940E334B015C01A7019601C701B601D3
:1033B0000E940E339B01AC01C501B4010E94C930CB
:1033C0000E947B339B01AC01C301B2010E943C31DE
:1033D0006B017C010E94500380902A0290902B0286
:1033E000A0902C02B0902D02681579058A059B05E6
:1033F00008F443C020E030E044E353E4C701B601E1
:103400000E940E332BED3FE049E450E40E949331DB
:103410009F938F937F936F9320E030E044E353E4D6
:103420006D857E858F8598890E940E332BED3FE058
:1034300049E450E40E9493319F938F937F936F935D
:103440008BE093E09F938F9384E993E09F938F9316
:103450000E94F5040E9450036C597F4F8F4F9F4F7D
:1034600060932A0270932B0280932C0290932D027A
:103470000FB6F894DEBF0FBECDBF60960FB6F894BE
:10348000DEBF0FBECDBFDF91CF91FF90EF90DF90F9
:10349000CF90BF90AF909F908F907F906F905F90F4
:1034A0004F9008954F925F926F927F928F929F926A
:1034B000AF92BF92CF92DF92EF92FF9248E152E03B
:1034C0006AE172E08CE192E00E941D0C60911C02A6
:1034D00070911D028091AE029091AF02681B790B32
:1034E00070931D0260931C02C0901A02D0901B02C0
:1034F0008091B0029091B102C81AD90AD0921B02F1
:10350000C0921A02E0901802F09019028091B20263
:103510009091B302E81AF90AF0921902E0921802A7
:10352000882777FD8095982F0E942E329B01AC0151
:103530000E94C93020E030E040E058E30E940E33A2
:1035400060931D0370931E0380931F0390932003C9
:10355000B601882777FD8095982F0E942E329B0117
:10356000AC010E94C93020E030E040E058E30E9406
:103570000E336093530370935403809355039093D9
:103580005603B701882777FD8095982F0E942E3229
:103590009B01AC010E94C93020E030E040E058E3DC
:1035A0000E940E33609315037093160380931703E4
:1035B0009093180342E152E064E172E086E192E008
:1035C0000E941B0CC0902801D0902901E0902A0194
:1035D000F0902B0160911602709117028091A80261
:1035E0009091A902681B790B882777FD8095982F09
:1035F0000E942E32A70196010E9493310E94FB3156
:103600002B013C0170931702609316026091140223
:10361000709115028091AA029091AB02681B790B00
:10362000882777FD8095982F0E942E32A70196015A
:103630000E9493310E94FB314B015C017093150293
:103640006093140260911202709113028091AC0297
:103650009091AD02681B790B882777FD8095982F94
:103660000E942E32A70196010E9493310E94FB31E5
:103670006B017C017093130260931202B2018827E0
:1036800077FD8095982F0E942E3220E030E04AE7A7
:1036900053E40E940E3320E030E040E058E30E9403
:1036A0000E3360934F0370935003809351039093B4
:1036B0005203B401882777FD8095982F0E942E32FF
:1036C00020E030E04AE753E40E940E3320E030E08F
:1036D00040E058E30E940E3360931103709312038D
:1036E0008093130390931403B601882777FD809588
:1036F000982F0E942E3220E030E04AE753E40E94E7
:103700000E3320E030E040E058E30E940E33609337
:103710003B0370933C0380933D0390933E03609181
:103720003C0170E088EE93E00E942B348091060209
:10373000909107026817790708F08AC04CE052E0C0
:103740006EE072E080E192E00E941F0C6091100236
:1037500070911102882777FD8095982F0E942E3254
:1037600020E030E040E251E40E940E3320E030EAF5
:1037700049E954E40E940E3320E030E040E859E388
:103780000E940E3320E030E040E951E40E94C9304D
:1037900060935703709358038093590390935A038F
:1037A00060910E0270910F02882777FD8095982F07
:1037B0000E942E3220E030E040E251E40E940E33BD
:1037C00020E030EA49E954E40E940E3320E030E082
:1037D00040E859E30E940E3320E030E04CE852E428
:1037E0000E94C9306093190370931A0380931B03DE
:1037F00090931C0360910C0270910D02882777FD55
:103800008095982F0E942E3220E030E040E251E473
:103810000E940E3320E030EA49E954E40E940E335E
:1038200020E030E040E859E30E940E3320E030E031
:1038300047E853E40E94C93060933F03709340030C
:103840008093410390934203109207021092060264
:10385000FF90EF90DF90CF90BF90AF909F908F90B0
:103860007F906F905F904F9008954F925F926F920C
:103870007F928F929F92AF92BF92CF92DF92EF9200
:10388000FF92CF93DF93CDB7DEB728970FB6F894AA
:10389000DEBF0FBECDBF0E945003C0902E02D0905D
:1038A0002F02E0903002F09031026C157D058E05FC
:1038B0009F0508F487C10E9450036F5D7F4F8F4FB3
:1038C0009F4F60932E0270932F028093300290934B
:1038D00031020E9450036093250370932603809366
:1038E0002703909328038091060290910702019686
:1038F00090930702809306020E94521A609115036A
:103900007091160380911703909118039B01AC01ED
:103910000E940E334B015C0160E070E0CB019B0123
:10392000AC010E940E33A50194010E94C9300E948F
:103930007B339B01AC0160911D0370911E0380914C
:103940001F03909120030E943C3120E030E044E3CB
:1039500053E40E940E332BED3FE049E450E40E9413
:1039600093316B017C0160E070E0CB019B01AC0105
:103970000E940E33A50194010E94C9300E947B333E
:103980009B01AC01C701B6010E943C314B015C01B7
:1039900020E030E040EF51E460913B0370913C0344
:1039A00080913D0390913E030E9493319B01AC01B5
:1039B00060E070E0CB010E94C93069837A838B8319
:1039C0009C8320E030E040EF51E460914F03709120
:1039D000500380915103909152030E9493319B01B7
:1039E000AC0160E070E0CB010E94C9302FE832ECFE
:1039F00045E75FE30E940E336D837E838F83988754
:103A000020E030E040EF51E4609111037091120327
:103A100080911303909114030E9493319B01AC0198
:103A200060E070E0CB010E94C8302FE832EC45E73F
:103A30005FE30E940E332B013C012AE037ED43E2A5
:103A40005DE3C701B6010E940E339B01AC01C301C7
:103A5000B2010E94C93020E030E044E353E40E9408
:103A60000E332BED3FE049E450E40E949331609324
:103A7000020270930302809304029093050220E0F7
:103A800030E044E353E4C501B4010E940E332BED52
:103A90003FE049E450E40E9493312AE037ED43E2ED
:103AA0005DE30E940E339B01AC016D817E818F81AD
:103AB00098850E94C93020E030E044E353E40E943E
:103AC0000E332BED3FE049E450E40E9493316093C4
:103AD000FE017093FF01809300029093010220E0A9
:103AE00030E044E353E469817A818B819C810E94B8
:103AF0000E332BED3FE049E450E40E949331609394
:103B0000FA017093FB018093FC019093FD010E94E8
:103B100050036093210370932203809323039093B7
:103B200024030E945003C0902A02D0902B02E09000
:103B30002C02F0902D026C157D058E059F0508F472
:103B400041C00E9450036C597F4F8F4F9F4F60932D
:103B50002A0270932B0280932C0290932D02809165
:103B6000FD018F938091FC018F938091FB018F93D6
:103B70008091FA018F93809101028F9380910002CE
:103B80008F938091FF018F938091FE018F9380919D
:103B900005028F93809104028F93809103028F938B
:103BA000809102028F9381EF92E09F938F9384E93B
:103BB00093E09F938F930E94F5040FB6F894DEBFB5
:103BC0000FBECDBF28960FB6F894DEBF0FBECDBF97
:103BD000DF91CF91FF90EF90DF90CF90BF90AF90AB
:103BE0009F908F907F906F905F904F900895CF93AC
:103BF000DF9320E030E04AE754E460911D037091C8
:103C00001E0380911F03909120030E940E339F9307
:103C10008F937F936F938DEE92E09F938F93C4E980
:103C2000D3E0DF93CF930E94F50420E030E04AE731
:103C300054E4609153037091540380915503909123
:103C400056030E940E339F938F937F936F9389EE59
:103C500092E09F938F93DF93CF930E94F50420E02F
:103C600030E04AE754E460911503709116038091A7
:103C70001703909118030E940E339F938F937F93A5
:103C80006F9385EE92E09F938F93DF93CF930E9483
:103C9000F504809152038F93809151038F9380910B
:103CA00050038F9380914F038F9381EE92E09F9307
:103CB0008F93DF93CF930E94F5048DB79EB78096C4
:103CC0000FB6F8949EBF0FBE8DBF809114038F93E3
:103CD000809113038F93809112038F93809111032E
:103CE0008F938DED92E09F938F93DF93CF930E94FC
:103CF000F50480913E038F9380913D038F938091D3
:103D00003C038F9380913B038F9389ED92E09F93C7
:103D10008F93DF93CF930E94F504609157037091C6
:103D200058038091590390915A030E94FB317F936D
:103D30006F9385ED92E09F938F93DF93CF930E94D3
:103D4000F5046091190370911A0380911B039091FF
:103D50001C030E94FB317F936F9381ED92E09F9350
:103D60008F93DF93CF930E94F50460913F0370918E
:103D7000400380914103909142030E94FB317F9365
:103D80006F938DEC92E09F938F93DF93CF930E947C
:103D9000F5048DB79EB782960FB6F8949EBF0FBEFE
:103DA0008DBFE0E3F1E083818F9382818F938181E6
:103DB0008F9380818F9389EC92E09F938F93DF9311
:103DC000CF930E94F504E4E3F1E083818F93828135
:103DD0008F9381818F9380818F9385EC92E09F9365
:103DE0008F93DF93CF930E94F504E8E3F1E08381A2
:103DF0008F9382818F9381818F9380818F9381ECC8
:103E000092E09F938F93DF93CF930E94F50480916C
:103E100001028F93809100028F938091FF018F9315
:103E20008091FE018F938DEB92E09F938F93DF93B0
:103E3000CF930E94F5048DB79EB780960FB6F89485
:103E40009EBF0FBE8DBF809105028F9380910402AB
:103E50008F93809103028F93809102028F9389EB5D
:103E600092E09F938F93DF93CF930E94F50480910C
:103E7000FD018F938091FC018F938091FB018F93C3
:103E80008091FA018F9386EB92E09F938F93DF935B
:103E9000CF930E94F50483EB92E09F938F93DF937F
:103EA000CF930E94F5048DB79EB744960FB6F89451
:103EB0009EBF0FBE8DBFDF91CF9108954F925F924D
:103EC0006F927F928F929F92AF92BF92CF92DF922A
:103ED000EF92FF920F931F93CF93DF93CDB7DEB78F
:103EE000CC56D1090FB6F894DEBF0FBECDBF2596D4
:103EF0006CAF7DAF8EAF9FAF259729962CAF3DAFAE
:103F00004EAF5FAF29972D96ECAEFDAE0EAF1FAF53
:103F10002D9720912C0130912D0140912E0150912F
:103F20002F012DA73EA74FA758AB8091300190914C
:103F30003101A0913201B091330189A39AA3ABA3BF
:103F4000BCA320913401309135014091360150914C
:103F50003701298F3A8F4B8F5C8F80913801909178
:103F60003901A0913A01B0913B01898B9A8BAB8BBF
:103F7000BC8B25962CAD3DAD4EAD5FAD2597CA01EE
:103F8000B9010E940E332B013C0129962CAD3DADA9
:103F90004EAD5FAD2997CA01B9010E940E339B0156
:103FA000AC01C301B2010E94C9302B013C01A80140
:103FB0009701C801B7010E940E339B01AC01C301F8
:103FC000B2010E94C9300E947B332B013C0120E0EA
:103FD00030E0A9010E948F31882311F40C94852AC6
:103FE000C957DF4F288139814A815B81C758D0404A
:103FF000CA01B9010E940E3369877A878B879C8733
:10400000C557DF4F288139814A815B81CB58D04029
:10401000CA01B9010E940E339B01AC0169857A8502
:104020008B859C850E94C93069877A878B879C879E
:10403000C157DF4F288139814A815B81CF58D040F9
:10404000CA01B9010E940E339B01AC0169857A85D2
:104050008B859C850E94C9300E947B3369877A8753
:104060008B879C8720E030E0A9010E948F31882354
:1040700011F40C94852A2DA53EA54FA558A9CA0177
:10408000B9010E94C9306D877E878F87988B29A1DF
:104090003AA14BA15CA1CA01B9010E94C930659641
:1040A0006CAF7DAF8EAF9FAF6597298D3A8D4B8DED
:1040B0005C8DCA01B9010E94C93069966CAF7DAFB1
:1040C0008EAF9FAF699729893A894B895C89CA016C
:1040D000B9010E94C930A9966CAF7DAF8EAF9FAF7A
:1040E000A9972DA53EA54FA558A9CA01B9010E94BF
:1040F0000E3361966CAF7DAF8EAF9FAF619729A1F4
:104100003AA14BA15CA16DA57EA58FA598A90E949F
:104110000E3321966CAF7DAF8EAF9FAF2197298D67
:104120003A8D4B8D5C8D6DA57EA58FA598A90E94BB
:104130000E33AD966CAF7DAF8EAF9FAFAD9729A11B
:104140003AA14BA15CA1CA01B9010E940E3369AF2B
:104150007AAF8BAF9CAF29893A894B895C8969A179
:104160007AA18BA19CA10E940E336DAB7EAB8FAB6D
:1041700098AF298D3A8D4B8D5C8DCA01B9010E9493
:104180000E336DA37EA38FA398A729893A894B8903
:104190005C89CA01B9010E940E3369AB7AAB8BAB63
:1041A0009CABA301920160E070E080E89FE30E9475
:1041B0009331A1966CAF7DAF8EAF9FAFA19729854C
:1041C0003A854B855C8560E070E080E89FE30E9463
:1041D00093312B013C019B01AC01C957DF4F688132
:1041E00079818A819B81C758D0400E940E336D8BA4
:1041F0007E8B8F8B988FA3019201C557DF4F68810B
:1042000079818A819B81CB58D0400E940E33698787
:104210007A878B879C87A3019201C157DF4F688102
:1042200079818A819B81CF58D0400E940E332B0127
:104230003C012D893E894F89588D6D857E858F85FE
:1042400098890E940E336D837E838F83988729859A
:104250003A854B855C856D857E858F8598890E9422
:104260000E3369A77AA78BA79CA7A30192016D853E
:104270007E858F8598890E940E3369837A838B832C
:104280009C832D893E894F89588D65966CAD7DAD97
:104290008EAD9FAD65970E940E336D966CAF7DAF6E
:1042A0008EAF9FAF6D9761962CAD3DAD4EAD5FADBE
:1042B00061976D897E898F89988D0E940E336D8FED
:1042C0007E8F8F8F98A329893A894B895C8969A54C
:1042D0007AA58BA59CA50E940E339B01AC016D8D28
:1042E0007E8D8F8D98A10E94C8306D8F7E8F8F8FAD
:1042F00098A3298D3A8D4B8D5C8D69817A818B8154
:104300009C810E940E339B01AC016D8D7E8D8F8D43
:1043100098A10E94C9306D8F7E8F8F8F98A329AD91
:104320003AAD4BAD5CAD6D897E898F89988D0E94C9
:104330000E339B01AC016D8D7E8D8F8D98A10E94F7
:10434000C9306D8F7E8F8F8F98A329853A854B85D5
:104350005C8565966CAD7DAD8EAD9FAD65970E9419
:104360000E33298D3A8D4B8D5C8D0E940E339B014F
:10437000AC016D8D7E8D8F8D98A10E94C9306D8F9F
:104380007E8F8F8F98A3A301920165966CAD7DAD52
:104390008EAD9FAD65970E940E3329893A894B896E
:1043A0005C890E940E339B01AC016D8D7E8D8F8DDB
:1043B00098A10E94C9306D8F7E8F8F8F98A32DA1F9
:1043C0003EA14FA158A56D897E898F89988D0E9445
:1043D0000E339B01AC016D8D7E8D8F8D98A10E9457
:1043E000C8306D8F7E8F8F8F98A329A93AA94BA9CA
:1043F0005CA96D897E898F89988D0E940E339B01FF
:10440000AC016D8D7E8D8F8D98A10E94C8306D8F0F
:104410007E8F8F8F98A329893A894B895C896D811A
:104420007E818F8198850E940E33A5966CAF7DAFFB
:104430008EAF9FAFA59761962CAD3DAD4EAD5FADF4
:10444000619769857A858B859C850E940E339B01D7
:10445000AC01A5966CAD7DAD8EAD9FADA5970E94CC
:10446000C930A5966CAF7DAF8EAF9FAFA59729A140
:104470003AA14BA15CA169817A818B819C810E94C8
:104480000E339B01AC01A5966CAD7DAD8EAD9FAD9D
:10449000A5970E94C83069837A838B839C83298D7A
:1044A0003A8D4B8D5C8D6D966CAD7DAD8EAD9FADB7
:1044B0006D970E940E339B01AC0169817A818B81DB
:1044C0009C810E94C93069837A838B839C8329AD48
:1044D0003AAD4BAD5CAD69857A858B859C850E9434
:1044E0000E339B01AC0169817A818B819C810E9492
:1044F000C83069837A838B839C832DA13EA14FA111
:1045000058A569857A858B859C850E940E339B0111
:10451000AC0169817A818B819C810E94C930698359
:104520007A838B839C83A301920169966CAD7DADE8
:104530008EAD9FAD69970E940E3329893A894B89C8
:104540005C890E940E339B01AC0169817A818B8169
:104550009C810E94C93069837A838B839C8329A9BB
:104560003AA94BA95CA969857A858B859C850E94AF
:104570000E339B01AC0169817A818B819C810E9401
:10458000C83069837A838B839C832D8D3E8D4F8DBC
:1045900058A1CA01B9010E940E336D8F7E8F8F8F93
:1045A00098A329813A814B815C81CA01B9010E949B
:1045B0000E339B01AC016D8D7E8D8F8D98A10E9475
:1045C000C9300E947B3369837A838B839C836D819E
:1045D0007E818F8198859058298D3A8D4B8D5C8D89
:1045E0000E940E336D837E838F83988729A13AA121
:1045F0004BA15CA169A57AA58BA59CA50E940E3351
:104600009B01AC016D817E818F8198850E94C930AC
:104610006D837E838F83988761962CAD3DAD4EADC3
:104620005FAD6197C301B2010E940E339B01AC01E3
:104630006D817E818F8198850E94C9306D837E83D4
:104640008F83988729893A894B895C896D966CADEF
:104650007DAD8EAD9FAD6D970E940E339B01AC0179
:104660006D817E818F8198850E94C9306D837E83A4
:104670008F83988729AD3AAD4BAD5CADC301B201D4
:104680000E940E339B01AC016D817E818F819885E4
:104690000E94C8306D837E838F83988729853A85F1
:1046A0004B855C8569966CAD7DAD8EAD9FAD699790
:1046B0000E940E3329893A894B895C890E940E3306
:1046C0009B01AC016D817E818F8198850E94C930EC
:1046D0006D837E838F8398872DA13EA14FA158A51E
:1046E000C301B2010E940E339B01AC016D817E813A
:1046F0008F8198850E94C8306D837E838F839887D1
:1047000029A93AA94BA95CA9C301B2010E940E33A1
:104710009B01AC016D817E818F8198850E94C9309B
:104720006D837E838F8398879B01AC010E94C93083
:1047300061966CAF7DAF8EAF9FAF61972DA93EA9FB
:104740004FA958ADCA01B9010E94C93069A77AA71B
:104750008BA79CA7298D3A8D4B8D5C8D6D857E85B1
:104760008F8598890E940E339B01AC0169A57AA5BB
:104770008BA59CA50E94C83069A77AA78BA79CA788
:10478000A1962CAD3DAD4EAD5FADA19725966CAD1C
:104790007DAD8EAD9FAD25970E940E339B01AC0180
:1047A00069A57AA58BA59CA50E94C83025966CAFFB
:1047B0007DAF8EAF9FAF259721962CAD3DAD4EAD11
:1047C0005FAD2197CA01B9010E94C93069A77AA7D4
:1047D0008BA79CA729893A894B895C8969966CAD1E
:1047E0007DAD8EAD9FAD69970E940E339B01AC01EC
:1047F00069A57AA58BA59CA50E94C93069A77AA74F
:104800008BA79CA7A1962CAD3DAD4EAD5FADA197FA
:1048100029966CAD7DAD8EAD9FAD29970E940E336C
:104820009B01AC0169A57AA58BA59CA50E94C83007
:1048300029966CAF7DAF8EAF9FAF2997298D3A8DAA
:104840004B8D5C8D6D817E818F8198850E940E33AA
:104850006D966CAF7DAF8EAF9FAF6D972DA13EA1D2
:104860004FA158A560E070E080E09FE30E94C8304F
:1048700029A93AA94BA95CA90E94C8309B01AC01A7
:1048800069817A818B819C810E940E3369AB7AABFE
:104890008BAB9CABAD962CAD3DAD4EAD5FADAD974A
:1048A0006DA97EA98FA998AD0E94C8309B01AC016B
:1048B0006D817E818F8198850E940E339B01AC01B2
:1048C00069A97AA98BA99CA90E94C9302D893E8922
:1048D0004F89588D0E94C8306D8B7E8B8F8B988F3F
:1048E00029813A814B815C81505829A73AA74BA76F
:1048F0005CA729A13AA14BA15CA16D817E818F812A
:1049000098850E940E336D8F7E8F8F8F98A3298D8F
:104910003A8D4B8D5C8D69A17AA18BA19CA10E94DF
:104920000E3369AB7AAB8BAB9CAB29893A894B8947
:104930005C896DA57EA58FA598A90E940E339B0169
:10494000AC0169A97AA98BA99CA90E94C8309B01D6
:10495000AC0169817A818B819C810E940E3369ABA5
:104960007AAB8BAB9CAB29893A894B895C89698D81
:104970007A8D8B8D9C8D0E940E339B01AC0121960C
:104980006CAD7DAD8EAD9FAD21970E94C9309B016E
:10499000AC016D817E818F8198850E940E339B01D1
:1049A000AC0169A97AA98BA99CA90E94C930298563
:1049B0003A854B855C850E94C83069877A878B87EA
:1049C0009C87298D3A8D4B8D5C8D69817A818B8195
:1049D0009C810E940E3321966CAF7DAF8EAF9FAF4E
:1049E00021972DA93EA94FA958ADAD966CAD7DADCF
:1049F0008EAD9FADAD970E94C9309B01AC0169811E
:104A00007A818B819C810E940E336DAB7EAB8FAB24
:104A100098AF29AD3AAD4BAD5CAD60E070E080E0A1
:104A20009FE30E94C8302DA13EA14FA158A50E942E
:104A3000C8309B01AC016D817E818F8198850E9479
:104A40000E339B01AC016DA97EA98FA998AD0E9480
:104A5000C930A30192010E94C8306DAB7EAB8FAB11
:104A600098AF69966CAD7DAD8EAD9FAD699790584E
:104A700025962CAD3DAD4EAD5FAD25970E940E3312
:104A80002B013C0129962CAD3DAD4EAD5FAD299774
:104A900065966CAD7DAD8EAD9FAD65970E940E3372
:104AA0009B01AC01C301B2010E94C9302B013C0142
:104AB0002D893E894F89588D6D966CAD7DAD8EAD3B
:104AC0009FAD6D970E940E339B01AC01C301B201F3
:104AD0000E94C8302B013C0129893A894B895C89A5
:104AE00069A57AA58BA59CA50E940E332D8D3E8DC0
:104AF0004F8D58A10E94C93029853A854B855C8528
:104B00000E940E339B01AC01C301B2010E94C93067
:104B10002B013C012DA93EA94FA958AD21966CADA2
:104B20007DAD8EAD9FAD21970E940E339B01AC01F0
:104B3000C301B2010E94C93069AB7AAB8BAB9CABAD
:104B400029AD3AAD4BAD5CADCA01B9010E94C93087
:104B50009B01AC0160E070E080E89FE30E94C830F8
:104B60002B013C012DA13EA14FA158A5CA01B901BD
:104B70000E94C9309B01AC01C301B2010E94C83040
:104B80002B013C01A1962CAD3DAD4EAD5FADA19783
:104B9000C801B7010E940E339B01AC01C301B201F1
:104BA0000E94C8302B013C0129893A894B895C89D4
:104BB0006D817E818F8198850E940E3369AF7AAFB7
:104BC0008BAF9CAF2DA53EA54FA558A96D817E81C9
:104BD0008F8198850E940E332D966CAF7DAF8EAF7E
:104BE0009FAF2D9725962CAD3DAD4EAD5FAD259772
:104BF000A9966CAD7DAD8EAD9FADA9970E940E3389
:104C00006D837E838F83988729962CAD3DAD4EAD05
:104C10005FAD29976D857E858F8598890E940E33BB
:104C20009B01AC016D817E818F8198850E94C93086
:104C30006D837E838F83988720E030E040E850E4E6
:104C400069A17AA18BA19CA10E940E33A3019201BC
:104C50000E940E339B01AC016D817E818F8198850E
:104C60000E94C8306D837E838F8398872D893E890B
:104C70004F89588D69AD7AAD8BAD9CAD0E940E33D6
:104C80009B01AC016D817E818F8198850E94C93026
:104C90006D837E838F8398872D962CAD3DAD4EAD71
:104CA0005FAD2D9721966CAD7DAD8EAD9FAD2197FB
:104CB0000E94C93029853A854B855C850E940E3358
:104CC0009B01AC016D817E818F8198850E94C930E6
:104CD0006D837E838F83988729893A894B895C8984
:104CE00069817A818B819C810E940E336DA37EA3A2
:104CF0008FA398A729A13AA14BA15CA161966CADA5
:104D00007DAD8EAD9FAD61970E940E339B01AC01CE
:104D10006DA17EA18FA198A50E94C8302DA93EA9A2
:104D20004FA958AD0E940E339B01AC016D817E816D
:104D30008F8198850E94C9306DA37EA38FA398A709
:104D400029813A814B815C81CA01B9010E94C93035
:104D50009B01AC0150582D833E834F83588729A176
:104D60003AA14BA15CA169817A818B819C810E94CF
:104D70000E3321966CAF7DAF8EAF9FAF21976D85BF
:104D80007E858F859889905825962CAD3DAD4EAD8A
:104D90005FAD25970E940E336D877E878F87988B36
:104DA00029962CAD3DAD4EAD5FAD2997A9966CAD62
:104DB0007DAD8EAD9FADA9970E940E339B01AC01D6
:104DC0006D857E858F8598890E94C9306D877E8725
:104DD0008F87988B20E030E040E850E4698D7A8D31
:104DE0008B8D9C8D0E940E33A30192010E940E3385
:104DF0009B01AC016D857E858F8598890E94C830A6
:104E00002B013C01298D3A8D4B8D5C8D6D817E810E
:104E10008F8198850E940E332D962CAD3DAD4EAD01
:104E20005FAD2D970E94C8302D893E894F89588DDE
:104E30000E940E339B01AC01C301B2010E94C93034
:104E40002B013C0129AD3AAD4BAD5CAD21966CAD6B
:104E50007DAD8EAD9FAD21970E94C93029853A85E1
:104E60004B855C850E940E339B01AC01C301B201EE
:104E70000E94C9306D877E878F87988B2DA53EA5B0
:104E80004FA558A969817A818B819C810E940E333C
:104E90002B013C01298D3A8D4B8D5C8D61966CAD5B
:104EA0007DAD8EAD9FAD61970E940E339B01AC012D
:104EB000C301B2010E94C8302DA93EA94FA958AD27
:104EC0000E940E339B01AC016D857E858F8598898C
:104ED0000E94C9302B013C0125962CAD3DAD4EAD55
:104EE0005FAD259765966CAD7DAD8EAD9FAD659739
:104EF0000E940E3369837A838B839C8329962CAD21
:104F00003DAD4EAD5FAD299769966CAD7DAD8EAD73
:104F10009FAD69970E940E339B01AC0169817A8134
:104F20008B819C810E94C93069837A838B839C83A7
:104F300029893A894B895C896D817E818F81988529
:104F40000E940E332D8D3E8D4F8D58A10E94C93089
:104F50002D893E894F89588D0E940E339B01AC01EB
:104F600069817A818B819C810E94C93069837A83AF
:104F70008B839C832DA53EA54FA558A969A57AA52D
:104F80008BA59CA50E940E336D962CAD3DAD4EAD0C
:104F90005FAD6D970E94C93029853A854B855C8548
:104FA0000E940E339B01AC0169817A818B819C81C7
:104FB0000E94C93069837A838B839C832DA93EA983
:104FC0004FA958AD21966CAD7DAD8EAD9FAD2197AB
:104FD0000E940E339B01AC0169817A818B819C8197
:104FE0000E94C93069877A878B879C8729A93AA94B
:104FF0004BA95CA9CA01B9010E940E3369837A8367
:105000008B839C832DA13EA14FA158A5CA01B90154
:105010000E940E339B01AC0169817A818B819C8156
:105020000E94C93069837A838B839C83A301920198
:10503000C301B2010E940E339B01AC0169817A81E8
:105040008B819C810E94C93069837A838B839C8386
:1050500029853A854B855C85CA01B9010E940E33CA
:105060009B01AC0169817A818B819C810E94C9304E
:105070000E947B339B01AC0160E070E080E89FE31D
:105080000E9493316D837E838F8398878091EE0198
:105090009091EF01A091F001B091F10189839A8381
:1050A000AB83BC8369A17AA18BA19CA19058A60176
:1050B00095010E940E336D8B7E8B8F8B988FC1581C
:1050C000DF4F288139814A815B81CF57D040698D7C
:1050D0007A8D8B8D9C8D0E940E339B01AC016D8966
:1050E0007E898F89988D0E94C8306D8B7E8B8F8BC7
:1050F000988FCD57DF4F288139814A815B81C35812
:10510000D04069897A898B899C890E940E339B01E2
:10511000AC016D897E898F89988D0E94C83020E00E
:1051200030E040E05FE30E940E336D8B7E8B8F8B0F
:10513000988F2D813E814F81588569A97AA98BA9C5
:105140009CA90E940E332DE037EC4AE15FE30E94F8
:105150000E339B01AC016D897E898F89988D0E94E9
:10516000C83029813A814B815C810E940E339B01BA
:10517000AC016DA57EA58FA598A90E94C9306D8B45
:105180007E8B8F8B988FA60195016DA57EA58FA52F
:1051900098A90E940E336D877E878F87988BCD5795
:1051A000DF4F288139814A815B81C358D040698DA6
:1051B0007A8D8B8D9C8D0E940E339B01AC016D8589
:1051C0007E858F8598890E94C9306D877E878F87FD
:1051D000988BC158DF4F288139814A815B81CF5735
:1051E000D04069897A898B899C890E940E339B0102
:1051F000AC016D857E858F8598890E94C83020E03E
:1052000030E040E05FE30E940E336D877E878F873A
:10521000988B2D813E814F8158856DA17EA18FA1F4
:1052200098A50E940E332DE037EC4AE15FE30E941F
:105230000E339B01AC016D857E858F8598890E9418
:10524000C83029813A814B815C810E940E339B01D9
:10525000AC0169A17AA18BA19CA10E94C9306DA368
:105260007EA38FA398A7C158DF4F288139814A8137
:105270005B81CF57D0406DA57EA58FA598A90E94D0
:105280000E336D877E878F87988BCD57DF4F2881B0
:1052900039814A815B81C358D04069A17AA18BA131
:1052A0009CA10E940E339B01AC016D857E858F858C
:1052B00098890E94C8306D877E878F87988BA6015A
:1052C000950169897A898B899C890E940E339B019B
:1052D000AC016D857E858F8598890E94C93020E05C
:1052E00030E040E05FE30E940E336D877E878F875A
:1052F000988B2D813E814F815885C301B2010E9458
:105300000E332DE037EC4AE15FE30E940E339B0140
:10531000AC016D857E858F8598890E94C830298172
:105320003A814B815C810E940E339B01AC01698DF7
:105330007A8D8B8D9C8D0E94C9302B013C01CD57FD
:10534000DF4F288139814A815B81C358D0406DA5E8
:105350007EA58FA598A90E940E336DA77EA78FA763
:1053600098ABC158DF4F288139814A815B81CF5783
:10537000D04069A17AA18BA19CA10E940E339B0110
:10538000AC016DA57EA58FA598A90E94C93069A31F
:105390007AA38BA39CA3A6019501698D7A8D8B8D31
:1053A0009C8D0E940E339B01AC0169A17AA18BA157
:1053B0009CA10E94C83020E030E040E05FE30E9402
:1053C0000E336B017C012D813E814F8158856985AB
:1053D0007A858B859C850E940E332DE037EC4AE15F
:1053E0005FE30E940E339B01AC01C701B6010E942E
:1053F000C83029813A814B815C810E940E339B0128
:10540000AC0169897A898B899C890E94C9304B01DA
:105410005C012D893E894F89588DCA01B9010E94CE
:105420000E336B017C012DA13EA14FA158A5CA01ED
:10543000B9010E940E339B01AC01C701B6010E9465
:10544000C9306B017C01A3019201C301B2010E942A
:105450000E339B01AC01C701B6010E94C9306B013C
:105460007C01A5019401C501B4010E940E339B018A
:10547000AC01C701B6010E94C9300E947B339B0179
:10548000AC0160E070E080E89FE30E9493316B0123
:105490007C019B01AC016D897E898F89988D0E946A
:1054A0000E3360932C0170932D0180932E01909305
:1054B0002F01A70196016DA17EA18FA198A50E9441
:1054C0000E336093300170933101809332019093D9
:1054D0003301A7019601C301B2010E940E3360930C
:1054E0003401709335018093360190933701A70101
:1054F0009601C501B4010E940E3360933801709388
:10550000390180933A0190933B01C459DF4F0FB6A4
:10551000F894DEBF0FBECDBFDF91CF911F910F91E9
:10552000FF90EF90DF90CF90BF90AF909F908F90C3
:105530007F906F905F904F9008958F929F92AF925F
:10554000BF92CF92DF92EF92FF920F931F9383E06F
:105550000E94E72BBC01882777FD8095982F0E9439
:105560002E322AE038E240EA5BE30E940E332DE55A
:1055700034E741EB50E40E940E33AB01BC01409391
:105580003702509338026093390270933A0208EB65
:1055900017E624EA3CE38BE392E00E943107809116
:1055A0009E028823B9F1C0903B02D0903C02E0906B
:1055B0003D02F0903E0220E030E048EC52E4C701AA
:1055C000B6010E940E334B015C0160919C02709108
:1055D0009D0280E090E00E942C329B01AC01C5014D
:1055E000B4010E9403331816E4F460919A0270919A
:1055F0009B0280E090E00E942C322AE037ED43E2EB
:105600005CE30E940E33A70196010E9493316B0167
:105610007C010AC0C12CD12C40E8E42E4FE3F42ECB
:1056200003C0C12CD12C760180916402882331F013
:105630006091A50270E080E090E007C06091980260
:10564000772767FD7095872F972F0E942E32A7012D
:1056500096010E940E330E94003270936A0260939A
:1056600069024FEF50E060E070E080916902909134
:105670006A020E94230690936A02809369028091D5
:105680006302882331F06091A60270E080E090E030
:1056900007C060919902772767FD7095872F972F34
:1056A0000E942E32A70196010E940E330E94003202
:1056B00070936802609367024FEF50E060E070E023
:1056C00080916702909168020E942306909368027D
:1056D000809367021F910F91FF90EF90DF90CF9022
:1056E000BF90AF909F908F9008950C94C5360C9406
:1056F000CD3608950F931F93CF93DF93E62FF0E0FD
:10570000E55AFC4FDF01AB5ABF4F0C91AB5ABF4F6C
:105710001C91282F30E0E901CC0FDD1FC20FD31FF1
:10572000C25CDE4F688180810E947C056981802F88
:105730000E947C056A81812FDF91CF911F910F918B
:105740000C947C050F931F93CF93DF930BE513E02D
:10575000C0E0D0E0BE01882777FD8095982F0E9499
:105760002E329B01AC010E94C93020E030E040E8BD
:105770005BE30E940E332BED3FE049E450E40E94CE
:105780000E330E94713320E030E04EEF52E40E946D
:105790000E330E94FB31F80161938F012196C115F0
:1057A000F1E0DF07B9F6DF91CF911F910F910895D6
:1057B0000C94A22B40E050E060E080E00E947A2B45
:1057C00040E050E060E080E00C947A2B08959091E6
:1057D0007C00907F90937C0090917C00982B90931C
:1057E0007C0080917A00806480937A0080917A00B6
:1057F00086FDFCCF80917800909179000895809388
:105800006D021F928F9385E395E09F938F9380E4C1
:1058100095E09F938F930E94F5040F900F900F9047
:105820000F900F900F9008958FEF9BE20E944D0410
:1058300082E195E09F938F93C0E4D5E0DF93CF930F
:105840000E94F50481E095E09F938F93DF93CF93BF
:105850000E94F5040E94B00383EF94E09F938F931E
:10586000DF93CF930E94F5040E944205789485EE61
:1058700094E09F938F93C0E4D5E0DF93CF930E9491
:10588000F5040E94D82B0E94DA2B80ED94E09F93C0
:105890008F93DF93CF930E94F5040E94BB138BEA92
:1058A00094E09F938F93DF93CF930E94F5040E941F
:1058B0008D088DE994E09F938F93DF93CF930E949F
:1058C000F5040E94EF0B87E894E09F938F93DF939A
:1058D000CF930E94F5048DB79EB780960FB6F894CB
:1058E0009EBF0FBE8DBF0E94F10B8823E9F186E7B2
:1058F00094E09F938F93DF93CF930E94F5040F90D2
:105900000F900F900F908091A7028823C9F181E535
:1059100094E09F938F93DF93CF930E94F5040E94AE
:105920009A088091AD028F938091AC028F93809101
:10593000AB028F938091AA028F938091A9028F93DB
:105940008091A8028F938BE294E09F938F93DF93D3
:10595000CF930E94F5048DB79EB70E960FB6F894BC
:105960009EBF0FBE8DBF0CC088E194E09F938F93C4
:10597000DF93CF930E94F5040F900F900F900F903C
:105980008BEF93E09F938F93C0E4D5E0DF93CF93A9
:105990000E94F5040E94200A8CEE93E09F938F935F
:1059A000DF93CF930E94F5040E94870A8BED93E06A
:1059B0009F938F93DF93CF930E94F5040E94241648
:1059C00081EC93E09F938F93DF93CF930E94F50434
:1059D0008DB79EB740960FB6F8949EBF0FBE8DBF91
:1059E0000E94351CFDCFCF93DF9345E153E063E583
:1059F00073E08DE193E00E941D0C8CEA93E09F938D
:105A00008F93C0E4D5E0DF93CF930E94F50480919B
:105A10001E038F9380911D038F9388EA93E09F93D9
:105A20008F93DF93CF930E94F504809154038F935B
:105A3000809153038F9384EA93E09F938F93DF9336
:105A4000CF930E94F504809116038F9380911503E4
:105A50008F9380EA93E09F938F93DF93CF930E947D
:105A6000F5048DE993E09F938F93DF93CF930E948A
:105A7000F5048FEF90E722E0815090402040E1F75D
:105A800000C000008DB79EB74A960FB6F8949EBF2F
:105A90000FBE8DBFDF91CF910895A3E1B0E0E3E5A4
:105AA000FDE20C9471347C011B016A01FC01178238
:105AB0001682838181FF66C3BE016F5F7F4F4B01FA
:105AC000F7019381F10193FD859193FF81911F016E
:105AD000882309F453C3853239F493FD859193FFEC
