:100000000C9443030C9460030C9460030C94600301
:100010000C9460030C9460030C9460030C946003D4
:100020000C9460030C9460030C9460030C946003C4
:100030000C9460030C94C3050C9495030C9460031A
:100040000C9460030C9460030C9487040C9460037C
:100050000C9460030C9460030C9460030C94600394
:100060000C94AC120C946003036EDB363D9A9999A4
:10007000993DABAAAA2A3E000000803F084AD73B20
:100080003BCE016E84BCBFFDC12F3D6C74319ABD67
:1000900056833DDA3D00C77F11BED9E4BB4C3E918B
:1000A0006BAAAABE000000803F072C7AA5BA6CC5D7
:1000B00090DA3B9365FC8BBC53F810FD3C56928361
:1000C0004DBD879D3AB63DCBC9BF5BBE73DA0FC944
:1000D0003F05A84CCDB2D44EB93836A9020C50B960
:1000E000918688083CA6AAAA2ABE000000803F008C
:1000F00048454C4C4F20574F524C440D0A0030316C
:10010000323334353637383941424344454600644A
:10011000656275673A2000636F6E6669672E67795E
:10012000726F5F6F66667365745B782C792C7A5D8D
:100130003A20256C6409256C6409256C640D0A005D
:100140007570646174696E67206779726F2063618E
:100150006C6962726174696F6E206F666673657434
:10016000732E2E2E0D0A006779726F2063616C6901
:1001700062726174696F6E206661696C65642C20BF
:100180007265747279696E672E2E2E0D0A00693DB4
:10019000256420636F756E7465723D256420646903
:1001A00066663D2564206779726F5B695D3D2564F5
:1001B0002C20707265765F6779726F5B695D3D2593
:1001C000640D0A006779726F3A20007365745F737B
:1001D0006C6565705F656E61626C65643A2066612E
:1001E000696C65640D0A007365745F736C65657096
:1001F0005F656E61626C65643A20737563636573F5
:10020000730D0A007365745F66756C6C5F73636170
:100210006C655F616363656C5F72616E67653A20F0
:100220006661696C65640D0A007365745F66756C60
:100230006C5F7363616C655F616363656C5F726162
:100240006E67653A20737563636573730D0A007397
:1002500065745F66756C6C5F7363616C655F67790D
:10026000726F5F72616E67653A206661696C656482
:100270000D0A007365745F66756C6C5F7363616C07
:10028000655F6779726F5F72616E67653A2073753B
:1002900063636573730D0A007365745F636C6F63EA
:1002A0006B5F736F757263653A206661696C656434
:1002B0000D0A007365745F636C6F636B5F736F75BA
:1002C0007263653A20737563636573730D0A002961
:1002D0000D0A006D7075363035305F746573743A91
:1002E00020283078006D7075363035303A20000D9A
:1002F0000A0025660025663A0025663A0025663A1A
:100300000025663A0025663A0025643A0025643ADD
:100310000025643A0025663A0025663A0025663ACB
:100320000025663A0025663A0025663A00726F6C31
:100330006C2F70697463682F7961773A2025663A6B
:1003400025663A25660D0A00726F6C6C2F70697411
:1003500063683A2025663A25660D0A0047494D5FD5
:100360004552524F520D0A0047494D5F4C4F434B87
:1003700045440D0A0047494D5F554E4C4F434B4590
:10038000440D0A0047494D5F49444C450D0A00722F
:100390006F6C6C2F70697463683A2025643A256429
:1003A0000D0A00656E7465725F73746174653A203E
:1003B00047494D5F49444C450D0A00656E746572AE
:1003C0005F7461736B3A20524541444143430D0AC7
:1003D0000067696D62616C3A20000D0A00256409AE
:1003E000002564090025640900616363656C65721A
:1003F0006174696F6E20782F792F7A3A09007374CF
:10040000617274696E672067696D62616C206C6FE0
:100410006F702E2E2E0D0A0067696D62616C5F6928
:100420006E69742E2E2E0D0A00696E69745F7069F4
:1004300064732E2E2E0D0A00696E69745F73656EEB
:10044000736F725F6F7269656E746174696F6E2E1F
:100450002E2E0D0A00696D75207465737420666117
:10046000696C6564210D0A00636F6E6669672E67AB
:1004700079726F5F6F66667365745B782C792C7A1E
:100480005D3A2025642025642025640D0A007275DC
:100490006E6E696E67206779726F206F666673652E
:1004A000742063616C6962726174696F6E2E2E2EA6
:1004B0000D0A00696D752074657374207061737323
:1004C0002E0D0A0072756E6E696E6720696D75205B
:1004D000746573742E2E2E0D0A00696D755F696E3A
:1004E00069742E2E2E0D0A00696E697469616C693B
:1004F0007A696E67207265736F6C7574696F6E20B0
:10050000646976696465722E2E2E0D0A006A6F6921
:100510006E696E6720693263206275732E2E2E0D10
:100520000A00626C635F696E69742E2E2E0D0A00DC
:1005300070776D5F696E69742E2E2E0D0A00636FE1
:100540006E6669675F696E69742E2E2E0D0A000D46
:100550000A0D0A62727573686C6573732067696D42
:1005600062616C207374617274696E672E2E2E0D39
:100570000A00696E7075743D25630D0A006D61692E
:100580006E3A20006E616E00696E660000407A105F
:10059000F35A00A0724E18090010A5D4E80000E834
:1005A0007648170000E40B54020000CA9A3B000092
:1005B00000E1F505000080969800000040420F0021
:1005C0000000A08601000000102700000000E803E2
:1005D000000000006400000000000A0000000000AD
:1005E0000100000000002C76D888DC674F0823DF6C
:1005F000C1DFAE59E1B1B796E5E3E453C63AE6513F
:10060000997696E8E6C28426EB898C9B62ED407C65
:100610006FFCEFBC9C9F40F2BAA56FA5F490055A01
:100620002AF75C936B6CF9676DC11BFCE0E40D4726
:10063000FEF520E6B500D0ED902E03009435770549
:100640000080841E080000204E0A000000C80C3301
:100650003333330F986E12831141EF8D2114893B90
:10066000E65516CFFEE6DB18D1844B381BF77C1D10
:10067000901DA4BBE424203284725E228100C9F163
:1006800024ECA1E53D2711241FBECFEFD8E0DEBF4B
:10069000CDBF11E0A0E0B1E0E6E1F4E702C00590D3
:1006A0000D92A434B107D9F724E0A4E4B1E001C06D
:1006B0001D92A735B207E1F70E94C62D0C94093AA6
:1006C0000C94000084B5826084BD8DE787BD85B53C
:1006D000836085BD82E080936E00089560916A0218
:1006E00070916B0280916C0290916D0208950F934E
:1006F0001F9300916A0210916B0220916C0230915D
:100700006D02600F711F821F931F00916A0210918A
:100710006B0220916C0230916D02601771078207A5
:10072000930798F71F910F9108951F920F920FB69C
:100730000F9211248F939F93AF93BF9380916A027E
:1007400090916B02A0916C02B0916D020196A11D77
:10075000B11D80936A0290936B02A0936C02B093D8
:100760006D02BF91AF919F918F910F900FBE0F902F
:100770001F90189580916A0290916B02A0916C0273
:10078000B0916D020196A11DB11D80936A029093F4
:100790006B02A0936C02B0936D02089580E29EE418
:1007A000A0E0B0E08093720290937302A093740271
:1007B000B093750240E157E260E070E0409376024A
:1007C00050937702609378027093790240E45CE979
:1007D00060E070E040937A0250937B0260937C0269
:1007E00070937D0280937E0290937F02A09380029B
:1007F000B093810280E49FE1A0E0B0E080938202A8
:1008000090938302A0938402B093850280E395E7DE
:10081000A0E0B0E08093860290938702A0938802C4
:10082000B093890287E090E090938B0280938A02D4
:1008300010928D0210928C0210928F0210928E02F2
:1008400021E0209390028FEF809391021092920208
:100850002093930230E5309394023093950280E226
:1008600093E0909397028093960288E592E09093AC
:1008700099028093980210929A0220939B022093EF
:100880009C0220939D0210929E0210929F02109251
:10089000A0023093A1023093A2022093A3020895F4
:1008A000CF93C091B0026EE382E792E00E94E3072B
:1008B000C81739F06EE382E792E00E94E307809365
:1008C000B002CF9108956EE382E792E00E94E307C1
:1008D0008093B00208951092C50023E32093C400D2
:1008E000E1ECF0E0208120682083208128612083D2
:1008F000E2ECF0E02081266020839093B4028093A4
:10090000B30260E070E08FEC94E00C94BF371F926C
:100910000F920FB60F9211242F933F934F935F9333
:100920006F937F938F939F93AF93BF93EF93FF93B7
:100930008091C600E091B302F091B402309709F0C3
:100940000995FF91EF91BF91AF919F918F917F9109
:100950006F915F914F913F912F910F900FBE0F902C
:100960001F9018959093B4028093B30208959093CA
:10097000B2028093B1020895FC018191882339F07D
:100980009091C00095FFFCCF8093C600F6CF0895EC
:100990009091C00095FFFCCF8093C6000895CF933F
:1009A000C82F0E94C804E091B102F091B2023097C2
:1009B00011F08C2F099580E090E0CF910895E82FF9
:1009C000E295EF70F0E0E250FF4FE4919091C000AB
:1009D00095FFFCCFE093C6008F70E82FF0E0E25067
:1009E000FF4FE4918091C00085FFFCCFE093C600EB
:1009F0000895EF92FF920F931F93CF93DF938C0193
:100A00007B01EC01CE01801B910B8E159F0524F418
:100A100089910E94DF04F6CFDF91CF911F910F9152
:100A2000FF90EF900895CF93DF93CDB7DEB7AE017F
:100A3000475F5F4F6F81788580914F04909150049C
:100A40000E943C38DF91CF91089580EF90E09F9312
:100A50008F938FE091E09F938F930E9413050F90E7
:100A60000F900F900F9093E48091C00085FD03C01C
:100A70009093C600F9CF2FEF84E39CE02150804093
:100A80009040E1F700C0000080E58093C6002FEFA2
:100A900084E39CE0215080409040E1F700C00000DA
:100AA00088E48093C6002FEF84E39CE021508040CF
:100AB0009040E1F700C0000008958093460108953A
:100AC000539A559A569A219A229A239A91EA94BD5A
:100AD00081E085BD90938000809381009093B00069
:100AE0008093B100EFE6F0E0808181608083EEE6E4
:100AF000F0E0808181708083789480910B0187BDC4
:100B000080910A0188BD8091060190E09093890050
:100B1000809388008091070190E090938B008093F0
:100B20008A00809108018093B3008091090180932D
:100B3000B4000895611103C080930B0108956130E2
:100B400019F480930A010895623019F48093090121
:100B50000895633019F4809308010895643019F4FE
:100B6000809307010895653011F48093060108957C
:100B700080914401909145018F719927892B11F43F
:100B80000C94BA0308951F920F920FB60F9211247E
:100B90002F933F934F935F936F937F938F939F9385
:100BA000AF93BF93EF93FF938091440190914501E0
:100BB0000196909345018093440180914401909166
:100BC00045018038924019F5109245011092440178
:100BD00080910B0187BD80910A0188BD809106013B
:100BE00090E090938900809388008091070190E0C5
:100BF00090938B0080938A00809108018093B300CA
:100C0000809109018093B40081E0809367020E9483
:100C1000B805FF91EF91BF91AF919F918F917F9117
:100C20006F915F914F913F912F910F900FBE0F9059
:100C30001F90189580914601882321F080914601EC
:100C400010924601089588E08AB98EE084B98091B7
:100C500010018093B9028093B5028093BA02809309
:100C6000B6028093BB028093B7028093BC0280934C
:100C7000B80281E085BB80936E0085BD089508951C
:100C80000895681779072CF4481759071CF4CA010E
:100C90000895CB010895681779072CF44817590770
:100CA0001CF4CA010895CB010895EF92FF920F93AF
:100CB0001F93261737074807590744F4E616F70627
:100CC000080719072CF4C801B70102C0CA01B9010D
:100CD0001F910F91FF90EF9008954F925F926F9246
:100CE0007F928F929F92AF92BF92CF92DF92EF92BC
:100CF000FF926B017C014B015C01E894B7F82BED8E
:100D00003FE049E45FE30E9403352B013C0120E012
:100D100030E040E85FE3C501B4010E947A329B01F4
:100D2000AC01C701B6010E9403356B017C012BE4C5
:100D300038EC47E85DE3C501B4010E94033523EABE
:100D400032E94AE75EE30E947B329B01AC01C701B6
:100D5000B6010E9403359B01AC01C301B2010E94A0
:100D60007A32FF90EF90DF90CF90BF90AF909F903E
:100D70008F907F906F905F904F9008958F929F9289
:100D8000AF92BF92CF92DF92EF92FF92CF93DF9319
:100D90004B015C0169017A019F775F77D1E00E9486
:100DA000F83418160CF0D0E020E030E0A901C501BD
:100DB000B4010E94F83487FD0AC0C1E020E030E0B1
:100DC000A901C701B6010E94583318160CF4C0E0FF
:100DD00020E030E0A901C501B4010E945833181683
:100DE00094F020E030E0A901C701B6010E94583319
:100DF0001816ECF520E030E0A901C701B6010E9409
:100E0000F83487FFC3E0DD2329F0A5019401C70171
:100E1000B60104C0A7019601C501B4010E945C336C
:100E20000E946D06DD2381F09B01AC01C23039F0D8
:100E3000C33029F06BED7FE089EC9FE315C06BEDCB
:100E40007FE089EC9FEB10C0C13039F0C23089F4EB
:100E50002BED3FE049E450E407C02BED3FE049E4CF
:100E600050E40E947B3205C00E947A3202C0C2E088
:100E7000C1CFDF91CF91FF90EF90DF90CF90BF90E7
:100E8000AF909F908F9008950E94BE0627EC3FEC94
:100E90004FE557E40E9403350E94C93308958F92AD
:100EA0009F92AF92BF92CF92DF92EF92FF920F93F9
:100EB0001F93CF93DF93EC01CB01BA014801590195
:100EC000C880D980EA80FB80A70196010E947A320F
:100ED000A50194010E9403359B01AC01C701B60135
:100EE0000E947B32688379838A839B83DF91CF91D1
:100EF0001F910F91FF90EF90DF90CF90BF90AF9038
:100F00009F908F9008958F929F92AF92BF92CF92B1
:100F1000DF92EF92FF920F931F93CF93DF93EC0139
:100F2000CB01BA016801790188849984AA84BB84C1
:100F3000A50194010E947A32A70196010E9403350F
:100F40009B01AC01C501B4010E947B32688779879F
:100F50008A879B878C809D80AE80BF80A50194018D
:100F60000E947A32A70196010E9403359B01AC01D1
:100F7000C501B4010E947B326C837D838E839F8385
:100F800088809980AA80BB80A50194010E947A3252
:100F9000A70196010E9403359B01AC01C501B40174
:100FA0000E947B32688379838A839B83DF91CF9110
:100FB0001F910F91FF90EF90DF90CF90BF90AF9077
:100FC0009F908F900895282FFC0180E09E2F921B08
:100FD000961738F49191892798E0880F9150E9F796
:100FE000F5CF08954F925F926F927F928F929F926A
:100FF000AF92BF92CF92DF92EF92FF920F931F9327
:10100000CF93DF9300D000D0CDB7DEB72B013C01EA
:1010100029833A834B835C83F401AE18BF08C00A6E
:10102000D10AAD8DBE8DA60195010E944D369B0162
:10103000AC01C301B2010E94FF35613629E7720796
:101040002EEF82072FEF920764F0603A36E87307BD
:1010500031E08307910554F080EA96E8A1E0B0E022
:1010600007C080E699E7AEEFBFEF02C0DC01CB011D
:10107000E080F18002811381E80EF91E0A1F1B1F18
:10108000E082F18202831383298D3A8D4B8D5C8D32
:10109000C601B5010E94FF352B013C014E0C5F1CBF
:1010A000601E711EEF89F88D80819181A281B381CC
:1010B000A6019501281B390B4A0B5B0BCA01B9012C
:1010C0002F8D38A149A15AA10E94FF359B01AC0187
:1010D00069817A818B819C810E94FF35460E571E63
:1010E000681E791EA082B182C282D382C301B2017E
:1010F00020E030E840E050E00E942336CA01B90108
:101100000F900F900F900F90DF91CF911F910F9143
:10111000FF90EF90DF90CF90BF90AF909F908F9017
:101120007F906F905F904F900895FC012081FB01AC
:101130003081FC013083FB0120830895FC01208174
:101140003181FB0140815181FC0151834083FB01CE
:1011500031832083089580E090E0A3E0B3E480939E
:101160006E0290936F02A0937002B0937102089583
:101170002F923F925F926F927F928F929F92AF9247
:10118000BF92CF92DF92EF92FF920F931F93CF9374
:10119000DF93CDB7DEB768970FB6F894DEBF0FBE0A
:1011A000CDBF0E94C20C60ED77E080E090E00E942D
:1011B00077037E0143E1E40EF11C00EA1FE0512CAD
:1011C00084EC282E81E0382E003A8FE0180781F059
:1011D000AE014F5E5F4FBE01615F7F4FCE010D9646
:1011E0000E94390CFE013D96D70180E090E02DC0B1
:1011F0006CEB72E080E090E00E947703AE014F5EFE
:101200005F4FBE01615F7F4FCE010D960E94390C8A
:1012100019821A821B821C828D859E859C8B8B8BEA
:101220001D821E821F8218868F8598899E8B8D8BCA
:1012300019861A861B861C8689899A89988F8F8BB6
:10124000C7CF01968330910561F1B82EA92E6D911B
:101250007D91819091909B0128193909690137FF8F
:1012600004C0CC24DD24C21AD30A41E4C416D1043C
:1012700044F353947F936F939F928F923F932F9356
:101280001F930F93AF92BF92AEE8B1E0BF93AF93BD
:101290003F922F920E9413050FB6F894DEBF0FBE47
:1012A000CDBFDE0111965D013701FE013D966F0154
:1012B000D6018D909D906D01B401882777FD8095B2
:1012C000982F0E94F73320E030E04AE755E40E946F
:1012D0005C339B01AC01F501608171818281938156
:1012E0000E947B32D5016D937D938D939D935D011B
:1012F000F301819291923F01CE14DF04C9F60150AF
:10130000110915147CF487E691E09F938F9384EC88
:1013100091E09F938F930E9413050F900F900F9071
:101320000F904BCF0115110509F04ECF69817A81DD
:101330008B819C810E94C4337093A5026093A402A8
:101340006D817E818F8198850E94C4337093A7023E
:101350006093A60269857A858B859C850E94C4333B
:101360007093A9026093A80280E491E09F938F9309
:1013700004EC11E01F930F930E9413058091A902C2
:101380008F938091A8028F938091A7028F93809171
:10139000A6028F938091A5028F938091A4028F93D0
:1013A00087E191E09F938F931F930F930E94130502
:1013B0000E940D0C0FB6F894DEBF0FBECDBF68962D
:1013C0000FB6F894DEBF0FBECDBFDF91CF911F9156
:1013D0000F91FF90EF90DF90CF90BF90AF909F90D4
:1013E0008F907F906F905F903F902F900895CF9354
:1013F000DF9300D000D000D0CDB7DEB764EF71E04E
:1014000080E090E00E947703AE014B5F5F4FBE012A
:101410006D5F7F4FCE0101960E943B0C62E070E051
:1014200080E090E0EFCF1092110191E090931401D1
:1014300082E08093170190931A0110921D0180930E
:10144000200181E090E090931301809312012FEF2F
:101450003FEF30931601209315019093190180936B
:10146000180190931C0180931B0190931F0180939E
:101470001E01909322018093210108950E94130A76
:1014800080919D02882361F1809121019091220138
:1014900091958195910990932201809321018091EA
:1014A0001B0190911C0191958195910990931C01CC
:1014B00080931B0180911501909116019195819562
:1014C00091099093160180931501809118019091D4
:1014D00019019195819591099093190180931801B3
:1014E00080919E02882381F18091110190911401D5
:1014F0009093110180931401809112019091130136
:10150000209115013091160130931301209312019F
:10151000909316018093150180911A0190911D01FD
:1015200090931A0180931D0180911B0190911C01E1
:1015300020911E0130911F0130931C0120931B014B
:1015400090931F0180931E0108954F925F926F92B6
:101550007F928F929F92AF92BF92CF92DF92EF9243
:10156000FF9260917E0270917F0280918002909143
:1015700081022AE0422E512C612C712CA301920190
:101580000E9423362093350330933603409337036C
:10159000509338036091820270918302809184029B
:1015A0009091850238EE832E33E0932EA12CB12C3E
:1015B000A50194010E9423362093390330933A0306
:1015C00040933B0350933C036091860270918702E5
:1015D000809188029091890244ECC42E49E0D42E77
:1015E000E12CF12CA70196010E94233620933D03A4
:1015F00030933E0340933F03509340036091720247
:10160000709173028091740290917502A30192010E
:101610000E94233620931D0330931E0340931F0323
:101620005093200360917602709177028091780246
:1016300090917902A50194010E9423362093210301
:1016400030932203409323035093240360917A0242
:1016500070917B0280917C0290917D02A70196019E
:101660000E942336209325033093260340932703BB
:1016700050932803FF90EF90DF90CF90BF90AF90F2
:101680009F908F907F906F905F904F900895EF9212
:10169000FF920F931F93CF93DF93CDB7DEB72C97B5
:1016A0000FB6F894DEBF0FBECDBF8E01095F1F4F8E
:1016B000AE01455F5F4FBE01675F7F4FC8010E946B
:1016C0003B0C80911A01FE013196E80FF11DE80FE5
:1016D000F11D8F8198852091AA023091AB02821B67
:1016E000930B9183808380911D01FE013196E80F59
:1016F000F11DE80FF11D89859A852091AC0230918A
:10170000AD02821B930B9183808380912001FE01A7
:101710003196E80FF11DE80FF11D8B859C85209116
:10172000AE023091AF02821B930B91838083CE0176
:1017300001967C01ABE1B1E084E691E0F7016191B3
:1017400071917F014D915C911197649F9001659F0C
:10175000300D749F300D1124FC0121933193CF0182
:101760001396E016F10651F72C960FB6F894DEBFEB
:101770000FBECDBFDF91CF911F910F91FF90EF90E2
:101780000895CF92DF92EF92FF920F931F93CF9322
:10179000DF93C4E6D1E008E511E0C12CD12C76013D
:1017A00069917991882777FD8095982F0E94F7336A
:1017B000F80161937193819391938F019B01AC0127
:1017C0000E9403359B01AC01C701B6010E947B3228
:1017D0006B017C01F1E0CA36DF0711F720E030E051
:1017E00048EC52E40E94033520E030E040E851E349
:1017F0000E940335AB01BC010DEC1CEC2CEC3CE36E
:1018000084E591E00E944F07DF91CF911F910F91E6
:10181000FF90EF90DF90CF9008950C94540F0C94AC
:101820008F0FEF92FF920F931F930E94C10F1F9192
:101830000F91FF90EF9008958F929F92AF92BF9279
:10184000CF92DF92EF92FF920F931F93CF93DF938C
:10185000CDB7DEB70E943B10DF91CF911F910F9162
:10186000FF90EF90DF90CF90BF90AF909F908F90C0
:1018700008950C94B5100C9406110C945711CF9345
:10188000DF9300D000D000D0CDB7DEB7AE014B5F04
:101890005F4FBE016D5F7F4FCE0101960E94B51074
:1018A00089819A812091A4023091A502821B930B19
:1018B0009A8389838B819C812091A6023091A70213
:1018C000821B930B9C838B838D819E812091A80228
:1018D0003091A902821B930B9E838D83809111010D
:1018E000FE013196E80FF11DE80FF11D4081518195
:1018F0002091120130911301429FC001439F900D2E
:10190000529F900D112490936B0180936A018091F6
:101910001401FE013196E80FF11DE80FF11D408121
:1019200051812091150130911601429FC001439FC2
:10193000900D529F900D112490936D0180936C0136
:1019400080911701FE013196E80FF11DE80FF11D9E
:10195000408151812091180130911901429FC001AD
:10196000439F900D529F900D112490936F0180938F
:101970006E0126960FB6F894DEBF0FBECDBFDF9185
:10198000CF91089586E00C94AA102F923F924F9227
:101990005F926F927F928F929F92AF92BF92CF92FF
:1019A000DF92EF92FF920F931F93CF93DF9300D0BC
:1019B00000D0CDB7DEB78C011B01FC018080918087
:1019C000A280B380C480D580E680F78040845184B3
:1019D00062847384FB012081318142815381C5017E
:1019E000B4010E94033569837A838B839C83F10160
:1019F0002481358146815781C701B6010E94033594
:101A00009B01AC0169817A818B819C810E947B3230
:101A10009B01AC01C301B2010E947A32F8016087D8
:101A2000718782879387F1012081318142815381BF
:101A3000C301B2010E94033569837A838B839C833F
:101A4000F1012085318542855385C701B6010E9489
:101A500003359B01AC0169817A818B819C810E9455
:101A60007A329B01AC01C501B4010E947B32F801BE
:101A70006083718382839383F10124813581468160
:101A80005781C301B2010E9403352B013C01F101D2
:101A90002085318542855385C501B4010E940335F7
:101AA0009B01AC01C301B2010E947B329B01AC01DE
:101AB000C701B6010E947B32F80164837583868377
:101AC00097830F900F900F900F90DF91CF911F9100
:101AD0000F91FF90EF90DF90CF90BF90AF909F90CD
:101AE0008F907F906F905F904F903F902F900895D0
:101AF0008F929F92AF92BF92CF92DF92EF92FF921E
:101B00000F931F93CF93DF93CDB7DEB72C970FB60C
:101B1000F894DEBF0FBECDBFC0907001D0907101B0
:101B2000E0907201F09073018AE6A82E81E0B82E51
:101B30008E010F5F1F4F4801F501619171915F01A7
:101B4000882777FD8095982F0E94F733A70196018B
:101B50000E940335F80161937193819391938F01F2
:101B6000F0E7AF16F1E0BF0639F7B4018DEB92E074
:101B70000E94C50C2C960FB6F894DEBF0FBECDBFE9
:101B8000DF91CF911F910F91FF90EF90DF90CF9059
:101B9000BF90AF909F908F9008952F923F924F9259
:101BA0005F926F927F928F929F92AF92BF92CF92ED
:101BB000DF92EF92FF920F931F93CF93DF9300D0AA
:101BC00000D0CDB7DEB7C0905401D0905501E09061
:101BD0005601F090570120E030E040E152E4C701A7
:101BE000B6010E94F834181654F420E030E044E4C2
:101BF00053E4C701B6010E94583387FD05C08091A8
:101C00005301882309F443C0C0904F01D090500184
:101C1000E0905101F0905201A701960160E070E060
:101C200080E89FE30E947A322B013C0108E511E035
:101C30009DEB292E92E0392EF80181909190A19090
:101C4000B1908F01F1012081318142815381C30123
:101C5000B2010E94033569837A838B839C83A70139
:101C60009601C501B4010E9403359B01AC01698155
:101C70007A818B819C810E947B32F1016193719307
:101C8000819391931F01F1E004361F07A9F60F908D
:101C90000F900F900F90DF91CF911F910F91FF90B8
:101CA000EF90DF90CF90BF90AF909F908F907F90FC
:101CB0006F905F904F903F902F9008954F925F925A
:101CC0006F927F928F929F92AF92BF92CF92DF924C
:101CD000EF92FF920F931F93CF93DF9380908E022A
:101CE00090908F02AA2497FCA094BA2CC5ECD2E065
:101CF000688179818A819B8101EC12E0F801C080C2
:101D0000D180E280F3809B01AC010E9403352B015E
:101D10003C01A7019601C701B6010E9403359B0152
:101D2000AC01C301B2010E947B320E9470359B015D
:101D3000AC016091BD027091BE028091BF02909192
:101D4000C0020E944407680D791D8A1D9B1D609387
:101D50004701709348018093490190934A01C090D4
:101D60008C02D0908D02EE24D7FCE094FE2C2881CA
:101D700039814A815B81F80160817181828193811F
:101D80000E9444076C0D7D1D8E1D9F1D60934B01AD
:101D900070934C0180934D0190934E01DF91CF9150
:101DA0001F910F91FF90EF90DF90CF90BF90AF9079
:101DB0009F908F907F906F905F904F9008950F93BA
:101DC000082F23E042E06BE6809125010E94631515
:101DD000882319F083EB92E002C088E992E09F9398
:101DE0008F9385EE92E09F938F930E9413050F903F
:101DF0000F900F900F900F9108950F93082F22E0EE
:101E000044E06BE1809125010E946315882319F05D
:101E100083E792E002C08FE492E09F938F9385EE78
:101E200092E09F938F930E9413050F900F900F9055
:101E30000F900F9108950F93082F22E044E06CE17A
:101E4000809125010E946315882319F089E292E0B0
:101E500002C084E092E09F938F9385EE92E09F937F
:101E60008F930E9413050F900F900F900F900F917A
:101E70000895282F46E06BE6809125010E943015D9
:101E8000882319F087EE91E002C08BEC91E09F93DC
:101E90008F9385EE92E09F938F930E9413050F908E
:101EA0000F900F900F90089581E00E94DF0E80E068
:101EB0000E94FD0E80E00E941B0F80E00C94390F01
:101EC000EF92FF920F931F93CF93DF93CDB7DEB7BF
:101ED0002E970FB6F894DEBF0FBECDBF8E010F5FF9
:101EE0001F4F8EE0F80111928A95E9F788EEE82EEF
:101EF00083E0F82E26E046E065E7809125010E9408
:101F0000CE1589812E960FB6F894DEBF0FBECDBFD9
:101F1000DF91CF911F910F91FF90EF9008950F9354
:101F20001F93CF93DF931F92CDB7DEB70E94600F50
:101F3000898383ED92E09F938F9305EE12E01F93C8
:101F40000F930E94130561E070E0CE0101960E949C
:101F5000F9048FEC92E09F938F931F930F930E944D
:101F6000130581E00FB6F894DEBF0FBECDBF998197
:101F7000943309F080E00F90DF91CF911F910F9182
:101F800008954F925F926F927F928F929F92AF923D
:101F9000BF92CF92DF92EF92FF920F931F93CF9356
:101FA000DF93CDB7DEB72E970FB6F894DEBF0FBE26
:101FB000CDBF6C015B012A01390148019E012F5FF1
:101FC0003F4F8EE0F90111928A95E9F708EE13E090
:101FD0004EE06BE3809125010E948014898190E09E
:101FE000982F88272A81822BF601918380838B8109
:101FF00090E0982F88272C81822BF5019183808394
:102000008D8190E0982F88272E81822BF201918379
:102010008083898590E0982F88272A85822BF30179
:10202000918380838B8590E0982F88272C85822B45
:10203000F401918380838D8590E0982F88272E85E9
:10204000822BF701918380832E960FB6F894DEBF22
:102050000FBECDBFDF91CF911F910F91FF90EF90F9
:10206000DF90CF90BF90AF909F908F907F906F90B8
:102070005F904F9008956F927F928F929F92AF9250
:10208000BF92CF92DF92EF92FF920F931F93CF9365
:10209000DF93CDB7DEB72E970FB6F894DEBF0FBE35
:1020A000CDBFFE013196AEE01192AA95E9F70E94EC
:1020B000C10F42E067E3809125010E9420158FE166
:1020C0009EE40197F1F700C0000041E06AE08CE077
:1020D0000E942015EFE1FEE43197F1F700C0000007
:1020E00008EE13E09E012F5F3F4F46E063E08CE077
:1020F0000E9480148A8190E0982F88272981822B62
:10210000F601918380838C8190E0982F88272B8122
:10211000822BF501918380838E8190E0982F882710
:102120002D81822BF401918380832E960FB6F89433
:10213000DEBF0FBECDBFDF91CF911F910F91FF90FA
:10214000EF90DF90CF90BF90AF909F908F907F9057
:102150006F9008950F93082F23E042E06AE1809189
:1021600025010E9463150F910895AF92BF92CF92FF
:10217000DF92EF92FF920F931F93CF93DF93CDB730
:10218000DEB72E970FB6F894DEBF0FBECDBF5C0151
:102190006B017A019E012F5F3F4F8EE0F901119292
:1021A0008A95E9F708EE13E046E063E480912501A3
:1021B0000E948014298130E0322F22278A81282B27
:1021C000F501318320838B8190E0982F88272C8123
:1021D000822BF601918380838D8190E0982F882750
:1021E0002E81822BF701918380832E960FB6F8946F
:1021F000DEBF0FBECDBFDF91CF911F910F91FF903A
:10220000EF90DF90CF90BF90AF900895AF92BF92C4
:10221000CF92DF92EF92FF920F931F93CF93DF93B2
:10222000CDB7DEB72E970FB6F894DEBF0FBECDBF89
:102230005C016B017A019E012F5F3F4F8EE0F90137
:1022400011928A95E9F708EE13E046E06BE380917E
:1022500025010E948014298130E0322F22278A81B3
:10226000282BF501318320838B8190E0982F8827DC
:102270002C81822BF601918380838D8190E0982FB1
:1022800088272E81822BF701918380832E960FB6AB
:10229000F894DEBF0FBECDBFDF91CF911F910F919C
:1022A000FF90EF90DF90CF90BF90AF900895AF92E6
:1022B000BF92CF92DF92EF92FF920F931F93CF9333
:1022C000DF93CDB7DEB72E970FB6F894DEBF0FBE03
:1022D000CDBF7C015B016A01FE0131968EE0DF011A
:1022E0001D928A95E9F742E067E3809125010E94FB
:1022F0002015EFE1FEE43197F1F700C0000041E066
:102300006AE08CE00E9420158FE19EE40197F1F7CE
:1023100000C0000008EE13E09E012F5F3F4F46E033
:1023200063E08CE00E9480142A8130E0322F222763
:102330008981282BD7012D933C938C8190E0982F95
:1023400088272B81822BF501918380838E8190E0F9
:10235000982F88272D81822BD6018D939C932E96C2
:102360000FB6F894DEBF0FBECDBFDF91CF911F91A6
:102370000F91FF90EF90DF90CF90BF90AF900895B6
:102380001092E10181E08093DF011092DE01E9EB20
:10239000F0E080818E7F808380818D7F808380E2EA
:1023A0008093B80085E48093BC000895880F8093E3
:1023B000BA000895413208F03FC09091E1019111B7
:1023C000FCCF91E09093E1012093DF012FEF209368
:1023D00074011092B901240F2093B8019093E00189
:1023E0009091E001880F892B8093E0018091DE01BC
:1023F000813041F41092DE018091E0018093BB00B6
:1024000085EC01C085EE8093BC008091E1018130B4
:10241000E1F38091B901841710F44091B9012AEBDE
:1024200031E0FB01D9018A2F821B841718F48D91AA
:102430008193F9CF842F089580E008950F9341325E
:1024400008F046C09091E1019111FCCF92E0909389
:10245000E1010093DF019FEF909374011092B901A5
:102460004093B801FB016AEB71E0DB019A2F961BE8
:10247000941718F491919D93F9CF1092E0019091E7
:10248000E001880F892B8093E0018091DE0181308B
:1024900041F41092DE018091E0018093BB0085EC55
:1024A00001C085EE8093BC00222321F08091E101E0
:1024B0008230E1F3809174018F3F61F0809174016B
:1024C000803251F080917401803341F483E007C081
:1024D00081E005C080E003C082E001C084E00F918C
:1024E0000895613298F42091E101243089F46093D9
:1024F0009601FC0188E991E0DC012A2F281B2617B0
:1025000018F421912D93F9CF80E0089581E008958A
:1025100082E008959093DB018093DA01089590930F
:10252000DD018093DC010895882311F085EC01C062
:1025300085E88093BC00089585ED8093BC00809170
:10254000BC0084FDFCCF1092E101089585EC8093DE
:10255000BC001092E10108951F920F920FB60F92E6
:1025600011242F933F934F935F936F937F938F9398
:102570009F93AF93BF93EF93FF938091B900887FB0
:10258000803609F49CC068F5883209F45BC090F489
:10259000803109F454C038F4882309F4F5C0883038
:1025A00009F44DC0F5C0883109F44CC0803209F4FB
:1025B0005DC0EEC0803409F468C048F4803309F48B
:1025C00055C0883309F0E4C080937401A8C08035F9
:1025D00009F44FC0883509F45DC0883409F0D8C0CB
:1025E000D5C0883909F4C6C0A8F4883709F467C093
:1025F00038F4883609F463C0803709F460C0C8C075
:10260000883809F4B7C0803909F45FC0803809F010
:10261000BFC05BC0803B09F485C038F4803A09F440
:1026200066C0883A09F47EC0B3C0803C09F4A6C0F5
:10263000883C09F4A3C0883B09F489C0A9C08091F3
:10264000E00110C09091B9018091B801981770F520
:10265000E091B90181E08E0F8093B901F0E0E6547A
:10266000FE4F80818093BB0085EC85C08093740110
:102670008DC0E091B90181E08E0F8093B901809106
:10268000BB00F0E0E654FE4F80839091B901809149
:10269000B8016DC0E091B90181E08E0F8093B9015E
:1026A0008091BB00F0E0E654FE4F80838091DF0113
:1026B00081116CC081E08093DE0184EA60C083E018
:1026C0008093E10110927501CFCF80917501803226
:1026D00008F050C0E091750181E08E0F8093750184
:1026E0008091BB00F0E0EA58FE4F8083BDCF80911F
:1026F0007501803230F4E0917501F0E0EA58FE4F48
:1027000010820E949C126091750170E0E091DA01E4
:10271000F091DB0186E791E00995109275010E9426
:10272000A61236C084E08093E101109297011092C6
:102730009601E091DC01F091DD010995809196010F
:10274000811105C081E08093960110929801E0917B
:10275000970181E08E0F80939701F0E0E856FE4FDD
:1027600080818093BB00909197018091960198178A
:1027700008F47ACF85E88093BC000AC085EC80938A
:10278000BC001092E10104C0109274010E949C12DE
:10279000FF91EF91BF91AF919F918F917F916F9139
:1027A0005F914F913F912F910F900FBE0F901F900F
:1027B00018951092E7011092E6011092E401109230
:1027C000E3010C94C0110E94D6110C94D91391E02E
:1027D0009093E2018093E5011092E4011092E301ED
:1027E0000895242F462F613208F040E269EC72E030
:1027F0000E94DA111092E7018093E60108950F9389
:10280000082F21E04091E30169EE72E08091E5013B
:102810000E941E121092E4011092E3011092E20154
:102820000F910895CF93DF931F92CDB7DEB78983C1
:102830008091E201882391F08091E3018032B0F42D
:102840008091E401E82FF0E0E751FD4F99819083FA
:102850008F5F8093E4018093E30105C061E0CE01C6
:1028600001960E94711281E090E002C080E090E049
:102870000F90DF91CF910895EF92FF920F931F93E6
:10288000CF93DF938B012091E201222359F0EC01D9
:102890007C01E60EF71ECE15DF0531F089910E940E
:1028A0001214F9CF0E947112C801DF91CF911F91CC
:1028B0000F91FF90EF9008958091E6019091E701CC
:1028C000891B08959091E7018091E601981748F4DB
:1028D000E92FF0E0E753FD4F80819F5F9093E70180
:1028E00008958FEF0895E091E7018091E601E817E0
:1028F00028F4F0E0E753FD4F808108958FEF0895AD
:102900005F926F927F928F929F92AF92BF92CF927F
:10291000DF92EF92FF920F931F93CF93DF93682E76
:10292000562E942EE9010E946E036B017C01C00EAD
:10293000D11EE11CF11C812C712CA92CB12C891405
:1029400080F5862D0E94E713852D0E94121481E0E8
:102950000E94FF13C5018819910980971CF4692D05
:10296000681901C060E241E0862D0E94F1130E94C7
:102970005C14882379F08E01070D111D0E946214EA
:10298000F801808373940E946E03C616D706E8068A
:10299000F90668F7892DF0E2F91508F480E2880E4F
:1029A000CECF872DDF91CF911F910F91FF90EF90A8
:1029B000DF90CF90BF90AF909F908F907F906F905F
:1029C0005F9008950F931F9389019A0141E00E943F
:1029D00080141F910F910895EF92FF920F931F9310
:1029E000CF93DF9300D01F92CDB7DEB7142F2A8389
:1029F0003B8369830E94E7136981862F0E9412142A
:102A00002A81022FE22E3B81F32E8E2D801B81170F
:102A100030F4F70181917F010E941214F6CF81E01A
:102A20000E94FF1391E0811190E0892F0F900F9089
:102A30000F90DF91CF911F910F91FF90EF9008952C
:102A4000CF93DF931F92CDB7DEB749839E012F5FEF
:102A50003F4F41E00E94EC140F90DF91CF91089519
:102A6000EF92FF920F931F93CF93DF931F92CDB7F7
:102A7000DEB7182F062FF42EE22E2091260130917A
:102A80002701AE014F5F5F4F0E94E214898121E070
:102A900030E00F2C01C0220F0A94EAF7EE2019F063
:102AA000482F422B03C0422F409548234983602F73
:102AB000812F0E9420150F90DF91CF911F910F91D0
:102AC000FF90EF900895DF92EF92FF920F931F9384
:102AD000CF93DF931F92CDB7DEB7F82EE62ED42E1C
:102AE000122F2091260130912701AE014F5F5F4FD9
:102AF0000E94E214882319F14D2D50E0411B510929
:102B00004F5F5F4FE1E0F0E002C0EE0FFF1F1A954C
:102B1000E2F73197042E01C0EE0F0A94EAF701C0E4
:102B2000000F4A95EAF74E2F409589814823E0230C
:102B30004E2B49836E2D8F2D0E94201501C080E001
:102B40000F90DF91CF911F910F91FF90EF90DF9049
:102B50000895DF92EF92FF920F931F93CF93DF932D
:102B60001F92CDB7DEB7D42E79019801AE014F5F29
:102B70005F4F0E94E21461E070E001C0660FDA94DA
:102B8000EAF799819623F70190830F90DF91CF9117
:102B90001F910F91FF90EF90DF900895CF92DF92F9
:102BA000EF92FF920F931F93CF93DF931F92CDB7B6
:102BB000DEB7C42ED22E9701AE014F5F5F4F0E9449
:102BC000E2148823F1F04C2D50E04D1951094F5F6C
:102BD0005F4F61E070E002C0660F771FDA94E2F7A2
:102BE00061507109042E01C0660F0A94EAF7298129
:102BF000262330E002C0359527954A95E2F7F80183
:102C000020830F90DF91CF911F910F91FF90EF9054
:102C1000DF90CF900895CF92DF92EF92FF926B01F9
:102C20007C010E946E036C0D7D1D8E1D9F1D6093A7
:102C30002E0270932F028093300290933102FF9006
:102C4000EF90DF90CF900895BC01882777FD8095A5
:102C5000982F0E94F7332EEB37E346E05BE30E94A8
:102C60007B329B01AC016EEB77E386E09BE30E9435
:102C70005C3360934F0170935001809351019093A6
:102C800052010895CF93DF9320916E0230916F022D
:102C9000409170025091710260E070E080E89FE323
:102CA0000E945C3320E030E044E353E40E945C3354
:102CB0002BED3FE049E450E40E9403352EEB37E36F
:102CC00046E05BE30E9403356093700170937101ED
:102CD000809372019093730180918A0290918B028C
:102CE0000E94241680E090E0A0E8BDE480935401A7
:102CF00090935501A0935601B09357011092BD02D5
:102D00001092BE021092BF021092C0021092C10235
:102D10001092C2021092C3021092C40280E090E0AE
:102D2000A0E8B6E48093C5029093C602A093C702C0
:102D3000B093C8028BEB93E09F938F93C1EDD3E0E8
:102D4000DF93CF930E94130583EA93E09F938F93C1
:102D5000DF93CF930E9413051092320281E080939B
:102D600039018DB79EB708960FB6F8949EBF0FBE77
:102D70008DBF68EE73E080E090E0DF91CF910C941E
:102D80000B168F929F92AF92BF92CF92DF92EF92EB
:102D9000FF920F931F930E946E0300912A021091DD
:102DA0002B0220912C0230912D02601771078207AF
:102DB000930708F431C20E946E03665F7F4F8F4F06
:102DC0009F4F60932A0270932B0280932C02909362
:102DD0002D0280916702882309F41EC210926702B7
:102DE0000E943F0C80919B0281110E94780D80917E
:102DF0009C0281110E94CD0D0E945E0E0E946E0306
:102E00000091260210912702209128023091290278
:102E10006017710782079307C0F180914E018F936D
:102E200080914D018F9380914C018F9380914B0144
:102E30008F9380914A018F93809149018F93809164
:102E400048018F93809147018F938FE893E09F9380
:102E50008F9381ED93E09F938F930E9413050E94BF
:102E60006E036C597F4F8F4F9F4F60932602709374
:102E7000270280932802909329028DB79EB70C9663
:102E80000FB6F8949EBF0FBE8DBF80916002811176
:102E90006AC020E030E04AE754E460914302709158
:102EA000440280914502909146020E9403350E949F
:102EB000C433E0904B01F0904C0100914D01109112
:102EC0004E01209128032F93209127032F932091C7
:102ED00026032F93209125032F93209122032F93D4
:102EE000209121032F93209120032F9320911F03E2
:102EF0002F9320911E032F9320911D032F9323E5E1
:102F000032E03F932F933BE5832E32E0932E5B011B
:102F10006C0124EF31E040E050E062E070E080E0DE
:102F200090E00E94F2076093290370932A03809334
:102F30002B0390932C0340919002552747FD509509
:102F4000469F9001479F300D569F300D11243093BE
:102F50003E0220933D028DB79EB70C960FB6F894B3
:102F60009EBF0FBE8DBF80915F0281116AC020E0BD
:102F700030E04AE754E460913F0270914002809152
:102F80004102909142020E9403350E94C433E090B6
:102F90004701F09048010091490110914A012091A8
:102FA00040032F9320913F032F9320913E032F93B3
:102FB00020913D032F9320913A032F9320913903C1
:102FC0002F93209138032F93209137032F93209133
:102FD00036032F93209135032F932FE432E03F9354
:102FE0002F9327E5822E22E0922E5B016C0124EFC5
:102FF00031E040E050E062E070E080E090E00E946C
:10300000F2076093090370930A0380930B03909374
:103010000C0340919102552747FD5095469F900122
:10302000479F300D569F300D112430933C02209362
:103030003B028DB79EB70C960FB6F8949EBF0FBE9D
:103040008DBF809168028823A1F040916502509164
:10305000660260913D02809192020E942C2D409167
:1030600063025091640260913B02809193020E943E
:103070002C2D80913202882329F0813029F40E947E
:10308000C10B02C00E94470B809132028F5F8330D8
:1030900019F08093320202C010923202209139015D
:1030A000332727FD30958091E90190E028173907F3
:1030B00021F081E08093E80102C01092E801809144
:1030C00039018093E90180913901823009F454C0BB
:1030D0001CF48130D1F097C0833009F47DC0843076
:1030E00009F091C08CE593E09F938F9381ED93E07D
:1030F0009F938F930E941305109268020E948C2D5B
:103100000F900F900F900F907EC08091E801882360
:1031100071F084E893E09F938F9381ED93E09F9308
:103120008F930E9413050F900F900F900F901092A5
:10313000680281E0809353010E946E0300912E0289
:1031400010912F02209130023091310260177107E7
:103150008207930708F457C068EE73E080E090E0C0
:103160000E940B1682E08093390168E873E180E0E9
:1031700090E00E940B1647C08091E801882371F00F
:1031800085E793E09F938F9381ED93E09F938F93D7
:103190000E9413050F900F900F900F9081E0809385
:1031A0006802809353010E946E0300912E021091D9
:1031B0002F0220913002309131026017710782078F
:1031C000930708F168EE73E080E090E00E940B1630
:1031D00083E08093390117C08091E801882371F062
:1031E00088E693E09F938F9381ED93E09F938F9375
:1031F0000E9413050F900F900F900F9081E0809325
:10320000680210925301809132028F5F80933202E4
:10321000833011F4109232021F910F91FF90EF90C2
:10322000DF90CF90BF90AF909F908F9008954F9276
:103230005F926F927F928F929F92AF92BF92CF9246
:10324000DF92EF92FF92CF93DF93CDB7DEB7609717
:103250000FB6F894DEBF0FBECDBF0E946E03C090C4
:103260002A02D0902B02E0902C02F0902D026C15D7
:103270007D058E059F0508F41EC10E946E03665FE2
:103280007F4F8F4F9F4F60932A0270932B02809342
:103290002C0290932D0219861A861B861C861D828D
:1032A0001E821F82188619821A821B821C82AE011E
:1032B0004F5F5F4FBE016B5F7F4FCE0109960E944B
:1032C0003B0C20E030E040E05FE369857A858B8548
:1032D0009C850E9403356B017C0120E030E040E0DA
:1032E0005FE3609122027091230280912402909109
:1032F00025020E9403359B01AC01C701B6010E9463
:103300007B322B013C016093220270932302809355
:1033100024029093250220E030E040E05FE36D81DD
:103320007E818F8198850E9403356B017C0120E0AE
:1033300030E040E05FE360911E0270911F028091D7
:103340002002909121020E9403359B01AC01C7012C
:10335000B6010E947B324B015C0160931E027093A8
:103360001F02809320029093210220E030E040E091
:103370005FE369817A818B819C810E9403356B01B7
:103380007C0120E030E040E05FE360911A02709140
:103390001B0280911C0290911D020E9403359B012B
:1033A000AC01C701B6010E947B326B017C016093C6
:1033B0001A0270931B0280931C0290931D02C50198
:1033C000B4019058A70196010E9405336D877E874E
:1033D0008F87988BA5019401C501B4010E94033524
:1033E0004B015C01A7019601C701B6010E9403359C
:1033F0009B01AC01C501B4010E947B320E94703573
:103400009B01AC01C301B2010E9405336B017C0139
:103410000E946E038090260290902702A0902802BE
:10342000B0902902681579058A059B0508F443C008
:1034300020E030E044E353E4C701B6010E940335C5
:103440002BED3FE049E450E40E945C339F938F935F
:103450007F936F9320E030E044E353E46D857E85F5
:103460008F8598890E9403352BED3FE049E450E4B5
:103470000E945C339F938F937F936F9388E493E0D4
:103480009F938F9381ED93E09F938F930E941305F9
:103490000E946E036C597F4F8F4F9F4F609326029F
:1034A0007093270280932802909329020FB6F89414
:1034B000DEBF0FBECDBF60960FB6F894DEBF0FBE65
:1034C000CDBFDF91CF91FF90EF90DF90CF90BF9075
:1034D000AF909F908F907F906F905F904F900895E6
:1034E0002F923F924F925F926F927F928F929F9214
:1034F000AF92BF92CF92DF92EF92FF920F931F9302
:10350000CF93DF93CDB7DEB760970FB6F894DEBFE9
:103510000FBECDBF0E946E0300912A0210912B02B4
:1035200020912C0230912D026017710782079307BA
:1035300008F435C10E946E030E94F53320E030E0AC
:1035400040EF51E40E947B320E94C93360932A020B
:1035500070932B0280932C0290932D020E946E0395
:103560001C861B861A86198618861F821E821D825B
:103570001C821B821A821982AE01495F5F4FBE0115
:10358000675F7F4FCE010B960E943B0CAE014F5FF1
:103590005F4FBE016D5F7F4FCE0105960E94390CD3
:1035A00009851A858F819885889F4001899F900C95
:1035B000900C1124009FB001019F700D700D11241B
:1035C000680D791D882777FD8095982F0E94F73325
:1035D0000E9470359B01AC01AB84BC84B501882787
:1035E00077FD8095982F2D873E874F87588B0E94B7
:1035F000F7332D853E854F8558890E9405336B0131
:103600007C01AA9CB001AB9C700D700D1124680D5B
:10361000791D882777FD8095982F0E94F7330E94A7
:1036200070359B01AC01B801882777FD8095982FF4
:103630002D873E874F87588B0E94F7332D853E8517
:103640004F8558890E9405332B013C0169817A819D
:10365000882777FD8095982F0E94F73320E030E08F
:103660004AE753E40E94033520E030E040E058E3AD
:103670000E940335162F072F382E292E6D817E814B
:10368000882777FD8095982F0E94F73320E030E05F
:103690004AE753E40E94033520E030E040E058E37D
:1036A0000E9403352FE832EC45E75FE30E940335C3
:1036B0004B015C0120E030E044E353E4C301B2017C
:1036C0000E9403352BED3FE049E450E40E945C3357
:1036D0002AE037ED43E25DE30E9403359B01AC0134
:1036E000C501B4010E947B32762E672E582E492EDA
:1036F0006B817C81882777FD8095982F0E94F73316
:1037000020E030E04AE753E40E94033520E030E057
:1037100040E058E30E9403352FE832EC45E75FE3D1
:103720000E9403354B015C0120E030E044E353E4A8
:10373000C701B6010E9403352BED3FE049E450E498
:103740000E945C332AE037ED43E25DE30E940335DB
:103750009B01AC01C501B4010E947B32F62EE72E1D
:10376000D82EC92E0E946E032F923F920F931F9363
:10377000CF92DF92EF92FF924F925F926F927F9281
:103780008DE293E09F938F9381ED93E09F938F93CE
:103790000E9413050FB6F894DEBF0FBECDBF609632
:1037A0000FB6F894DEBF0FBECDBFDF91CF911F9152
:1037B0000F91FF90EF90DF90CF90BF90AF909F90D0
:1037C0008F907F906F905F904F903F902F900895D3
:1037D000CF93DF9320E030E04AE754E4609119038F
:1037E00070911A0380911B0390911C030E94033572
:1037F0009F938F937F936F9389E293E09F938F932F
:10380000C1EDD3E0DF93CF930E94130520E030E0B9
:103810004AE754E460914503709146038091470361
:10382000909148030E9403359F938F937F936F93EA
:1038300085E293E09F938F93DF93CF930E941305CC
:1038400020E030E04AE754E46091110370911203E4
:1038500080911303909114030E9403359F938F93DB
:103860007F936F9381E293E09F938F93DF93CF9346
:103870000E941305809144038F93809143038F939B
:10388000809142038F93809141038F938DE193E068
:103890009F938F93DF93CF930E9413058DB79EB7AD
:1038A00080960FB6F8949EBF0FBE8DBF8091100317
:1038B0008F9380910F038F9380910E038F9380914C
:1038C0000D038F9389E193E09F938F93DF93CF93C1
:1038D0000E941305809130038F9380912F038F9363
:1038E00080912E038F9380912D038F9385E193E038
:1038F0009F938F93DF93CF930E94130560914903A9
:1039000070914A0380914B0390914C030E94C43301
:103910007F936F9381E193E09F938F93DF93CF9396
:103920000E9413056091150370911603809117038F
:10393000909118030E94C4337F936F938DE093E0BE
:103940009F938F93DF93CF930E9413056091310370
:103950007091320380913303909134030E94C433F9
:103960007F936F9389E093E09F938F93DF93CF933F
:103970000E9413058DB79EB782960FB6F8949EBF2E
:103980000FBE8DBFECE2F1E083818F9382818F9334
:1039900081818F9380818F9385E093E09F938F93B4
:1039A000DF93CF930E941305E0E3F1E083818F93CF
:1039B00082818F9381818F9380818F9381E093E0C7
:1039C0009F938F93DF93CF930E941305E4E3F1E07D
:1039D00083818F9382818F9381818F9380818F9355
:1039E0008DEF92E09F938F93DF93CF930E94130507
:1039F0008091FD018F938091FC018F938091FB0159
:103A00008F938091FA018F9389EF92E09F938F9328
:103A1000DF93CF930E9413058DB79EB780960FB6A4
:103A2000F8949EBF0FBE8DBF809101028F9380914D
:103A300000028F938091FF018F938091FE018F93FD
:103A400085EF92E09F938F93DF93CF930E941305AE
:103A50008091F9018F938091F8018F938091F70104
:103A60008F938091F6018F9382EF92E09F938F93D3
:103A7000DF93CF930E9413058FEE92E09F938F9375
:103A8000DF93CF930E9413058DB79EB744960FB670
:103A9000F8949EBF0FBE8DBFDF91CF9108954F92D6
:103AA0005F926F927F928F929F92AF92BF92CF92CE
:103AB000DF92EF92FF920F931F93CF93DF93CDB7D7
:103AC000DEB7CC56D1090FB6F894DEBF0FBECDBF1E
:103AD00025966CAF7DAF8EAF9FAF259729962CAF03
:103AE0003DAF4EAF5FAF29972D96ECAEFDAE0EAF5A
:103AF0001FAF2D97209128013091290140912A0173
:103B000050912B012DA73EA74FA758AB80912C01B8
:103B100090912D01A0912E01B0912F0189A39AA31C
:103B2000ABA3BCA32091300130913101409132010F
:103B300050913301298F3A8F4B8F5C8F80913401E4
:103B400090913501A0913601B0913701898B9A8B04
:103B5000AB8BBC8B25962CAD3DAD4EAD5FAD2597A7
:103B6000CA01B9010E9403352B013C0129962CADF5
:103B70003DAD4EAD5FAD2997CA01B9010E94033535
:103B80009B01AC01C301B2010E947B322B013C01BD
:103B9000A8019701C801B7010E9403359B01AC0140
:103BA000C301B2010E947B320E9470352B013C019F
:103BB00020E030E0A9010E945833882311F40C94CE
:103BC0007628C957DF4F288139814A815B81C758E0
:103BD000D040CA01B9010E94033569877A878B8773
:103BE0009C87C557DF4F288139814A815B81CB583B
:103BF000D040CA01B9010E9403359B01AC0169851F
:103C00007A858B859C850E947B3269877A878B8732
:103C10009C87C157DF4F288139814A815B81CF580A
:103C2000D040CA01B9010E9403359B01AC016985EE
:103C30007A858B859C850E947B320E9470356987CE
:103C40007A878B879C8720E030E0A9010E94583357
:103C5000882311F40C9476282DA53EA54FA558A9CC
:103C6000CA01B9010E947B326D877E878F87988B4E
:103C700029A13AA14BA15CA1CA01B9010E947B32E2
:103C800065966CAF7DAF8EAF9FAF6597298D3A8DEE
:103C90004B8D5C8DCA01B9010E947B3269966CAF75
:103CA0007DAF8EAF9FAF699729893A894B895C892F
:103CB000CA01B9010E947B32A9966CAF7DAF8EAF6D
:103CC0009FAFA9972DA53EA54FA558A9CA01B90137
:103CD0000E94033561966CAF7DAF8EAF9FAF619749
:103CE00029A13AA14BA15CA16DA57EA58FA598A99C
:103CF0000E94033521966CAF7DAF8EAF9FAF2197A9
:103D0000298D3A8D4B8D5C8D6DA57EA58FA598A9CB
:103D10000E940335AD966CAF7DAF8EAF9FAFAD9770
:103D200029A13AA14BA15CA1CA01B9010E940335A6
:103D300069AF7AAF8BAF9CAF29893A894B895C898F
:103D400069A17AA18BA19CA10E9403356DAB7EABCA
:103D50008FAB98AF298D3A8D4B8D5C8DCA01B9011F
:103D60000E9403356DA37EA38FA398A729893A8962
:103D70004B895C89CA01B9010E94033569AB7AABF2
:103D80008BAB9CABA301920160E070E080E89FE305
:103D90000E945C33A1966CAF7DAF8EAF9FAFA197B1
:103DA00029853A854B855C8560E070E080E89FE37B
:103DB0000E945C332B013C019B01AC01C957DF4FD2
:103DC000688179818A819B81C758D0400E940335E0
:103DD0006D8B7E8B8F8B988FA3019201C557DF4F20
:103DE000688179818A819B81CB58D0400E940335BC
:103DF00069877A878B879C87A3019201C157DF4F20
:103E0000688179818A819B81CF58D0400E94033597
:103E10002B013C012D893E894F89588D6D857E850A
:103E20008F8598890E9403356D837E838F83988761
:103E300029853A854B855C856D857E858F8598893A
:103E40000E94033569A77AA78BA79CA7A3019201BB
:103E50006D857E858F8598890E94033569837A8375
:103E60008B839C832D893E894F89588D65966CADD7
:103E70007DAD8EAD9FAD65970E9403356D966CAF9D
:103E80007DAF8EAF9FAF6D9761962CAD3DAD4EADC2
:103E90005FAD61976D897E898F89988D0E9403350A
:103EA0006D8F7E8F8F8F98A329893A894B895C8982
:103EB00069A57AA58BA59CA50E9403359B01AC0141
:103EC0006D8D7E8D8F8D98A10E947A326D8F7E8F41
:103ED0008F8F98A3298D3A8D4B8D5C8D69817A8166
:103EE0008B819C810E9403359B01AC016D8D7E8D81
:103EF0008F8D98A10E947B326D8F7E8F8F8F98A3BC
:103F000029AD3AAD4BAD5CAD6D897E898F89988DB9
:103F10000E9403359B01AC016D8D7E8D8F8D98A124
:103F20000E947B326D8F7E8F8F8F98A329853A8573
:103F30004B855C8565966CAD7DAD8EAD9FAD65970F
:103F40000E940335298D3A8D4B8D5C8D0E9403357F
:103F50009B01AC016D8D7E8D8F8D98A10E947B326F
:103F60006D8F7E8F8F8F98A3A301920165966CADA4
:103F70007DAD8EAD9FAD65970E94033529893A8945
:103F80004B895C890E9403359B01AC016D8D7E8D50
:103F90008F8D98A10E947B326D8F7E8F8F8F98A31B
:103FA0002DA13EA14FA158A56D897E898F89988D3D
:103FB0000E9403359B01AC016D8D7E8D8F8D98A184
:103FC0000E947A326D8F7E8F8F8F98A329A93AA98C
:103FD0004BA95CA96D897E898F89988D0E940335D4
:103FE0009B01AC016D8D7E8D8F8D98A10E947A32E0
:103FF0006D8F7E8F8F8F98A329893A894B895C8931
:104000006D817E818F8198850E940335A5966CAF66
:104010007DAF8EAF9FAFA59761962CAD3DAD4EADF8
:104020005FAD619769857A858B859C850E94033594
:104030009B01AC01A5966CAD7DAD8EAD9FADA597F6
:104040000E947B32A5966CAF7DAF8EAF9FAFA597D8
:1040500029A13AA14BA15CA169817A818B819C81C4
:104060000E9403359B01AC01A5966CAD7DAD8EAD74
:104070009FADA5970E947A3269837A838B839C8354
:10408000298D3A8D4B8D5C8D6D966CAD7DAD8EAD71
:104090009FAD6D970E9403359B01AC0169817A81C8
:1040A0008B819C810E947B3269837A838B839C8382
:1040B00029AD3AAD4BAD5CAD69857A858B859C8524
:1040C0000E9403359B01AC0169817A818B819C81BF
:1040D0000E947A3269837A838B839C832DA13EA1CF
:1040E0004FA158A569857A858B859C850E940335EB
:1040F0009B01AC0169817A818B819C810E947B321A
:1041000069837A838B839C83A301920169966CAD4A
:104110007DAD8EAD9FAD69970E94033529893A899F
:104120004B895C890E9403359B01AC0169817A81CE
:104130008B819C810E947B3269837A838B839C83F1
:1041400029A93AA94BA95CA969857A858B859C85A3
:104150000E9403359B01AC0169817A818B819C812E
:104160000E947A3269837A838B839C832D8D3E8D66
:104170004F8D58A1CA01B9010E9403356D8F7E8F02
:104180008F8F98A329813A814B815C81CA01B90143
:104190000E9403359B01AC016D8D7E8D8F8D98A1A2
:1041A0000E947B320E94703569837A838B839C8363
:1041B0006D817E818F8198859058298D3A8D4B8DA8
:1041C0005C8D0E9403356D837E838F83988729A140
:1041D0003AA14BA15CA169A57AA58BA59CA50E94DB
:1041E00003359B01AC016D817E818F8198850E9492
:1041F0007B326D837E838F83988761962CAD3DAD36
:104200004EAD5FAD6197C301B2010E9403359B01C2
:10421000AC016D817E818F8198850E947B326D8398
:104220007E838F83988729893A894B895C896D962B
:104230006CAD7DAD8EAD9FAD6D970E9403359B013A
:10424000AC016D817E818F8198850E947B326D8368
:104250007E838F83988729AD3AAD4BAD5CADC301AA
:10426000B2010E9403359B01AC016D817E818F817B
:1042700098850E947A326D837E838F839887298503
:104280003A854B855C8569966CAD7DAD8EAD9FADF5
:1042900069970E94033529893A894B895C890E9474
:1042A00003359B01AC016D817E818F8198850E94D1
:1042B0007B326D837E838F8398872DA13EA14FA192
:1042C00058A5C301B2010E9403359B01AC016D8169
:1042D0007E818F8198850E947A326D837E838F8361
:1042E000988729A93AA94BA95CA9C301B2010E94E8
:1042F00003359B01AC016D817E818F8198850E9481
:104300007B326D837E838F8398879B01AC010E94F3
:104310007B3261966CAF7DAF8EAF9FAF61972DA959
:104320003EA94FA958ADCA01B9010E947B3269A7C5
:104330007AA78BA79CA7298D3A8D4B8D5C8D6D85B7
:104340007E858F8598890E9403359B01AC0169A504
:104350007AA58BA59CA50E947A3269A77AA78BA71C
:104360009CA7A1962CAD3DAD4EAD5FADA197259616
:104370006CAD7DAD8EAD9FAD25970E9403359B0141
:10438000AC0169A57AA58BA59CA50E947A322596D9
:104390006CAF7DAF8EAF9FAF259721962CAD3DAD15
:1043A0004EAD5FAD2197CA01B9010E947B3269A76A
:1043B0007AA78BA79CA729893A894B895C8969963A
:1043C0006CAD7DAD8EAD9FAD69970E9403359B01AD
:1043D000AC0169A57AA58BA59CA50E947B3269A733
:1043E0007AA78BA79CA7A1962CAD3DAD4EAD5FAD36
:1043F000A19729966CAD7DAD8EAD9FAD29970E949A
:1044000003359B01AC0169A57AA58BA59CA50E94EB
:104410007A3229966CAF7DAF8EAF9FAF2997298DE9
:104420003A8D4B8D5C8D6D817E818F8198850E9448
:1044300003356D966CAF7DAF8EAF9FAF6D972DA19D
:104440003EA14FA158A560E070E080E09FE30E948C
:104450007A3229A93AA94BA95CA90E947A329B0118
:10446000AC0169817A818B819C810E94033569ABA3
:104470007AAB8BAB9CABAD962CAD3DAD4EAD5FAD8D
:10448000AD976DA97EA98FA998AD0E947A329B0144
:10449000AC016D817E818F8198850E9403359B01DF
:1044A000AC0169A97AA98BA99CA90E947B322D89AC
:1044B0003E894F89588D0E947A326D8B7E8B8F8B0F
:1044C000988F29813A814B815C81505829A73AA75E
:1044D0004BA75CA729A13AA14BA15CA16D817E816C
:1044E0008F8198850E9403356D8F7E8F8F8F98A363
:1044F000298D3A8D4B8D5C8D69A17AA18BA19CA1F0
:104500000E94033569AB7AAB8BAB9CAB29893A89A6
:104510004B895C896DA57EA58FA598A90E9403355E
:104520009B01AC0169A97AA98BA99CA90E947A3246
:104530009B01AC0169817A818B819C810E9403354A
:1045400069AB7AAB8BAB9CAB29893A894B895C8987
:10455000698D7A8D8B8D9C8D0E9403359B01AC01FA
:1045600021966CAD7DAD8EAD9FAD21970E947B32C3
:104570009B01AC016D817E818F8198850E940335FE
:104580009B01AC0169A97AA98BA99CA90E947B32E5
:1045900029853A854B855C850E947A3269877A87BE
:1045A0008B879C87298D3A8D4B8D5C8D69817A81B3
:1045B0008B819C810E94033521966CAF7DAF8EAFBD
:1045C0009FAF21972DA93EA94FA958ADAD966CADCF
:1045D0007DAD8EAD9FADAD970E947B329B01AC014E
:1045E00069817A818B819C810E9403356DAB7EABA2
:1045F0008FAB98AF29AD3AAD4BAD5CAD60E070E0EC
:1046000080E09FE30E947A322DA13EA14FA158A5E0
:104610000E947A329B01AC016D817E818F819885E9
:104620000E9403359B01AC016DA97EA98FA998ADAD
:104630000E947B32A30192010E947A326DAB7EAB65
:104640008FAB98AF69966CAD7DAD8EAD9FAD699720
:10465000905825962CAD3DAD4EAD5FAD25970E948F
:1046600003352B013C0129962CAD3DAD4EAD5FAD20
:10467000299765966CAD7DAD8EAD9FAD65970E9417
:1046800003359B01AC01C301B2010E947B322B01B7
:104690003C012D893E894F89588D6D966CAD7DAD5D
:1046A0008EAD9FAD6D970E9403359B01AC01C30198
:1046B000B2010E947A322B013C0129893A894B8947
:1046C0005C8969A57AA58BA59CA50E9403352D8DD3
:1046D0003E8D4F8D58A10E947B3229853A854B85AE
:1046E0005C850E9403359B01AC01C301B2010E94AD
:1046F0007B322B013C012DA93EA94FA958AD219633
:104700006CAD7DAD8EAD9FAD21970E9403359B01B1
:10471000AC01C301B2010E947B3269AB7AAB8BABB7
:104720009CAB29AD3AAD4BAD5CADCA01B9010E945D
:104730007B329B01AC0160E070E080E89FE30E9467
:104740007A322B013C012DA13EA14FA158A5CA01EF
:10475000B9010E947B329B01AC01C301B2010E94EE
:104760007A322B013C01A1962CAD3DAD4EAD5FAD33
:10477000A197C801B7010E9403359B01AC01C30199
:10478000B2010E947A322B013C0129893A894B8976
:104790005C896D817E818F8198850E94033569AF28
:1047A0007AAF8BAF9CAF2DA53EA54FA558A96D81C3
:1047B0007E818F8198850E9403352D966CAF7DAFE9
:1047C0008EAF9FAF2D9725962CAD3DAD4EAD5FAD15
:1047D0002597A9966CAD7DAD8EAD9FADA9970E9432
:1047E00003356D837E838F83988729962CAD3DADED
:1047F0004EAD5FAD29976D857E858F8598890E9426
:1048000003359B01AC016D817E818F8198850E946B
:104810007B326D837E838F83988720E030E040E891
:1048200050E469A17AA18BA19CA10E940335A30148
:1048300092010E9403359B01AC016D817E818F81C5
:1048400098850E947A326D837E838F8398872D8925
:104850003E894F89588D69AD7AAD8BAD9CAD0E9474
:1048600003359B01AC016D817E818F8198850E940B
:104870007B326D837E838F8398872D962CAD3DADE3
:104880004EAD5FAD2D9721966CAD7DAD8EAD9FADDC
:1048900021970E947B3229853A854B855C850E9451
:1048A00003359B01AC016D817E818F8198850E94CB
:1048B0007B326D837E838F83988729893A894B89E0
:1048C0005C8969817A818B819C810E9403356DA30B
:1048D0007EA38FA398A729A13AA14BA15CA16196C1
:1048E0006CAD7DAD8EAD9FAD61970E9403359B0190
:1048F000AC016DA17EA18FA198A50E947A322DA94D
:104900003EA94FA958AD0E9403359B01AC016D81B2
:104910007E818F8198850E947B326DA37EA38FA3B9
:1049200098A729813A814B815C81CA01B9010E9413
:104930007B329B01AC0150582D833E834F835887B7
:1049400029A13AA14BA15CA169817A818B819C81CB
:104950000E94033521966CAF7DAF8EAF9FAF21973C
:104960006D857E858F859889905825962CAD3DADB7
:104970004EAD5FAD25970E9403356D877E878F878B
:10498000988B29962CAD3DAD4EAD5FAD2997A9967C
:104990006CAD7DAD8EAD9FADA9970E9403359B0197
:1049A000AC016D857E858F8598890E947B326D87ED
:1049B0007E878F87988B20E030E040E850E4698D57
:1049C0007A8D8B8D9C8D0E940335A30192010E94EC
:1049D00003359B01AC016D857E858F8598890E948A
:1049E0007A322B013C01298D3A8D4B8D5C8D6D8186
:1049F0007E818F8198850E9403352D962CAD3DAD2B
:104A00004EAD5FAD2D970E947A322D893E894F8938
:104A1000588D0E9403359B01AC01C301B2010E9475
:104A20007B322B013C0129AD3AAD4BAD5CAD2196FB
:104A30006CAD7DAD8EAD9FAD21970E947B322985F7
:104A40003A854B855C850E9403359B01AC01C3010F
:104A5000B2010E947B326D877E878F87988B2DA550
:104A60003EA54FA558A969817A818B819C810E94BE
:104A700003352B013C01298D3A8D4B8D5C8D619660
:104A80006CAD7DAD8EAD9FAD61970E9403359B01EE
:104A9000AC01C301B2010E947A322DA93EA94FA9EF
:104AA00058AD0E9403359B01AC016D857E858F85D5
:104AB00098890E947B322B013C0125962CAD3DAD9F
:104AC0004EAD5FAD259765966CAD7DAD8EAD9FAD5E
:104AD00065970E94033569837A838B839C8329962B
:104AE0002CAD3DAD4EAD5FAD299769966CAD7DADFA
:104AF0008EAD9FAD69970E9403359B01AC01698122
:104B00007A818B819C810E947B3269837A838B833B
:104B10009C8329893A894B895C896D817E818F814B
:104B200098850E9403352D8D3E8D4F8D58A10E9492
:104B30007B322D893E894F89588D0E9403359B0118
:104B4000AC0169817A818B819C810E947B3269836F
:104B50007A838B839C832DA53EA54FA558A969A573
:104B60007AA58BA59CA50E9403356D962CAD3DAD15
:104B70004EAD5FAD6D970E947B3229853A854B859E
:104B80005C850E9403359B01AC0169817A818B8130
:104B90009C810E947B3269837A838B839C832DA9BD
:104BA0003EA94FA958AD21966CAD7DAD8EAD9FADA0
:104BB00021970E9403359B01AC0169817A818B8129
:104BC0009C810E947B3269877A878B879C8729A981
:104BD0003AA94BA95CA9CA01B9010E9403356983AE
:104BE0007A838B839C832DA13EA14FA158A5CA0136
:104BF000B9010E9403359B01AC0169817A818B81E7
:104C00009C810E947B3269837A838B839C83A3017E
:104C10009201C301B2010E9403359B01AC0169817D
:104C20007A818B819C810E947B3269837A838B831A
:104C30009C8329853A854B855C85CA01B9010E9410
:104C400003359B01AC0169817A818B819C810E9433
:104C50007B320E9470359B01AC0160E070E080E81F
:104C60009FE30E945C336D837E838F83988780915E
:104C7000EA019091EB01A091EC01B091ED018983E3
:104C80009A83AB83BC8369A17AA18BA19CA1905824
:104C9000A60195010E9403356D8B7E8B8F8B988FBB
:104CA000C158DF4F288139814A815B81CF57D0407D
:104CB000698D7A8D8B8D9C8D0E9403359B01AC0193
:104CC0006D897E898F89988D0E947A326D8B7E8B5B
:104CD0008F8B988FCD57DF4F288139814A815B8137
:104CE000C358D04069897A898B899C890E94033591
:104CF0009B01AC016D897E898F89988D0E947A32E3
:104D000020E030E040E05FE30E9403356D8B7E8B56
:104D10008F8B988F2D813E814F81588569A97AA903
:104D20008BA99CA90E9403352DE037EC4AE15FE393
:104D30000E9403359B01AC016D897E898F89988D16
:104D40000E947A3229813A814B815C810E9403352D
:104D50009B01AC016DA57EA58FA598A90E947B3211
:104D60006D8B7E8B8F8B988FA60195016DA57EA58F
:104D70008FA598A90E9403356D877E878F87988BB2
:104D8000CD57DF4F288139814A815B81C358D0409C
:104D9000698D7A8D8B8D9C8D0E9403359B01AC01B2
:104DA0006D857E858F8598890E947B326D877E8791
:104DB0008F87988BC158DF4F288139814A815B8169
:104DC000CF57D04069897A898B899C890E940335A5
:104DD0009B01AC016D857E858F8598890E947A3212
:104DE00020E030E040E05FE30E9403356D877E877E
:104DF0008F87988B2D813E814F8158856DA17EA133
:104E00008FA198A50E9403352DE037EC4AE15FE3BE
:104E10000E9403359B01AC016D857E858F85988945
:104E20000E947A3229813A814B815C810E9403354C
:104E30009B01AC0169A17AA18BA19CA10E947B324C
:104E40006DA37EA38FA398A7C158DF4F2881398116
:104E50004A815B81CF57D0406DA57EA58FA598A9CB
:104E60000E9403356D877E878F87988BCD57DF4FE4
:104E7000288139814A815B81C358D04069A17AA1D8
:104E80008BA19CA10E9403359B01AC016D857E85A1
:104E90008F8598890E947A326D877E878F87988B5D
:104EA000A601950169897A898B899C890E940335BD
:104EB0009B01AC016D857E858F8598890E947B3230
:104EC00020E030E040E05FE30E9403356D877E879D
:104ED0008F87988B2D813E814F815885C301B20108
:104EE0000E9403352DE037EC4AE15FE30E94033571
:104EF0009B01AC016D857E858F8598890E947A32F1
:104F000029813A814B815C810E9403359B01AC0170
:104F1000698D7A8D8B8D9C8D0E947B322B013C019B
:104F2000CD57DF4F288139814A815B81C358D040FA
:104F30006DA57EA58FA598A90E9403356DA77EA7B4
:104F40008FA798ABC158DF4F288139814A815B8197
:104F5000CF57D04069A17AA18BA19CA10E940335B3
:104F60009B01AC016DA57EA58FA598A90E947B32FF
:104F700069A37AA38BA39CA3A6019501698D7A8D61
:104F80008B8D9C8D0E9403359B01AC0169A17AA198
:104F90008BA19CA10E947A3220E030E040E05FE3E8
:104FA0000E9403356B017C012D813E814F81588524
:104FB00069857A858B859C850E9403352DE037ECC9
:104FC0004AE15FE30E9403359B01AC01C701B601D2
:104FD0000E947A3229813A814B815C810E9403359B
:104FE0009B01AC0169897A898B899C890E947B32FB
:104FF0004B015C012D893E894F89588DCA01B90149
:105000000E9403356B017C012DA13EA14FA158A543
:10501000CA01B9010E9403359B01AC01C701B60169
:105020000E947B326B017C01A3019201C301B2019A
:105030000E9403359B01AC01C701B6010E947B327F
:105040006B017C01A5019401C501B4010E940335E7
:105050009B01AC01C701B6010E947B320E947035F2
:105060009B01AC0160E070E080E89FE30E945C334C
:105070006B017C019B01AC016D897E898F89988DC4
:105080000E940335609328017093290180932A01BF
:1050900090932B01A70196016DA17EA18FA198A5E8
:1050A0000E94033560932C0170932D0180932E0193
:1050B00090932F01A7019601C301B2010E9403350D
:1050C00060933001709331018093320190933301EA
:1050D000A7019601C501B4010E9403356093340114
:1050E000709335018093360190933701C459DF4F97
:1050F0000FB6F894DEBF0FBECDBFDF91CF911F91E9
:105100000F91FF90EF90DF90CF90BF90AF909F9066
:105110008F907F906F905F904F9008954F925F9225
:105120006F927F928F929F92AF92BF92CF92DF92B7
:10513000EF92FF920F931F93CF93DF93CDB7DEB71C
:105140006C970FB6F894DEBF0FBECDBF8091020200
:10515000909103020196909303028093020244E12E
:1051600052E066E172E088E192E00E943B0C6091BF
:105170001802709119028091A4029091A502681BF7
:10518000790B7093190260931802C0901602D090A8
:1051900017028091A6029091A702C81AD90AD0924C
:1051A0001702C0921602E0901402F090150280914E
:1051B000A8029091A902E81AF90AF0921502E09269
:1051C0001402882777FD8095982F0E94F7339B0162
:1051D000AC010E947B3220E030E040E058E30E94C6
:1051E00003356093190370931A0380931B03909304
:1051F0001C03B601882777FD8095982F0E94F7330E
:105200009B01AC010E947B3220E030E040E058E39B
:105210000E940335609345037093460380934703D0
:1052200090934803B701882777FD8095982F0E94B7
:10523000F7339B01AC010E947B3220E030E040E07C
:1052400058E30E9403356093110370931203809317
:105250001303909314034EE052E060E172E082E1A8
:1052600092E00E94390C609112027091130288271B
:1052700077FD8095982F0E94F73320E030E04AE7D1
:1052800053E40E94033520E030E040E058E30E9400
:1052900003356093410370934203809343039093DB
:1052A00044036091100270911102882777FD809568
:1052B000982F0E94F73320E030E04AE753E40E9441
:1052C000033520E030E040E058E30E94033560936E
:1052D0000D0370930E0380930F039093100360915E
:1052E0000E0270910F02882777FD8095982F0E94FB
:1052F000F73320E030E04AE753E40E94033520E032
:1053000030E040E058E30E94033560932D03709332
:105310002E0380932F03909330036091380170E047
:1053200088EE93E00E940F36809102029091030272
:105330006817790708F08AC048E052E06AE072E036
:105340008CE092E00E943D0C60910C0270910D0285
:10535000882777FD8095982F0E94F73320E030E072
:1053600040E251E40E94033520E030EA49E954E488
:105370000E94033520E030E040E859E30E94033505
:1053800020E030E040E951E40E947B326093490321
:1053900070934A0380934B0390934C0360910A02ED
:1053A00070910B02882777FD8095982F0E94F73324
:1053B00020E030E040E251E40E94033520E030EA92
:1053C00049E954E40E94033520E030E040E859E325
:1053D0000E94033520E030E04CE852E40E947B322A
:1053E000609315037093160380931703909318032B
:1053F0006091080270910902882777FD8095982FA7
:105400000E94F73320E030E040E251E40E9403358F
:1054100020E030EA49E954E40E94033520E030E01E
:1054200040E859E30E94033520E030E047E853E4C8
:105430000E947B3260933103709332038093330375
:105440009093340310920302109202020E946E03A2
:105450006B017C016093F2017093F3018093F4017E
:105460009093F5018091EE019091EF01A091F001F0
:10547000B091F101A7019601281B390B4A0B5B0B78
:10548000CA01B9010E94F53320E034E244E759E44F
:105490000E945C336093EA017093EB018093EC010E
:1054A0009093ED01C092EE01D092EF01E092F001F5
:1054B000F092F1012BED3FE049E450E460914103AB
:1054C0007091420380914303909144030E940335FD
:1054D00020E030E044E353E40E945C335B016C0164
:1054E0008091110390911203A0911303B0911403C2
:1054F00089839A83AB83BC834090450350904603D5
:1055000060904703709048032091190330911A036B
:1055100040911B0350911C032D833E834F8358877A
:10552000809134038F93809133038F938091320362
:105530008F93809131038F9380914C038F9380914F
:105540004B038F9380914A038F93809149038F93EC
:10555000809118038F93809117038F938091160386
:105560008F93809115038F932BED3FE049E450E436
:1055700060912D0370912E0380912F039091300341
:105580000E94033520E030E044E353E40E945C33A2
:105590009F938F937F936F932BED3FE049E450E40B
:1055A00060910D0370910E0380910F039091100391
:1055B0000E94033520E030E044E353E40E945C3372
:1055C0009F938F937F936F93E980FA800B811C8167
:1055D000A30192016D817E818F8198850E944F1D6C
:1055E0000E946E030FB6F894DEBF0FBECDBFC09011
:1055F0002602D0902702E0902802F09029026C1534
:105600007D058E059F0508F433C180902801909098
:105610002901A0902A01B0902B01A5019401C50198
:10562000B4010E9403356D837E838F8398878091B8
:105630002C0190912D01A0912E01B0912F01898311
:105640009A83AB83BC839C01AD01BC01CD010E9458
:105650000335698B7A8B8B8B9C8B409030015090FB
:1056600031016090320170903301A3019201C301B6
:10567000B2010E9403356D8B7E8B8F8B988FC0900B
:105680003401D0903501E0903601F0903701A70148
:105690009601C701B6010E940335698F7A8F8B8FFF
:1056A0009C8F29893A894B895C896D817E818F81A4
:1056B00098850E947B322D893E894F89588D0E94A2
:1056C0007A32298D3A8D4B8D5C8D0E947A326D87AE
:1056D0007E878F87988BA301920169817A818B8164
:1056E0009C810E94033569877A878B879C87A701F5
:1056F0009601C501B4010E9403359B01AC01698587
:105700007A858B859C850E947B329B01AC010E942F
:105710007B322D853E854F8558890E9405336D87E4
:105720007E878F87988BA701960169817A818B810B
:105730009C810E94033569877A878B879C87A301A8
:105740009201C501B4010E9403359B01AC0169853A
:105750007A858B859C850E947A329B01AC010E94E0
:105760007B320E94DF3269877A878B879C87298901
:105770003A894B895C896D817E818F8198850E94F1
:105780007A322D893E894F89588D0E947A32298D2F
:105790003A8D4B8D5C8D0E947B326D837E838F832F
:1057A000988729813A814B815C81C501B4010E94AF
:1057B00003354B015C01A7019601C301B2010E94B0
:1057C00003359B01AC01C501B4010E947B329B01F2
:1057D000AC010E947B322D813E814F8158850E9411
:1057E00005336B017C0169857A858B859C85905892
:1057F00020EE3EE245E652E40E9403356093FA0152
:105800007093FB018093FC019093FD012DEA3BEF27
:105810004DE252E46D857E858F8598890E9403351F
:105820006093F6017093F7018093F8019093F9016A
:1058300020EE3EE245E652E4C701B6010E94033580
:105840006093FE017093FF01809300029093010228
:105850000E94E81B0E946E036C597F4F8F4F9F4F31
:105860006093260270932702809328029093290266
:105870006C960FB6F894DEBF0FBECDBFDF91CF910F
:105880001F910F91FF90EF90DF90CF90BF90AF905E
:105890009F908F907F906F905F904F9008958F9220
:1058A0009F92AF92BF92CF92DF92EF92FF920F93AF
:1058B0001F9383E00E94992DBC01882777FD809576
:1058C000982F0E94F7332AE038E240EA5BE30E9417
:1058D00003352DE534E741EB50E40E940335AB017D
:1058E000BC014093330250933402609335027093AD
:1058F000360208EB17E624EA3CE387E392E00E94D5
:105900004F0780919A028823B9F1C0903702D09056
:105910003802E0903902F0903A0220E030E048ECA2
:1059200052E4C701B6010E9403354B015C0160914E
:1059300098027091990280E090E00E94F5339B01FB
:10594000AC01C501B4010E94F8341816E4F460916A
:1059500096027091970280E090E00E94F5332AE071
:1059600037ED43E25CE30E940335A70196010E94F4
:105970005C336B017C010AC0C12CD12C40E8E42EC1
:105980004FE3F42E03C0C12CD12C7601809160022C
:10599000882331F06091A10270E080E090E007C0C0
:1059A00060919402772767FD7095872F972F0E944B
:1059B000F733A70196010E9403350E94C933709303
:1059C0006602609365024FEF50E060E070E0809106
:1059D0006502909166020E94410690936602809350
:1059E000650280915F02882331F06091A20270E02D
:1059F00080E090E007C060919502772767FD709581
:105A0000872F972F0E94F733A70196010E94033535
:105A10000E94C93370936402609363024FEF50E0B9
:105A200060E070E080916302909164020E94410600
:105A300090936402809363021F910F91FF90EF9007
:105A4000DF90CF90BF90AF909F908F9008950C946F
:105A5000A9380C94B13808950F931F93CF93DF9317
:105A6000E62FF0E0E35BFC4FDF01AB5ABF4F0C9138
:105A7000AB5ABF4F1C91282F30E0E901CC0FDD1F3E
:105A8000C20FD31FC65CDE4F688180810E949A05D9
:105A90006981802F0E949A056A81812FDF91CF91C1
:105AA0001F910F910C949A050F931F93CF93DF933F
:105AB0000DE413E0C0E0D0E0BE01882777FD8095BB
:105AC000982F0E94F7339B01AC010E947B3220E0AB
:105AD00030E040E85BE30E9403352BED3FE049E412
