:100000000C941B020C9438020C9438020C943802A5
:100010000C9438020C9438020C9438020C94380278
:100020000C9438020C9438020C9438020C94380268
:100030000C9438020C9482040C946D020C943802D7
:100040000C9438020C9438020C945F030C94380220
:100050000C9438020C9438020C9438020C94380238
:100060000C94E20F0C94380205A84CCDB2D44EB9D2
:100070003836A9020C50B9918688083CA6AAAA2A4B
:10008000BE000000803F48454C4C4F20574F524C1B
:10009000440D0A0030313233343536373839414275
:1000A000434445460064656275673A20006779728B
:1000B0006F2063616C6962726174696F6E20666142
:1000C000696C65642C207265747279696E672E2E76
:1000D0002E0D0A00693D256420636F756E7465728C
:1000E0003D256420646966663D2564206779726FEA
:1000F0005B695D3D25642C20707265765F6779725F
:100100006F5B695D3D25640D0A006779726F3A2067
:10011000007365745F736C6565705F656E61626CBA
:1001200065643A206661696C65640D0A00736574E4
:100130005F736C6565705F656E61626C65643A20C3
:10014000737563636573730D0A007365745F667519
:100150006C6C5F7363616C655F616363656C5F7238
:10016000616E67653A206661696C65640D0A0073AB
:1001700065745F66756C6C5F7363616C655F61630A
:1001800063656C5F72616E67653A20737563636562
:1001900073730D0A007365745F66756C6C5F7363CF
:1001A000616C655F6779726F5F72616E67653A2037
:1001B0006661696C65640D0A007365745F66756CD1
:1001C0006C5F7363616C655F6779726F5F72616E9C
:1001D00067653A20737563636573730D0A00736511
:1001E000745F636C6F636B5F736F757263653A20E6
:1001F0006661696C65640D0A007365745F636C6F9A
:10020000636B5F736F757263653A207375636365C3
:1002100073730D0A00290D0A006D70753630353084
:100220005F746573743A20283078006D70753630CD
:1002300035303A2000726F6C6C5F7069645F766174
:100240006C3D256C7520726F6C6C5F6D6F746F7296
:100250005F64726976653D256C750D0A007069747E
:1002600063685F7069645F76616C3D256C752070B2
:10027000697463685F6D6F746F725F6472697665CD
:100280003D256C750D0A00656E7465725F7374614F
:1002900074653A2047494D5F49444C450D0A006555
:1002A0006E7465725F7461736B3A205245414441CC
:1002B00043430D0A0067696D62616C3A20000D0AC4
:1002C0000025640900256409002564090061636351
:1002D000656C65726174696F6E20782F792F7A3A38
:1002E00009007374617274696E67206C6F6F702E91
:1002F0002E2E0D0A0067696D62616C5F696E69740C
:100300002E2E2E0D0A00696E69745F706964732E5B
:100310002E2E0D0A00696E69745F73656E736F72BD
:100320005F6F7269656E746174696F6E2E2E2E0D2B
:100330000A00696D752074657374206661696C6567
:1003400064210D0A0072756E6E696E67206779729E
:100350006F206F66667365742063616C6962726199
:1003600074696F6E2E2E2E0D0A00696D75207465EE
:10037000737420706173732E0D0A0072756E6E694E
:100380006E6720696D7520746573742E2E2E0D0AAC
:1003900000696D755F696E69742E2E2E0D0A0069F5
:1003A0006E697469616C697A696E67207265736FD2
:1003B0006C7574696F6E20646976696465722E2E3F
:1003C0002E0D0A006A6F696E696E672069326320BC
:1003D0006275732E2E2E0D0A00626C635F696E6962
:1003E000742E2E2E0D0A0070776D5F696E69742E63
:1003F0002E2E0D0A0062727573686C657373206728
:10040000696D62616C20737461727465642E2E2E46
:100410000D0A00636F6E6669675F696E69742E2EE0
:100420002E0D0A00696E7075743D25630D0A006D0E
:1004300061696E3A200011241FBECFEFD8E0DEBF05
:10044000CDBF11E0A0E0B1E0E8E3FEE302C005901B
:100450000D92A632B107D9F723E0A6E2B1E001C0C0
:100460001D92AB3DB207E1F70E9491160C941A1F42
:100470000C94000084B5826084BD8DE787BD85B58E
:10048000836085BD82E080936E0008956091FE01D7
:100490007091FF01809100029091010208950F93E5
:1004A0001F930091FE011091FF01209100023091F5
:1004B0000102600F711F821F931F0091FE011091B6
:1004C000FF0120910002309101026017710782073D
:1004D000930798F71F910F9108951F920F920FB6EF
:1004E0000F9211248F939F93AF93BF938091FE013E
:1004F0009091FF01A0910002B09101020196A11D0F
:10050000B11D8093FE019093FF01A0930002B09370
:100510000102BF91AF919F918F910F900FBE0F90ED
:100520001F9018958091FE019091FF01A09100020B
:10053000B09101020196A11DB11D8093FE0190931F
:10054000FF01A0930002B0930102089580E29EE4AF
:10055000A0E0B0E08093060290930702A093080207
:10056000B093090240E157E260E070E040930A0274
:1005700050930B0260930C0270930D0240E45CE90F
:1005800060E070E040930E0250930F0260931002FF
:10059000709311028093120290931302A09314029D
:1005A000B093150280E49FE1A0E0B0E080931602D2
:1005B00090931702A0931802B093190280E395E775
:1005C000A0E0B0E080931A0290931B02A0931C025B
:1005D000B0931D0287E090E090931F0280931E026B
:1005E00010922102109220021092230210922202F5
:1005F00021E0209324028FEF80932502109226029F
:100600002093270230E5309328023093290280E2BC
:1006100093E090932B0280932A0288E592E09093D6
:100620002D0280932C0210922E0220932F022093F1
:100630003002209331021092320210923302109253
:1006400034023093350230933602209337020895F6
:10065000CF93C09144026EE386E092E00E949A0636
:10066000C81739F06EE386E092E00E949A06809304
:100670004402CF9108956EE386E092E00E949A06CC
:100680008093440208951092C50023E32093C40090
:10069000E1ECF0E020812068208320812861208324
:1006A000E2ECF0E020812660208390934802809362
:1006B000470260E070E087EA93E00C94B11A1F9261
:1006C0000F920FB60F9211242F933F934F935F9386
:1006D0006F937F938F939F93AF93BF93EF93FF930A
:1006E0008091C600E0914702F0914802309709F0EE
:1006F0000995FF91EF91BF91AF919F918F917F915C
:100700006F915F914F913F912F910F900FBE0F907E
:100710001F901895909348028093470208959093F4
:100720004602809345020895FC018191882339F0A7
:100730009091C00095FFFCCF8093C600F6CF08953E
:100740009091C00095FFFCCF8093C6000895CF9391
:10075000C82F0E94A003E0914502F0914602309715
:1007600011F08C2F099580E090E0CF910895E82F4B
:10077000E295EF70F0E0EC56FF4FE4919091C000ED
:1007800095FFFCCFE093C6008F70E82FF0E0EC56A9
:10079000FF4FE4918091C00085FFFCCFE093C6003D
:1007A0000895EF92FF920F931F93CF93DF938C01E5
:1007B0007B01EC01CE01801B910B8E159F0524F46B
:1007C00089910E94B703F6CFDF91CF911F910F91CE
:1007D000FF90EF900895CF93DF93CDB7DEB7AE01D2
:1007E000475F5F4F6F8178858091D3039091D403E9
:1007F0000E94FC1ADF91CF91089586E890E09F93C4
:100800008F9385EA90E09F938F930E94EB030F9064
:100810000F900F900F9093E48091C00085FD03C06E
:100820009093C600F9CF2FEF84E39CE021508040E5
:100830009040E1F700C0000080E58093C6002FEFF4
:1008400084E39CE0215080409040E1F700C000002C
:1008500088E48093C6002FEF84E39CE02150804021
:100860009040E1F700C00000089510922C01109212
:100870002B01539A559A569A219A229A239A91EAD1
:1008800094BD81E085BD909380008093810090931A
:10089000B0008093B10080936F00789417BC18BCAF
:1008A000109289001092880010928B0010928A009A
:1008B0001092B3001092B4000895611103C08093A8
:1008C0002C010895613019F480932B010895623052
:1008D00019F480932A010895633019F48093290153
:1008E0000895643019F4809328010895653011F457
:1008F000809327010895809126018F7111F40C9443
:10090000920208951F920F920FB60F9211242F9307
:100910003F934F935F936F937F938F939F93AF9387
:10092000BF93EF93FF93809126018F5F8093260101
:1009300080912601803209F580912C0187BD80913C
:100940002B0188BD8091270190E0909389008093CE
:1009500088008091280190E090938B0080938A001A
:10096000809129018093B30080912A018093B40083
:100970001092260181E08093E6010E947B04FF91A2
:10098000EF91BF91AF919F918F917F916F915F9107
:100990004F913F912F910F900FBE0F901F90189580
:1009A0002FE788E391E0215080409040E1F700C0BC
:1009B0000000089588E08AB98EE084B980910A0128
:1009C00080934D028093490280934E0280934A02A5
:1009D00080934F0280934B028093500280934C028D
:1009E00081E085BB80936E0085BD089508950895CC
:1009F000681779072CF4481759071CF4CA010895A1
:100A0000CB010895681779072CF4481759071CF48F
:100A1000CA010895CB010895EF92FF920F931F939F
:100A2000261737074807590744F4E616F70608075C
:100A300019072CF4C801B70102C0CA01B9011F91FE
:100A40000F91FF90EF9008954F925F926F927F9277
:100A50008F929F92AF92BF92CF92DF92EF92FF92CE
:100A60006B017C014B015C01E894B7F82BED3FE092
:100A700049E45FE30E9482192B013C0120E030E051
:100A800040E85FE3C501B4010E94CA179B01AC01B5
:100A9000C701B6010E9482196B017C012BE438EC7E
:100AA00047E85DE3C501B4010E94821923EA32E9F7
:100AB0004AE75EE30E94CB179B01AC01C701B60178
:100AC0000E9482199B01AC01C301B2010E94CA17A6
:100AD000FF90EF90DF90CF90BF90AF909F908F905E
:100AE0007F906F905F904F9008958F929F92AF92FA
:100AF000BF92CF92DF92EF92FF92CF93DF934B01A1
:100B00005C0169017A019F775F77D1E00E947E19CD
:100B100018160CF0D0E020E030E0A901C501B401C6
:100B20000E947E1987FD0AC0C1E020E030E0A901E3
:100B3000C701B6010E942F1818160CF4C0E020E07F
:100B400030E0A901C501B4010E942F18181694F0D5
:100B500020E030E0A901C701B6010E942F18181645
:100B6000ECF520E030E0A901C701B6010E947E1932
:100B700087FFC3E0DD2329F0A5019401C701B60179
:100B800004C0A7019601C501B4010E9433180E9458
:100B90002405DD2381F09B01AC01C23039F0C33064
:100BA00029F06BED7FE089EC9FE315C06BED7FE0F2
:100BB00089EC9FEB10C0C13039F0C23089F42BEDC5
:100BC0003FE049E450E407C02BED3FE049E450E446
:100BD0000E94CB1705C00E94CA1702C0C2E0C1CF55
:100BE000DF91CF91FF90EF90DF90CF90BF90AF90CB
:100BF0009F908F9008950E94750527EC3FEC4FE57C
:100C000057E40E9482190E94A01808958F929F9223
:100C1000AF92BF92CF92DF92EF92FF920F931F930A
:100C2000CF93DF93EC01CB01BA0148015901C88091
:100C3000D980EA80FB80A70196010E94CA17A5010E
:100C400094010E9482199B01AC01C701B6010E9468
:100C5000CB17688379838A839B83DF91CF911F9120
:100C60000F91FF90EF90DF90CF90BF90AF909F904B
:100C70008F9008958F929F92AF92BF92CF92DF9202
:100C8000EF92FF920F931F93CF93DF93EC01CB0171
:100C9000BA016801790188849984AA84BB84A5017A
:100CA00094010E94CA17A70196010E9482199B0114
:100CB000AC01C501B4010E94CB17688779878A8788
:100CC0009B878C809D80AE80BF80A50194010E948F
:100CD000CA17A70196010E9482199B01AC01C501A8
:100CE000B4010E94CB176C837D838E839F838880A1
:100CF0009980AA80BB80A50194010E94CA17A70110
:100D000096010E9482199B01AC01C501B4010E94A9
:100D1000CB17688379838A839B83DF91CF911F915F
:100D20000F91FF90EF90DF90CF90BF90AF909F908A
:100D30008F900895282FFC0180E09E2F921B96171C
:100D400038F49191892798E0880F9150E9F7F5CF11
:100D500008954F925F926F927F928F929F92AF927F
:100D6000BF92CF92DF92EF92FF920F931F93CF9398
:100D7000DF9300D000D0CDB7DEB72B013C01298333
:100D80003A834B835C83F401AE18BF08C00AD10AD2
:100D9000AD8DBE8DA60195010E9491179B01AC01FE
:100DA000C301B2010E945717613629E772072EEF7F
:100DB00082072FEF920764F0603A36E8730731E05C
:100DC0008307910554F080EA96E8A1E0B0E007C0FF
:100DD00080E699E7AEEFBFEF02C0DC01CB01E08017
:100DE000F18002811381E80EF91E0A1F1B1FE082A9
:100DF000F18202831383298D3A8D4B8D5C8DC60160
:100E0000B5010E9457172B013C014E0C5F1C601E60
:100E1000711EEF89F88D80819181A281B381A60135
:100E20009501281B390B4A0B5B0BCA01B9012F8DA9
:100E300038A149A15AA10E9457179B01AC016981B1
:100E40007A818B819C810E945717460E571E681E1F
:100E5000791EA082B182C282D382C301B20120E096
:100E600030E840E050E00E946717CA01B9010F90D6
:100E70000F900F900F90DF91CF911F910F91FF90E6
:100E8000EF90DF90CF90BF90AF909F908F907F902A
:100E90006F905F904F900895FC012081FB0130819D
:100EA000FC013083FB0120830895FC012081318106
:100EB000FB0140815181FC0151834083FB0131835F
:100EC0002083089580E090E0A3E0B3E480930202E1
:100ED00090930302A0930402B093050208952F9209
:100EE0003F925F926F927F928F929F92AF92BF924A
:100EF000CF92DF92EF92FF920F931F93CF93DF93E6
:100F0000CDB7DEB768970FB6F894DEBF0FBECDBF82
:100F10000E944E0B60ED77E080E090E00E944F026F
:100F20007E0143E1E40EF11C00EA1FE0512C8AE04F
:100F3000282E81E0382E003A8FE0180781F0AE01AC
:100F40004F5E5F4FBE01615F7F4FCE010D960E94E5
:100F5000C70AFE013D96D70180E090E02DC06CEB02
:100F600072E080E090E00E944F02AE014F5E5F4F62
:100F7000BE01615F7F4FCE010D960E94C70A1982A4
:100F80001A821B821C828D859E859C8B8B8B1D8279
:100F90001E821F8218868F8598899E8B8D8B19865D
:100FA0001A861B861C8689899A89988F8F8BC7CF52
:100FB00001968330910561F1B82EA92E6D917D9136
:100FC000819091909B0128193909690137FF04C06C
:100FD000CC24DD24C21AD30A41E4C416D10444F35C
:100FE00053947F936F939F928F923F932F931F936E
:100FF0000F93AF92BF92A4EDB0E0BF93AF933F9237
:101000002F920E94EB030FB6F894DEBF0FBECDBF48
:10101000DE0111965D013701FE013D966F01D6019B
:101020008D909D906D01B401882777FD8095982F54
:101030000E94CE1820E030E04AE755E40E943318C1
:101040009B01AC01F50160817181828193810E94D5
:10105000CB17D5016D937D938D939D935D01F30126
:10106000819291923F01CE14DF04C9F6015011091B
:1010700015147CF48DEA90E09F938F938AE091E0C1
:101080009F938F930E94EB030F900F900F900F9000
:101090004BCF0115110509F04ECF69817A818B8103
:1010A0009C810E949B1870933902609338026D8175
:1010B0007E818F8198850E949B1870933B0260937C
:1010C0003A0269857A858B859C850E949B1870936E
:1010D0003D0260933C020E949B0A68960FB6F8940A
:1010E000DEBF0FBECDBFDF91CF911F910F91FF905B
:1010F000EF90DF90CF90BF90AF909F908F907F90B8
:101100006F905F903F902F900895CF93DF9300D022
:1011100000D000D0CDB7DEB764EF71E080E090E0A2
:101120000E944F02AE014B5F5F4FBE016D5F7F4F6C
:10113000CE0101960E94C90A62E070E080E090E072
:10114000EFCF10920B0191E090930E0182E080931B
:101150001101909314011092170180931A0181E0FC
:1011600090E090930D0180930C012FEF3FEF3093AF
:10117000100120930F01909313018093120190931B
:101180001601809315019093190180931801909393
:101190001C0180931B0108950E94A10880913102D7
:1011A000882361F180911B0190911C01919581959B
:1011B000910990931C0180931B01809115019091DE
:1011C00016019195819591099093160180931501CF
:1011D00080910F01909110019195819591099093C3
:1011E000100180930F01809112019091130191954C
:1011F000819591099093130180931201809132029D
:10120000882381F180910B0190910E0190930B0145
:1012100080930E0180910C0190910D0120910F019E
:101220003091100130930D0120930C019093100127
:1012300080930F01809114019091170190931401F4
:10124000809317018091150190911601209118014A
:1012500030911901309316012093150190931901D3
:101260008093180108954F925F926F927F928F92B0
:101270009F92AF92BF92CF92DF92EF92FF926091D6
:1012800012027091130280911402909115022AE0CB
:10129000422E512C612C712CA30192010E946717E0
:1012A00020936B0230936C0240936D0250936E0258
:1012B00060911602709117028091180290911902A4
:1012C00038EE832E33E0932EA12CB12CA50194018E
:1012D0000E94671720936F0230937002409371024F
:1012E0005093720260911A0270911B0280911C024D
:1012F00090911D0244ECC42E49E0D42EE12CF12C37
:10130000A70196010E94671720937302309374021D
:101310004093750250937602609106027091070225
:101320008091080290910902A30192010E9467171F
:10133000209351023093520240935302509354022F
:1013400060910A0270910B0280910C0290910D0243
:10135000A50194010E94671720935502309356020D
:10136000409357025093580260910E0270910F0201
:101370008091100290911102A70196010E946717B7
:101380002093590230935A0240935B0250935C02BF
:10139000FF90EF90DF90CF90BF90AF909F908F9095
:1013A0007F906F905F904F900895EF92FF920F9310
:1013B0001F93CF93DF93CDB7DEB72C970FB6F8947A
:1013C000DEBF0FBECDBF8E01095F1F4FAE01455F6F
:1013D0005F4FBE01675F7F4FC8010E94C90A8091BD
:1013E0001401FE013196E80FF11DE80FF11D8F8108
:1013F000988520913E0230913F02821B930B91838E
:10140000808380911701FE013196E80FF11DE80FEE
:10141000F11D89859A852091400230914102821BFD
:10142000930B9183808380911A01FE013196E80F1E
:10143000F11DE80FF11D8B859C85209142023091B2
:101440004302821B930B91838083CE0101967C0122
:10145000A5E1B1E08DE391E0F701619171917F0128
:101460004D915C911197649F9001659F300D749F21
:10147000300D1124FC0121933193CF011396E01616
:10148000F10651F72C960FB6F894DEBF0FBECDBF14
:10149000DF91CF911F910F91FF90EF900895CF9220
:1014A000DF92EF92FF920F931F93CF93DF93CDE3E1
:1014B000D1E001E311E0C12CD12C76016991799141
:1014C000882777FD8095982F0E94CE18F8016193A8
:1014D0007193819391938F019B01AC010E948219BA
:1014E0009B01AC01C701B6010E94CB176B017C01C7
:1014F000F1E0C334DF0711F720E030E048EC52E4BC
:101500000E94821920E030E040E851E30E948219F5
:10151000AB01BC010DEC1CEC2CEC3CE38DE291E04A
:101520000E940606DF91CF911F910F91FF90EF90DF
:10153000DF90CF9008950C944E0D0C94720DEF92A5
:10154000FF920F931F930E94A40D1F910F91FF9084
:10155000EF9008958F929F92AF92BF92CF92DF92B9
:10156000EF92FF920F931F93CF93DF93CDB7DEB728
:101570000E94110EDF91CF911F910F91FF90EF907C
:10158000DF90CF90BF90AF909F908F9008950C9474
:101590007A0E0C94B80ECF93DF9300D000D000D019
:1015A000CDB7DEB7AE014B5F5F4FBE016D5F7F4FC2
:1015B000CE0101960E947A0E89819A81209138028B
:1015C00030913902821B930B9A8389838B819C8192
:1015D00020913A0230913B02821B930B9C838B83B8
:1015E0008D819E8120913C0230913D02821B930BA4
:1015F0009E838D8380910B01FE013196E80FF11DD2
:10160000E80FF11D4081518120910C0130910D01B5
:10161000429FC001439F900D529F900D11249093C3
:1016200058018093570180910E01FE013196E80F19
:10163000F11DE80FF11D4081518120910F01309182
:101640001001429FC001439F900D529F900D1124A5
:1016500090935A018093590180911101FE013196B6
:10166000E80FF11DE80FF11D408151812091120119
:1016700030911301429FC001439F900D529F900DE6
:10168000112490935C0180935B0126960FB6F89429
:10169000DEBF0FBECDBFDF91CF91089586E00C94E1
:1016A0006F0E2F923F924F925F926F927F928F9226
:1016B0009F92AF92BF92CF92DF92EF92FF920F93E1
:1016C0001F93CF93DF9300D000D0CDB7DEB78C014E
:1016D0001B01FC0180809180A280B380C480D580F2
:1016E000E680F7804084518462847384FB0120810A
:1016F000318142815381C501B4010E9482196983FD
:101700007A838B839C83F1012481358146815781C3
:10171000C701B6010E9482199B01AC0169817A81DF
:101720008B819C810E94CB179B01AC01C301B2014C
:101730000E94CA17F8016087718782879387F10139
:101740002081318142815381C301B2010E948219FB
:1017500069837A838B839C83F1012085318542855F
:101760005385C701B6010E9482199B01AC016981B2
:101770007A818B819C810E94CA179B01AC01C501B3
:10178000B4010E94CB17F801608371838283938335
:10179000F1012481358146815781C301B2010E9444
:1017A00082192B013C01F101208531854285538549
:1017B000C501B4010E9482199B01AC01C301B201B1
:1017C0000E94CB179B01AC01C701B6010E94CB1749
:1017D000F80164837583868397830F900F900F9031
:1017E0000F90DF91CF911F910F91FF90EF90DF90BD
:1017F000CF90BF90AF909F908F907F906F905F90B1
:101800004F903F902F900895CF93DF93CDB7DEB7E1
:101810002C970FB6F894DEBF0FBECDBF6091570175
:1018200070915801882777FD8095982F0E94CE18D7
:1018300020E030E0A9010E94821969837A838B83BA
:101840009C836091590170915A01882777FD80959A
:10185000982F0E94CE1820E030E0A9010E94821942
:101860006D837E838F83988760915B0170915C01AB
:10187000882777FD8095982F0E94CE1820E030E0D1
:10188000A9010E94821969877A878B879C87BE018C
:101890006F5F7F4F8BE491E00E94510B2C960FB647
:1018A000F894DEBF0FBECDBFDF91CF9108950895AC
:1018B0004F925F926F927F928F929F92AF92BF9260
:1018C000CF92DF92EF92FF920F931F93CF93DF930C
:1018D0008090220290902302AA2497FCA094BA2C14
:1018E000C3E5D1E0688179818A819B810FE411E0B1
:1018F000F801C080D180E280F3809B01AC010E949E
:1019000082192B013C01A7019601C701B6010E9473
:1019100082199B01AC01C301B2010E94CB170E9446
:10192000EF199B01AC0160914B0170914C018091CA
:101930004D0190914E010E94FB05680D791D8A1D95
:101940009B1D6093430170934401809345019093E4
:101950004601C0902002D0902102EE24D7FCE094F2
:10196000FE2C288139814A815B81F8016081718177
:10197000828193810E94FB056C0D7D1D8E1D9F1D34
:1019800060934701709348018093490190934A0105
:10199000DF91CF911F910F91FF90EF90DF90CF904B
:1019A000BF90AF909F908F907F906F905F904F907F
:1019B00008950F93082F23E042E06BE680911D010C
:1019C0000E949912882319F089EF91E002C08EEDF0
:1019D00091E09F938F938BE292E09F938F930E946D
:1019E000EB030F900F900F900F900F9108950F93AE
:1019F000082F22E044E06BE180911D010E949912C2
:101A0000882319F089EB91E002C085E991E09F936A
:101A10008F938BE292E09F938F930E94EB030F9042
:101A20000F900F900F900F9108950F93082F22E0C1
:101A300044E06CE180911D010E949912882319F005
:101A40008FE691E002C08AE491E09F938F938BE24E
:101A500092E09F938F930E94EB030F900F900F9053
:101A60000F900F910895282F46E06BE680911D019D
:101A70000E946612882319F08DE291E002C081E194
:101A800091E09F938F938BE292E09F938F930E94BC
:101A9000EB030F900F900F900F90089581E00E943C
:101AA000D90C80E00E94F70C80E00E94150D80E0C8
:101AB0000C94330DEF92FF920F931F9388EEE82E54
:101AC00083E0F82E0DE512E026E046E065E7809120
:101AD0001D010E94041380915D021F910F91FF90E0
:101AE000EF9008950F931F93CF93DF931F92CDB77D
:101AF000DEB70E945A0D898389E192E09F938F930C
:101B00000BE212E01F930F930E94EB0361E070E081
:101B1000CE0101960E94D10385E192E09F938F93BD
:101B20001F930F930E94EB0381E00FB6F894DEBF82
:101B30000FBECDBF9981943309F080E00F90DF9103
:101B4000CF911F910F9108956F927F928F929F92E4
:101B5000AF92BF92CF92DF92EF92FF920F931F93BB
:101B6000CF93DF93EC016B013A014901580108EE74
:101B700013E02DE532E04EE06BE380911D010E9401
:101B8000B61180915D0290E0982F882720915E0227
:101B9000822B9983888380915F0290E0982F882719
:101BA00020916002822BF6019183808380916102F3
:101BB00090E0982F882720916202822BF301918375
:101BC00080838091650290E0982F8827209166029B
:101BD000822BF401918380838091670290E0982F9B
:101BE000882720916802822BF50191838083809160
:101BF000690290E0982F882720916A02822BF701D2
:101C000091838083DF91CF911F910F91FF90EF908F
:101C1000DF90CF90BF90AF909F908F907F906F900C
:101C200008958F929F92AF92BF92CF92DF92EF92E0
:101C3000FF920F931F93CF93DF93CDB7DEB70E9430
:101C4000A40D42E067E380911D010E9456128FE1CE
:101C50009EE40197F1F700C0000041E06AE08CE0EB
:101C60000E945612EFE1FEE43197F1F700C0000048
:101C700008EE13E02DE532E046E063E08CE00E94E0
:101C8000B61180915E0290E0982F882720915D0226
:101C9000822BF601918380838091600290E0982FDF
:101CA000882720915F02822BF501918380838091A8
:101CB000620290E0982F882720916102822BF40124
:101CC00091838083DF91CF911F910F91FF90EF90CF
:101CD000DF90CF90BF90AF909F908F9008950F931B
:101CE000082F23E042E06AE180911D010E949912D1
:101CF0000F910895CF92DF92EF92FF920F931F936F
:101D0000CF93DF93EC017B016A0108EE13E02DE530
:101D100032E046E063E480911D010E94B6112091FB
:101D20005D0230E0322F222780915E02282B39831A
:101D3000288380915F0290E0982F8827209160028D
:101D4000822BF701918380838091610290E0982F2C
:101D5000882720916202822BF60191838083DF9194
:101D6000CF911F910F91FF90EF90DF90CF9008954A
:101D7000CF92DF92EF92FF920F931F93CF93DF9357
:101D8000EC017B016A0108EE13E02DE532E046E04C
:101D90006BE380911D010E94B61120915D0230E03D
:101DA000322F222780915E02282B3983288380914D
:101DB0005F0290E0982F882720916002822BF70124
:101DC000918380838091610290E0982F88272091F1
:101DD0006202822BF60191838083DF91CF911F9164
:101DE0000F91FF90EF90DF90CF9008951092CA016D
:101DF00081E08093C8011092C701E9EBF0E0808197
:101E00008E7F808380818D7F808380E28093B80085
:101E100085E48093BC000895880F8093BA000895EC
:101E2000413208F03FC09091CA019111FCCF91E07E
:101E30009093CA012093C8012FEF20935D01109267
:101E4000A201240F2093A1019093C9019091C9018F
:101E5000880F892B8093C9018091C701813041F49B
:101E60001092C7018091C9018093BB0085EC01C02D
:101E700085EE8093BC008091CA018130E1F38091AE
:101E8000A201841710F44091A20123EA31E0FB0182
:101E9000D9018A2F821B841718F48D918193F9CF71
:101EA000842F089580E008950F93413208F046C0D2
:101EB0009091CA019111FCCF92E09093CA010093D6
:101EC000C8019FEF90935D011092A2014093A10180
:101ED000FB0163EA71E0DB019A2F961B941718F45B
:101EE00091919D93F9CF1092C9019091C901880FEA
:101EF000892B8093C9018091C701813041F41092F0
:101F0000C7018091C9018093BB0085EC01C085EEBB
:101F10008093BC00222321F08091CA018230E1F33A
:101F200080915D018F3F61F080915D01803251F0C1
:101F300080915D01803341F483E007C081E005C0FA
:101F400080E003C082E001C084E00F910895613217
:101F500098F42091CA01243089F460937F01FC0138
:101F600081E891E0DC012A2F281B261718F4219123
:101F70002D93F9CF80E0089581E0089582E00895DF
:101F80009093C4018093C30108959093C6018093F8
:101F9000C5010895882311F085EC01C085E8809380
:101FA000BC00089585ED8093BC008091BC0084FD49
:101FB000FCCF1092CA01089585EC8093BC0010926A
:101FC000CA0108951F920F920FB60F9211242F93FA
:101FD0003F934F935F936F937F938F939F93AF93B1
:101FE000BF93EF93FF938091B900887F803609F407
:101FF0009CC068F5883209F45BC090F4803109F424
:1020000054C038F4882309F4F5C0883009F44DC071
:10201000F5C0883109F44CC0803209F45DC0EEC0CF
:10202000803409F468C048F4803309F455C088331B
:1020300009F0E4C080935D01A8C0803509F44FC069
:10204000883509F45DC0883409F0D8C0D5C0883916
:1020500009F4C6C0A8F4883709F467C038F4883694
:1020600009F463C0803709F460C0C8C0883809F437
:10207000B7C0803909F45FC0803809F0BFC05BC0C9
:10208000803B09F485C038F4803A09F466C0883A88
:1020900009F47EC0B3C0803C09F4A6C0883C09F4B2
:1020A000A3C0883B09F489C0A9C08091C90110C0B0
:1020B0009091A2018091A101981770F5E091A20181
:1020C00081E08E0F8093A201F0E0ED55FE4F8081FC
:1020D0008093BB0085EC85C080935D018DC0E0914D
:1020E000A20181E08E0F8093A2018091BB00F0E0FD
:1020F000ED55FE4F80839091A2018091A1016DC0AA
:10210000E091A20181E08E0F8093A2018091BB003B
:10211000F0E0ED55FE4F80838091C80181116CC0C5
:1021200081E08093C70184EA60C083E08093CA01A4
:1021300010925E01CFCF80915E01803208F050C0D6
:10214000E0915E0181E08E0F80935E018091BB0083
:10215000F0E0E15AFE4F8083BDCF80915E01803276
:1021600030F4E0915E01F0E0E15AFE4F10820E94EF
:10217000D20F60915E0170E0E091C301F091C40163
:102180008FE591E0099510925E010E94DC0F36C048
:1021900084E08093CA011092800110927F01E09147
:1021A000C501F091C601099580917F01811105C09B
:1021B00081E080937F0110928101E091800181E0B4
:1021C0008E0F80938001F0E0EF57FE4F8081809367
:1021D000BB009091800180917F01981708F47ACF1D
:1021E00085E88093BC000AC085EC8093BC00109207
:1021F000CA0104C010925D010E94D20FFF91EF91BD
:10220000BF91AF919F918F917F916F915F914F910E
:102210003F912F910F900FBE0F901F901895109225
:10222000D0011092CF011092CD011092CC010C94EC
:10223000F60E0E940C0F0C940F1191E09093CB01BD
:102240008093CE011092CD011092CC010895242FDD
:10225000462F613208F040E267E772E00E94100FFB
:102260001092D0018093CF0108950F93082F21E0A1
:102270004091CC0167E972E08091CE010E94540F39
:102280001092CD011092CC011092CB010F910895C4
:10229000CF93DF931F92CDB7DEB789838091CB01B7
:1022A000882391F08091CC018032B0F48091CD01EF
:1022B000E82FF0E0E956FD4F998190838F5F80937E
:1022C000CD018093CC0105C061E0CE0101960E9452
:1022D000A70F81E090E002C080E090E00F90DF91D6
:1022E000CF910895EF92FF920F931F93CF93DF93B7
:1022F0008B012091CB01222359F0EC017C01E60EE9
:10230000F71ECE15DF0531F089910E944811F9CFF3
:102310000E94A70FC801DF91CF911F910F91FF90ED
:10232000EF9008958091CF019091D001891B08957D
:102330009091D0018091CF01981748F4E92FF0E0F7
:10234000E958FD4F80819F5F9093D00108958FEFF2
:102350000895E091D0018091CF01E81728F4F0E0D2
:10236000E958FD4F808108958FEF08955F926F9235
:102370007F928F929F92AF92BF92CF92DF92EF9215
:10238000FF920F931F93CF93DF93682E562E942EB8
:10239000E9010E9446026B017C01C00ED11EE11CC6
:1023A000F11C812C712CA92CB12C891480F5862D5F
:1023B0000E941D11852D0E94481181E00E94351157
:1023C000C5018819910980971CF4692D681901C00D
:1023D00060E241E0862D0E9427110E94921188231D
:1023E00079F08E01070D111D0E949811F80180836C
:1023F00073940E944602C616D706E806F90668F7E7
:10240000892DF0E2F91508F480E2880ECECF872DF1
:10241000DF91CF911F910F91FF90EF90DF90CF90C0
:10242000BF90AF909F908F907F906F905F90089536
:102430000F931F9389019A0141E00E94B6111F91E9
:102440000F910895EF92FF920F931F93CF93DF9315
:1024500000D01F92CDB7DEB7142F2A833B83698348
:102460000E941D116981862F0E9448112A81022F26
:10247000E22E3B81F32E8E2D801B811730F4F70165
:1024800081917F010E944811F6CF81E00E943511B1
:1024900091E0811190E0892F0F900F900F90DF91C4
:1024A000CF911F910F91FF90EF900895CF93DF93FD
:1024B0001F92CDB7DEB749839E012F5F3F4F41E0AA
:1024C0000E9422120F90DF91CF910895EF92FF9218
:1024D0000F931F93CF93DF931F92CDB7DEB7182FC3
:1024E000062FF42EE22E20911E0130911F01AE0125
:1024F0004F5F5F4F0E941812898121E030E00F2C5E
:1025000001C0220F0A94EAF7EE2019F0482F422B5F
:1025100003C0422F409548234983602F812F0E949A
:1025200056120F90DF91CF911F910F91FF90EF9076
:102530000895DF92EF92FF920F931F93CF93DF9353
:102540001F92CDB7DEB7F82EE62ED42E122F209193
:102550001E0130911F01AE014F5F5F4F0E941812A4
:10256000882319F14D2D50E0411B51094F5F5F4FFA
:10257000E1E0F0E002C0EE0FFF1F1A95E2F731979D
:10258000042E01C0EE0F0A94EAF701C0000F4A952D
:10259000EAF74E2F409589814823E0234E2B49834B
:1025A0006E2D8F2D0E94561201C080E00F90DF919A
:1025B000CF911F910F91FF90EF90DF900895DF92E0
:1025C000EF92FF920F931F93CF93DF931F92CDB79C
:1025D000DEB7D42E79019801AE014F5F5F4F0E94A4
:1025E000181261E070E001C0660FDA94EAF7998191
:1025F0009623F70190830F90DF91CF911F910F9158
:10260000FF90EF90DF900895CF92DF92EF92FF92CC
:102610000F931F93CF93DF931F92CDB7DEB7C42ED6
:10262000D22E9701AE014F5F5F4F0E941812882390
:10263000F1F04C2D50E04D1951094F5F5F4F61E0B3
:1026400070E002C0660F771FDA94E2F761507109FB
:10265000042E01C0660F0A94EAF72981262330E090
:1026600002C0359527954A95E2F7F80120830F902F
:10267000DF91CF911F910F91FF90EF90DF90CF905E
:102680000895CF93DF938FE992E09F938F93C5EBEB
:10269000D2E0DF93CF930E94EB0387E892E09F9311
:1026A0008F93DF93CF930E94EB031092D50110928A
:1026B000E7010E94460268517C4F8F4F9F4F609305
:1026C000D1017093D2018093D3019093D4018DB73F
:1026D0009EB708960FB6F8949EBF0FBE8DBFDF91D0
:1026E000CF9108958F929F92AF92BF92CF92DF9237
:1026F000EF92FF920F931F93CF93DF9381E080932C
:10270000E6018091E601882309F42EC11092E601CA
:102710000E94CB0A80912F0281110E94040C8091AB
:10272000300281110E94570C0E94580C8091DF01E9
:10273000811156C080915C028F9380915B028F93D0
:1027400080915A028F93809159028F938091560203
:102750008F93809155028F93809154028F93809133
:1027600053028F93809152028F93809151028F93E5
:1027700080EF91E09F938F9398EF892E91E0992EAF
:10278000A12CB12C6501E12CF12C870124EF31E063
:1027900040E050E062E070E080E090E00E94A90636
:1027A0006093BB027093BC028093BD029093BE0203
:1027B00040912402552747FD5095469F9001479F21
:1027C000300D569F300D11243093EB012093EA0118
:1027D0008DB79EB70C960FB6F8949EBF0FBE8DBFF7
:1027E0008091DE01811156C0809176028F93809195
:1027F00075028F93809174028F93809173028F93EF
:10280000809170028F9380916F028F9380916E02FE
:102810008F9380916D028F9380916C028F93809142
:102820006B028F938CEE91E09F938F9384EF882EB1
:1028300081E0982EA12CB12C6501E12CF12C8701AF
:1028400024EF31E040E050E062E070E080E090E0B2
:102850000E94A9066093B7027093B8028093B902F0
:102860009093BA0240912502552747FD5095469F07
:102870009001479F300D569F300D11243093E90190
:102880002093E8018DB79EB70C960FB6F8949EBFC3
:102890000FBE8DBF8091FC018823A1F04091E4011F
:1028A0005091E5016091EA01809126020E949E15F7
:1028B0004091E2015091E3016091E801809127028B
:1028C0000E949E158091EB018F938091EA018F9376
:1028D0008091BE028F938091BD028F938091BC0244
:1028E0008F938091BB028F938DE592E09F938F939E
:1028F000C5EBD2E0DF93CF930E94EB038091E90117
:102900008F938091E8018F938091BA028F93809189
:10291000B9028F938091B8028F938091B7028F9301
:1029200085E392E09F938F93DF93CF930E94EB0315
:102930008DB79EB744960FB6F8949EBF0FBE8DBF5D
:102940008091D501882329F0813029F40E944F0A13
:1029500002C00E94D5098091D5018F5F8093D50177
:10296000833011F41092D501DF91CF911F910F9117
:10297000FF90EF90DF90CF90BF90AF909F908F909F
:1029800008958F929F92AF92BF92CF92DF92EF9273
:10299000FF920F931F9383E00E940A16BC018827C1
:1029A00077FD8095982F0E94CE182AE038E240EA01
:1029B0005BE30E9482192DE534E741EB50E40E946D
:1029C0008219AB01BC014093D6015093D7016093AB
:1029D000D8017093D90108EB17E624EA3CE38AEDAD
:1029E00091E00E94060680912E028823B9F1C090E2
:1029F000DA01D090DB01E090DC01F090DD0120E015
:102A000030E048EC52E4C701B6010E9482194B0144
:102A10005C0160912C0270912D0280E090E00E9498
:102A2000CC189B01AC01C501B4010E947E19181697
:102A3000E4F460912A0270912B0280E090E00E9401
:102A4000CC182AE037ED43E25CE30E948219A7012B
:102A500096010E9433186B017C010AC0C12CD12C55
:102A600020E8E22E2FE3F22E03C0C12CD12C7601F8
:102A70008091DF01882331F06091350270E080E0C1
:102A800090E007C060912802772767FD7095872F37
:102A9000972F0E94CE18A70196010E9482190E94CA
:102AA000A0187093E5016093E4014FEF50E060E0FF
:102AB00070E08091E4019091E5010E94F804909308
:102AC000E5018093E4018091DE01882331F060917B
:102AD000360270E080E090E007C06091290277271D
:102AE00067FD7095872F972F0E94CE18A70196013A
:102AF0000E9482190E94A0187093E3016093E20182
:102B00004FEF50E060E070E08091E2019091E301CE
:102B10000E94F8049093E3018093E2011F910F91CA
:102B2000FF90EF90DF90CF90BF90AF909F908F90ED
:102B300008950C94DD1C0C94E51C08950F931F93CD
:102B4000CF93DF93E62FF0E0E154FD4FDF01AB5A66
:102B5000BF4F0C91AB5ABF4F1C91282F30E0E901B9
:102B6000CC0FDD1FC20FD31FC05EDE4F6881808196
:102B70000E945D046981802F0E945D046A81812F1B
:102B8000DF91CF911F910F910C945D040F931F93D0
:102B9000CF93DF930FEB12E0C0E0D0E0BE018827B7
:102BA00077FD8095982F0E94CE189B01AC010E9462
:102BB000CB1720E030E040E251E40E9433182BEDC7
:102BC0003FE049E450E40E9482190E94E51920E0A8
:102BD00030E04EEF52E40E9482190E949B18F801E7
:102BE00061938F012196CA30D105C1F6DF91CF9153
:102BF0001F910F9108950C94C61540E050E060E0DD
:102C000080E00E949E1540E050E060E080E00C947F
:102C10009E15089590917C00907F90937C009091F8
:102C20007C00982B90937C0080917A008064809344
:102C30007A0080917A0086FDFCCF80917800909197
:102C4000790008958093FD011F928F9384E294E0B0
:102C50009F938F938FE294E09F938F930E94EB0357
:102C60000F900F900F900F900F900F900895CF93AB
:102C7000DF9341EC53E06DEC73E085EC93E00E9450
:102C8000C90A8DEC92E09F938F93CFE2D4E0DF935B
:102C9000CF930E94EB038091C6038F938091C5036D
:102CA0008F9389EC92E09F938F93DF93CF930E9451
:102CB000EB038091CE038F938091CD038F9385ECAE
:102CC00092E09F938F93DF93CF930E94EB038091C9
:102CD000C2038F938091C1038F9381EC92E09F9305
:102CE0008F93DF93CF930E94EB038EEB92E09F9341
:102CF0008F93DF93CF930E94EB038FEF90E722E057
:102D0000815090402040E1F700C000008DB79EB791
:102D10004A960FB6F8949EBF0FBE8DBFDF91CF913C
:102D2000089582E296E10E94430383E194E09F9339
:102D30008F93CFE2D4E0DF93CF930E94EB030E9406
:102D4000A60285EF93E09F938F93DF93CF930E942A
:102D5000EB0387EE93E09F938F93DF93CF930E94D3
:102D6000EB030E943504789489ED93E09F938F9351
:102D7000CFE2D4E0DF93CF930E94EB030E94FB15D8
:102D80000E94FD1584EC93E09F938F93DF93CF9384
:102D90000E94EB030E940F118FE993E09F938F93A2
:102DA000DF93CF930E94EB030E94620781E993E0D7
:102DB0009F938F93DF93CF930E94EB030E949B0A14
:102DC0008BE793E09F938F93DF93CF930E94EB0366
:102DD0008DB79EB780960FB6F8949EBF0FBE8DBF7D
:102DE0000E949D0A8823D9F08AE693E09F938F93EF
:102DF000DF93CF930E94EB030F900F900F900F90F3
:102E0000809137028823B9F085E493E09F938F93F4
:102E1000DF93CF930E94EB030E946F0708C082E309
:102E200093E09F938F93DF93CF930E94EB030F90D8
:102E30000F900F900F9085E193E09F938F93CFE2D7
:102E4000D4E0DF93CF930E94EB030E94CC0886E08E
:102E500093E09F938F93DF93CF930E94EB030E94A5
:102E6000330985EF92E09F938F93DF93CF930E9476
:102E7000EB030E94411382EE92E09F938F93DF93C6
:102E8000CF930E94EB038DB79EB740960FB6F89490
:102E90009EBF0FBE8DBF9FE728E381E09150204089
:102EA0008040E1F700C000000E943716F4CFDB013C
:102EB0008F939F930E948617BF91AF91A29F800D21
:102EC000911DA39F900DB29F900D11240895052E82
:102ED00097FB1EF400940E947E1757FD07D00E94B6
:102EE000991707FC03D04EF40C947E17509540952B
:102EF000309521953F4F4F4F5F4F089590958095A6
:102F0000709561957F4F8F4F9F4F08950E94BB171B
:102F1000A59F900DB49F900DA49F800D911D11242D
:102F20000895B7FF0C9486170E948617821B930B97
:102F30000895A1E21A2EAA1BBB1BFD010DC0AA1FFA
:102F4000BB1FEE1FFF1FA217B307E407F50720F012
:102F5000A21BB30BE40BF50B661F771F881F991F8D
:102F60001A9469F760957095809590959B01AC01D6
:102F7000BD01CF010895A29FB001B39FC001A39FDF
:102F8000700D811D1124911DB29F700D811D1124A2
:102F9000911D08955058BB27AA270ED075C166D140
:102FA00030F06BD120F031F49F3F11F41EF45BC17F
:102FB0000EF4E095E7FB51C1E92F77D180F3BA1702
:102FC000620773078407950718F071F49EF58FC1A7
:102FD0000EF4E0950B2EBA2FA02D0B01B901900134
:102FE0000C01CA01A0011124FF27591B99F0593F78
:102FF00050F4503E68F11A16F040A22F232F342FC0
:103000004427585FF3CF469537952795A795F0400D
:103010005395C9F77EF41F16BA0B620B730B840B22
:10302000BAF09150A1F0FF0FBB1F661F771F881FDA
:10303000C2F70EC0BA0F621F731F841F48F4879532
:1030400077956795B795F7959E3F08F0B3CF939521
:10305000880F08F09927EE0F979587950895D9D096
:1030600008F481E008950CD00FC107D140F0FED0E4
:1030700030F021F45F3F19F0F0C0511139C1F3C0B5
:1030800014D198F39923C9F35523B1F3951B550B2C
:10309000BB27AA2762177307840738F09F5F5F4F2B
:1030A000220F331F441FAA1FA9F333D00E2E3AF06C
:1030B000E0E830D091505040E695001CCAF729D086
:1030C000FE2F27D0660F771F881FBB1F26173707D5
:1030D0004807AB07B0E809F0BB0B802DBF01FF2705
:1030E00093585F4F2AF09E3F510568F0B6C000C16B
:1030F0005F3FECF3983EDCF3869577956795B7953F
:10310000F7959F5FC9F7880F911D9695879597F959
:103110000895E1E0660F771F881FBB1F62177307D2
:103120008407BA0720F0621B730B840BBA0BEE1FE7
:1031300088F7E095089504D06894B111D9C0089536
:10314000BCD088F09F5790F0B92F9927B751A0F0C5
:10315000D1F0660F771F881F991F1AF0BA95C9F72B
:1031600012C0B13081F0C3D0B1E00895C0C0672F64
:10317000782F8827B85F39F0B93FCCF386957795DB
:103180006795B395D9F73EF49095809570956195C4
:103190007F4F8F4F9F4F0895E89409C097FB3EF4EF
:1031A00090958095709561957F4F8F4F9F4F992394
:1031B000A9F0F92F96E9BB279395F6958795779512
:1031C0006795B795F111F8CFFAF4BB0F11F460FFD2
:1031D0001BC06F5F7F4F8F4F9F4F16C0882311F02A
:1031E00096E911C0772321F09EE8872F762F05C03E
:1031F000662371F096E8862F70E060E02AF09A95D9
:10320000660F771F881FDAF7880F9695879597F9CD
:103210000895990F0008550FAA0BE0E8FEEF161667
:103220001706E807F907C0F012161306E407F507BA
:1032300098F0621B730B840B950B39F40A2661F02E
:10324000232B242B252B21F408950A2609F4A140D1
:10325000A6958FEF811D811D089597F99F6780E8DE
:1032600070E060E008959FEF80EC089500240A94D8
:103270001616170618060906089500240A94121651
:103280001306140605060895092E0394000C11F484
:10329000882352F0BB0F40F4BF2B11F460FF04C031
:1032A0006F5F7F4F8F4F9F4F089557FD9058440F8A
:1032B000551F59F05F3F71F04795880F97FB991F95
:1032C00061F09F3F79F08795089512161306140652
:1032D000551FF2CF4695F1DF08C0161617061806DF
:1032E000991FF1CF86957105610508940895E894BA
:1032F000BB2766277727CB0197F908958ADF08F463
:103300008FEF08950BD0C0CFB1DF28F0B6DF18F0F3
:10331000952309F0A2CFA7CF1124EACFC6DFA0F3EF
:10332000959FD1F3950F50E0551F629FF001729F5A
:10333000BB27F00DB11D639FAA27F00DB11DAA1F79
:10334000649F6627B00DA11D661F829F2227B00DC6
:10335000A11D621F739FB00DA11D621F839FA00D51
:10336000611D221F749F3327A00D611D231F849FA1
:10337000600D211D822F762F6A2F11249F575040F8
:103380008AF0E1F088234AF0EE0FFF1FBB1F661F93
:10339000771F881F91505040A9F79E3F510570F04C
:1033A0005CCFA6CF5F3FECF3983EDCF38695779534
:1033B0006795B795F795E7959F5FC1F7FE2B880F47
:1033C000911D9695879597F908959F935CD00F90DE
:1033D00007FCEE5F7FC011F40EF445CF3EC06DDFF9
:1033E000D0F39923D9F3CEF39F57550B87FF43D0E2
:1033F0000024A0E640EA900180585695979528F45D
:10340000805C660F771F881F20F026173707480754
:1034100030F4621B730B840B202931294A2BA695AB
:1034200017940794202531254A2758F7660F771FF0
:10343000881F20F026173707480730F4620B730BFC
:10344000840B200D311D411DA09581F7B901842FFA
:103450009158880F9695879508959F3F31F0915028
:1034600020F4879577956795B795880F911D969568
:10347000879597F9089591505040660F771F881FE0
:10348000D2F70895F0CE19DFE8F3E894E0E0BB2727
:103490009F57F0F02AED3FE049EC06C0EE0FBB0F5E
:1034A000661F771F881F28F0B23A620773078407E8
:1034B00028F0B25A620B730B840BE3959A9572F75E
:1034C000803830F49A95BB0F661F771F881FD2F79C
:1034D0009048C5CFEF93E0FF06C0A2EA2AED3FE097
:1034E00049EC5FEB69DDD0DE0F90039401FC90584E
:1034F000E8E6F0E000C09F938F937F936F93FF9374
:10350000EF939B01AC01FEDEEF91FF9105D02F916F
:103510003F914F915F91F6CEDF93CF931F930F931F
:10352000FF92EF92DF927B018C01689405C0DA2E46
:10353000EF01F4DEFE01E894A591259135914591C6
:103540005591AEF3EF0138DDFE019701A801DA9441
:1035500079F7DF90EF90FF900F911F91CF91DF915E
:1035600008950F931F93CF93DF93EC018B01009786
:1035700031F46115710519F480E090E038C06EE017
:1035800070E081E090E00E94F31CFC010097A1F341
:1035900080E883830115110571F01387028781E8A4
:1035A00083838091D1039091D203892B21F4F093EE
:1035B000D203E093D1032097C9F0D187C0878381DC
:1035C000826083838091D3039091D403892B71F41B
:1035D000F093D403E093D3038091D5039091D60365
:1035E000892B21F4F093D603E093D503CF01DF912B
:1035F000CF911F910F910895CF93DF93EC018B81B1
:1036000088608B83CE010E940B1B2B81277F2B832D
:10361000DF91CF910895ACE0B0E0E1E1FBE10C94E3
:10362000E31E7C016B018A01FC01178216828381F3
:1036300081FFBDC1CE0101964C01F7019381F601D6
:1036400093FD859193FF81916F01882309F4ABC1AC
:10365000853239F493FD859193FF81916F01853215
:1036600029F4B70190E00E94531EE7CF512C312C72
:1036700020E02032A0F48B3269F030F4803259F02F
:10368000833269F420612CC08D3239F0803339F4F3
:10369000216026C02260246023C0286021C027FD4D
:1036A00027C030ED380F3A3078F426FF06C0FAE034
:1036B0005F9E300D1124532E13C08AE0389E300DCA
:1036C0001124332E20620CC08E3221F426FD6BC1F2
:1036D000206406C08C3611F4206802C0883641F49C
:1036E000F60193FD859193FF81916F018111C1CF07
:1036F000982F9F7D9554933028F40C5F1F4FFFE364
:10370000F9830DC0833631F0833771F0833509F0CA
:103710005BC022C0F801808189830E5F1F4F442463
:103720004394512C540115C03801F2E06F0E711C06
:10373000F801A080B18026FF03C0652D70E002C0B3
:103740006FEF7FEFC5012C870E94481E2C0183017B
:103750002C852F77222E17C03801F2E06F0E711CD6
:10376000F801A080B18026FF03C0652D70E002C083
:103770006FEF7FEFC5012C870E94361E2C012C8530
:103780002068222E830123FC1BC0832D90E0481665
:103790005906B0F4B70180E290E00E94531E3A94BB
:1037A000F4CFF50127FC859127FE81915F01B701D8
:1037B00090E00E94531E31103A94F1E04F1A5108E4
:1037C0004114510471F7E5C0843611F0893639F59A
:1037D000F80127FF07C060817181828193810C5FAE
:1037E0001F4F08C060817181882777FD8095982FD1
:1037F0000E5F1F4F2F76B22E97FF09C090958095D0
:10380000709561957F4F8F4F9F4F2068B22E2AE0B1
:1038100030E0A4010E94851EA82EA81844C0853758
:1038200029F42F7EB22E2AE030E025C0F22FF97F56
:10383000BF2E8F36C1F018F4883579F0B4C08037C8
:1038400019F0883721F0AFC02F2F2061B22EB4FEBF
:103850000DC08B2D8460B82E09C024FF0AC09F2F95
:103860009660B92E06C028E030E005C020E130E0C7
:1038700002C020E132E0F801B7FE07C0608171812B
:10388000828193810C5F1F4F06C06081718180E04F
:1038900090E00E5F1F4FA4010E94851EA82EA8185D
:1038A000FB2DFF77BF2EB6FE0BC02B2D2E7FA51450
:1038B00050F4B4FE0AC0B2FC08C02B2D2E7E05C009
:1038C0007A2C2B2D03C07A2C01C0752C24FF0DC03F
:1038D000FE01EA0DF11D8081803311F4297E09C0BB
:1038E00022FF06C07394739404C0822F867809F077
:1038F000739423FD13C020FF06C05A2C731418F4D0
:10390000530C5718732C731468F4B70180E290E0DD
:103910002C870E94531E73942C85F5CF731410F4DA
:10392000371801C0312C24FF12C0B70180E390E0AA
:103930002C870E94531E2C8522FF17C021FF03C035
:1039400088E590E002C088E790E0B7010CC0822FC4
:10395000867859F021FD02C080E201C08BE227FD8C
:103960008DE2B70190E00E94531EA51438F4B70110
:1039700080E390E00E94531E5A94F7CFAA94F4017A
:10398000EA0DF11D8081B70190E00E94531EA11045
:10399000F5CF332009F451CEB70180E290E00E94C8
:1039A000531E3A94F6CFF7018681978102C08FEFBC
:1039B0009FEF2C96E2E10C94FF1EF999FECF92BD89
:1039C00081BDF89A992780B50895262FF999FECFE1
:1039D0001FBA92BD81BD20BD0FB6F894FA9AF99A2C
:1039E0000FBE019608950F931F93CF93DF93869F89
:1039F0008001879F100D969F100D1124C8010E9411
:103A00000F1DEC01009729F0A80160E070E00E9412
:103A1000411ECE01DF91CF911F910F910895CF9359
:103A2000DF938230910510F482E090E0E091D903B9
:103A3000F091DA0320E030E0A0E0B0E0309739F117
:103A40004081518148175907B8F04817590771F458
:103A500082819381109729F013969C938E931297ED
:103A60002CC09093DA038093D90327C02115310528
:103A700031F04217530718F0A901DB0101C0EF0133
:103A80009A01BD01DF010280F381E02DD7CF21151E
:103A90003105F9F0281B390B2430310580F48A8177
:103AA0009B816115710521F0FB019383828304C022
:103AB0009093DA038093D903FE01329644C0FE014D
:103AC000E20FF31F819391932250310939832883A8
:103AD0003AC02091D7033091D803232B41F4209191
:103AE0000201309103013093D8032093D703209132
:103AF0000001309101012115310541F42DB73EB788
:103B00004091040150910501241B350BE091D7032E
:103B1000F091D803E217F307A0F42E1B3F0B2817F0
:103B2000390778F0AC014E5F5F4F2417350748F036
:103B30004E0F5F1F5093D8034093D7038193919307
:103B400002C0E0E0F0E0CF01DF91CF910895CF9384
:103B5000DF93009709F487C0FC0132971382128229
:103B6000C091D903D091DA03209781F4208131816B
:103B7000280F391F8091D7039091D803821793079C
:103B800079F5F093D803E093D7036DC0DE0120E010
:103B900030E0AE17BF0750F412964D915C91139729
:103BA0009D014115510509F1DA01F3CFB383A283D9
:103BB00040815181840F951F8A179B0771F48D9165
:103BC0009C911197840F951F029691838083129682
:103BD0008D919C911397938382832115310529F44C
:103BE000F093DA03E093D9033EC0D9011396FC9316
:103BF000EE9312974D915D91A40FB51FEA17FB0745
:103C000079F480819181840F951F0296D9011196D4
:103C10009C938E938281938113969C938E9312979B
:103C2000E0E0F0E08A819B81009719F0FE01EC0151
:103C3000F9CFCE01029628813981820F931F2091FE
:103C4000D7033091D8032817390769F4309729F43E
:103C50001092DA031092D90302C013821282D09319
:103C6000D803C093D703DF91CF910895FC0105904D
:103C7000615070400110D8F7809590958E0F9F1F6E
:103C80000895DC0101C06D9341505040E0F7089564
:103C9000FC016150704001900110D8F7809590951B
:103CA0008E0F9F1F08950F931F93CF93DF93182FAD
:103CB000092FEB018B8181FD03C08FEF9FEF20C0A7
:103CC00082FF10C04E815F812C813D8142175307D6
:103CD0007CF4E881F9819F012F5F3F4F398328836E
:103CE000108306C0E885F985812F0995892B29F76E
:103CF0002E813F812F5F3F4F3F832E83812F902F57
:103D0000DF91CF911F910F910895FA01AA272830D2
:103D100051F1203181F1E8946F936E7F6E5F7F4F98
:103D20008F4F9F4FAF4FB1E03ED0B4E03CD0670F14
:103D3000781F891F9A1FA11D680F791F8A1F911D67
:103D4000A11D6A0F711D811D911DA11D20D009F4B7
:103D500068943F912AE0269F11243019305D3193F9
:103D6000DEF6CF010895462F4770405D4193B3E0E2
:103D70000FD0C9F7F6CF462F4F70405D4A3318F089
:103D8000495D31FD4052419302D0A9F7EACFB4E03A
:103D9000A6959795879577956795BA95C9F70097F2
:103DA0006105710508959B01AC010A2E0694579593
:103DB000479537952795BA95C9F7620F731F841FEA
:103DC000951FA01D08952F923F924F925F926F9280
:103DD0007F928F929F92AF92BF92CF92DF92EF929B
:103DE000FF920F931F93CF93DF93CDB7DEB7CA1B1C
:103DF000DB0B0FB6F894DEBF0FBECDBF09942A8847
:103E0000398848885F846E847D848C849B84AA84EE
:103E1000B984C884DF80EE80FD800C811B81AA817B
:103E2000B981CE0FD11D0FB6F894DEBF0FBECDBF46
:083E3000ED010895F894FFCFA5
:103E38000000DB03200020202020200001000101D9
:103E48000002010000010001010002010068E8030E
:063E580000010203040555
:00000001FF
