:100000000C9436030C9453030C9453030C94530335
:100010000C9453030C9453030C9453030C94530308
:100020000C9453030C9453030C9453030C945303F8
:100030000C9453030C94B6050C9488030C9453034E
:100040000C9453030C9453030C947A040C945303B0
:100050000C9453030C9453030C9453030C945303C8
:100060000C949F120C945303036EDB363D9A9999BE
:10007000993DABAAAA2A3E000000803F084AD73B20
:100080003BCE016E84BCBFFDC12F3D6C74319ABD67
:1000900056833DDA3D00C77F11BED9E4BB4C3E918B
:1000A0006BAAAABE000000803F072C7AA5BA6CC5D7
:1000B00090DA3B9365FC8BBC53F810FD3C56928361
:1000C0004DBD879D3AB63DCBC9BF5BBE73DA0FC944
:1000D0003F05A84CCDB2D44EB93836A9020C50B960
:1000E000918688083CA6AAAA2ABE000000803F008C
:1000F00048454C4C4F20574F524C440D0A0030316C
:10010000323334353637383941424344454600644A
:10011000656275673A2000636F6E6669672E67795E
:10012000726F5F6F66667365745B782C792C7A5D8D
:100130003A20256C6409256C6409256C640D0A005D
:100140007570646174696E67206779726F2063618E
:100150006C6962726174696F6E206F666673657434
:10016000732E2E2E0D0A006779726F2063616C6901
:1001700062726174696F6E206661696C65642C20BF
:100180007265747279696E672E2E2E0D0A00693DB4
:10019000256420636F756E7465723D256420646903
:1001A00066663D2564206779726F5B695D3D2564F5
:1001B0002C20707265765F6779726F5B695D3D2593
:1001C000640D0A006779726F3A20007365745F737B
:1001D0006C6565705F656E61626C65643A2066612E
:1001E000696C65640D0A007365745F736C65657096
:1001F0005F656E61626C65643A20737563636573F5
:10020000730D0A007365745F66756C6C5F73636170
:100210006C655F616363656C5F72616E67653A20F0
:100220006661696C65640D0A007365745F66756C60
:100230006C5F7363616C655F616363656C5F726162
:100240006E67653A20737563636573730D0A007397
:1002500065745F66756C6C5F7363616C655F67790D
:10026000726F5F72616E67653A206661696C656482
:100270000D0A007365745F66756C6C5F7363616C07
:10028000655F6779726F5F72616E67653A2073753B
:1002900063636573730D0A007365745F636C6F63EA
:1002A0006B5F736F757263653A206661696C656434
:1002B0000D0A007365745F636C6F636B5F736F75BA
:1002C0007263653A20737563636573730D0A002961
:1002D0000D0A006D7075363035305F746573743A91
:1002E00020283078006D7075363035303A20000D9A
:1002F0000A0025660025663A0025663A0025663A1A
:100300000025663A0025663A0025643A0025643ADD
:100310000025643A0025663A0025663A0025663ACB
:100320000025663A0025663A0025663A00726F6C31
:100330006C2F70697463683A2025663A25660D0A49
:100340000047494D5F4552524F520D0A0047494DF3
:100350005F4C4F434B45440D0A0047494D5F554E96
:100360004C4F434B45440D0A0047494D5F49444CAF
:10037000450D0A00726F6C6C2F70697463683A20C7
:1003800025643A25640D0A00656E7465725F7374A6
:100390006174653A2047494D5F49444C450D0A0058
:1003A000656E7465725F7461736B3A2052454144A7
:1003B0004143430D0A0067696D62616C3A20000D8C
:1003C0000A002564090025640900256409006163A9
:1003D00063656C65726174696F6E20782F792F7A0E
:1003E0003A09007374617274696E672067696D629F
:1003F000616C206C6F6F702E2E2E0D0A0067696D78
:1004000062616C5F696E69742E2E2E0D0A00696E32
:1004100069745F706964732E2E2E0D0A00696E690F
:10042000745F73656E736F725F6F7269656E74610E
:1004300074696F6E2E2E2E0D0A00696D752074651D
:100440007374206661696C6564210D0A00636F6EC8
:100450006669672E6779726F5F6F66667365745B36
:10046000782C792C7A5D3A20256420256420256437
:100470000D0A0072756E6E696E67206779726F2063
:100480006F66667365742063616C6962726174691A
:100490006F6E2E2E2E0D0A00696D752074657374B3
:1004A00020706173732E0D0A0072756E6E696E672F
:1004B00020696D7520746573742E2E2E0D0A0069E7
:1004C0006D755F696E69742E2E2E0D0A00696E6956
:1004D0007469616C697A696E67207265736F6C7597
:1004E00074696F6E20646976696465722E2E2E0DB4
:1004F0000A006A6F696E696E6720693263206275EF
:10050000732E2E2E0D0A00626C635F696E69742E65
:100510002E2E0D0A0070776D5F696E69742E2E2E77
:100520000D0A00636F6E6669675F696E69742E2ECF
:100530002E0D0A000D0A0D0A62727573686C6573E0
:10054000732067696D62616C207374617274696E87
:10055000672E2E2E0D0A00696E7075743D25630D91
:100560000A006D61696E3A20006E616E00696E6608
:100570000000407A10F35A00A0724E18090010A52E
:10058000D4E80000E87648170000E40B54020000AD
:10059000CA9A3B000000E1F5050000809698000033
:1005A0000040420F000000A086010000001027005C
:1005B000000000E803000000006400000000000AE2
:1005C00000000000000100000000002C76D888DC4C
:1005D000674F0823DFC1DFAE59E1B1B796E5E3E429
:1005E00053C63AE651997696E8E6C28426EB898CA2
:1005F0009B62ED407C6FFCEFBC9C9F40F2BAA56F04
:10060000A5F490055A2AF75C936B6CF9676DC11BD2
:10061000FCE0E40D47FEF520E6B500D0ED902E039A
:1006200000943577050080841E080000204E0A00E3
:100630000000C80C333333330F986E12831141EF2F
:100640008D2114893BE65516CFFEE6DB18D1844B8D
:10065000381BF77C1D901DA4BBE424203284725EFD
:10066000228100C9F124ECA1E53D270011241FBE21
:10067000CFEFD8E0DEBFCDBF11E0A0E0B1E0E0E910
:10068000F1E702C005900D92A434B107D9F724E038
:10069000A4E4B1E001C01D92A735B207E1F70E94C2
:1006A000832C0C94C6380C94000084B5826084BD01
:1006B0008DE787BD85B5836085BD82E080936E0040
:1006C000089560916A0270916B0280916C02909122
:1006D0006D0208950F931F9300916A0210916B02AF
:1006E00020916C0230916D02600F711F821F931F69
:1006F00000916A0210916B0220916C0230916D02A0
:10070000601771078207930798F71F910F9108955B
:100710001F920F920FB60F9211248F939F93AF9356
:10072000BF9380916A0290916B02A0916C02B0918C
:100730006D020196A11DB11D80936A0290936B0218
:10074000A0936C02B0936D02BF91AF919F918F9176
:100750000F900FBE0F901F90189580916A02909194
:100760006B02A0916C02B0916D020196A11DB11DAA
:1007700080936A0290936B02A0936C02B0936D0217
:10078000089580E29EE4A0E0B0E08093720290932E
:100790007302A0937402B093750240E157E260E0E7
:1007A00070E04093760250937702609378027093E2
:1007B000790240E45CE960E070E040937A02509393
:1007C0007B0260937C0270937D0280937E02909303
:1007D0007F02A0938002B093810280E49FE1A0E0B9
:1007E000B0E08093820290938302A0938402B0933E
:1007F000850280E395E7A0E0B0E0809386029093C5
:100800008702A0938802B093890287E090E09093DA
:100810008B0280938A0210928D0210928C021092A9
:100820008F0210928E0221E0209390028FEF80932E
:100830009102109292022093930230E53093940239
:100840003093950280E293E0909397028093960212
:1008500088E592E0909399028093980210929A0210
:1008600020939B0220939C0220939D0210929E0253
:1008700010929F021092A0023093A1023093A20224
:100880002093A3020895CF93C091B0026EE382E754
:1008900092E00E94D607C81739F06EE382E792E033
:1008A0000E94D6078093B002CF9108956EE382E74D
:1008B00092E00E94D6078093B00208951092C5007E
:1008C00023E32093C400E1ECF0E020812068208342
:1008D000208128612083E2ECF0E0208126602083E3
:1008E0009093B4028093B30260E070E082EC94E0F5
:1008F0000C947C361F920F920FB60F9211242F93F7
:100900003F934F935F936F937F938F939F93AF9397
:10091000BF93EF93FF938091C600E091B302F091F3
:10092000B402309709F00995FF91EF91BF91AF9113
:100930009F918F917F916F915F914F913F912F91F7
:100940000F900FBE0F901F9018959093B402809354
:10095000B30208959093B2028093B1020895FC010E
:100960008191882339F09091C00095FFFCCF80934E
:10097000C600F6CF08959091C00095FFFCCF8093FC
:10098000C6000895CF93C82F0E94BB04E091B10226
:10099000F091B202309711F08C2F099580E090E031
:1009A000CF910895E82FE295EF70F0E0E250FF4F0D
:1009B000E4919091C00095FFFCCFE093C6008F704A
:1009C000E82FF0E0E250FF4FE4918091C00085FFF6
:1009D000FCCFE093C6000895EF92FF920F931F9310
:1009E000CF93DF938C017B01EC01CE01801B910B37
:1009F0008E159F0524F489910E94D204F6CFDF91D1
:100A0000CF911F910F91FF90EF900895CF93DF93B7
:100A1000CDB7DEB7AE01475F5F4F6F8178858091BC
:100A20004F04909150040E94F936DF91CF910895C0
:100A300080EF90E09F938F938FE091E09F938F934F
:100A40000E9406050F900F900F900F9093E48091F5
:100A5000C00085FD03C09093C600F9CF2FEF84E35B
:100A60009CE0215080409040E1F700C0000080E50C
:100A70008093C6002FEF84E39CE02150804090409B
:100A8000E1F700C0000088E48093C6002FEF84E304
:100A90009CE0215080409040E1F700C000000895A4
:100AA000809346010895539A559A569A219A229A0C
:100AB000239A91EA94BD81E085BD90938000809354
:100AC00081009093B0008093B100EFE6F0E0808168
:100AD00081608083EEE6F0E080818170808378948D
:100AE00080910B0187BD80910A0188BD809106012C
:100AF00090E090938900809388008091070190E0B6
:100B000090938B0080938A00809108018093B300BA
:100B1000809109018093B4000895611103C080930E
:100B20000B010895613019F480930A010895623031
:100B300019F4809309010895633019F48093080132
:100B40000895643019F4809307010895653011F415
:100B500080930601089580914401909145018F7121
:100B60009927892B11F40C94AD0308951F920F92CD
:100B70000FB60F9211242F933F934F935F936F9370
:100B80007F938F939F93AF93BF93EF93FF93809146
:100B90004401909145010196909345018093440151
:100BA00080914401909145018038924019F510924E
:100BB00045011092440180910B0187BD80910A018B
:100BC00088BD8091060190E0909389008093880011
:100BD0008091070190E090938B0080938A00809130
:100BE00008018093B300809109018093B40081E0F3
:100BF000809367020E94AB05FF91EF91BF91AF9187
:100C00009F918F917F916F915F914F913F912F9124
:100C10000F900FBE0F901F9018958091460188236A
:100C200021F08091460110924601089588E08AB92A
:100C30008EE084B9809110018093B9028093B5024F
:100C40008093BA028093B6028093BB028093B7026E
:100C50008093BC028093B80281E085BB80936E00D4
:100C600085BD089508950895681779072CF44817ED
:100C700059071CF4CA010895CB0108956817790734
:100C80002CF4481759071CF4CA010895CB010895A4
:100C9000EF92FF920F931F932617370748075907C4
:100CA00044F4E616F706080719072CF4C801B70143
:100CB00002C0CA01B9011F910F91FF90EF900895F2
:100CC0004F925F926F927F928F929F92AF92BF925C
:100CD000CF92DF92EF92FF926B017C014B015C019E
:100CE000E894B7F82BED3FE049E45FE30E94C0339E
:100CF0002B013C0120E030E040E85FE3C501B40196
:100D00000E9437319B01AC01C701B6010E94C0337C
:100D10006B017C012BE438EC47E85DE3C501B401CD
:100D20000E94C03323EA32E94AE75EE30E94383189
:100D30009B01AC01C701B6010E94C0339B01AC010D
:100D4000C301B2010E943731FF90EF90DF90CF9046
:100D5000BF90AF909F908F907F906F905F904F90DB
:100D600008958F929F92AF92BF92CF92DF92EF92AF
:100D7000FF92CF93DF934B015C0169017A019F776A
:100D80005F77D1E00E94B53318160CF0D0E020E078
:100D900030E0A901C501B4010E94B53387FD0AC046
:100DA000C1E020E030E0A901C701B6010E94153280
:100DB00018160CF4C0E020E030E0A901C501B40130
:100DC0000E941532181694F020E030E0A901C70106
:100DD000B6010E9415321816ECF520E030E0A901AA
:100DE000C701B6010E94B53387FFC3E0DD2329F0B8
:100DF000A5019401C701B60104C0A7019601C50170
:100E0000B4010E9419320E946006DD2381F09B012B
:100E1000AC01C23039F0C33029F06BED7FE089ECD2
:100E20009FE315C06BED7FE089EC9FEB10C0C130F4
:100E300039F0C23089F42BED3FE049E450E407C0BB
:100E40002BED3FE049E450E40E94383105C00E9498
:100E5000373102C0C2E0C1CFDF91CF91FF90EF9058
:100E6000DF90CF90BF90AF909F908F9008950E9499
:100E7000B10627EC3FEC4FE557E40E94C0330E94D7
:100E8000863208958F929F92AF92BF92CF92DF9257
:100E9000EF92FF920F931F93CF93DF93EC01CB015F
:100EA000BA0148015901C880D980EA80FB80A701B6
:100EB00096010E943731A50194010E94C0339B0125
:100EC000AC01C701B6010E943831688379838A83F7
:100ED0009B83DF91CF911F910F91FF90EF90DF9057
:100EE000CF90BF90AF909F908F9008958F929F92D8
:100EF000AF92BF92CF92DF92EF92FF920F931F9328
:100F0000CF93DF93EC01CB01BA01680179018884AA
:100F10009984AA84BB84A50194010E943731A7015A
:100F200096010E94C0339B01AC01C501B4010E942F
:100F30003831688779878A879B878C809D80AE80CF
:100F4000BF80A50194010E943731A70196010E943C
:100F5000C0339B01AC01C501B4010E9438316C83E0
:100F60007D838E839F8388809980AA80BB80A50122
:100F700094010E943731A70196010E94C0339B0162
:100F8000AC01C501B4010E943831688379838A833A
:100F90009B83DF91CF911F910F91FF90EF90DF9096
:100FA000CF90BF90AF909F908F900895282FFC0115
:100FB00080E09E2F921B961738F49191892798E034
:100FC000880F9150E9F7F5CF08954F925F926F9295
:100FD0007F928F929F92AF92BF92CF92DF92EF92C9
:100FE000FF920F931F93CF93DF9300D000D0CDB724
:100FF000DEB72B013C0129833A834B835C83F401E8
:10100000AE18BF08C00AD10AAD8DBE8DA6019501EC
:101010000E940A359B01AC01C301B2010E94BC349D
:10102000613629E772072EEF82072FEF920764F0EF
:10103000603A36E8730731E08307910554F080EA9F
:1010400096E8A1E0B0E007C080E699E7AEEFBFEF19
:1010500002C0DC01CB01E080F18002811381E80E47
:10106000F91E0A1F1B1FE082F18202831383298D60
:101070003A8D4B8D5C8DC601B5010E94BC342B01AD
:101080003C014E0C5F1C601E711EEF89F88D808143
:101090009181A281B381A6019501281B390B4A0BCE
:1010A0005B0BCA01B9012F8D38A149A15AA10E9439
:1010B000BC349B01AC0169817A818B819C810E9447
:1010C000BC34460E571E681E791EA082B182C282B1
:1010D000D382C301B20120E030E840E050E00E943A
:1010E000E034CA01B9010F900F900F900F90DF917B
:1010F000CF911F910F91FF90EF90DF90CF90BF9015
:10110000AF909F908F907F906F905F904F900895D9
:10111000FC012081FB013081FC013083FB01208335
:101120000895FC0120813181FB0140815181FC0146
:1011300051834083FB0131832083089580E090E058
:10114000A3E0B3E480936E0290936F02A0937002C9
:10115000B093710208952F923F925F926F927F92A7
:101160008F929F92AF92BF92CF92DF92EF92FF92B7
:101170000F931F93CF93DF93CDB7DEB768970FB66A
:10118000F894DEBF0FBECDBF0E94B50C60ED77E0D6
:1011900080E090E00E946A037E0143E1E40EF11CCE
:1011A00000EA1FE0512C84EC282E81E0382E003A12
:1011B0008FE0180781F0AE014F5E5F4FBE01615FA7
:1011C0007F4FCE010D960E942C0CFE013D96D7015B
:1011D00080E090E02DC06CEB72E080E090E00E9437
:1011E0006A03AE014F5E5F4FBE01615F7F4FCE016C
:1011F0000D960E942C0C19821A821B821C828D85EE
:101200009E859C8B8B8B1D821E821F8218868F85EC
:1012100098899E8B8D8B19861A861B861C868989D8
:101220009A89988F8F8BC7CF01968330910561F192
:10123000B82EA92E6D917D91819091909B012819D6
:101240003909690137FF04C0CC24DD24C21AD30A4E
:1012500041E4C416D10444F353947F936F939F9257
:101260008F923F932F931F930F93AF92BF92AEE84D
:10127000B1E0BF93AF933F922F920E9406050FB645
:10128000F894DEBF0FBECDBFDE0111965D013701C0
:10129000FE013D966F01D6018D909D906D01B401C8
:1012A000882777FD8095982F0E94B43220E030E0A7
:1012B0004AE755E40E9419329B01AC01F5016081B7
:1012C0007181828193810E943831D5016D937D9324
:1012D0008D939D935D01F301819291923F01CE1414
:1012E000DF04C9F60150110915147CF487E691E07A
:1012F0009F938F9384EC91E09F938F930E940605B8
:101300000F900F900F900F904BCF0115110509F022
:101310004ECF69817A818B819C810E94813270934A
:10132000A5026093A4026D817E818F8198850E94C1
:1013300081327093A7026093A60269857A858B85B6
:101340009C850E9481327093A9026093A80280E478
:1013500091E09F938F9304EC11E01F930F930E94F1
:1013600006058091A9028F938091A8028F938091A6
:10137000A7028F938091A6028F938091A5028F93ED
:101380008091A4028F9387E191E09F938F931F93A5
:101390000F930E9406050E94000C0FB6F894DEBF62
:1013A0000FBECDBF68960FB6F894DEBF0FBECDBF9F
:1013B000DF91CF911F910F91FF90EF90DF90CF9031
:1013C000BF90AF909F908F907F906F905F903F9075
:1013D0002F900895CF93DF9300D000D000D0CDB7E9
:1013E000DEB764EF71E080E090E00E946A03AE0136
:1013F0004B5F5F4FBE016D5F7F4FCE0101960E9434
:101400002E0C62E070E080E090E0EFCF10921101CE
:1014100091E09093140182E08093170190931A0158
:1014200010921D018093200181E090E090931301C0
:10143000809312012FEF3FEF309316012093150197
:10144000909319018093180190931C0180931B01C4
:1014500090931F0180931E0190932201809321019C
:1014600008950E94060A80919D02882361F180916F
:1014700021019091220191958195910990932201EA
:101480008093210180911B0190911C019195819580
:10149000910990931C0180931B01809115019091FB
:1014A00016019195819591099093160180931501EC
:1014B00080911801909119019195819591099093CE
:1014C00019018093180180919E02882381F18091F7
:1014D0001101909114019093110180931401809156
:1014E0001201909113012091150130911601309352
:1014F000130120931201909316018093150180919E
:101500001A0190911D0190931A0180931D01809101
:101510001B0190911C0120911E0130911F013093FD
:101520001C0120931B0190931F0180931E010895BD
:101530004F925F926F927F928F929F92AF92BF92E3
:10154000CF92DF92EF92FF9260917E0270917F02C4
:1015500080918002909181022AE0422E512C612CD0
:10156000712CA30192010E94E03420933503309343
:101570003603409337035093380360918202709191
:101580008302809184029091850238EE832E33E0AD
:10159000932EA12CB12CA50194010E94E03420933C
:1015A000390330933A0340933B0350933C036091DB
:1015B000860270918702809188029091890244ECA2
:1015C000C42E49E0D42EE12CF12CA70196010E94F3
:1015D000E03420933D0330933E0340933F03509308
:1015E0004003609172027091730280917402909135
:1015F0007502A30192010E94E03420931D033093F1
:101600001E0340931F035093200360917602709154
:1016100077028091780290917902A50194010E944D
:10162000E03420932103309322034093230350930B
:10163000240360917A0270917B0280917C029091E8
:101640007D02A70196010E94E03420932503309388
:1016500026034093270350932803FF90EF90DF90D9
:10166000CF90BF90AF909F908F907F906F905F9042
:101670004F900895EF92FF920F931F93CF93DF93B4
:10168000CDB7DEB72C970FB6F894DEBF0FBECDBF37
:101690008E01095F1F4FAE01455F5F4FBE01675F5F
:1016A0007F4FC8010E942E0C80911A01FE013196D5
:1016B000E80FF11DE80FF11D8F8198852091AA0296
:1016C0003091AB02821B930B9183808380911D012B
:1016D000FE013196E80FF11DE80FF11D89859A850D
:1016E0002091AC023091AD02821B930B91838083D9
:1016F00080912001FE013196E80FF11DE80FF11DE8
:101700008B859C852091AE023091AF02821B930B9A
:1017100091838083CE0101967C01ABE1B1E084E648
:1017200091E0F701619171917F014D915C91119769
:10173000649F9001659F300D749F300D1124FC0152
:1017400021933193CF011396E016F10651F72C96B1
:101750000FB6F894DEBF0FBECDBFDF91CF911F91C2
:101760000F91FF90EF900895CF92DF92EF92FF924A
:101770000F931F93CF93DF93C4E6D1E008E511E008
:10178000C12CD12C760169917991882777FD8095BC
:10179000982F0E94B432F8016193719381939193D1
:1017A0008F019B01AC010E94C0339B01AC01C701BA
:1017B000B6010E9438316B017C01F1E0CA36DF07C7
:1017C00011F720E030E048EC52E40E94C03320E002
:1017D00030E040E851E30E94C033AB01BC010DECA6
:1017E0001CEC2CEC3CE384E591E00E944207DF9185
:1017F000CF911F910F91FF90EF90DF90CF900895C0
:101800000C94470F0C94820FEF92FF920F931F934B
:101810000E94B40F1F910F91FF90EF9008958F9247
:101820009F92AF92BF92CF92DF92EF92FF920F936F
:101830001F93CF93DF93CDB7DEB70E942E10DF91B9
:10184000CF911F910F91FF90EF90DF90CF90BF90BD
:10185000AF909F908F9008950C94A8100C94F9105D
:101860000C944A11CF93DF9300D000D000D0CDB7B5
:10187000DEB7AE014B5F5F4FBE016D5F7F4FCE01A4
:1018800001960E94A81089819A812091A40230912A
:10189000A502821B930B9A8389838B819C81209163
:1018A000A6023091A702821B930B9C838B838D81B0
:1018B0009E812091A8023091A902821B930B9E83E6
:1018C0008D8380911101FE013196E80FF11DE80F23
:1018D000F11D408151812091120130911301429FED
:1018E000C001439F900D529F900D112490936B0166
:1018F00080936A0180911401FE013196E80FF11D79
:10190000E80FF11D408151812091150130911601A0
:10191000429FC001439F900D529F900D11249093C0
:101920006D0180936C0180911701FE013196E80FE3
:10193000F11DE80FF11D4081518120911801309176
:101940001901429FC001439F900D529F900D112499
:1019500090936F0180936E0126960FB6F894DEBFC8
:101960000FBECDBFDF91CF91089586E00C949D10FE
:101970002F923F924F925F926F927F928F929F929F
:10198000AF92BF92CF92DF92EF92FF920F931F938D
:10199000CF93DF9300D000D0CDB7DEB78C011B0111
:1019A000FC0180809180A280B380C480D580E680D5
:1019B000F7804084518462847384FB0120813181EB
:1019C00042815381C501B4010E94C03369837A8387
:1019D0008B839C83F1012481358146815781C70126
:1019E000B6010E94C0339B01AC0169817A818B8171
:1019F0009C810E9438319B01AC01C301B2010E945D
:101A00003731F8016087718782879387F1012081E0
:101A1000318142815381C301B2010E94C033698385
:101A20007A838B839C83F1012085318542855385A0
:101A3000C701B6010E94C0339B01AC0169817A8164
:101A40008B819C810E9437319B01AC01C501B4019F
:101A50000E943831F8016083718382839383F1019E
:101A60002481358146815781C301B2010E94C03370
:101A70002B013C01F1012085318542855385C5014B
:101A8000B4010E94C0339B01AC01C301B2010E94AA
:101A900038319B01AC01C701B6010E943831F80111
:101AA00064837583868397830F900F900F900F90B8
:101AB000DF91CF911F910F91FF90EF90DF90CF902A
:101AC000BF90AF909F908F907F906F905F904F905E
:101AD0003F902F9008958F929F92AF92BF92CF9296
:101AE000DF92EF92FF920F931F93CF93DF93CDB7C7
:101AF000DEB72C970FB6F894DEBF0FBECDBFC090F7
:101B00007001D0907101E0907201F09073018AE64B
:101B1000A82E81E0B82E8E010F5F1F4F4801F501FE
:101B2000619171915F01882777FD8095982F0E94C0
:101B3000B432A70196010E94C033F80161937193FA
:101B4000819391938F01F0E7AF16F1E0BF0639F76B
:101B5000B4018DEB92E00E94B80C2C960FB6F8946D
:101B6000DEBF0FBECDBFDF91CF911F910F91FF90D0
:101B7000EF90DF90CF90BF90AF909F908F9008959F
:101B80002F923F924F925F926F927F928F929F928D
:101B9000AF92BF92CF92DF92EF92FF920F931F937B
:101BA000CF93DF9300D000D0CDB7DEB7C090540103
:101BB000D0905501E0905601F090570120E030E0C0
:101BC00040E152E4C701B6010E94B533181654F43F
:101BD00020E030E044E453E4C701B6010E9415322E
:101BE00087FD05C080915301882309F443C0C0904C
:101BF0004F01D0905001E0905101F0905201A701A7
:101C0000960160E070E080E89FE30E9437312B018D
:101C10003C0108E511E09DEB292E92E0392EF801F8
:101C200081909190A190B1908F01F101208131813B
:101C300042815381C301B2010E94C03369837A8318
:101C40008B839C83A7019601C501B4010E94C03318
:101C50009B01AC0169817A818B819C810E94383122
:101C6000F10161937193819391931F01F1E0043627
:101C70001F07A9F60F900F900F900F90DF91CF9153
:101C80001F910F91FF90EF90DF90CF90BF90AF909A
:101C90009F908F907F906F905F904F903F902F908C
:101CA00008954F925F926F927F928F929F92AF9220
:101CB000BF92CF92DF92EF92FF920F931F93CF9339
:101CC000DF9380908E0290908F02AA2497FCA094BC
:101CD000BA2CC5ECD2E0688179818A819B8101ECC4
:101CE00012E0F801C080D180E280F3809B01AC015A
:101CF0000E94C0332B013C01A7019601C701B60128
:101D00000E94C0339B01AC01C301B2010E94383173
:101D10000E942D349B01AC016091BD027091BE0206
:101D20008091BF029091C0020E943707680D791D13
:101D30008A1D9B1D60934701709348018093490160
:101D400090934A01C0908C02D0908D02EE24D7FC73
:101D5000E094FE2C288139814A815B81F801608101
:101D60007181828193810E9437076C0D7D1D8E1DCC
:101D70009F1D60934B0170934C0180934D01909394
:101D80004E01DF91CF911F910F91FF90EF90DF9067
:101D9000CF90BF90AF909F908F907F906F905F900B
:101DA0004F9008950F93082F23E042E06BE6809157
:101DB00025010E945615882319F083EB92E002C09A
:101DC00088E992E09F938F9385EE92E09F938F93A3
:101DD0000E9406050F900F900F900F900F9108959D
:101DE0000F93082F22E044E06BE1809125010E94CF
:101DF0005615882319F083E792E002C08FE492E041
:101E00009F938F9385EE92E09F938F930E94060598
:101E10000F900F900F900F900F9108950F93082F30
:101E200022E044E06CE1809125010E945615882350
:101E300019F089E292E002C084E092E09F938F93D0
:101E400085EE92E09F938F930E9406050F900F906E
:101E50000F900F900F910895282F46E06BE6809128
:101E600025010E942315882319F087EE91E002C016
:101E70008BEC91E09F938F9385EE92E09F938F93ED
:101E80000E9406050F900F900F900F90089581E02B
:101E90000E94D20E80E00E94F00E80E00E940E0FA1
:101EA00080E00C942C0FEF92FF920F931F93CF932F
:101EB000DF93CDB7DEB72E970FB6F894DEBF0FBE17
:101EC000CDBF8E010F5F1F4F8EE0F80111928A95F2
:101ED000E9F788EEE82E83E0F82E26E046E065E795
:101EE000809125010E94C11589812E960FB6F89424
:101EF000DEBF0FBECDBFDF91CF911F910F91FF903D
:101F0000EF9008950F931F93CF93DF931F92CDB758
:101F1000DEB70E94530F898383ED92E09F938F93E6
:101F200005EE12E01F930F930E94060561E070E03A
:101F3000CE0101960E94EC048FEC92E09F938F9368
:101F40001F930F930E94060581E00FB6F894DEBF41
:101F50000FBECDBF9981943309F080E00F90DF91DF
:101F6000CF911F910F9108954F925F926F927F9240
:101F70008F929F92AF92BF92CF92DF92EF92FF9299
:101F80000F931F93CF93DF93CDB7DEB72E970FB686
:101F9000F894DEBF0FBECDBF6C015B012A01390191
:101FA00048019E012F5F3F4F8EE0F90111928A9503
:101FB000E9F708EE13E04EE06BE3809125010E9403
:101FC0007314898190E0982F88272A81822BF6014B
:101FD000918380838B8190E0982F88272C81822B9E
:101FE000F501918380838D8190E0982F88272E8141
:101FF000822BF20191838083898590E0982F882736
:102000002A85822BF301918380838B8590E0982F22
:1020100088272C85822BF401918380838D8590E025
:10202000982F88272E85822BF701918380832E9607
:102030000FB6F894DEBF0FBECDBFDF91CF911F91D9
:102040000F91FF90EF90DF90CF90BF90AF909F9057
:102050008F907F906F905F904F9008956F927F92D6
:102060008F929F92AF92BF92CF92DF92EF92FF92A8
:102070000F931F93CF93DF93CDB7DEB72E970FB695
:10208000F894DEBF0FBECDBFFE013196AEE01192D7
:10209000AA95E9F70E94B40F42E067E38091250119
:1020A0000E9413158FE19EE40197F1F700C0000034
:1020B00041E06AE08CE00E941315EFE1FEE4319705
:1020C000F1F700C0000008EE13E09E012F5F3F4FC4
:1020D00046E063E08CE00E9473148A8190E0982FC0
:1020E00088272981822BF601918380838C8190E05F
:1020F000982F88272B81822BF501918380838E81F5
:1021000090E0982F88272D81822BF4019183808382
:102110002E960FB6F894DEBF0FBECDBFDF91CF91E4
:102120001F910F91FF90EF90DF90CF90BF90AF90F5
:102130009F908F907F906F9008950F93082F23E0CA
:1021400042E06AE1809125010E9456150F910895A1
:10215000AF92BF92CF92DF92EF92FF920F931F93B5
:10216000CF93DF93CDB7DEB72E970FB6F894DEBFCF
:102170000FBECDBF5C016B017A019E012F5F3F4F07
:102180008EE0F90111928A95E9F708EE13E046E036
:1021900063E4809125010E947314298130E0322F7D
:1021A00022278A81282BF501318320838B8190E0BF
:1021B000982F88272C81822BF601918380838D8133
:1021C00090E0982F88272E81822BF70191838083BE
:1021D0002E960FB6F894DEBF0FBECDBFDF91CF9124
:1021E0001F910F91FF90EF90DF90CF90BF90AF9035
:1021F0000895AF92BF92CF92DF92EF92FF920F932A
:102200001F93CF93DF93CDB7DEB72E970FB6F89419
:10221000DEBF0FBECDBF5C016B017A019E012F5F57
:102220003F4F8EE0F90111928A95E9F708EE13E02D
:1022300046E06BE3809125010E947314298130E010
:10224000322F22278A81282BF501318320838B812D
:1022500090E0982F88272C81822BF6019183808330
:102260008D8190E0982F88272E81822BF701918312
:1022700080832E960FB6F894DEBF0FBECDBFDF91E0
:10228000CF911F910F91FF90EF90DF90CF90BF9073
:10229000AF900895AF92BF92CF92DF92EF92FF92EC
:1022A0000F931F93CF93DF93CDB7DEB72E970FB663
:1022B000F894DEBF0FBECDBF7C015B016A01FE0159
:1022C00031968EE0DF011D928A95E9F742E067E3DF
:1022D000809125010E941315EFE1FEE43197F1F79B
:1022E00000C0000041E06AE08CE00E9413158FE11D
:1022F0009EE40197F1F700C0000008EE13E09E0194
:102300002F5F3F4F46E063E08CE00E9473142A8108
:1023100030E0322F22278981282BD7012D933C933F
:102320008C8190E0982F88272B81822BF501918357
:1023300080838E8190E0982F88272D81822BD60173
:102340008D939C932E960FB6F894DEBF0FBECDBF33
:10235000DF91CF911F910F91FF90EF90DF90CF9081
:10236000BF90AF9008951092E10181E08093DF016A
:102370001092DE01E9EBF0E080818E7F8083808126
:102380008D7F808380E28093B80085E48093BC00D9
:102390000895880F8093BA000895413208F03FC035
:1023A0009091E1019111FCCF91E09093E101209394
:1023B000DF012FEF209374011092B901240F2093B5
:1023C000B8019093E0019091E001880F892B8093F0
:1023D000E0018091DE01813041F41092DE018091B4
:1023E000E0018093BB0085EC01C085EE8093BC00CA
:1023F0008091E1018130E1F38091B901841710F4FB
:102400004091B9012AEB31E0FB01D9018A2F821BEF
:10241000841718F48D918193F9CF842F089580E06B
:1024200008950F93413208F046C09091E101911157
:10243000FCCF92E09093E1010093DF019FEF909336
:1024400074011092B9014093B801FB016AEB71E08D
:10245000DB019A2F961B941718F491919D93F9CF55
:102460001092E0019091E001880F892B8093E001A8
:102470008091DE01813041F41092DE018091E00113
:102480008093BB0085EC01C085EE8093BC002223C5
:1024900021F08091E1018230E1F3809174018F3F5E
:1024A00061F080917401803251F080917401803329
:1024B00041F483E007C081E005C080E003C082E012
:1024C00001C084E00F910895613298F42091E101F8
:1024D000243089F460939601FC0188E991E0DC01E5
:1024E0002A2F281B261718F421912D93F9CF80E06D
:1024F000089581E0089582E008959093DB01809330
:10250000DA0108959093DD018093DC01089588231A
:1025100011F085EC01C085E88093BC00089585ED3D
:102520008093BC008091BC0084FDFCCF1092E1013F
:10253000089585EC8093BC001092E10108951F92EC
:102540000F920FB60F9211242F933F934F935F93E7
:102550006F937F938F939F93AF93BF93EF93FF936B
:102560008091B900887F803609F49CC068F5883274
:1025700009F45BC090F4803109F454C038F4882326
:1025800009F4F5C0883009F44DC0F5C0883109F46C
:102590004CC0803209F45DC0EEC0803409F468C0DC
:1025A00048F4803309F455C0883309F0E4C08093BF
:1025B0007401A8C0803509F44FC0883509F45DC0A6
:1025C000883409F0D8C0D5C0883909F4C6C0A8F449
:1025D000883709F467C038F4883609F463C0803757
:1025E00009F460C0C8C0883809F4B7C0803909F45C
:1025F0005FC0803809F0BFC05BC0803B09F485C074
:1026000038F4803A09F466C0883A09F47EC0B3C051
:10261000803C09F4A6C0883C09F4A3C0883B09F4B7
:1026200089C0A9C08091E00110C09091B90180914A
:10263000B801981770F5E091B90181E08E0F809391
:10264000B901F0E0E654FE4F80818093BB0085EC39
:1026500085C0809374018DC0E091B90181E08E0F37
:102660008093B9018091BB00F0E0E654FE4F808377
:102670009091B9018091B8016DC0E091B90181E0FC
:102680008E0F8093B9018091BB00F0E0E654FE4FBD
:1026900080838091DF0181116CC081E08093DE0135
:1026A00084EA60C083E08093E10110927501CFCF8E
:1026B00080917501803208F050C0E091750181E091
:1026C0008E0F809375018091BB00F0E0EA58FE4FB9
:1026D0008083BDCF80917501803230F4E091750127
:1026E000F0E0EA58FE4F10820E948F12609175014F
:1026F00070E0E091DA01F091DB0186E791E0099565
:10270000109275010E94991236C084E08093E10115
:102710001092970110929601E091DC01F091DD0199
:10272000099580919601811105C081E08093960101
:1027300010929801E091970181E08E0F80939701AC
:10274000F0E0E856FE4F80818093BB0090919701A6
:1027500080919601981708F47ACF85E88093BC00A1
:102760000AC085EC8093BC001092E10104C0109275
:1027700074010E948F12FF91EF91BF91AF919F91D1
:102780008F917F916F915F914F913F912F910F901A
:102790000FBE0F901F9018951092E7011092E6015E
:1027A0001092E4011092E3010C94B3110E94C9113C
:1027B0000C94CC1391E09093E2018093E501109288
:1027C000E4011092E3010895242F462F613208F0AE
:1027D00040E269EC72E00E94CD111092E701809313
:1027E000E60108950F93082F21E04091E30169EE7F
:1027F00072E08091E5010E9411121092E4011092A2
:10280000E3011092E2010F910895CF93DF931F929D
:10281000CDB7DEB789838091E201882391F0809162
:10282000E3018032B0F48091E401E82FF0E0E75159
:10283000FD4F998190838F5F8093E4018093E30142
:1028400005C061E0CE0101960E94641281E090E033
:1028500002C080E090E00F90DF91CF910895EF9259
:10286000FF920F931F93CF93DF938B012091E2018F
:10287000222359F0EC017C01E60EF71ECE15DF0590
:1028800031F089910E940514F9CF0E946412C801A9
:10289000DF91CF911F910F91FF90EF90089580915C
:1028A000E6019091E701891B08959091E7018091DD
:1028B000E601981748F4E92FF0E0E753FD4F8081D7
:1028C0009F5F9093E70108958FEF0895E091E701EE
:1028D0008091E601E81728F4F0E0E753FD4F80818E
:1028E00008958FEF08955F926F927F928F929F92DB
:1028F000AF92BF92CF92DF92EF92FF920F931F930E
:10290000CF93DF93682E562E942EE9010E94610327
:102910006B017C01C00ED11EE11CF11C812C712CBD
:10292000A92CB12C891480F5862D0E94DA13852DEF
:102930000E94051481E00E94F213C50188199109D3
:1029400080971CF4692D681901C060E241E0862D72
:102950000E94E4130E944F14882379F08E01070D22
:10296000111D0E945514F801808373940E94610325
:10297000C616D706E806F90668F7892DF0E2F915BC
:1029800008F480E2880ECECF872DDF91CF911F9182
:102990000F91FF90EF90DF90CF90BF90AF909F90FE
:1029A0008F907F906F905F9008950F931F93890190
:1029B0009A0141E00E9473141F910F910895EF92C4
:1029C000FF920F931F93CF93DF9300D01F92CDB749
:1029D000DEB7142F2A833B8369830E94DA1369814F
:1029E000862F0E9405142A81022FE22E3B81F32EAE
:1029F0008E2D801B811730F4F70181917F010E9499
:102A00000514F6CF81E00E94F21391E0811190E06D
:102A1000892F0F900F900F90DF91CF911F910F9101
:102A2000FF90EF900895CF93DF931F92CDB7DEB75D
:102A300049839E012F5F3F4F41E00E94DF140F90BA
:102A4000DF91CF910895EF92FF920F931F93CF9351
:102A5000DF931F92CDB7DEB7182F062FF42EE22E8C
:102A60002091260130912701AE014F5F5F4F0E94F8
:102A7000D514898121E030E00F2C01C0220F0A9487
:102A8000EAF7EE2019F0482F422B03C0422F409561
:102A900048234983602F812F0E9413150F90DF91E7
:102AA000CF911F910F91FF90EF900895DF92EF92D9
:102AB000FF920F931F93CF93DF931F92CDB7DEB793
:102AC000F82EE62ED42E122F2091260130912701C8
:102AD000AE014F5F5F4F0E94D514882319F14D2D31
:102AE00050E0411B51094F5F5F4FE1E0F0E002C051
:102AF000EE0FFF1F1A95E2F73197042E01C0EE0F7B
:102B00000A94EAF701C0000F4A95EAF74E2F409564
:102B100089814823E0234E2B49836E2D8F2D0E94FF
:102B2000131501C080E00F90DF91CF911F910F919D
:102B3000FF90EF90DF900895DF92EF92FF920F9356
:102B40001F93CF93DF931F92CDB7DEB7D42E7901B9
:102B50009801AE014F5F5F4F0E94D51461E070E0B5
:102B600001C0660FDA94EAF799819623F701908302
:102B70000F90DF91CF911F910F91FF90EF90DF9019
:102B80000895CF92DF92EF92FF920F931F93CF930E
:102B9000DF931F92CDB7DEB7C42ED22E9701AE01C0
:102BA0004F5F5F4F0E94D5148823F1F04C2D50E009
:102BB0004D1951094F5F5F4F61E070E002C0660F31
:102BC000771FDA94E2F761507109042E01C0660F95
:102BD0000A94EAF72981262330E002C0359527952B
:102BE0004A95E2F7F80120830F90DF91CF911F9172
:102BF0000F91FF90EF90DF90CF900895CF92DF92EA
:102C0000EF92FF926B017C010E9461036C0D7D1DB0
:102C10008E1D9F1D60932E0270932F0280933002B1
:102C200090933102FF90EF90DF90CF900895BC0118
:102C3000882777FD8095982F0E94B4322EEB37E3DA
:102C400046E05BE30E9438319B01AC016EEB77E319
:102C500086E09BE30E94193260934F01709350010C
:102C600080935101909352010895CF93DF93209167
:102C70006E0230916F02409170025091710260E0DB
:102C800070E080E89FE30E94193220E030E044E3E6
:102C900053E40E9419322BED3FE049E450E40E94D6
:102CA000C0332EEB37E346E05BE30E94C033609312
:102CB0007001709371018093720190937301809100
:102CC0008A0290918B020E94171680E090E0A0E8A3
:102CD000BDE48093540190935501A0935601B093A5
:102CE00057011092BD021092BE021092BF021092C4
:102CF000C0021092C1021092C2021092C30210923E
:102D0000C40280E090E0A0E8B6E48093C50290930E
:102D1000C602A093C702B093C80280EA93E09F93D3
:102D20008F93C6EBD3E0DF93CF930E94060588E82C
:102D300093E09F938F93DF93CF930E9406051092A9
:102D4000320281E0809339018DB79EB708960FB6A5
:102D5000F8949EBF0FBE8DBF68EE73E080E090E0F8
:102D6000DF91CF910C94FE158F929F92AF92BF92FC
:102D7000CF92DF92EF92FF920F931F930E94610315
:102D800000912A0210912B0220912C0230912D02E9
:102D9000601771078207930708F431C20E9461032C
:102DA000665F7F4F8F4F9F4F60932A0270932B0275
:102DB00080932C0290932D0280916702882309F45E
:102DC0001EC2109267020E94320C80919B028111F8
:102DD0000E946B0D80919C0281110E94C00D0E9487
:102DE000510E0E946103009126021091270220914A
:102DF0002802309129026017710782079307C0F1FA
:102E000080914E018F9380914D018F9380914C0161
:102E10008F9380914B018F9380914A018F93809182
:102E200049018F93809148018F93809147018F933F
:102E300084E793E09F938F9386EB93E09F938F9328
:102E40000E9406050E9461036C597F4F8F4F9F4F70
:102E500060932602709327028093280290932902A0
:102E60008DB79EB70C960FB6F8949EBF0FBE8DBF60
:102E70008091600281116AC020E030E04AE754E4AA
:102E80006091430270914402809145029091460204
:102E90000E94C0330E948132E0904B01F0904C01BF
:102EA00000914D0110914E01209128032F93209104
:102EB00027032F93209126032F93209125032F93EF
:102EC000209122032F93209121032F9320912003FF
:102ED0002F9320911F032F9320911E032F93209156
:102EE0001D032F9323E532E03F932F933BE5832E81
:102EF00032E0932E5B016C0124EF31E040E050E0C2
:102F000062E070E080E090E00E94E50760932903B2
:102F100070932A0380932B0390932C03409190028B
:102F2000552747FD5095469F9001479F300D569F6E
:102F3000300D112430933E0220933D028DB79EB791
:102F40000C960FB6F8949EBF0FBE8DBF80915F02A6
:102F500081116AC020E030E04AE754E460913F020A
:102F60007091400280914102909142020E94C033D0
:102F70000E948132E0904701F090480100914901A0
:102F800010914A01209140032F9320913F032F93EA
:102F900020913E032F9320913D032F9320913A03DC
:102FA0002F93209139032F93209138032F93209151
:102FB00037032F93209136032F93209135032F93BE
:102FC0002FE432E03F932F9327E5822E22E0922ECA
:102FD0005B016C0124EF31E040E050E062E070E022
:102FE00080E090E00E94E5076093090370930A0374
:102FF00080930B0390930C0340919102552747FD5A
:103000005095469F9001479F300D569F300D1124DB
:1030100030933C0220933B028DB79EB70C960FB6BF
:10302000F8949EBF0FBE8DBF809168028823A1F0E7
:10303000409165025091660260913D02809192023A
:103040000E94E92B409163025091640260913B021F
:10305000809193020E94E92B80913202882329F00B
:10306000813029F40E94B40B02C00E943A0B809177
:1030700032028F5F833019F08093320202C01092C7
:10308000320220913901332727FD30958091E901E3
:1030900090E02817390721F081E08093E80102C011
:1030A0001092E801809139018093E9018091390102
:1030B000823009F454C01CF48130D1F097C08330C1
:1030C00009F47DC0843009F091C081E493E09F93BE
:1030D0008F9386EB93E09F938F930E940605109247
:1030E00068020E94492C0F900F900F900F907EC0A5
:1030F0008091E801882371F089E693E09F938F9394
:1031000086EB93E09F938F930E9406050F900F909C
:103110000F900F901092680281E0809353010E94FB
:10312000610300912E0210912F0220913002309104
:103130003102601771078207930708F457C068EEE1
:1031400073E080E090E00E94FE1582E080933901F8
:1031500068E873E180E090E00E94FE1547C080912E
:10316000E801882371F08AE593E09F938F9386EBC3
:1031700093E09F938F930E9406050F900F900F90FE
:103180000F9081E080936802809353010E94610355
:1031900000912E0210912F022091300230913102C5
:1031A000601771078207930708F168EE73E080E00B
:1031B00090E00E94FE1583E08093390117C0809152
:1031C000E801882371F08DE493E09F938F9386EB61
:1031D00093E09F938F930E9406050F900F900F909E
:1031E0000F9081E080936802109253018091320227
:1031F0008F5F80933202833011F4109232021F915C
:103200000F91FF90EF90DF90CF90BF90AF909F9085
:103210008F9008954F925F926F927F928F929F92BC
:10322000AF92BF92CF92DF92EF92FF92CF93DF9354
:10323000CDB7DEB760970FB6F894DEBF0FBECDBF37
:103240000E946103C0902A02D0902B02E0902C02D1
:10325000F0902D026C157D058E059F0508F460C168
:103260000E946103665F7F4F8F4F9F4F60932A02DA
:1032700070932B0280932C0290932D0219861A864C
:103280001B861C861D821E821F82188619821A8246
:103290001B821C82AE014F5F5F4FBE016B5F7F4F91
:1032A000CE0109960E942E0C6091A4027091A50295
:1032B000882777FD8095982F0E94B4329B01AC013E
:1032C00069857A858B859C850E9437312B013C016D
:1032D00069877A878B879C876091A6027091A70285
:1032E000882777FD8095982F0E94B4329B01AC010E
:1032F0006D817E818F8198850E9437314B015C0101
:103300006D837E838F8398876091A8027091A90254
:10331000882777FD8095982F0E94B4329B01AC01DD
:1033200069817A818B819C810E9437316B017C019C
:1033300069837A838B839C8320E030E040E05FE305
:10334000C301B2010E94C0332B013C0120E030E0F8
:1033500040E05FE360912202709123028091240299
:10336000909125020E94C0339B01AC01C301B201C0
:103370000E9438312B013C0160932202709323029A
:10338000809324029093250220E030E040E05FE348
:10339000C501B4010E94C0334B015C0120E030E064
:1033A00040E05FE360911E0270911F028091200255
:1033B000909121020E94C0339B01AC01C501B40170
:1033C0000E9438314B015C0160931E0270931F0212
:1033D000809320029093210220E030E040E05FE300
:1033E000C701B6010E94C0336B017C0120E030E0D0
:1033F00040E05FE360911A0270911B0280911C0211
:1034000090911D020E94C0339B01AC01C701B6011F
:103410000E9438316B017C0160931A0270931B0289
:1034200080931C0290931D02C501B4019058A7011E
:1034300096010E94C2316D877E878F87988BA50188
:103440009401C501B4010E94C0334B015C01A70186
:103450009601C701B6010E94C0339B01AC01C501B2
:10346000B4010E9438310E942D349B01AC01C3018C
:10347000B2010E94C2316B017C010E946103809005
:10348000260290902702A0902802B0902902681589
:1034900079058A059B0508F443C020E030E044E349
:1034A00053E4C701B6010E94C0332BED3FE049E46D
:1034B00050E40E9419329F938F937F936F9320E083
:1034C00030E044E353E46D857E858F8598890E94C2
:1034D000C0332BED3FE049E450E40E9419329F9342
:1034E0008F937F936F938DE293E09F938F9386EBFF
:1034F00093E09F938F930E9406050E9461036C598D
:103500007F4F8F4F9F4F60932602709327028093C7
:103510002802909329020FB6F894DEBF0FBECDBFEC
:1035200060960FB6F894DEBF0FBECDBFDF91CF918E
:10353000FF90EF90DF90CF90BF90AF909F908F90D3
:103540007F906F905F904F900895CF93DF9320E02E
:1035500030E04AE754E46091190370911A038091B6
:103560001B0390911C030E94C0339F938F937F9302
:103570006F9389E293E09F938F93C6EBD3E0DF9341
:10358000CF930E94060520E030E04AE754E46091C2
:1035900045037091460380914703909148030E9430
:1035A000C0339F938F937F936F9385E293E09F93B4
:1035B0008F93DF93CF930E94060520E030E04AE727
:1035C00054E4609111037091120380911303909160
:1035D00014030E94C0339F938F937F936F9381E274
:1035E00093E09F938F93DF93CF930E940605809182
:1035F00044038F93809143038F93809142038F9371
:10360000809141038F938DE193E09F938F93DF939C
:10361000CF930E9406058DB79EB780960FB6F8949B
:103620009EBF0FBE8DBF809110038F9380910F03BB
:103630008F9380910E038F9380910D038F9389E177
:1036400093E09F938F93DF93CF930E940605809121
:1036500030038F9380912F038F9380912E038F934C
:1036600080912D038F9385E193E09F938F93DF9358
:10367000CF930E9406056091490370914A0380919F
:103680004B0390914C030E9481327F936F9381E1B1
:1036900093E09F938F93DF93CF930E9406056091F1
:1036A00015037091160380911703909118030E94DF
:1036B00081327F936F938DE093E09F938F93DF939D
:1036C000CF930E940605609131037091320380917F
:1036D0003303909134030E9481327F936F9389E08A
:1036E00093E09F938F93DF93CF930E9406058DB74E
:1036F0009EB782960FB6F8949EBF0FBE8DBFECE2C8
:10370000F1E083818F9382818F9381818F93808178
:103710008F9385E093E09F938F93DF93CF930E94E5
:103720000605E0E3F1E083818F9382818F938181AD
:103730008F9380818F9381E093E09F938F93DF93AA
:10374000CF930E940605E4E3F1E083818F938281A9
:103750008F9381818F9380818F938DEF92E09F93E0
:103760008F93DF93CF930E9406058091FD018F9385
:103770008091FC018F938091FB018F938091FA01DE
:103780008F9389EF92E09F938F93DF93CF930E9463
:1037900006058DB79EB780960FB6F8949EBF0FBEF4
:1037A0008DBF809101028F93809100028F93809151
:1037B000FF018F938091FE018F9385EF92E09F939D
:1037C0008F93DF93CF930E9406058091F9018F9329
:1037D0008091F8018F938091F7018F938091F6018A
:1037E0008F9382EF92E09F938F93DF93CF930E940A
:1037F00006058FEE92E09F938F93DF93CF930E9405
:1038000006058DB79EB744960FB6F8949EBF0FBEBF
:103810008DBFDF91CF9108954F925F926F927F920B
:103820008F929F92AF92BF92CF92DF92EF92FF92D0
:103830000F931F93CF93DF93CDB7DEB7CC56D1094B
:103840000FB6F894DEBF0FBECDBF25966CAF7DAF2F
:103850008EAF9FAF259729962CAF3DAF4EAF5FAF90
:1038600029972D96ECAEFDAE0EAF1FAF2D97209190
:1038700028013091290140912A0150912B012DA757
:103880003EA74FA758AB80912C0190912D01A0919C
:103890002E01B0912F0189A39AA3ABA3BCA32091C1
:1038A0003001309131014091320150913301298F23
:1038B0003A8F4B8F5C8F8091340190913501A091AC
:1038C0003601B0913701898B9A8BAB8BBC8B2596D7
:1038D0002CAD3DAD4EAD5FAD2597CA01B9010E943B
:1038E000C0332B013C0129962CAD3DAD4EAD5FADF3
:1038F0002997CA01B9010E94C0339B01AC01C301E1
:10390000B2010E9438312B013C01A8019701C80186
:10391000B7010E94C0339B01AC01C301B2010E94F8
:1039200038310E942D342B013C0120E030E0A90108
:103930000E941532882311F40C943327C957DF4FA6
:10394000288139814A815B81C758D040CA01B901B9
:103950000E94C03369877A878B879C87C557DF4F62
:10396000288139814A815B81CB58D040CA01B90195
:103970000E94C0339B01AC0169857A858B859C854B
:103980000E94383169877A878B879C87C157DF4FC0
:10399000288139814A815B81CF58D040CA01B90161
:1039A0000E94C0339B01AC0169857A858B859C851B
:1039B0000E9438310E942D3469877A878B879C87D3
:1039C00020E030E0A9010E941532882311F40C9404
:1039D00033272DA53EA54FA558A9CA01B9010E94BC
:1039E00038316D877E878F87988B29A13AA14BA1AB
:1039F0005CA1CA01B9010E94383165966CAF7DAFF8
:103A00008EAF9FAF6597298D3A8D4B8D5C8DCA0126
:103A1000B9010E94383169966CAF7DAF8EAF9FAF10
:103A2000699729893A894B895C89CA01B9010E9441
:103A30003831A9966CAF7DAF8EAF9FAFA9972DA5FA
:103A40003EA54FA558A9CA01B9010E94C03361968D
:103A50006CAF7DAF8EAF9FAF619729A13AA14BA10B
:103A60005CA16DA57EA58FA598A90E94C033219663
:103A70006CAF7DAF8EAF9FAF2197298D3A8D4B8D67
:103A80005C8D6DA57EA58FA598A90E94C033AD96CB
:103A90006CAF7DAF8EAF9FAFAD9729A13AA14BA17F
:103AA0005CA1CA01B9010E94C03369AF7AAF8BAF84
:103AB0009CAF29893A894B895C8969A17AA18BA13C
:103AC0009CA10E94C0336DAB7EAB8FAB98AF298DAC
:103AD0003A8D4B8D5C8DCA01B9010E94C0336DA334
:103AE0007EA38FA398A729893A894B895C89CA014B
:103AF000B9010E94C03369AB7AAB8BAB9CABA3011D
:103B0000920160E070E080E89FE30E941932A19684
:103B10006CAF7DAF8EAF9FAFA19729853A854B855E
:103B20005C8560E070E080E89FE30E9419322B0121
:103B30003C019B01AC01C957DF4F688179818A81C3
:103B40009B81C758D0400E94C0336D8B7E8B8F8B7A
:103B5000988FA3019201C557DF4F688179818A81CF
:103B60009B81CB58D0400E94C03369877A878B876E
:103B70009C87A3019201C157DF4F688179818A81B7
:103B80009B81CF58D0400E94C0332B013C012D892E
:103B90003E894F89588D6D857E858F8598890E94D5
:103BA000C0336D837E838F83988729853A854B85C3
:103BB0005C856D857E858F8598890E94C03369A755
:103BC0007AA78BA79CA7A30192016D857E858F851F
:103BD00098890E94C03369837A838B839C832D8963
:103BE0003E894F89588D65966CAD7DAD8EAD9FAD8C
:103BF00065970E94C0336D966CAF7DAF8EAF9FAF5F
:103C00006D9761962CAD3DAD4EAD5FAD61976D8901
:103C10007E898F89988D0E94C0336D8F7E8F8F8FA4
:103C200098A329893A894B895C8969A57AA58BA5CE
:103C30009CA50E94C0339B01AC016D8D7E8D8F8D44
:103C400098A10E9437316D8F7E8F8F8F98A3298D19
:103C50003A8D4B8D5C8D69817A818B819C810E942C
:103C6000C0339B01AC016D8D7E8D8F8D98A10E941C
:103C700038316D8F7E8F8F8F98A329AD3AAD4BADC4
:103C80005CAD6D897E898F89988D0E94C0339B01C0
:103C9000AC016D8D7E8D8F8D98A10E9438316D8F16
:103CA0007E8F8F8F98A329853A854B855C85659695
:103CB0006CAD7DAD8EAD9FAD65970E94C033298DF3
:103CC0003A8D4B8D5C8D0E94C0339B01AC016D8D94
:103CD0007E8D8F8D98A10E9438316D8F7E8F8F8F52
:103CE00098A3A301920165966CAD7DAD8EAD9FAD9D
:103CF00065970E94C03329893A894B895C890E9463
:103D0000C0339B01AC016D8D7E8D8F8D98A10E947B
:103D100038316D8F7E8F8F8F98A32DA13EA14FA13B
:103D200058A56D897E898F89988D0E94C0339B012B
:103D3000AC016D8D7E8D8F8D98A10E9437316D8F76
:103D40007E8F8F8F98A329A93AA94BA95CA96D8969
:103D50007E898F89988D0E94C0339B01AC016D8D47
:103D60007E8D8F8D98A10E9437316D8F7E8F8F8FC2
:103D700098A329893A894B895C896D817E818F81DD
:103D800098850E94C033A5966CAF7DAF8EAF9FAF74
:103D9000A59761962CAD3DAD4EAD5FAD6197698540
:103DA0007A858B859C850E94C0339B01AC01A596CA
:103DB0006CAD7DAD8EAD9FADA5970E943831A596B7
:103DC0006CAF7DAF8EAF9FAFA59729A13AA14BA154
:103DD0005CA169817A818B819C810E94C0339B01A7
:103DE000AC01A5966CAD7DAD8EAD9FADA5970E9443
:103DF000373169837A838B839C83298D3A8D4B8DF0
:103E00005C8D6D966CAD7DAD8EAD9FAD6D970E9456
:103E1000C0339B01AC0169817A818B819C810E94B6
:103E2000383169837A838B839C8329AD3AAD4BAD5E
:103E30005CAD69857A858B859C850E94C0339B012A
:103E4000AC0169817A818B819C810E9437316983C1
:103E50007A838B839C832DA13EA14FA158A56985B0
:103E60007A858B859C850E94C0339B01AC0169815A
:103E70007A818B819C810E94383169837A838B831C
:103E80009C83A301920169966CAD7DAD8EAD9FAD13
:103E900069970E94C03329893A894B895C890E94BD
:103EA000C0339B01AC0169817A818B819C810E9426
:103EB000383169837A838B839C8329A93AA94BA9DA
:103EC0005CA969857A858B859C850E94C0339B019E
:103ED000AC0169817A818B819C810E943731698331
:103EE0007A838B839C832D8D3E8D4F8D58A1CA0183
:103EF000B9010E94C0336D8F7E8F8F8F98A3298167
:103F00003A814B815C81CA01B9010E94C0339B0197
:103F1000AC016D8D7E8D8F8D98A10E9438310E94ED
:103F20002D3469837A838B839C836D817E818F811D
:103F300098859058298D3A8D4B8D5C8D0E94C033A9
:103F40006D837E838F83988729A13AA14BA15CA1C1
:103F500069A57AA58BA59CA50E94C0339B01AC01E5
:103F60006D817E818F8198850E9438316D837E833B
:103F70008F83988761962CAD3DAD4EAD5FAD619757
:103F8000C301B2010E94C0339B01AC016D817E81EF
:103F90008F8198850E9438316D837E838F839887C7
:103FA00029893A894B895C896D966CAD7DAD8EAD62
:103FB0009FAD6D970E94C0339B01AC016D817E81E6
:103FC0008F8198850E9438316D837E838F83988797
:103FD00029AD3AAD4BAD5CADC301B2010E94C03317
:103FE0009B01AC016D817E818F8198850E94373164
:103FF0006D837E838F83988729853A854B855C8581
:1040000069966CAD7DAD8EAD9FAD69970E94C03352
:1040100029893A894B895C890E94C0339B01AC0194
:104020006D817E818F8198850E9438316D837E837A
:104030008F8398872DA13EA14FA158A5C301B2013E
:104040000E94C0339B01AC016D817E818F81988578
:104050000E9437316D837E838F83988729A93AA97F
:104060004BA95CA9C301B2010E94C0339B01AC0102
:104070006D817E818F8198850E9438316D837E832A
:104080008F8398879B01AC010E94383161966CAF99
:104090007DAF8EAF9FAF61972DA93EA94FA958ADB7
:1040A000CA01B9010E94383169A77AA78BA79CA7DA
:1040B000298D3A8D4B8D5C8D6D857E858F85988998
:1040C0000E94C0339B01AC0169A57AA58BA59CA574
:1040D0000E94373169A77AA78BA79CA7A1962CAD20
:1040E0003DAD4EAD5FADA19725966CAD7DAD8EAD6E
:1040F0009FAD25970E94C0339B01AC0169A57AA5AD
:104100008BA59CA50E94373125966CAF7DAF8EAFF5
:104110009FAF259721962CAD3DAD4EAD5FAD21975C
:10412000CA01B9010E94383169A77AA78BA79CA759
:1041300029893A894B895C8969966CAD7DAD8EADD4
:104140009FAD69970E94C0339B01AC0169A57AA518
:104150008BA59CA50E94383169A77AA78BA79CA73D
:10416000A1962CAD3DAD4EAD5FADA19729966CAD3E
:104170007DAD8EAD9FAD29970E94C0339B01AC01F0
:1041800069A57AA58BA59CA50E94373129966CAFAD
:104190007DAF8EAF9FAF2997298D3A8D4B8D5C8D6A
:1041A0006D817E818F8198850E94C0336D966CAF42
:1041B0007DAF8EAF9FAF6D972DA13EA14FA158A5AA
:1041C00060E070E080E09FE30E94373129A93AA9BE
:1041D0004BA95CA90E9437319B01AC0169817A81AE
:1041E0008B819C810E94C03369AB7AAB8BAB9CAB5B
:1041F000AD962CAD3DAD4EAD5FADAD976DA97EA931
:104200008FA998AD0E9437319B01AC016D817E81F1
:104210008F8198850E94C0339B01AC0169A97AA95E
:104220008BA99CA90E9438312D893E894F89588DD0
:104230000E9437316D8B7E8B8F8B988F29813A81CD
:104240004B815C81505829A73AA74BA75CA729A1AD
:104250003AA14BA15CA16D817E818F8198850E94DE
:10426000C0336D8F7E8F8F8F98A3298D3A8D4B8DA4
:104270005C8D69A17AA18BA19CA10E94C03369AB1E
:104280007AAB8BAB9CAB29893A894B895C896DA54C
:104290007EA58FA598A90E94C0339B01AC0169A996
:1042A0007AA98BA99CA90E9437319B01AC01698135
:1042B0007A818B819C810E94C03369AB7AAB8BABD6
:1042C0009CAB29893A894B895C89698D7A8D8B8D64
:1042D0009C8D0E94C0339B01AC0121966CAD7DADDD
:1042E0008EAD9FAD21970E9438319B01AC016D814D
:1042F0007E818F8198850E94C0339B01AC0169A9A2
:104300007AA98BA99CA90E94383129853A854B85C9
:104310005C850E94373169877A878B879C87298DD6
:104320003A8D4B8D5C8D69817A818B819C810E9455
:10433000C03321966CAF7DAF8EAF9FAF21972DA973
:104340003EA94FA958ADAD966CAD7DAD8EAD9FAD7C
:10435000AD970E9438319B01AC0169817A818B81D4
:104360009C810E94C0336DAB7EAB8FAB98AF29AD03
:104370003AAD4BAD5CAD60E070E080E09FE30E9441
:1043800037312DA13EA14FA158A50E9437319B0185
:10439000AC016D817E818F8198850E94C0339B0125
:1043A000AC016DA97EA98FA998AD0E943831A301F7
:1043B00092010E9437316DAB7EAB8FAB98AF69969F
:1043C0006CAD7DAD8EAD9FAD6997905825962CADA7
:1043D0003DAD4EAD5FAD25970E94C0332B013C0132
:1043E00029962CAD3DAD4EAD5FAD299765966CAD70
:1043F0007DAD8EAD9FAD65970E94C0339B01AC0132
:10440000C301B2010E9438312B013C012D893E8944
:104410004F89588D6D966CAD7DAD8EAD9FAD6D970E
:104420000E94C0339B01AC01C301B2010E9437312D
:104430002B013C0129893A894B895C8969A57AA5B8
:104440008BA59CA50E94C0332D8D3E8D4F8D58A10C
:104450000E94383129853A854B855C850E94C0339E
:104460009B01AC01C301B2010E9438312B013C0118
:104470002DA93EA94FA958AD21966CAD7DAD8EAD4D
:104480009FAD21970E94C0339B01AC01C301B201D3
:104490000E94383169AB7AAB8BAB9CAB29AD3AAD9E
:1044A0004BAD5CADCA01B9010E9438319B01AC0132
:1044B00060E070E080E89FE30E9437312B013C010F
:1044C0002DA13EA14FA158A5CA01B9010E943831C2
:1044D0009B01AC01C301B2010E9437312B013C01A9
:1044E000A1962CAD3DAD4EAD5FADA197C801B70112
:1044F0000E94C0339B01AC01C301B2010E9437315D
:104500002B013C0129893A894B895C896D817E8127
:104510008F8198850E94C03369AF7AAF8BAF9CAF13
:104520002DA53EA54FA558A96D817E818F819885C7
:104530000E94C0332D966CAF7DAF8EAF9FAF2D978D
:1045400025962CAD3DAD4EAD5FAD2597A9966CADD2
:104550007DAD8EAD9FADA9970E94C0336D837E83E4
:104560008F83988729962CAD3DAD4EAD5FAD2997D1
:104570006D857E858F8598890E94C0339B01AC0133
:104580006D817E818F8198850E9438316D837E8315
:104590008F83988720E030E040E850E469A17AA159
:1045A0008BA19CA10E94C033A30192010E94C03341
:1045B0009B01AC016D817E818F8198850E9437318E
:1045C0006D837E838F8398872D893E894F89588D8F
:1045D00069AD7AAD8BAD9CAD0E94C0339B01AC013F
:1045E0006D817E818F8198850E9438316D837E83B5
:1045F0008F8398872D962CAD3DAD4EAD5FAD2D9739
:1046000021966CAD7DAD8EAD9FAD21970E94383166
:1046100029853A854B855C850E94C0339B01AC019E
:104620006D817E818F8198850E9438316D837E8374
:104630008F83988729893A894B895C8969817A8136
:104640008B819C810E94C0336DA37EA38FA398A70A
:1046500029A13AA14BA15CA161966CAD7DAD8EAD57
:104660009FAD61970E94C0339B01AC016DA17EA1FB
:104670008FA198A50E9437312DA93EA94FA958AD09
:104680000E94C0339B01AC016D817E818F81988532
:104690000E9438316DA37EA38FA398A729813A8108
:1046A0004B815C81CA01B9010E9438319B01AC0188
:1046B00050582D833E834F83588729A13AA14BA19F
:1046C0005CA169817A818B819C810E94C033219693
:1046D0006CAF7DAF8EAF9FAF21976D857E858F8547
:1046E0009889905825962CAD3DAD4EAD5FAD259780
:1046F0000E94C0336D877E878F87988B29962CAD5B
:104700003DAD4EAD5FAD2997A9966CAD7DAD8EAD3B
:104710009FADA9970E94C0339B01AC016D857E853A
:104720008F8598890E9438316D877E878F87988B17
:1047300020E030E040E850E4698D7A8D8B8D9C8DCF
:104740000E94C033A30192010E94C0339B01AC01BF
:104750006D857E858F8598890E9437312B013C01BC
:10476000298D3A8D4B8D5C8D6D817E818F819885F1
:104770000E94C0332D962CAD3DAD4EAD5FAD2D9753
:104780000E9437312D893E894F89588D0E94C03350
:104790009B01AC01C301B2010E9438312B013C01E5
:1047A00029AD3AAD4BAD5CAD21966CAD7DAD8EAD16
:1047B0009FAD21970E94383129853A854B855C85CC
:1047C0000E94C0339B01AC01C301B2010E94383189
:1047D0006D877E878F87988B2DA53EA54FA558A9FD
:1047E00069817A818B819C810E94C0332B013C01BD
:1047F000298D3A8D4B8D5C8D61966CAD7DAD8EAD06
:104800009FAD61970E94C0339B01AC01C301B2010F
:104810000E9437312DA93EA94FA958AD0E94C0333F
:104820009B01AC016D857E858F8598890E9438310A
:104830002B013C0125962CAD3DAD4EAD5FAD2597CE
:1048400065966CAD7DAD8EAD9FAD65970E94C03312
:1048500069837A838B839C8329962CAD3DAD4EADC5
:104860005FAD299769966CAD7DAD8EAD9FAD6997B3
:104870000E94C0339B01AC0169817A818B819C814C
:104880000E94383169837A838B839C8329893A8992
:104890004B895C896D817E818F8198850E94C033B0
:1048A0002D8D3E8D4F8D58A10E9438312D893E8926
:1048B0004F89588D0E94C0339B01AC0169817A8178
:1048C0008B819C810E94383169837A838B839C839E
:1048D0002DA53EA54FA558A969A57AA58BA59CA590
:1048E0000E94C0336D962CAD3DAD4EAD5FAD6D9762
:1048F0000E94383129853A854B855C850E94C033FA
:104900009B01AC0169817A818B819C810E94383145
:1049100069837A838B839C832DA93EA94FA958ADC7
:1049200021966CAD7DAD8EAD9FAD21970E94C033B9
:104930009B01AC0169817A818B819C810E94383115
:1049400069877A878B879C8729A93AA94BA95CA993
:10495000CA01B9010E94C03369837A838B839C8327
:104960002DA13EA14FA158A5CA01B9010E94C03393
:104970009B01AC0169817A818B819C810E943831D5
:1049800069837A838B839C83A3019201C301B20163
:104990000E94C0339B01AC0169817A818B819C812B
:1049A0000E94383169837A838B839C8329853A8579
:1049B0004B855C85CA01B9010E94C0339B01AC01E3
:1049C00069817A818B819C810E9438310E942D34CB
:1049D0009B01AC0160E070E080E89FE30E94193227
:1049E0006D837E838F8398878091EA019091EB019C
:1049F000A091EC01B091ED0189839A83AB83BC83D4
:104A000069A17AA18BA19CA19058A60195010E9451
:104A1000C0336D8B7E8B8F8B988FC158DF4F288171
:104A200039814A815B81CF57D040698D7A8D8B8DDA
:104A30009C8D0E94C0339B01AC016D897E898F895A
:104A4000988D0E9437316D8B7E8B8F8B988FCD57D1
:104A5000DF4F288139814A815B81C358D040698901
:104A60007A898B899C890E94C0339B01AC016D8936
:104A70007E898F89988D0E94373120E030E040E0B8
:104A80005FE30E94C0336D8B7E8B8F8B988F2D815F
:104A90003E814F81588569A97AA98BA99CA90E945A
:104AA000C0332DE037EC4AE15FE30E94C0339B0145
:104AB000AC016D897E898F89988D0E94373129815B
:104AC0003A814B815C810E94C0339B01AC016DA592
:104AD0007EA58FA598A90E9438316D8B7E8B8F8B18
:104AE000988FA60195016DA57EA58FA598A90E9416
:104AF000C0336D877E878F87988BCD57DF4F288196
:104B000039814A815B81C358D040698D7A8D8B8D04
:104B10009C8D0E94C0339B01AC016D857E858F8585
:104B200098890E9438316D877E878F87988BC1580E
:104B3000DF4F288139814A815B81CF57D040698915
:104B40007A898B899C890E94C0339B01AC016D8559
:104B50007E858F8598890E94373120E030E040E0E3
:104B60005FE30E94C0336D877E878F87988B2D818E
:104B70003E814F8158856DA17EA18FA198A50E948D
:104B8000C0332DE037EC4AE15FE30E94C0339B0164
:104B9000AC016D857E858F8598890E94373129818A
:104BA0003A814B815C810E94C0339B01AC0169A1B9
:104BB0007AA18BA19CA10E9438316DA37EA38FA303
:104BC00098A7C158DF4F288139814A815B81CF572F
:104BD000D0406DA57EA58FA598A90E94C0336D8792
:104BE0007E878F87988BCD57DF4F288139814A8107
:104BF0005B81C358D04069A17AA18BA19CA10E947E
:104C0000C0339B01AC016D857E858F8598890E949C
:104C100037316D877E878F87988BA60195016989CB
:104C20007A898B899C890E94C0339B01AC016D8578
:104C30007E858F8598890E94383120E030E040E001
:104C40005FE30E94C0336D877E878F87988B2D81AD
:104C50003E814F815885C301B2010E94C0332DE0CF
:104C600037EC4AE15FE30E94C0339B01AC016D85E4
:104C70007E858F8598890E94373129813A814B81C1
:104C80005C810E94C0339B01AC01698D7A8D8B8D54
:104C90009C8D0E9438312B013C01CD57DF4F28817C
:104CA00039814A815B81C358D0406DA57EA58FA50F
:104CB00098A90E94C0336DA77EA78FA798ABC15853
:104CC000DF4F288139814A815B81CF57D04069A16C
:104CD0007AA18BA19CA10E94C0339B01AC016DA560
:104CE0007EA58FA598A90E94383169A37AA38BA3CA
:104CF0009CA3A6019501698D7A8D8B8D9C8D0E9458
:104D0000C0339B01AC0169A17AA18BA19CA10E9437
:104D1000373120E030E040E05FE30E94C0336B01B8
:104D20007C012D813E814F81588569857A858B85EF
:104D30009C850E94C0332DE037EC4AE15FE30E947E
:104D4000C0339B01AC01C701B6010E9437312981F4
:104D50003A814B815C810E94C0339B01AC0169891F
:104D60007A898B899C890E9438314B015C012D899D
:104D70003E894F89588DCA01B9010E94C0336B0129
:104D80007C012DA13EA14FA158A5CA01B9010E94E5
:104D9000C0339B01AC01C701B6010E9438316B01E1
:104DA0007C01A3019201C301B2010E94C0339B01A7
:104DB000AC01C701B6010E9438316B017C01A5012D
:104DC0009401C501B4010E94C0339B01AC01C7012D
:104DD000B6010E9438310E942D349B01AC0160E085
:104DE00070E080E89FE30E9419326B017C019B0117
:104DF000AC016D897E898F89988D0E94C033609344
:104E000028017093290180932A0190932B01A70117
:104E100096016DA17EA18FA198A50E94C0336093D9
:104E20002C0170932D0180932E0190932F01A701E7
:104E30009601C301B2010E94C033609330017093A8
:104E400031018093320190933301A7019601C5018E
:104E5000B4010E94C0336093340170933501809394
:104E6000360190933701C459DF4F0FB6F894DEBF77
:104E70000FBECDBFDF91CF911F910F91FF90EF90AB
:104E8000DF90CF90BF90AF909F908F907F906F906A
:104E90005F904F9008954F925F926F927F928F92A2
:104EA0009F92AF92BF92CF92DF92EF92FF920F93B9
:104EB0001F93CF93DF93CDB7DEB76C970FB6F894FF
:104EC000DEBF0FBECDBF809102029091030201961A
:104ED000909303028093020244E152E066E172E0A3
:104EE00088E192E00E942E0C6091180270911902E4
:104EF0008091A4029091A502681B790B709319020E
:104F000060931802C0901602D09017028091A602FA
:104F10009091A702C81AD90AD0921702C09216021D
:104F2000E0901402F09015028091A8029091A902DD
:104F3000E81AF90AF0921502E0921402882777FD28
:104F40008095982F0E94B4329B01AC010E943831A9
:104F500020E030E040E058E30E94C0336093190342
:104F600070931A0380931B0390931C03B601882748
:104F700077FD8095982F0E94B4329B01AC010E946E
:104F8000383120E030E040E058E30E94C0336093C5
:104F90004503709346038093470390934803B701FA
:104FA000882777FD8095982F0E94B4329B01AC0131
:104FB0000E94383120E030E040E058E30E94C033E6
:104FC000609311037093120380931303909314035F
:104FD0004EE052E060E172E082E192E00E942C0C2F
:104FE0006091120270911302882777FD8095982FA7
:104FF0000E94B43220E030E04AE753E40E94C0331C
:1050000020E030E040E058E30E94C0336093410369
:105010007093420380934303909344036091100282
:1050200070911102882777FD8095982F0E94B432E5
:1050300020E030E04AE753E40E94C03320E030E053
:1050400040E058E30E94C03360930D0370930E0359
:1050500080930F039093100360910E0270910F02E2
:10506000882777FD8095982F0E94B43220E030E0A9
:105070004AE753E40E94C03320E030E040E058E3C8
:105080000E94C03360932D0370932E0380932F03EF
:10509000909330036091380170E088EE93E00E94B5
:1050A000CC3480910202909103026817790708F0CE
:1050B0008AC048E052E06AE072E08CE092E00E9430
:1050C000300C60910C0270910D02882777FD80955D
:1050D000982F0E94B43220E030E040E251E40E9478
:1050E000C03320E030EA49E954E40E94C03320E0B4
:1050F00030E040E859E30E94C03320E030E040E96E
:1051000051E40E9438316093490370934A038093BD
:105110004B0390934C0360910A0270910B02882715
:1051200077FD8095982F0E94B43220E030E040E275
:1051300051E40E94C03320E030EA49E954E40E947F
:10514000C03320E030E040E859E30E94C03320E063
:1051500030E04CE852E40E943831609315037093BC
:1051600016038093170390931803609108027091BF
:105170000902882777FD8095982F0E94B43220E09D
:1051800030E040E251E40E94C03320E030EA49E9D7
:1051900054E40E94C03320E030E040E859E30E942C
:1051A000C03320E030E047E853E40E943831609398
:1051B000310370933203809333039093340310923E
:1051C0000302109202020E9461036B017C01609352
:1051D000F2017093F3018093F4019093F5018091B3
:1051E000EE019091EF01A091F001B091F101A701C2
:1051F0009601281B390B4A0B5B0BCA01B9010E94AF
:10520000B23220E034E244E759E40E94193260935C
:10521000EA017093EB018093EC019093ED01C09251
:10522000EE01D092EF01E092F001F092F1012BED4E
:105230003FE049E450E46091410370914203809162
:105240004303909144030E94C03320E030E044E3E4
:1052500053E40E9419325B016C018091110390911B
:105260001203A0911303B091140389839A83AB8333
:10527000BC83409045035090460360904703709074
:1052800048032091190330911A0340911B03509158
:105290001C032D833E834F835887809134038F9363
:1052A000809133038F93809132038F9380913103E8
:1052B0008F9380914C038F9380914B038F938091B8
:1052C0004A038F93809149038F93809118038F93A2
:1052D000809117038F93809116038F93809115030C
:1052E0008F932BED3FE049E450E460912D037091E2
:1052F0002E0380912F03909130030E94C03320E051
:1053000030E044E353E40E9419329F938F937F93DC
:105310006F932BED3FE049E450E460910D037091F1
:105320000E0380910F03909110030E94C03320E080
:1053300030E044E353E40E9419329F938F937F93AC
:105340006F93E980FA800B811C81A30192016D812A
:105350007E818F8198850E940C1C0E9461030FB68C
:10536000F894DEBF0FBECDBFC0902602D0902702BA
:10537000E0902802F09029026C157D058E059F05AE
:1053800008F433C18090280190902901A0902A014F
:10539000B0902B01A5019401C501B4010E94C03356
:1053A0006D837E838F83988780912C0190912D014E
:1053B000A0912E01B0912F0189839A83AB83BC8386
:1053C0009C01AD01BC01CD010E94C033698B7A8B79
:1053D0008B8B9C8B4090300150903101609032015A
:1053E00070903301A3019201C301B2010E94C03346
:1053F0006D8B7E8B8F8B988FC0903401D090350150
:10540000E0903601F0903701A7019601C701B6017F
:105410000E94C033698F7A8F8B8F9C8F29893A893C
:105420004B895C896D817E818F8198850E9438319E
:105430002D893E894F89588D0E943731298D3A8DAB
:105440004B8D5C8D0E9437316D877E878F87988B5F
:10545000A301920169817A818B819C810E94C03372
:1054600069877A878B879C87A7019601C501B4015C
:105470000E94C0339B01AC0169857A858B859C8530
:105480000E9438319B01AC010E9438312D853E8548
:105490004F8558890E94C2316D877E878F87988B90
:1054A000A701960169817A818B819C810E94C0331A
:1054B00069877A878B879C87A3019201C501B40114
:1054C0000E94C0339B01AC0169857A858B859C85E0
:1054D0000E9437319B01AC010E9438310E949C31FF
:1054E00069877A878B879C8729893A894B895C8968
:1054F0006D817E818F8198850E9437312D893E890B
:105500004F89588D0E943731298D3A8D4B8D5C8D96
:105510000E9438316D837E838F83988729813A81F9
:105520004B815C81C501B4010E94C0334B015C0119
:10553000A7019601C301B2010E94C0339B01AC01D7
:10554000C501B4010E9438319B01AC010E94383181
:105550002D813E814F8158850E94C2316B017C01B3
:1055600069857A858B859C85905820EE3EE245E6DC
:1055700052E40E94C0336093FA017093FB01809360
:10558000FC019093FD012DEA3BEF4DE252E46D8565
:105590007E858F8598890E94C0336093F601709351
:1055A000F7018093F8019093F90120EE3EE245E681
:1055B00052E4C701B6010E94C0336093FE017093AC
:1055C000FF0180930002909301020E94A51A0E949D
:1055D00061036C597F4F8F4F9F4F609326027093EA
:1055E000270280932802909329026C960FB6F894B4
:1055F000DEBF0FBECDBFDF91CF911F910F91FF9006
:10560000EF90DF90CF90BF90AF909F908F907F9062
:105610006F905F904F9008958F929F92AF92BF923C
:10562000CF92DF92EF92FF920F931F9383E00E943D
:10563000562CBC01882777FD8095982F0E94B432A4
:105640002AE038E240EA5BE30E94C0332DE534E70C
:1056500041EB50E40E94C033AB01BC0140933302E4
:1056600050933402609335027093360208EB17E6CC
:1056700024EA3CE387E392E00E94420780919A0289
:105680008823B9F1C0903702D0903802E0903902F7
:10569000F0903A0220E030E048EC52E4C701B60155
:1056A0000E94C0334B015C01609198027091990295
:1056B00080E090E00E94B2329B01AC01C501B401D0
:1056C0000E94B5331816E4F4609196027091970227
:1056D00080E090E00E94B2322AE037ED43E25CE3E2
:1056E0000E94C033A70196010E9419326B017C0110
:1056F0000AC0C12CD12C40E8E42E4FE3F42E03C0A5
:10570000C12CD12C760180916002882331F0609108
:10571000A10270E080E090E007C0609194027727DA
:1057200067FD7095872F972F0E94B432A7019601CD
:105730000E94C0330E9486327093660260936502B5
:105740004FEF50E060E070E080916502909166025A
:105750000E943406909366028093650280915F02F6
:10576000882331F06091A20270E080E090E007C0F1
:1057700060919502772767FD7095872F972F0E947C
:10578000B432A70196010E94C0330E948632709302
:105790006402609363024FEF50E060E070E080913C
:1057A0006302909164020E94340690936402809395
:1057B00063021F910F91FF90EF90DF90CF90BF9009
:1057C000AF909F908F9008950C9466370C946E372D
:1057D00008950F931F93CF93DF93E62FF0E0E35BE1
:1057E000FC4FDF01AB5ABF4F0C91AB5ABF4F1C911E
:1057F000282F30E0E901CC0FDD1FC20FD31FC65C9C
:10580000DE4F688180810E948D056981802F0E9412
:105810008D056A81812FDF91CF911F910F910C949B
:105820008D050F931F93CF93DF930DE413E0C0E03A
:10583000D0E0BE01882777FD8095982F0E94B43272
:105840009B01AC010E94383120E030E040E85BE38E
:105850000E94C0332BED3FE049E450E40E94C03386
:105860000E94233420E030E04EEF52E40E94C03327
:105870000E948132F80161938F012196C115F1E0F8
:10588000DF07B9F6DF91CF911F910F9108950C9426
:10589000112C40E050E060E080E00E94E92B40E005
:1058A00050E060E080E00C94E92B089590917C003A
:1058B000907F90937C0090917C00982B90937C003B
:1058C00080917A00806480937A0080917A0086FDCE
:1058D000FCCF8091780090917900089580936902BF
:1058E0001F928F9387E595E09F938F9382E695E0D3
:1058F0009F938F930E9406050F900F900F900F902B
:105900000F900F9008958EE69CE20E945E0484E35F
:1059100095E09F938F93C2E6D5E0DF93CF930E94EB
:10592000060583E295E09F938F93DF93CF930E94C8
:1059300006050E94C10385E195E09F938F93DF9355
:10594000CF930E9406050E945305789487E095E066
:105950009F938F93C2E6D5E0DF93CF930E94060515
:105960000E94472C0E94492C82EF94E09F938F93D2
:10597000DF93CF930E9406050E94CC138DEC94E038
:105980009F938F93DF93CF930E9406050E949E08FA
:105990008FEB94E09F938F93DF93CF930E94060544
:1059A0000E94000C89EA94E09F938F93DF93CF933A
:1059B0000E9406058DB79EB780960FB6F8949EBFDD
:1059C0000FBE8DBF0E94020C8823E9F188E994E0A4
:1059D0009F938F93DF93CF930E9406050F900F90B4
:1059E0000F900F908091A3028823C9F183E794E080
:1059F0009F938F93DF93CF930E9406050E94AB087D
:105A00008091A9028F938091A8028F938091A70221
:105A10008F938091A6028F938091A5028F9380919E
:105A2000A4028F938DE494E09F938F93DF93CF93A1
:105A30000E9406058DB79EB70E960FB6F8949EBFCE
:105A40000FBE8DBF0CC08AE394E09F938F93DF93CA
:105A5000CF930E9406050F900F900F900F908DE14D
:105A600094E09F938F93C2E6D5E0DF93CF930E949B
:105A700006050E94310A8EE094E09F938F93DF9396
:105A8000CF930E9406050E94980A8DEF93E09F93A2
:105A90008F93DF93CF930E9406050E94351683EE05
:105AA00093E09F938F93DF93CF930E9406058DB76A
:105AB0009EB740960FB6F8949EBF0FBE8DBF0E9452
:105AC0000A19FDCFCF93DF9341E153E065E473E022
:105AD00089E193E00E942E0C8EEC93E09F938F93CC
