:100000000C943B020C9458020C9458020C94580225
:100010000C9458020C9458020C9458020C945802F8
:100020000C9458020C9458020C9458020C945802E8
:100030000C9458020C94A2040C948D020C94580257
:100040000C9458020C9458020C947F030C945802A0
:100050000C9458020C9458020C9458020C945802B8
:100060000C94A6100C94580205A84CCDB2D44EB9ED
:100070003836A9020C50B9918688083CA6AAAA2A4B
:10008000BE000000803F48454C4C4F20574F524C1B
:10009000440D0A0030313233343536373839414275
:1000A000434445460064656275673A2000636F6E9D
:1000B0006669672E6779726F5F6F66667365745BDA
:1000C000782C792C7A5D3A20256C6409256C6409BA
:1000D000256C640D0A007570646174696E67206731
:1000E00079726F2063616C6962726174696F6E20EE
:1000F0006F6666736574732E2E2E0D0A0067797213
:100100006F2063616C6962726174696F6E206661F1
:10011000696C65642C207265747279696E672E2E25
:100120002E0D0A00693D256420636F756E7465723B
:100130003D256420646966663D2564206779726F99
:100140005B695D3D25642C20707265765F6779720E
:100150006F5B695D3D25640D0A006779726F3A2017
:10016000007365745F736C6565705F656E61626C6A
:1001700065643A206661696C65640D0A0073657494
:100180005F736C6565705F656E61626C65643A2073
:10019000737563636573730D0A007365745F6675C9
:1001A0006C6C5F7363616C655F616363656C5F72E8
:1001B000616E67653A206661696C65640D0A00735B
:1001C00065745F66756C6C5F7363616C655F6163BA
:1001D00063656C5F72616E67653A20737563636512
:1001E00073730D0A007365745F66756C6C5F73637F
:1001F000616C655F6779726F5F72616E67653A20E7
:100200006661696C65640D0A007365745F66756C80
:100210006C5F7363616C655F6779726F5F72616E4B
:1002200067653A20737563636573730D0A007365C0
:10023000745F636C6F636B5F736F757263653A2095
:100240006661696C65640D0A007365745F636C6F49
:10025000636B5F736F757263653A20737563636573
:1002600073730D0A00290D0A006D70753630353034
:100270005F746573743A20283078006D707536307D
:1002800035303A2000616E676C655B524F4C4C2CE8
:1002900050495443485D3A2025642025640D0A00E6
:1002A000656E7465725F73746174653A2047494D79
:1002B0005F49444C450D0A00656E7465725F746158
:1002C000736B3A20524541444143430D0A0067692C
:1002D0006D62616C3A20000D0A00256409002564F6
:1002E000090025640900616363656C657261746966
:1002F0006F6E20782F792F7A3A09007374617274C7
:10030000696E67206C6F6F702E2E2E0D0A00676964
:100310006D62616C5F696E69742E2E2E0D0A006924
:100320006E69745F706964732E2E2E0D0A00696EFB
:1003300069745F73656E736F725F6F7269656E74F7
:100340006174696F6E2E2E2E0D0A00696D75207412
:10035000657374206661696C6564210D0A00636FC2
:100360006E6669672E6779726F5F6F666673657414
:100370005B782C792C7A5D3A202564202564202531
:10038000640D0A0072756E6E696E67206779726F10
:10039000206F66667365742063616C696272617454
:1003A000696F6E2E2E2E0D0A00696D7520746573AF
:1003B0007420706173732E0D0A0072756E6E696E13
:1003C0006720696D7520746573742E2E2E0D0A00DA
:1003D000696D755F696E69742E2E2E0D0A00696E47
:1003E000697469616C697A696E67207265736F6C94
:1003F0007574696F6E20646976696465722E2E2E3D
:100400000D0A006A6F696E696E6720693263206247
:1004100075732E2E2E0D0A00626C635F696E69740F
:100420002E2E2E0D0A0070776D5F696E69742E2E68
:100430002E0D0A0062727573686C657373206769AC
:100440006D62616C20737461727465642E2E2E0D62
:100450000A00636F6E6669675F696E69742E2E2E7F
:100460000D0A00696E7075743D25630D0A006D619B
:10047000696E3A20000011241FBECFEFD8E0DEBF26
:10048000CDBF11E0A0E0B1E0E4ECF0E402C00590E3
:100490000D92A234B107D9F724E0A2E4B1E001C083
:1004A0001D92A130B207E1F70E9442170C94602020
:1004B0000C94000084B5826084BD8DE787BD85B54E
:1004C000836085BD82E080936E0008956091320262
:1004D00070913302809134029091350208950F9308
:1004E0001F93009132021091330220913402309117
:1004F0003502600F711F821F931F0091320210910D
:10050000330220913402309135026017710782075F
:10051000930798F71F910F9108951F920F920FB6AE
:100520000F9211248F939F93AF93BF9380913202C8
:1005300090913302A0913402B09135020196A11D31
:10054000B11D8093320290933302A0933402B09392
:100550003502BF91AF919F918F910F900FBE0F9079
:100560001F9018958091320290913302A09134022D
:10057000B09135020196A11DB11D80933202909376
:100580003302A0933402B0933502089580E29EE4D2
:10059000A0E0B0E080933A0290933B02A0933C022B
:1005A000B0933D0240E157E260E070E040933E02CC
:1005B00050933F02609340027093410240E45CE933
:1005C00060E070E040934202509343026093440223
:1005D000709345028093460290934702A09348028D
:1005E000B093490280E49FE1A0E0B0E080934A022A
:1005F00090934B02A0934C02B0934D0280E395E799
:10060000A0E0B0E080934E0290934F02A09350027E
:10061000B093510287E090E090935302809352028E
:1006200010925502109254021092570210925602E4
:1006300021E0209358028FEF8093590210925A02C2
:1006400020935B0230E530935C0230935D0280E2E0
:1006500093E090935F0280935E0288E592E090932E
:1006600061028093600210926202209363022093E1
:100670006402209365021092660210926702109243
:1006800068023093690230936A0220936B020895E6
:10069000CF93C09178026EE38AE392E00E94BA069B
:1006A000C81739F06EE38AE392E00E94BA0680939D
:1006B0007802CF9108956EE38AE392E00E94BA0631
:1006C0008093780208951092C50023E32093C4001C
:1006D000E1ECF0E0208120682083208128612083E4
:1006E000E2ECF0E020812660208390937C028093EE
:1006F0007B0260E070E087EC93E00C94D51B1F92C6
:100700000F920FB60F9211242F933F934F935F9345
:100710006F937F938F939F93AF93BF93EF93FF93C9
:100720008091C600E0917B02F0917C02309709F045
:100730000995FF91EF91BF91AF919F918F917F911B
:100740006F915F914F913F912F910F900FBE0F903E
:100750001F90189590937C0280937B02089590934C
:100760007A02809379020895FC018191882339F0FF
:100770009091C00095FFFCCF8093C600F6CF0895FE
:100780009091C00095FFFCCF8093C6000895CF9351
:10079000C82F0E94C003E0917902F0917A0230974D
:1007A00011F08C2F099580E090E0CF910895E82F0B
:1007B000E295EF70F0E0EC56FF4FE4919091C000AD
:1007C00095FFFCCFE093C6008F70E82FF0E0EC5669
:1007D000FF4FE4918091C00085FFFCCFE093C600FD
:1007E0000895EF92FF920F931F93CF93DF938C01A5
:1007F0007B01EC01CE01801B910B8E159F0524F42B
:1008000089910E94D703F6CFDF91CF911F910F916D
:10081000FF90EF900895CF93DF93CDB7DEB7AE0191
:10082000475F5F4F6F8178858091F9039091FA035C
:100830000E94421CDF91CF91089586E890E09F933B
:100840008F9385EA90E09F938F930E940B040F9003
:100850000F900F900F9093E48091C00085FD03C02E
:100860009093C600F9CF2FEF84E39CE021508040A5
:100870009040E1F700C0000080E58093C6002FEFB4
:1008800084E39CE0215080409040E1F700C00000EC
:1008900088E48093C6002FEF84E39CE021508040E1
:1008A0009040E1F700C000000895109248011092B6
:1008B0004701539A559A569A219A229A239A91EA75
:1008C00094BD81E085BD90938000809381009093DA
:1008D000B0008093B10080936F00789417BC18BC6F
:1008E000109289001092880010928B0010928A005A
:1008F0001092B3001092B4000895611103C0809368
:1009000048010895613019F48093470108956230D9
:1009100019F4809346010895633019F480934501DA
:100920000895643019F4809344010895653011F4FA
:10093000809343010895809142018F7111F40C94CA
:10094000B20208951F920F920FB60F9211242F93A7
:100950003F934F935F936F937F938F939F93AF9347
:10096000BF93EF93FF93809142018F5F8093420189
:1009700080914201803209F58091480187BD8091C4
:10098000470188BD8091430190E090938900809356
:1009900088008091440190E090938B0080938A00BE
:1009A000809145018093B300809146018093B4000B
:1009B0001092420181E0809302020E949B04FF9109
:1009C000EF91BF91AF919F918F917F916F915F91C7
:1009D0004F913F912F910F900FBE0F901F90189540
:1009E0002FE788E391E0215080409040E1F700C07C
:1009F0000000089588E08AB98EE084B980910A01E8
:100A00008093810280937D028093820280937E0294
:100A10008093830280937F0280938402809380027C
:100A200081E085BB80936E0085BD0895089508958B
:100A3000681779072CF4481759071CF4CA01089560
:100A4000CB010895681779072CF4481759071CF44F
:100A5000CA010895CB010895EF92FF920F931F935F
:100A6000261737074807590744F4E616F70608071C
:100A700019072CF4C801B70102C0CA01B9011F91BE
:100A80000F91FF90EF9008954F925F926F927F9237
:100A90008F929F92AF92BF92CF92DF92EF92FF928E
:100AA0006B017C014B015C01E894B7F82BED3FE052
:100AB00049E45FE30E94A61A2B013C0120E030E0EC
:100AC00040E85FE3C501B4010E94EE189B01AC0150
:100AD000C701B6010E94A61A6B017C012BE438EC19
:100AE00047E85DE3C501B4010E94A61A23EA32E992
:100AF0004AE75EE30E94EF189B01AC01C701B60113
:100B00000E94A61A9B01AC01C301B2010E94EE181B
:100B1000FF90EF90DF90CF90BF90AF909F908F901D
:100B20007F906F905F904F9008958F929F92AF92B9
:100B3000BF92CF92DF92EF92FF92CF93DF934B0160
:100B40005C0169017A019F775F77D1E00E94A21A68
:100B500018160CF0D0E020E030E0A901C501B40186
:100B60000E94A21A87FD0AC0C1E020E030E0A9017E
:100B7000C701B6010E94531918160CF4C0E020E01A
:100B800030E0A901C501B4010E945319181694F070
:100B900020E030E0A901C701B6010E9453191816E0
:100BA000ECF520E030E0A901C701B6010E94A21ACD
:100BB00087FFC3E0DD2329F0A5019401C701B60139
:100BC00004C0A7019601C501B4010E9457190E94F3
:100BD0004405DD2381F09B01AC01C23039F0C33004
:100BE00029F06BED7FE089EC9FE315C06BED7FE0B2
:100BF00089EC9FEB10C0C13039F0C23089F42BED85
:100C00003FE049E450E407C02BED3FE049E450E405
:100C10000E94EF1805C00E94EE1802C0C2E0C1CFCA
:100C2000DF91CF91FF90EF90DF90CF90BF90AF908A
:100C30009F908F9008950E94950527EC3FEC4FE51B
:100C400057E40E94A61A0E94C41908958F929F9299
:100C5000AF92BF92CF92DF92EF92FF920F931F93CA
:100C6000CF93DF93EC01CB01BA0148015901C88051
:100C7000D980EA80FB80A70196010E94EE18A501A9
:100C800094010E94A61A9B01AC01C701B6010E9403
:100C9000EF18688379838A839B83DF91CF911F91BB
:100CA0000F91FF90EF90DF90CF90BF90AF909F900B
:100CB0008F9008958F929F92AF92BF92CF92DF92C2
:100CC000EF92FF920F931F93CF93DF93EC01CB0131
:100CD000BA016801790188849984AA84BB84A5013A
:100CE00094010E94EE18A70196010E94A61A9B018A
:100CF000AC01C501B4010E94EF18688779878A8723
:100D00009B878C809D80AE80BF80A50194010E944E
:100D1000EE18A70196010E94A61A9B01AC01C5011D
:100D2000B4010E94EF186C837D838E839F8388803B
:100D30009980AA80BB80A50194010E94EE18A701AA
:100D400096010E94A61A9B01AC01C501B4010E9444
:100D5000EF18688379838A839B83DF91CF911F91FA
:100D60000F91FF90EF90DF90CF90BF90AF909F904A
:100D70008F900895282FFC0180E09E2F921B9617DC
:100D800038F49191892798E0880F9150E9F7F5CFD1
:100D900008954F925F926F927F928F929F92AF923F
:100DA000BF92CF92DF92EF92FF920F931F93CF9358
:100DB000DF9300D000D0CDB7DEB72B013C012983F3
:100DC0003A834B835C83F401AE18BF08C00AD10A92
:100DD000AD8DBE8DA60195010E94B5189B01AC0199
:100DE000C301B2010E947B18613629E772072EEF1A
:100DF00082072FEF920764F0603A36E8730731E01C
:100E00008307910554F080EA96E8A1E0B0E007C0BE
:100E100080E699E7AEEFBFEF02C0DC01CB01E080D6
:100E2000F18002811381E80EF91E0A1F1B1FE08268
:100E3000F18202831383298D3A8D4B8D5C8DC6011F
:100E4000B5010E947B182B013C014E0C5F1C601EFB
:100E5000711EEF89F88D80819181A281B381A601F5
:100E60009501281B390B4A0B5B0BCA01B9012F8D69
:100E700038A149A15AA10E947B189B01AC0169814C
:100E80007A818B819C810E947B18460E571E681EBA
:100E9000791EA082B182C282D382C301B20120E056
:100EA00030E840E050E00E948B18CA01B9010F9071
:100EB0000F900F900F90DF91CF911F910F91FF90A6
:100EC000EF90DF90CF90BF90AF909F908F907F90EA
:100ED0006F905F904F900895FC012081FB0130815D
:100EE000FC013083FB0120830895FC0120813181C6
:100EF000FB0140815181FC0151834083FB0131831F
:100F00002083089580E090E0A3E0B3E4809336026C
:100F100090933702A0933802B093390208952F922C
:100F20003F925F926F927F928F929F92AF92BF9209
:100F3000CF92DF92EF92FF920F931F93CF93DF93A5
:100F4000CDB7DEB768970FB6F894DEBF0FBECDBF42
:100F50000E94970B60ED77E080E090E00E946F02C6
:100F60007E0143E1E40EF11C00EA1FE0512C8AE50A
:100F7000282E81E0382E003A8FE0180781F0AE016C
:100F80004F5E5F4FBE01615F7F4FCE010D960E94A5
:100F9000100BFE013D96D70180E090E02DC06CEB78
:100FA00072E080E090E00E946F02AE014F5E5F4F02
:100FB000BE01615F7F4FCE010D960E94100B19821A
:100FC0001A821B821C828D859E859C8B8B8B1D8239
:100FD0001E821F8218868F8598899E8B8D8B19861D
:100FE0001A861B861C8689899A89988F8F8BC7CF12
:100FF00001968330910561F1B82EA92E6D917D91F6
:10100000819091909B0128193909690137FF04C02B
:10101000CC24DD24C21AD30A41E4C416D10444F31B
:1010200053947F936F939F928F923F932F931F932D
:101030000F93AF92BF92A4E2B1E0BF93AF933F9200
:101040002F920E940B040FB6F894DEBF0FBECDBFE7
:10105000DE0111965D013701FE013D966F01D6015B
:101060008D909D906D01B401882777FD8095982F14
:101070000E94F21920E030E04AE755E40E94571937
:101080009B01AC01F50160817181828193810E9495
:10109000EF18D5016D937D938D939D935D01F301C1
:1010A000819291923F01CE14DF04C9F601501109DB
:1010B00015147CF48DEF90E09F938F938AE591E077
:1010C0009F938F930E940B040F900F900F900F909F
:1010D0004BCF0115110509F04ECF69817A818B81C3
:1010E0009C810E94BF1970936D0260936C026D81A8
:1010F0007E818F8198850E94BF1970936F026093E3
:101100006E0269857A858B859C850E94BF197093D4
:1011100071026093700286ED90E09F938F930AE5D1
:1011200011E01F930F930E940B04809171028F9323
:10113000809170028F9380916F028F9380916E02E5
:101140008F9380916D028F9380916C028F938DEAC3
:1011500090E09F938F931F930F930E940B040E9424
:10116000E40A0FB6F894DEBF0FBECDBF68960FB687
:10117000F894DEBF0FBECDBFDF91CF911F910F91CD
:10118000FF90EF90DF90CF90BF90AF909F908F90A7
:101190007F906F905F903F902F900895CF93DF9353
:1011A00000D000D000D0CDB7DEB764EF71E080E0B2
:1011B00090E00E946F02AE014B5F5F4FBE016D5F1A
:1011C0007F4FCE0101960E94120B62E070E080E03A
:1011D00090E0EFCF10920B0191E090930E0182E02E
:1011E00080931101909314011092170180931A01BA
:1011F00081E090E090930D0180930C012FEF3FEF81
:101200003093100120930F019093130180931201EA
:101210009093160180931501909319018093180102
:1012200090931C0180931B0108950E94EA0880910D
:101230006502882361F180911B0190911C019195B9
:101240008195910990931C0180931B018091150158
:101250009091160191958195910990931601809333
:10126000150180910F01909110019195819591093F
:101270009093100180930F018091120190911301BE
:10128000919581959109909313018093120180911A
:101290006602882381F180910B0190910E01909359
:1012A0000B0180930E0180910C0190910D01209112
:1012B0000F013091100130930D0120930C01909398
:1012C000100180930F018091140190911701909368
:1012D00014018093170180911501909116012091BE
:1012E0001801309119013093160120931501909344
:1012F00019018093180108954F925F926F927F9227
:101300008F929F92AF92BF92CF92DF92EF92FF9215
:101310006091460270914702809148029091490283
:101320002AE0422E512C612C712CA30192010E94C3
:101330008B18209391023093920240939302509322
:10134000940260914A0270914B0280914C029091FC
:101350004D0238EE832E33E0932EA12CB12CA50143
:1013600094010E948B18209395023093960240932B
:1013700097025093980260914E0270914F028091B3
:1013800050029091510244ECC42E49E0D42EE12C3D
:10139000F12CA70196010E948B182093990230939B
:1013A0009A0240939B0250939C0260913A02709182
:1013B0003B0280913C0290913D02A30192010E9468
:1013C0008B182093850230938602409387025093B6
:1013D000880260913E0270913F028091400290919C
:1013E0004102A50194010E948B1820938902309339
:1013F0008A0240938B0250938C026091420270915A
:1014000043028091440290914502A70196010E94F7
:101410008B1820938D0230938E0240938F0250934D
:101420009002FF90EF90DF90CF90BF90AF909F9091
:101430008F907F906F905F904F900895EF92FF9202
:101440000F931F93CF93DF93CDB7DEB72C970FB6D3
:10145000F894DEBF0FBECDBF8E01095F1F4FAE01F6
:10146000455F5F4FBE01675F7F4FC8010E94120B4F
:1014700080911401FE013196E80FF11DE80FF11D76
:101480008F8198852091720230917302821B930B99
:101490009183808380911701FE013196E80FF11D41
:1014A000E80FF11D89859A852091740230917502AB
:1014B000821B930B9183808380911A01FE013196E8
:1014C000E80FF11DE80FF11D8B859C8520917602B8
:1014D00030917702821B930B91838083CE0101961A
:1014E0007C01A5E1B1E089E591E0F701619171919D
:1014F0007F014D915C911197649F9001659F300D24
:10150000749F300D1124FC0121933193CF01139668
:10151000E016F10651F72C960FB6F894DEBF0FBE19
:10152000CDBFDF91CF911F910F91FF90EF90089564
:10153000CF92DF92EF92FF920F931F93CF93DF939F
:10154000C9E5D1E00DE411E0C12CD12C76016991FF
:101550007991882777FD8095982F0E94F219F801DC
:1015600061937193819391938F019B01AC010E94D0
:10157000A61A9B01AC01C701B6010E94EF186B01CE
:101580007C01F1E0CF35DF0711F720E030E048ECD7
:1015900052E40E94A61A20E030E040E851E30E94A5
:1015A000A61AAB01BC010DEC1CEC2CEC3CE389E46D
:1015B00091E00E942606DF91CF911F910F91FF903D
:1015C000EF90DF90CF9008950C94B70D0C94F20D2E
:1015D000EF92FF920F931F930E94240E1F910F9181
:1015E000FF90EF9008958F929F92AF92BF92CF920B
:1015F000DF92EF92FF920F931F93CF93DF93CDB7BC
:10160000DEB70E949E0EDF91CF911F910F91FF9048
:10161000EF90DF90CF90BF90AF909F908F90089504
:101620000C94180F0C94690FCF93DF9300D000D067
:1016300000D0CDB7DEB7AE014B5F5F4FBE016D5F2F
:101640007F4FCE0101960E94180F89819A812091C7
:101650006C0230916D02821B930B9A8389838B817C
:101660009C8120916E0230916F02821B930B9C83B0
:101670008B838D819E812091700230917102821B3B
:10168000930B9E838D8380910B01FE013196E80FB1
:10169000F11DE80FF11D4081518120910C01309125
:1016A0000D01429FC001439F900D529F900D112448
:1016B000909374018093730180910E01FE01319625
:1016C000E80FF11DE80FF11D4081518120910F01BC
:1016D00030911001429FC001439F900D529F900D89
:1016E0001124909376018093750180911101FE0180
:1016F0003196E80FF11DE80FF11D408151812091D5
:10170000120130911301429FC001439F900D529FDF
:10171000900D1124909378018093770126960FB64F
:10172000F894DEBF0FBECDBFDF91CF91089586E064
:101730000C940D0F2F923F924F925F926F927F9277
:101740008F929F92AF92BF92CF92DF92EF92FF92D1
:101750000F931F93CF93DF9300D000D0CDB7DEB7A8
:101760008C011B01FC0180809180A280B380C48029
:10177000D580E680F7804084518462847384FB01C5
:101780002081318142815381C501B4010E94A61A92
:1017900069837A838B839C83F1012481358146811F
:1017A0005781C701B6010E94A61A9B01AC0169814D
:1017B0007A818B819C810E94EF189B01AC01C3014F
:1017C000B2010E94EE18F8016087718782879387C3
:1017D000F1012081318142815381C301B2010E9414
:1017E000A61A69837A838B839C83F10120853185D6
:1017F00042855385C701B6010E94A61A9B01AC0120
:1018000069817A818B819C810E94EE189B01AC01D9
:10181000C501B4010E94EF18F801608371838283CF
:101820009383F1012481358146815781C301B2013F
:101830000E94A61A2B013C01F101208531854285C9
:101840005385C501B4010E94A61A9B01AC01C301D6
:10185000B2010E94EF189B01AC01C701B6010E94C2
:10186000EF18F80164837583868397830F900F9038
:101870000F900F90DF91CF911F910F91FF90EF90FC
:10188000DF90CF90BF90AF909F908F907F906F90A0
:101890005F904F903F902F9008954F925F926F927C
:1018A0007F928F929F92AF92BF92CF92DF92EF92F0
:1018B000FF920F931F93CF93DF93CDB7DEB72C9793
:1018C0000FB6F894DEBF0FBECDBF83E7A82E81E030
:1018D000B82ECE0101967C0100E010E04C019FE3A0
:1018E000492E2EE9522E36E0632E4BE4742E56E23A
:1018F000C52E51E0D52EF501619171915F018827C8
:1019000077FD8095982F0E94F21920E030E0A90120
:101910000E94A61AF70161937193819391937F01BD
:101920004F925F926F927F921F930F93DF92CF92AD
:101930000E94201C0F5F1F4F0FB6F894DEBF0FBE32
:10194000CDBF03301105B9F6B40187E691E00E94DE
:101950009A0B2C960FB6F894DEBF0FBECDBFDF9169
:10196000CF911F910F91FF90EF90DF90CF90BF909C
:10197000AF909F908F907F906F905F904F90089561
:1019800008954F925F926F927F928F929F92AF9243
:10199000BF92CF92DF92EF92FF920F931F93CF935C
:1019A000DF938090560290905702AA2497FCA0944F
:1019B000BA2CCFE6D1E0688179818A819B810BE6E0
:1019C00011E0F801C080D180E280F3809B01AC017E
:1019D0000E94A61A2B013C01A7019601C701B6017E
:1019E0000E94A61A9B01AC01C301B2010E94EF182C
:1019F0000E94131B9B01AC0160916701709168010B
:101A00008091690190916A010E941B06680D791D01
:101A10008A1D9B1D60935F0170936001809361013B
:101A200090936201C0905402D0905502EE24D7FCEE
:101A3000E094FE2C288139814A815B81F801608124
:101A40007181828193810E941B066C0D7D1D8E1D0C
:101A50009F1D60936301709364018093650190936F
:101A60006601DF91CF911F910F91FF90EF90DF9072
:101A7000CF90BF90AF909F908F907F906F905F902E
:101A80004F9008950F93082F23E042E06BE680917A
:101A90001D010E945D13882319F089E492E002C0C1
:101AA0008EE292E09F938F938BE792E09F938F93C8
:101AB0000E940B040F900F900F900F900F910895BC
:101AC0000F93082F22E044E06BE180911D010E94FA
:101AD0005D13882319F089E092E002C085EE91E061
:101AE0009F938F938BE792E09F938F930E940B04B9
:101AF0000F900F900F900F900F9108950F93082F54
:101B000022E044E06CE180911D010E945D13882376
:101B100019F08FEB91E002C08AE991E09F938F93D7
:101B20008BE792E09F938F930E940B040F900F908E
:101B30000F900F900F910895282F46E06BE680914B
:101B40001D010E942A13882319F08DE791E002C03D
:101B500081E691E09F938F938BE792E09F938F9321
:101B60000E940B040F900F900F900F90089581E04A
:101B70000E94420D80E00E94600D80E00E947E0D78
:101B800080E00C949C0DEF92FF920F931F93CF93E4
:101B9000DF93CDB7DEB72E970FB6F894DEBF0FBE3A
:101BA000CDBF8E010F5F1F4F8EE0F80111928A9515
:101BB000E9F788EEE82E83E0F82E26E046E065E7B8
:101BC00080911D010E94C81389812E960FB6F8944A
:101BD000DEBF0FBECDBFDF91CF911F910F91FF9060
:101BE000EF9008950F931F93CF93DF931F92CDB77C
:101BF000DEB70E94C30D898389E692E09F938F939D
:101C00000BE712E01F930F930E940B0461E070E05A
:101C1000CE0101960E94F10385E692E09F938F9397
:101C20001F930F930E940B0481E00FB6F894DEBF60
:101C30000FBECDBF9981943309F080E00F90DF9102
:101C4000CF911F910F9108954F925F926F927F9263
:101C50008F929F92AF92BF92CF92DF92EF92FF92BC
:101C60000F931F93CF93DF93CDB7DEB72E970FB6A9
:101C7000F894DEBF0FBECDBF6C015B012A013901B4
:101C800048019E012F5F3F4F8EE0F90111928A9526
:101C9000E9F708EE13E04EE06BE380911D010E942E
:101CA0007A12898190E0982F88272A81822BF60169
:101CB000918380838B8190E0982F88272C81822BC1
:101CC000F501918380838D8190E0982F88272E8164
:101CD000822BF20191838083898590E0982F882759
:101CE0002A85822BF301918380838B8590E0982F46
:101CF00088272C85822BF401918380838D8590E049
:101D0000982F88272E85822BF701918380832E962A
:101D10000FB6F894DEBF0FBECDBFDF91CF911F91FC
:101D20000F91FF90EF90DF90CF90BF90AF909F907A
:101D30008F907F906F905F904F9008956F927F92F9
:101D40008F929F92AF92BF92CF92DF92EF92FF92CB
:101D50000F931F93CF93DF93CDB7DEB72E970FB6B8
:101D6000F894DEBF0FBECDBFFE013196AEE01192FA
:101D7000AA95E9F70E94240E42E067E380911D01D5
:101D80000E941A138FE19EE40197F1F700C0000052
:101D900041E06AE08CE00E941A13EFE1FEE4319723
:101DA000F1F700C0000008EE13E09E012F5F3F4FE7
:101DB00046E063E08CE00E947A128A8190E0982FDE
:101DC00088272981822BF601918380838C8190E082
:101DD000982F88272B81822BF501918380838E8118
:101DE00090E0982F88272D81822BF40191838083A6
:101DF0002E960FB6F894DEBF0FBECDBFDF91CF9108
:101E00001F910F91FF90EF90DF90CF90BF90AF9018
:101E10009F908F907F906F9008950F93082F23E0ED
:101E200042E06AE180911D010E945D130F910895C7
:101E3000AF92BF92CF92DF92EF92FF920F931F93D8
:101E4000CF93DF93CDB7DEB72E970FB6F894DEBFF2
:101E50000FBECDBF5C016B017A019E012F5F3F4F2A
:101E60008EE0F90111928A95E9F708EE13E046E059
:101E700063E480911D010E947A12298130E0322FA3
:101E800022278A81282BF501318320838B8190E0E2
:101E9000982F88272C81822BF601918380838D8156
:101EA00090E0982F88272E81822BF70191838083E1
:101EB0002E960FB6F894DEBF0FBECDBFDF91CF9147
:101EC0001F910F91FF90EF90DF90CF90BF90AF9058
:101ED0000895AF92BF92CF92DF92EF92FF920F934D
:101EE0001F93CF93DF93CDB7DEB72E970FB6F8943D
:101EF000DEBF0FBECDBF5C016B017A019E012F5F7B
:101F00003F4F8EE0F90111928A95E9F708EE13E050
:101F100046E06BE380911D010E947A12298130E036
:101F2000322F22278A81282BF501318320838B8150
:101F300090E0982F88272C81822BF6019183808353
:101F40008D8190E0982F88272E81822BF701918335
:101F500080832E960FB6F894DEBF0FBECDBFDF9103
:101F6000CF911F910F91FF90EF90DF90CF90BF9096
:101F7000AF9008951092E60181E08093E401109201
:101F8000E301E9EBF0E080818E7F808380818D7FAB
:101F9000808380E28093B80085E48093BC0008953C
:101FA000880F8093BA000895413208F03FC09091A5
:101FB000E6019111FCCF91E09093E6012093E401BA
:101FC0002FEF209379011092BE01240F2093BD01C1
:101FD0009093E5019091E501880F892B8093E501AD
:101FE0008091E301813041F41092E3018091E50199
:101FF0008093BB0085EC01C085EE8093BC0080918E
:10200000E6018130E1F38091BE01841710F4409124
:10201000BE012FEB31E0FB01D9018A2F821B84170F
:1020200018F48D918193F9CF842F089580E008955D
:102030000F93413208F046C09091E6019111FCCF18
:1020400092E09093E6010093E4019FEF9093790171
:102050001092BE014093BD01FB016FEB71E0DB010B
:102060009A2F961B941718F491919D93F9CF109283
:10207000E5019091E501880F892B8093E50180911E
:10208000E301813041F41092E3018091E5018093F6
:10209000BB0085EC01C085EE8093BC00222321F0BB
:1020A0008091E6018230E1F3809179018F3F61F008
:1020B00080917901803251F080917901803341F42F
:1020C00083E007C081E005C080E003C082E001C07A
:1020D00084E00F910895613298F42091E601243054
:1020E00089F460939B01FC018DE991E0DC012A2FCA
:1020F000281B261718F421912D93F9CF80E008951D
:1021000081E0089582E008959093E0018093DF01DB
:1021100008959093E2018093E1010895882311F0DE
:1021200085EC01C085E88093BC00089585ED80931F
:10213000BC008091BC0084FDFCCF1092E6010895A4
:1021400085EC8093BC001092E60108951F920F92D7
:102150000FB60F9211242F933F934F935F936F937A
:102160007F938F939F93AF93BF93EF93FF93809150
:10217000B900887F803609F49CC068F5883209F47C
:102180005BC090F4803109F454C038F4882309F41A
:10219000F5C0883009F44DC0F5C0883109F44CC051
:1021A000803209F45DC0EEC0803409F468C048F4A0
:1021B000803309F455C0883309F0E4C08093790175
:1021C000A8C0803509F44FC0883509F45DC0883453
:1021D00009F0D8C0D5C0883909F4C6C0A8F488373A
:1021E00009F467C038F4883609F463C0803709F40D
:1021F00060C0C8C0883809F4B7C0803909F45FC02E
:10220000803809F0BFC05BC0803B09F485C038F45A
:10221000803A09F466C0883A09F47EC0B3C0803CB5
:1022200009F4A6C0883C09F4A3C0883B09F489C01E
:10223000A9C08091E50110C09091BE018091BD01BF
:10224000981770F5E091BE0181E08E0F8093BE017A
:10225000F0E0E154FE4F80818093BB0085EC85C0A7
:10226000809379018DC0E091BE0181E08E0F809353
:10227000BE018091BB00F0E0E154FE4F808390915D
:10228000BE018091BD016DC0E091BE0181E08E0F65
:102290008093BE018091BB00F0E0E154FE4F80834B
:1022A0008091E40181116CC081E08093E30184EAB4
:1022B00060C083E08093E60110927A01CFCF8091D5
:1022C0007A01803208F050C0E0917A0181E08E0FEF
:1022D00080937A018091BB00F0E0E558FE4F808347
:1022E000BDCF80917A01803230F4E0917A01F0E044
:1022F000E558FE4F10820E94961060917A0170E0BE
:10230000E091DF01F091E0018BE791E009951092F7
:102310007A010E94A01036C084E08093E6011092FA
:102320009C0110929B01E091E101F091E20109957D
:1023300080919B01811105C081E080939B011092E7
:102340009D01E0919C0181E08E0F80939C01F0E063
:10235000E356FE4F80818093BB0090919C01809159
:102360009B01981708F47ACF85E88093BC000AC0D7
:1023700085EC8093BC001092E60104C010927901B4
:102380000E949610FF91EF91BF91AF919F918F9115
:102390007F916F915F914F913F912F910F900FBE61
:1023A0000F901F9018951092EC011092EB01109273
:1023B000E9011092E8010C94BA0F0E94D00F0C941E
:1023C000D31191E09093E7018093EA011092E90123
:1023D0001092E8010895242F462F613208F040E260
:1023E0006DE972E00E94D40F1092EC018093EB0132
:1023F00008950F93082F21E04091E8016DEB72E002
:102400008091EA010E9418101092E9011092E801EF
:102410001092E7010F910895CF93DF931F92CDB7EC
:10242000DEB789838091E701882391F08091E801EC
:102430008032B0F48091E901E82FF0E0E354FD4FE1
:10244000998190838F5F8093E9018093E80105C0B3
:1024500061E0CE0101960E946B1081E090E002C025
:1024600080E090E00F90DF91CF910895EF92FF927E
:102470000F931F93CF93DF938B012091E7012223CA
:1024800059F0EC017C01E60EF71ECE15DF0531F0A8
:1024900089910E940C12F9CF0E946B10C801DF9144
:1024A000CF911F910F91FF90EF9008958091EB01D4
:1024B0009091EC01891B08959091EC018091EB01C2
:1024C000981748F4E92FF0E0E356FD4F80819F5FB5
:1024D0009093EC0108958FEF0895E091EC018091C5
:1024E000EB01E81728F4F0E0E356FD4F80810895F2
:1024F0008FEF08955F926F927F928F929F92AF922B
:10250000BF92CF92DF92EF92FF920F931F93CF93E0
:10251000DF93682E562E942EE9010E9466026B010D
:102520007C01C00ED11EE11CF11C812C712CA92C48
:10253000B12C891480F5862D0E94E111852D0E9411
:102540000C1281E00E94F911C50188199109809748
:102550001CF4692D681901C060E241E0862D0E94DB
:10256000EB110E945612882379F08E01070D111D80
:102570000E945C12F801808373940E946602C61662
:10258000D706E806F90668F7892DF0E2F91508F490
:1025900080E2880ECECF872DDF91CF911F910F91D2
:1025A000FF90EF90DF90CF90BF90AF909F908F9073
:1025B0007F906F905F9008950F931F9389019A0108
:1025C00041E00E947A121F910F910895EF92FF92BD
:1025D0000F931F93CF93DF9300D01F92CDB7DEB739
:1025E000142F2A833B8369830E94E1116981862F1E
:1025F0000E940C122A81022FE22E3B81F32E8E2D97
:10260000801B811730F4F70181917F010E940C1229
:10261000F6CF81E00E94F91191E0811190E0892FBD
:102620000F900F900F90DF91CF911F910F91FF901E
:10263000EF900895CF93DF931F92CDB7DEB7498314
:102640009E012F5F3F4F41E00E94E6120F90DF9105
:10265000CF910895EF92FF920F931F93CF93DF9343
:102660001F92CDB7DEB7182F062FF42EE22E209141
:102670001E0130911F01AE014F5F5F4F0E94DC12BF
:10268000898121E030E00F2C01C0220F0A94EAF783
:10269000EE2019F0482F422B03C0422F40954823CB
:1026A0004983602F812F0E941A130F90DF91CF91E1
:1026B0001F910F91FF90EF900895DF92EF92FF929C
:1026C0000F931F93CF93DF931F92CDB7DEB7F82EF2
:1026D000E62ED42E122F20911E0130911F01AE0143
:1026E0004F5F5F4F0E94DC12882319F14D2D50E09F
:1026F000411B51094F5F5F4FE1E0F0E002C0EE0F78
:10270000FF1F1A95E2F73197042E01C0EE0F0A94CD
:10271000EAF701C0000F4A95EAF74E2F40958981EC
:102720004823E0234E2B49836E2D8F2D0E941A13D0
:1027300001C080E00F90DF91CF911F910F91FF902A
:10274000EF90DF900895DF92EF92FF920F931F9327
:10275000CF93DF931F92CDB7DEB7D42E79019801C6
:10276000AE014F5F5F4F0E94DC1261E070E001C07C
:10277000660FDA94EAF799819623F70190830F9018
:10278000DF91CF911F910F91FF90EF90DF9008950F
:10279000CF92DF92EF92FF920F931F93CF93DF932D
:1027A0001F92CDB7DEB7C42ED22E9701AE014F5F78
:1027B0005F4F0E94DC128823F1F04C2D50E04D1940
:1027C00051094F5F5F4F61E070E002C0660F771FF5
:1027D000DA94E2F761507109042E01C0660F0A9481
:1027E000EAF72981262330E002C0359527954A95DE
:1027F000E2F7F80120830F90DF91CF911F910F91A5
:10280000FF90EF90DF90CF900895BC01882777FD6F
:102810008095982F0E94F2192EEB37E346E05BE398
:102820000E94EF189B01AC016EEB77E386E09BE31F
:102830000E9457196093190270931A0280931B0229
:1028400090931C020895CF93DF932091360230912C
:102850003702409138025091390260E070E080E820
:102860009FE30E94571920E030E044E353E40E94C4
:1028700057192BED3FE049E450E40E94A61A2EEBD5
:1028800037E346E05BE30E94A61A60932D02709343
:102890002E0280932F0290933002809152029091E9
:1028A00053020E94051480E090E0A0E8BDE480930C
:1028B0001D0290931E02A0931F02B093200210925B
:1028C00021021092220210922302109224021092EE
:1028D000250210922602109227021092280280E010
:1028E00090E0A0E8B6E48093290290932A02A09396
:1028F0002B02B0932C0288EB92E09F938F93CEEC47
:10290000D2E0DF93CF930E940B0480EA92E09F9382
:102910008F93DF93CF930E940B041092F1011092DA
:1029200003020E94660268517C4F8F4F9F4F609355
:10293000ED017093EE018093EF019093F0018DB75C
:102940009EB708960FB6F8949EBF0FBE8DBFDF915D
:10295000CF9108958F929F92AF92BF92CF92DF92C4
:10296000EF92FF920F931F9380910202882309F444
:1029700008C1109202020E94140B8091630281111F
:102980000E944D0C8091640281110E94C00C0E9433
:10299000C10C1F921F921F921F9285E892E09F9395
:1029A0008F938EEC92E09F938F930E940B04809103
:1029B000FB012DB73EB7285F3F4F0FB6F8943EBFDF
:1029C0000FBE2DBF811156C0809190028F938091D0
:1029D0008F028F9380918E028F9380918D028F93BF
:1029E00080918A028F93809189028F9380918802CF
:1029F0008F93809187028F93809186028F9380912D
:102A000085028F938CE092E09F938F9394E1892EBF
:102A100092E0992EA12CB12C6501E12CF12C8701BB
:102A200024EF31E040E050E062E070E080E090E0D0
:102A30000E94C9066093E1027093E2028093E30270
:102A40009093E40240915802552747FD5095469FC8
:102A50009001479F300D569F300D1124309307028F
:102A6000209306028DB79EB70C960FB6F8949EBFC2
:102A70000FBE8DBF8091FA01811157C080919C02D9
:102A80008F9380919B028F9380919A028F93809174
:102A900099028F93809196028F93809195028F93E4
:102AA000809194028F93809193028F9380919202F0
:102AB0008F93809191028F9388E092E09F938F9300
:102AC00080E1882E82E0982EA12CB12C6501E12CAA
:102AD000F12C870124EF31E040E050E062E070E04B
:102AE00080E090E00E94C9066093DD027093DE02F0
:102AF0008093DF029093E00240915902552747FDF1
:102B00005095469F9001479F300D569F300D1124E0
:102B100030930502209304022DB73EB7245F3F4F48
:102B20000FB6F8943EBF0FBE2DBF809118028823C8
:102B3000A1F0409100025091010260910602809143
:102B40005A020E94A9164091FE015091FF01609126
:102B5000040280915B020E94A9168091F1018823F2
:102B600029F0813029F40E94980A02C00E941E0AAE
:102B70008091F1018F5F8093F101833011F4109205
:102B8000F1011F910F91FF90EF90DF90CF90BF90D8
:102B9000AF909F908F9008958F929F92AF92BF9227
:102BA000CF92DF92EF92FF920F931F9383E00E94E8
:102BB0001517BC01882777FD8095982F0E94F21980
:102BC0002AE038E240EA5BE30E94A61A2DE534E7EA
:102BD00041EB50E40E94A61AAB01BC014093F20104
:102BE0005093F3016093F4017093F50108EB17E63D
:102BF00024EA3CE386EF91E00E942606809162027F
:102C00008823B9F1C090F601D090F701E090F80167
:102C1000F090F90120E030E048EC52E4C701B60141
:102C20000E94A61A4B015C016091600270916102E2
:102C300080E090E00E94F0199B01AC01C501B40155
:102C40000E94A21A1816E4F460915E0270915F026D
:102C500080E090E00E94F0192AE037ED43E25CE367
:102C60000E94A61AA70196010E9457196B017C01C8
:102C70000AC0C12CD12C20E8E22E2FE3F22E03C093
:102C8000C12CD12C76018091FB01882331F0609119
:102C9000690270E080E090E007C060915C027727F5
:102CA00067FD7095872F972F0E94F219A701960153
:102CB0000E94A61A0E94C419709301026093000238
:102CC0004FEF50E060E070E08091000290910102CF
:102CD0000E94180590930102809300028091FA01EE
:102CE000882331F060916A0270E080E090E007C0D4
:102CF00060915D02772767FD7095872F972F0E945F
:102D0000F219A70196010E94A61A0E94C419709395
:102D1000FF016093FE014FEF50E060E070E08091B2
:102D2000FE019091FF010E9418059093FF0180938E
:102D3000FE011F910F91FF90EF90DF90CF90BF9019
:102D4000AF909F908F9008950C94231E0C942B1E8F
:102D500008950F931F93CF93DF93E62FF0E0EB518D
:102D6000FD4FDF01AB5ABF4F0C91AB5ABF4F1C91C7
:102D7000282F30E0E901CC0FDD1FC20FD31FC05E4A
:102D8000DE4F688180810E947D046981802F0E94CE
:102D90007D046A81812FDF91CF911F910F910C9457
:102DA0007D040F931F93CF93DF9305EE12E0C0E0F5
:102DB000D0E0BE01882777FD8095982F0E94F219F8
:102DC0009B01AC010E94EF1820E030E040E251E4AA
:102DD0000E9457192BED3FE049E450E40E94A61AE7
:102DE0000E94091B20E030E04EEF52E40E94A61A38
:102DF0000E94BF19F80161938F012196CA30D10555
:102E0000C1F6DF91CF911F910F9108950C94D116C7
:102E100040E050E060E080E00E94A91640E050E011
:102E200060E080E00C94A916089590917C00907F5A
:102E300090937C0090917C00982B90937C008091E3
:102E40007A00806480937A0080917A0086FDFCCFBE
:102E500080917800909179000895809331021F92BB
:102E60008F9383E694E09F938F938EE694E09F93F5
:102E70008F930E940B040F900F900F900F900F9064
:102E80000F9008958DE297E10E94630382E594E03C
:102E90009F938F93CEE6D4E0DF93CF930E940B04F1
:102EA0000E94C60284E394E09F938F93DF93CF93B5
:102EB0000E940B0486E294E09F938F93DF93CF935D
:102EC0000E940B040E945504789488E194E09F933B
:102ED0008F93CEE6D4E0DF93CF930E940B040E9441
:102EE00006170E94081783E094E09F938F93DF9367
:102EF000CF930E940B040E94D3118EED93E09F9319
:102F00008F93DF93CF930E940B040E94820780ED82
:102F100093E09F938F93DF93CF930E940B040E94C3
:102F2000E40A8AEB93E09F938F93DF93CF930E9401
:102F30000B048DB79EB780960FB6F8949EBF0FBE58
:102F40008DBF0E94E60A8823E9F189EA93E09F9306
:102F50008F93DF93CF930E940B040F900F900F90ED
:102F60000F9080916B028823C9F184E893E09F93CE
:102F70008F93DF93CF930E940B040E948F07809161
:102F800071028F93809170028F9380916F028F9363
:102F900080916E028F9380916D028F9380916C026D
:102FA0008F938EE593E09F938F93DF93CF930E944F
:102FB0000B048DB79EB70E960FB6F8949EBF0FBE4A
:102FC0008DBF0CC08BE493E09F938F93DF93CF93DF
:102FD0000E940B040F900F900F900F908EE293E0E1
:102FE0009F938F93CEE6D4E0DF93CF930E940B04A0
:102FF0000E9415098FE193E09F938F93DF93CF9306
:103000000E940B040E947C098EE093E09F938F93B3
:10301000DF93CF930E940B040E9423148BEF92E066
:103020009F938F93DF93CF930E940B048DB79EB72E
:1030300040960FB6F8949EBF0FBE8DBF0E94AA1493
:10304000FDCFCF93DF9347EE53E063EF73E08BEE5A
:1030500093E00E94120B86EE92E09F938F93CEE650
:10306000D4E0DF93CF930E940B048091EC038F9305
:103070008091EB038F9382EE92E09F938F93DF9387
:10308000CF930E940B048091F4038F938091F303FC
:103090008F938EED92E09F938F93DF93CF930E9457
:1030A0000B048091E8038F938091E7038F938AED5F
:1030B00092E09F938F93DF93CF930E940B0487ED51
:1030C00092E09F938F93DF93CF930E940B048FEF37
:1030D00090E722E0815090402040E1F700C00000DE
:1030E0008DB79EB74A960FB6F8949EBF0FBE8DBFA0
:1030F000DF91CF910895DB018F939F930E94AA18CF
:10310000BF91AF91A29F800D911DA39F900DB29F83
:10311000900D11240895052E97FB1EF400940E9433
:10312000A21857FD07D00E94BD1807FC03D04EF42B
:103130000C94A21850954095309521953F4F4F4FD4
:103140005F4F089590958095709561957F4F8F4F53
:103150009F4F08950E94DF18A59F900DB49F900D7A
:10316000A49F800D911D11240895B7FF0C94AA18F7
:103170000E94AA18821B930B0895A1E21A2EAA1B83
:10318000BB1BFD010DC0AA1FBB1FEE1FFF1FA21717
:10319000B307E407F50720F0A21BB30BE40BF50B14
:1031A000661F771F881F991F1A9469F7609570959D
:1031B000809590959B01AC01BD01CF010895A29F20
:1031C000B001B39FC001A39F700D811D1124911DFB
:1031D000B29F700D811D1124911D08955058BB2779
:1031E000AA270ED075C166D130F06BD120F031F432
:1031F0009F3F11F41EF45BC10EF4E095E7FB51C153
:10320000E92F77D180F3BA17620773078407950710
:1032100018F071F49EF58FC10EF4E0950B2EBA2FC5
:10322000A02D0B01B90190010C01CA01A0011124CC
:10323000FF27591B99F0593F50F4503E68F11A1678
:10324000F040A22F232F342F4427585FF3CF469509
:1032500037952795A795F0405395C9F77EF41F162B
:10326000BA0B620B730B840BBAF09150A1F0FF0FF5
:10327000BB1F661F771F881FC2F70EC0BA0F621FE1
:10328000731F841F48F4879577956795B795F795D1
:103290009E3F08F0B3CF9395880F08F09927EE0F63
:1032A000979587950895D9D008F481E008950CD0BA
:1032B0000FC107D140F0FED030F021F45F3F19F08C
:1032C000F0C0511139C1F3C014D198F39923C9F357
:1032D0005523B1F3951B550BBB27AA27621773071C
:1032E000840738F09F5F5F4F220F331F441FAA1FD0
:1032F000A9F333D00E2E3AF0E0E830D09150504090
:10330000E695001CCAF729D0FE2F27D0660F771F3D
:10331000881FBB1F261737074807AB07B0E809F01F
:10332000BB0B802DBF01FF2793585F4F2AF09E3FB4
:10333000510568F0B6C000C15F3FECF3983EDCF386
:10334000869577956795B795F7959F5FC9F7880F2D
:10335000911D9695879597F90895E1E0660F771F7F
:10336000881FBB1F621773078407BA0720F0621B10
:10337000730B840BBA0BEE1F88F7E095089504D009
:103380006894B111D9C00895BCD088F09F5790F0CF
:10339000B92F9927B751A0F0D1F0660F771F881F7A
:1033A000991F1AF0BA95C9F712C0B13081F0C3D095
:1033B000B1E00895C0C0672F782F8827B85F39F033
:1033C000B93FCCF3869577956795B395D9F73EF4D9
:1033D00090958095709561957F4F8F4F9F4F089581
:1033E000E89409C097FB3EF490958095709561959F
:1033F0007F4F8F4F9F4F9923A9F0F92F96E9BB2755
:103400009395F695879577956795B795F111F8CFD0
:10341000FAF4BB0F11F460FF1BC06F5F7F4F8F4F3B
:103420009F4F16C0882311F096E911C0772321F031
:103430009EE8872F762F05C0662371F096E8862FC9
:1034400070E060E02AF09A95660F771F881FDAF720
:10345000880F9695879597F90895990F0008550F4D
:10346000AA0BE0E8FEEF16161706E807F907C0F00A
:1034700012161306E407F50798F0621B730B840B12
:10348000950B39F40A2661F0232B242B252B21F4EC
:1034900008950A2609F4A140A6958FEF811D811D8C
:1034A000089597F99F6780E870E060E008959FEFC6
:1034B00080EC089500240A941616170618060906CB
:1034C000089500240A94121613061406050608959A
:1034D000092E0394000C11F4882352F0BB0F40F422
:1034E000BF2B11F460FF04C06F5F7F4F8F4F9F4F62
:1034F000089557FD9058440F551F59F05F3F71F0E4
:103500004795880F97FB991F61F09F3F79F087954A
:103510000895121613061406551FF2CF4695F1DFD3
:1035200008C0161617061806991FF1CF8695710563
:10353000610508940895E894BB2766277727CB0197
:1035400097F908958ADF08F48FEF08950BD0C0CF64
:10355000B1DF28F0B6DF18F0952309F0A2CFA7CF8E
:103560001124EACFC6DFA0F3959FD1F3950F50E069
:10357000551F629FF001729FBB27F00DB11D639F25
:10358000AA27F00DB11DAA1F649F6627B00DA11DCB
:10359000661F829F2227B00DA11D621F739FB00D71
:1035A000A11D621F839FA00D611D221F749F3327E1
:1035B000A00D611D231F849F600D211D822F762F7A
:1035C0006A2F11249F5750408AF0E1F088234AF077
:1035D000EE0FFF1FBB1F661F771F881F91505040C3
:1035E000A9F79E3F510570F05CCFA6CF5F3FECF38B
:1035F000983EDCF3869577956795B795F795E795AF
:103600009F5FC1F7FE2B880F911D9695879597F9BF
:1036100008959F935CD00F9007FCEE5F7FC011F47C
:103620000EF445CF3EC06DDFD0F39923D9F3CEF32E
:103630009F57550B87FF43D00024A0E640EA900136
:1036400080585695979528F4805C660F771F881FE1
:1036500020F026173707480730F4621B730B840BE2
:10366000202931294A2BA695179407942025312526
:103670004A2758F7660F771F881F20F0261737074D
:10368000480730F4620B730B840B200D311D411D74
:10369000A09581F7B901842F9158880F9695879549
:1036A00008959F3F31F0915020F487957795679565
:1036B000B795880F911D9695879597F90895915024
:1036C0005040660F771F881FD2F70895F0CE19DF9C
:1036D000E8F3E894E0E0BB279F57F0F02AED3FE0E5
:1036E00049EC06C0EE0FBB0F661F771F881F28F03E
:1036F000B23A62077307840728F0B25A620B730B61
:10370000840BE3959A9572F7803830F49A95BB0F45
:10371000661F771F881FD2F79048C5CFEF93E0FF51
:1037200006C0A2EA2AED3FE049EC5FEB69DDD0DE9E
:103730000F90039401FC9058E8E6F0E000C09F93DE
:103740008F937F936F93FF93EF939B01AC01FEDE0A
:10375000EF91FF9105D02F913F914F915F91F6CE60
:10376000DF93CF931F930F93FF92EF92DF927B0132
:103770008C01689405C0DA2EEF01F4DEFE01E894B6
:10378000A5912591359145915591AEF3EF0138DD25
:10379000FE019701A801DA9479F7DF90EF90FF908E
:1037A0000F911F91CF91DF9108950F931F93CF93A6
:1037B000DF93EC018B01009731F46115710519F469
:1037C00080E090E038C06EE070E081E090E00E9420
:1037D000391EFC010097A1F380E8838301151105D0
:1037E00071F01387028781E883838091F7039091BA
:1037F000F803892B21F4F093F803E093F703209763
:10380000C9F0D187C0878381826083838091F90367
:103810009091FA03892B71F4F093FA03E093F90382
:103820008091FB039091FC03892B21F4F093FC031E
:10383000E093FB03CF01DF91CF911F910F9108958A
:10384000AEE0B0E0E6E2FCE10C9437200D891E8981
:1038500086E08C831A8309838FEF9FE79E838D8395
:10386000AE01475E5F4F6F89788DCE0101960E9451
:10387000511CEF81F885E00FF11F10822E96E4E0D5
:103880000C945320CF93DF93EC018B8188608B8362
:10389000CE010E94511C2B81277F2B83DF91CF917A
:1038A0000895ACE0B0E0E7E5FCE10C9429207C0150
:1038B0006B018A01FC0117821682838181FFBDC1E1
:1038C000CE0101964C01F7019381F60193FD85919C
:1038D00093FF81916F01882309F4ABC1853239F4DC
:1038E00093FD859193FF81916F01853229F4B70192
:1038F00090E00E94991FE7CF512C312C20E020321C
:10390000A0F48B3269F030F4803259F0833269F4DC
:1039100020612CC08D3239F0803339F4216026C00B
:103920002260246023C0286021C027FD27C030ED1D
:10393000380F3A3078F426FF06C0FAE05F9E300D6B
:103940001124532E13C08AE0389E300D1124332EDB
:1039500020620CC08E3221F426FD6BC1206406C0AB
:103960008C3611F4206802C0883641F4F60193FDCC
:10397000859193FF81916F018111C1CF982F9F7D18
:103980009554933028F40C5F1F4FFFE3F9830DC06B
:10399000833631F0833771F0833509F05BC022C084
:1039A000F801808189830E5F1F4F44244394512C7A
:1039B000540115C03801F2E06F0E711CF801A080AF
:1039C000B18026FF03C0652D70E002C06FEF7FEF6E
:1039D000C5012C870E948E1F2C0183012C852F7717
:1039E000222E17C03801F2E06F0E711CF801A08082
:1039F000B18026FF03C0652D70E002C06FEF7FEF3E
:103A0000C5012C870E947C1F2C012C852068222E4A
:103A1000830123FC1BC0832D90E048165906B0F4A7
:103A2000B70180E290E00E94991F3A94F4CFF5012B
:103A300027FC859127FE81915F01B70190E00E94EC
:103A4000991F31103A94F1E04F1A51084114510472
:103A500071F7E5C0843611F0893639F5F80127FF92
:103A600007C060817181828193810C5F1F4F08C004
:103A700060817181882777FD8095982F0E5F1F4F99
:103A80002F76B22E97FF09C090958095709561951D
:103A90007F4F8F4F9F4F2068B22E2AE030E0A40165
:103AA0000E94CB1FA82EA81844C0853729F42F7E6A
:103AB000B22E2AE030E025C0F22FF97FBF2E8F36DC
:103AC000C1F018F4883579F0B4C0803719F0883720
:103AD00021F0AFC02F2F2061B22EB4FE0DC08B2D70
:103AE0008460B82E09C024FF0AC09F2F9660B92EAB
:103AF00006C028E030E005C020E130E002C020E14F
:103B000032E0F801B7FE07C0608171818281938144
:103B10000C5F1F4F06C06081718180E090E00E5FF6
:103B20001F4FA4010E94CB1FA82EA818FB2DFF77C2
:103B3000BF2EB6FE0BC02B2D2E7FA51450F4B4FE65
:103B40000AC0B2FC08C02B2D2E7E05C07A2C2B2D6E
:103B500003C07A2C01C0752C24FF0DC0FE01EA0DB4
:103B6000F11D8081803311F4297E09C022FF06C037
:103B70007394739404C0822F867809F0739423FDA4
:103B800013C020FF06C05A2C731418F4530C571896
:103B9000732C731468F4B70180E290E02C870E94C4
:103BA000991F73942C85F5CF731410F4371801C046
:103BB000312C24FF12C0B70180E390E02C870E94D3
:103BC000991F2C8522FF17C021FF03C088E590E0D4
:103BD00002C088E790E0B7010CC0822F867859F0C8
:103BE00021FD02C080E201C08BE227FD8DE2B7011A
:103BF00090E00E94991FA51438F4B70180E390E08B
:103C00000E94991F5A94F7CFAA94F401EA0DF11D6E
:103C10008081B70190E00E94991FA110F5CF332059
:103C200009F451CEB70180E290E00E94991F3A94C6
:103C3000F6CFF7018681978102C08FEF9FEF2C9618
:103C4000E2E10C944520F999FECF92BD81BDF89A2E
:103C5000992780B50895262FF999FECF1FBA92BDF6
:103C600081BD20BD0FB6F894FA9AF99A0FBE01965D
:103C700008950F931F93CF93DF93869F8001879FB3
:103C8000100D969F100D1124C8010E94551EEC01C5
:103C9000009729F0A80160E070E00E94871FCE0124
:103CA000DF91CF911F910F910895CF93DF938230D1
:103CB000910510F482E090E0E091FF03F0910004A0
:103CC00020E030E0A0E0B0E0309739F14081518150
:103CD00048175907B8F04817590771F48281938142
:103CE000109729F013969C938E9312972CC0909363
:103CF00000048093FF0327C02115310531F04217DE
:103D0000530718F0A901DB0101C0EF019A01BD01C1
:103D1000DF010280F381E02DD7CF21153105F9F0C5
:103D2000281B390B2430310580F48A819B81611571
:103D3000710521F0FB019383828304C090930004FA
:103D40008093FF03FE01329644C0FE01E20FF31F91
:103D50008193919322503109398328833AC020916D
:103D6000FD033091FE03232B41F420910201309199
:103D700003013093FE032093FD0320910001309155
:103D800001012115310541F42DB73EB740910401E1
:103D900050910501241B350BE091FD03F091FE03CA
:103DA000E217F307A0F42E1B3F0B2817390778F012
:103DB000AC014E5F5F4F2417350748F04E0F5F1F71
:103DC0005093FE034093FD038193919302C0E0E082
:103DD000F0E0CF01DF91CF910895CF93DF9300976B
:103DE00009F487C0FC01329713821282C091FF034D
:103DF000D0910004209781F420813181280F391F50
:103E00008091FD039091FE038217930779F5F0935B
:103E1000FE03E093FD036DC0DE0120E030E0AE174D
:103E2000BF0750F412964D915C9113979D01411577
:103E3000510509F1DA01F3CFB383A28340815181A7
:103E4000840F951F8A179B0771F48D919C91119790
:103E5000840F951F02969183808312968D919C9179
:103E60001397938382832115310529F4F09300047D
:103E7000E093FF033EC0D9011396FC93EE93129793
:103E80004D915D91A40FB51FEA17FB0779F480816E
:103E90009181840F951F0296D90111969C938E9360
:103EA0008281938113969C938E931297E0E0F0E0C9
:103EB0008A819B81009719F0FE01EC01F9CFCE01B8
:103EC000029628813981820F931F2091FD03309142
:103ED000FE032817390769F4309729F4109200047B
:103EE0001092FF0302C013821282D093FE03C0938C
:103EF000FD03DF91CF910895FC0105906150704062
:103F00000110D8F7809590958E0F9F1F0895DC01C2
:103F100001C06D9341505040E0F70895FC0161509D
:103F2000704001900110D8F7809590958E0F9F1FDB
:103F300008950F931F93CF93DF93182F092FEB0151
:103F40008B8181FD03C08FEF9FEF20C082FF10C0E7
:103F50004E815F812C813D81421753077CF4E881BB
:103F6000F9819F012F5F3F4F39832883108306C05B
:103F7000E885F985812F0995892B29F72E813F81C5
:103F80002F5F3F4F3F832E83812F902FDF91CF9163
:103F90001F910F910895FA01AA27283051F120317D
:103FA00081F1E8946F936E7F6E5F7F4F8F4F9F4FCD
:103FB000AF4FB1E03ED0B4E03CD0670F781F891F0F
:103FC0009A1FA11D680F791F8A1F911DA11D6A0FDD
:103FD000711D811D911DA11D20D009F468943F9190
:103FE0002AE0269F11243019305D3193DEF6CF018F
:103FF0000895462F4770405D4193B3E00FD0C9F755
:10400000F6CF462F4F70405D4A3318F0495D31FDC1
:104010004052419302D0A9F7EACFB4E0A695979514
:10402000879577956795BA95C9F7009761057105EA
:1040300008959B01AC010A2E069457954795379534
:104040002795BA95C9F7620F731F841F951FA01D8E
:1040500008952F923F924F925F926F927F928F922C
:104060009F92AF92BF92CF92DF92EF92FF920F9307
:104070001F93CF93DF93CDB7DEB7CA1BDB0B0FB611
:10408000F894DEBF0FBECDBF09942A8839884888CE
:104090005F846E847D848C849B84AA84B984C88464
:1040A000DF80EE80FD800C811B81AA81B981CE0F5B
:1040B000D11D0FB6F894DEBF0FBECDBFED01089540
:0440C000F894FFCFA2
:1040C4000000010420002020202020000100010124
:1040D4000002010000010001010002010068E80380
:1040E40000010203040564656C74615F6779726F93
:1040F4005F616E676C655B25645D203D2025660D00
:024104000A00AF
:00000001FF
